{"abi":[{"type":"constructor","inputs":[{"name":"_registry","type":"address","internalType":"contract Registry"}],"stateMutability":"nonpayable"},{"type":"function","name":"DOMAIN_SEPARATOR","inputs":[],"outputs":[{"name":"","type":"bytes32","internalType":"bytes32"}],"stateMutability":"view"},{"type":"function","name":"GRAVITY_BRIDGE_REGISTRY_SLOT","inputs":[],"outputs":[{"name":"","type":"uint256","internalType":"uint256"}],"stateMutability":"view"},{"type":"function","name":"MAXIMUM_SHARE_LOCK_PERIOD","inputs":[],"outputs":[{"name":"","type":"uint256","internalType":"uint256"}],"stateMutability":"view"},{"type":"function","name":"MAX_FEE_CUT","inputs":[],"outputs":[{"name":"","type":"uint64","internalType":"uint64"}],"stateMutability":"view"},{"type":"function","name":"MAX_PLATFORM_FEE","inputs":[],"outputs":[{"name":"","type":"uint64","internalType":"uint64"}],"stateMutability":"view"},{"type":"function","name":"MAX_POSITIONS","inputs":[],"outputs":[{"name":"","type":"uint256","internalType":"uint256"}],"stateMutability":"view"},{"type":"function","name":"MAX_REBALANCE_DEVIATION","inputs":[],"outputs":[{"name":"","type":"uint64","internalType":"uint64"}],"stateMutability":"view"},{"type":"function","name":"MINIMUM_SHARE_LOCK_PERIOD","inputs":[],"outputs":[{"name":"","type":"uint256","internalType":"uint256"}],"stateMutability":"view"},{"type":"function","name":"PRICE_ROUTER_REGISTRY_SLOT","inputs":[],"outputs":[{"name":"","type":"uint256","internalType":"uint256"}],"stateMutability":"view"},{"type":"function","name":"aavePool","inputs":[],"outputs":[{"name":"","type":"address","internalType":"address"}],"stateMutability":"view"},{"type":"function","name":"adaptorCatalogue","inputs":[{"name":"","type":"address","internalType":"address"}],"outputs":[{"name":"","type":"bool","internalType":"bool"}],"stateMutability":"view"},{"type":"function","name":"addAdaptorToCatalogue","inputs":[{"name":"adaptor","type":"address","internalType":"address"}],"outputs":[],"stateMutability":"nonpayable"},{"type":"function","name":"addPosition","inputs":[{"name":"index","type":"uint32","internalType":"uint32"},{"name":"positionId","type":"uint32","internalType":"uint32"},{"name":"configurationData","type":"bytes","internalType":"bytes"},{"name":"inDebtArray","type":"bool","internalType":"bool"}],"outputs":[],"stateMutability":"nonpayable"},{"type":"function","name":"addPositionToCatalogue","inputs":[{"name":"positionId","type":"uint32","internalType":"uint32"}],"outputs":[],"stateMutability":"nonpayable"},{"type":"function","name":"allowance","inputs":[{"name":"","type":"address","internalType":"address"},{"name":"","type":"address","internalType":"address"}],"outputs":[{"name":"","type":"uint256","internalType":"uint256"}],"stateMutability":"view"},{"type":"function","name":"allowedRebalanceDeviation","inputs":[],"outputs":[{"name":"","type":"uint256","internalType":"uint256"}],"stateMutability":"view"},{"type":"function","name":"approve","inputs":[{"name":"spender","type":"address","internalType":"address"},{"name":"amount","type":"uint256","internalType":"uint256"}],"outputs":[{"name":"","type":"bool","internalType":"bool"}],"stateMutability":"nonpayable"},{"type":"function","name":"asset","inputs":[],"outputs":[{"name":"","type":"address","internalType":"contract ERC20"}],"stateMutability":"view"},{"type":"function","name":"balanceOf","inputs":[{"name":"","type":"address","internalType":"address"}],"outputs":[{"name":"","type":"uint256","internalType":"uint256"}],"stateMutability":"view"},{"type":"function","name":"blockExternalReceiver","inputs":[],"outputs":[{"name":"","type":"bool","internalType":"bool"}],"stateMutability":"view"},{"type":"function","name":"cachePriceRouter","inputs":[{"name":"checkTotalAssets","type":"bool","internalType":"bool"},{"name":"allowableRange","type":"uint16","internalType":"uint16"}],"outputs":[],"stateMutability":"nonpayable"},{"type":"function","name":"callOnAdaptor","inputs":[{"name":"data","type":"tuple[]","internalType":"struct Cellar.AdaptorCall[]","components":[{"name":"adaptor","type":"address","internalType":"address"},{"name":"callData","type":"bytes[]","internalType":"bytes[]"}]}],"outputs":[],"stateMutability":"nonpayable"},{"type":"function","name":"convertToAssets","inputs":[{"name":"shares","type":"uint256","internalType":"uint256"}],"outputs":[{"name":"assets","type":"uint256","internalType":"uint256"}],"stateMutability":"view"},{"type":"function","name":"convertToShares","inputs":[{"name":"assets","type":"uint256","internalType":"uint256"}],"outputs":[{"name":"shares","type":"uint256","internalType":"uint256"}],"stateMutability":"view"},{"type":"function","name":"creditPositions","inputs":[{"name":"","type":"uint256","internalType":"uint256"}],"outputs":[{"name":"","type":"uint32","internalType":"uint32"}],"stateMutability":"view"},{"type":"function","name":"debtPositions","inputs":[{"name":"","type":"uint256","internalType":"uint256"}],"outputs":[{"name":"","type":"uint32","internalType":"uint32"}],"stateMutability":"view"},{"type":"function","name":"decimals","inputs":[],"outputs":[{"name":"","type":"uint8","internalType":"uint8"}],"stateMutability":"view"},{"type":"function","name":"deposit","inputs":[{"name":"assets","type":"uint256","internalType":"uint256"},{"name":"receiver","type":"address","internalType":"address"}],"outputs":[{"name":"shares","type":"uint256","internalType":"uint256"}],"stateMutability":"nonpayable"},{"type":"function","name":"executeOperation","inputs":[{"name":"assets","type":"address[]","internalType":"address[]"},{"name":"amounts","type":"uint256[]","internalType":"uint256[]"},{"name":"premiums","type":"uint256[]","internalType":"uint256[]"},{"name":"initiator","type":"address","internalType":"address"},{"name":"params","type":"bytes","internalType":"bytes"}],"outputs":[{"name":"","type":"bool","internalType":"bool"}],"stateMutability":"nonpayable"},{"type":"function","name":"feeData","inputs":[],"outputs":[{"name":"strategistPlatformCut","type":"uint64","internalType":"uint64"},{"name":"platformFee","type":"uint64","internalType":"uint64"},{"name":"lastAccrual","type":"uint64","internalType":"uint64"},{"name":"strategistPayoutAddress","type":"address","internalType":"address"}],"stateMutability":"view"},{"type":"function","name":"forcePositionOut","inputs":[{"name":"index","type":"uint32","internalType":"uint32"},{"name":"positionId","type":"uint32","internalType":"uint32"},{"name":"inDebtArray","type":"bool","internalType":"bool"}],"outputs":[],"stateMutability":"nonpayable"},{"type":"function","name":"getCreditPositions","inputs":[],"outputs":[{"name":"","type":"uint32[]","internalType":"uint32[]"}],"stateMutability":"view"},{"type":"function","name":"getDebtPositions","inputs":[],"outputs":[{"name":"","type":"uint32[]","internalType":"uint32[]"}],"stateMutability":"view"},{"type":"function","name":"getPositionAssets","inputs":[],"outputs":[{"name":"assets","type":"address[]","internalType":"contract ERC20[]"}],"stateMutability":"view"},{"type":"function","name":"getPositionData","inputs":[{"name":"","type":"uint32","internalType":"uint32"}],"outputs":[{"name":"adaptor","type":"address","internalType":"address"},{"name":"isDebt","type":"bool","internalType":"bool"},{"name":"adaptorData","type":"bytes","internalType":"bytes"},{"name":"configurationData","type":"bytes","internalType":"bytes"}],"stateMutability":"view"},{"type":"function","name":"holdingPosition","inputs":[],"outputs":[{"name":"","type":"uint32","internalType":"uint32"}],"stateMutability":"view"},{"type":"function","name":"ignorePause","inputs":[],"outputs":[{"name":"","type":"bool","internalType":"bool"}],"stateMutability":"view"},{"type":"function","name":"initialize","inputs":[{"name":"params","type":"bytes","internalType":"bytes"}],"outputs":[],"stateMutability":"nonpayable"},{"type":"function","name":"initiateShutdown","inputs":[],"outputs":[],"stateMutability":"nonpayable"},{"type":"function","name":"isPaused","inputs":[],"outputs":[{"name":"","type":"bool","internalType":"bool"}],"stateMutability":"view"},{"type":"function","name":"isPositionUsed","inputs":[{"name":"","type":"uint256","internalType":"uint256"}],"outputs":[{"name":"","type":"bool","internalType":"bool"}],"stateMutability":"view"},{"type":"function","name":"isShutdown","inputs":[],"outputs":[{"name":"","type":"bool","internalType":"bool"}],"stateMutability":"view"},{"type":"function","name":"liftShutdown","inputs":[],"outputs":[],"stateMutability":"nonpayable"},{"type":"function","name":"locked","inputs":[],"outputs":[{"name":"","type":"uint256","internalType":"uint256"}],"stateMutability":"view"},{"type":"function","name":"maxDeposit","inputs":[{"name":"","type":"address","internalType":"address"}],"outputs":[{"name":"","type":"uint256","internalType":"uint256"}],"stateMutability":"view"},{"type":"function","name":"maxMint","inputs":[{"name":"","type":"address","internalType":"address"}],"outputs":[{"name":"","type":"uint256","internalType":"uint256"}],"stateMutability":"view"},{"type":"function","name":"maxRedeem","inputs":[{"name":"owner","type":"address","internalType":"address"}],"outputs":[{"name":"","type":"uint256","internalType":"uint256"}],"stateMutability":"view"},{"type":"function","name":"maxWithdraw","inputs":[{"name":"owner","type":"address","internalType":"address"}],"outputs":[{"name":"","type":"uint256","internalType":"uint256"}],"stateMutability":"view"},{"type":"function","name":"mint","inputs":[{"name":"shares","type":"uint256","internalType":"uint256"},{"name":"receiver","type":"address","internalType":"address"}],"outputs":[{"name":"assets","type":"uint256","internalType":"uint256"}],"stateMutability":"nonpayable"},{"type":"function","name":"multicall","inputs":[{"name":"data","type":"bytes[]","internalType":"bytes[]"}],"outputs":[],"stateMutability":"nonpayable"},{"type":"function","name":"name","inputs":[],"outputs":[{"name":"","type":"string","internalType":"string"}],"stateMutability":"view"},{"type":"function","name":"nonces","inputs":[{"name":"","type":"address","internalType":"address"}],"outputs":[{"name":"","type":"uint256","internalType":"uint256"}],"stateMutability":"view"},{"type":"function","name":"onERC721Received","inputs":[{"name":"","type":"address","internalType":"address"},{"name":"","type":"address","internalType":"address"},{"name":"","type":"uint256","internalType":"uint256"},{"name":"","type":"bytes","internalType":"bytes"}],"outputs":[{"name":"","type":"bytes4","internalType":"bytes4"}],"stateMutability":"nonpayable"},{"type":"function","name":"owner","inputs":[],"outputs":[{"name":"","type":"address","internalType":"address"}],"stateMutability":"view"},{"type":"function","name":"permit","inputs":[{"name":"owner","type":"address","internalType":"address"},{"name":"spender","type":"address","internalType":"address"},{"name":"value","type":"uint256","internalType":"uint256"},{"name":"deadline","type":"uint256","internalType":"uint256"},{"name":"v","type":"uint8","internalType":"uint8"},{"name":"r","type":"bytes32","internalType":"bytes32"},{"name":"s","type":"bytes32","internalType":"bytes32"}],"outputs":[],"stateMutability":"nonpayable"},{"type":"function","name":"positionCatalogue","inputs":[{"name":"","type":"uint32","internalType":"uint32"}],"outputs":[{"name":"","type":"bool","internalType":"bool"}],"stateMutability":"view"},{"type":"function","name":"previewDeposit","inputs":[{"name":"assets","type":"uint256","internalType":"uint256"}],"outputs":[{"name":"shares","type":"uint256","internalType":"uint256"}],"stateMutability":"view"},{"type":"function","name":"previewMint","inputs":[{"name":"shares","type":"uint256","internalType":"uint256"}],"outputs":[{"name":"assets","type":"uint256","internalType":"uint256"}],"stateMutability":"view"},{"type":"function","name":"previewRedeem","inputs":[{"name":"shares","type":"uint256","internalType":"uint256"}],"outputs":[{"name":"assets","type":"uint256","internalType":"uint256"}],"stateMutability":"view"},{"type":"function","name":"previewWithdraw","inputs":[{"name":"assets","type":"uint256","internalType":"uint256"}],"outputs":[{"name":"shares","type":"uint256","internalType":"uint256"}],"stateMutability":"view"},{"type":"function","name":"priceRouter","inputs":[],"outputs":[{"name":"","type":"address","internalType":"contract PriceRouter"}],"stateMutability":"view"},{"type":"function","name":"redeem","inputs":[{"name":"shares","type":"uint256","internalType":"uint256"},{"name":"receiver","type":"address","internalType":"address"},{"name":"owner","type":"address","internalType":"address"}],"outputs":[{"name":"assets","type":"uint256","internalType":"uint256"}],"stateMutability":"nonpayable"},{"type":"function","name":"registry","inputs":[],"outputs":[{"name":"","type":"address","internalType":"contract Registry"}],"stateMutability":"view"},{"type":"function","name":"removeAdaptorFromCatalogue","inputs":[{"name":"adaptor","type":"address","internalType":"address"}],"outputs":[],"stateMutability":"nonpayable"},{"type":"function","name":"removePosition","inputs":[{"name":"index","type":"uint32","internalType":"uint32"},{"name":"inDebtArray","type":"bool","internalType":"bool"}],"outputs":[],"stateMutability":"nonpayable"},{"type":"function","name":"removePositionFromCatalogue","inputs":[{"name":"positionId","type":"uint32","internalType":"uint32"}],"outputs":[],"stateMutability":"nonpayable"},{"type":"function","name":"setHoldingPosition","inputs":[{"name":"positionId","type":"uint32","internalType":"uint32"}],"outputs":[],"stateMutability":"nonpayable"},{"type":"function","name":"setRebalanceDeviation","inputs":[{"name":"newDeviation","type":"uint256","internalType":"uint256"}],"outputs":[],"stateMutability":"nonpayable"},{"type":"function","name":"setShareLockPeriod","inputs":[{"name":"newLock","type":"uint256","internalType":"uint256"}],"outputs":[],"stateMutability":"nonpayable"},{"type":"function","name":"setStrategistPayoutAddress","inputs":[{"name":"payout","type":"address","internalType":"address"}],"outputs":[],"stateMutability":"nonpayable"},{"type":"function","name":"setStrategistPlatformCut","inputs":[{"name":"cut","type":"uint64","internalType":"uint64"}],"outputs":[],"stateMutability":"nonpayable"},{"type":"function","name":"shareLockPeriod","inputs":[],"outputs":[{"name":"","type":"uint256","internalType":"uint256"}],"stateMutability":"view"},{"type":"function","name":"swapPositions","inputs":[{"name":"index1","type":"uint32","internalType":"uint32"},{"name":"index2","type":"uint32","internalType":"uint32"},{"name":"inDebtArray","type":"bool","internalType":"bool"}],"outputs":[],"stateMutability":"nonpayable"},{"type":"function","name":"symbol","inputs":[],"outputs":[{"name":"","type":"string","internalType":"string"}],"stateMutability":"view"},{"type":"function","name":"toggleIgnorePause","inputs":[{"name":"toggle","type":"bool","internalType":"bool"}],"outputs":[],"stateMutability":"nonpayable"},{"type":"function","name":"totalAssets","inputs":[],"outputs":[{"name":"assets","type":"uint256","internalType":"uint256"}],"stateMutability":"view"},{"type":"function","name":"totalAssetsWithdrawable","inputs":[],"outputs":[{"name":"assets","type":"uint256","internalType":"uint256"}],"stateMutability":"view"},{"type":"function","name":"totalSupply","inputs":[],"outputs":[{"name":"","type":"uint256","internalType":"uint256"}],"stateMutability":"view"},{"type":"function","name":"transfer","inputs":[{"name":"to","type":"address","internalType":"address"},{"name":"amount","type":"uint256","internalType":"uint256"}],"outputs":[{"name":"","type":"bool","internalType":"bool"}],"stateMutability":"nonpayable"},{"type":"function","name":"transferFrom","inputs":[{"name":"from","type":"address","internalType":"address"},{"name":"to","type":"address","internalType":"address"},{"name":"amount","type":"uint256","internalType":"uint256"}],"outputs":[{"name":"","type":"bool","internalType":"bool"}],"stateMutability":"nonpayable"},{"type":"function","name":"transferOwnership","inputs":[{"name":"newOwner","type":"address","internalType":"address"}],"outputs":[],"stateMutability":"nonpayable"},{"type":"function","name":"userShareLockStartTime","inputs":[{"name":"","type":"address","internalType":"address"}],"outputs":[{"name":"","type":"uint256","internalType":"uint256"}],"stateMutability":"view"},{"type":"function","name":"viewPositionBalances","inputs":[],"outputs":[{"name":"assets","type":"address[]","internalType":"contract ERC20[]"},{"name":"balances","type":"uint256[]","internalType":"uint256[]"},{"name":"isDebt","type":"bool[]","internalType":"bool[]"}],"stateMutability":"view"},{"type":"function","name":"withdraw","inputs":[{"name":"assets","type":"uint256","internalType":"uint256"},{"name":"receiver","type":"address","internalType":"address"},{"name":"owner","type":"address","internalType":"address"}],"outputs":[{"name":"shares","type":"uint256","internalType":"uint256"}],"stateMutability":"nonpayable"},{"type":"event","name":"AdaptorCalled","inputs":[{"name":"adaptor","type":"address","indexed":false,"internalType":"address"},{"name":"data","type":"bytes","indexed":false,"internalType":"bytes"}],"anonymous":false},{"type":"event","name":"AdaptorCatalogueAltered","inputs":[{"name":"adaptor","type":"address","indexed":false,"internalType":"address"},{"name":"inCatalogue","type":"bool","indexed":false,"internalType":"bool"}],"anonymous":false},{"type":"event","name":"Approval","inputs":[{"name":"owner","type":"address","indexed":true,"internalType":"address"},{"name":"spender","type":"address","indexed":true,"internalType":"address"},{"name":"amount","type":"uint256","indexed":false,"internalType":"uint256"}],"anonymous":false},{"type":"event","name":"Deposit","inputs":[{"name":"caller","type":"address","indexed":true,"internalType":"address"},{"name":"owner","type":"address","indexed":true,"internalType":"address"},{"name":"assets","type":"uint256","indexed":false,"internalType":"uint256"},{"name":"shares","type":"uint256","indexed":false,"internalType":"uint256"}],"anonymous":false},{"type":"event","name":"Initialized","inputs":[{"name":"version","type":"uint8","indexed":false,"internalType":"uint8"}],"anonymous":false},{"type":"event","name":"OwnershipTransferred","inputs":[{"name":"user","type":"address","indexed":true,"internalType":"address"},{"name":"newOwner","type":"address","indexed":true,"internalType":"address"}],"anonymous":false},{"type":"event","name":"PlatformFeeChanged","inputs":[{"name":"oldPlatformFee","type":"uint64","indexed":false,"internalType":"uint64"},{"name":"newPlatformFee","type":"uint64","indexed":false,"internalType":"uint64"}],"anonymous":false},{"type":"event","name":"PositionAdded","inputs":[{"name":"position","type":"uint32","indexed":false,"internalType":"uint32"},{"name":"index","type":"uint256","indexed":false,"internalType":"uint256"}],"anonymous":false},{"type":"event","name":"PositionCatalogueAltered","inputs":[{"name":"positionId","type":"uint32","indexed":false,"internalType":"uint32"},{"name":"inCatalogue","type":"bool","indexed":false,"internalType":"bool"}],"anonymous":false},{"type":"event","name":"PositionRemoved","inputs":[{"name":"position","type":"uint32","indexed":false,"internalType":"uint32"},{"name":"index","type":"uint256","indexed":false,"internalType":"uint256"}],"anonymous":false},{"type":"event","name":"PositionSwapped","inputs":[{"name":"newPosition1","type":"uint32","indexed":false,"internalType":"uint32"},{"name":"newPosition2","type":"uint32","indexed":false,"internalType":"uint32"},{"name":"index1","type":"uint256","indexed":false,"internalType":"uint256"},{"name":"index2","type":"uint256","indexed":false,"internalType":"uint256"}],"anonymous":false},{"type":"event","name":"RebalanceDeviationChanged","inputs":[{"name":"oldDeviation","type":"uint256","indexed":false,"internalType":"uint256"},{"name":"newDeviation","type":"uint256","indexed":false,"internalType":"uint256"}],"anonymous":false},{"type":"event","name":"ShareLockingPeriodChanged","inputs":[{"name":"oldPeriod","type":"uint256","indexed":false,"internalType":"uint256"},{"name":"newPeriod","type":"uint256","indexed":false,"internalType":"uint256"}],"anonymous":false},{"type":"event","name":"ShutdownChanged","inputs":[{"name":"isShutdown","type":"bool","indexed":false,"internalType":"bool"}],"anonymous":false},{"type":"event","name":"StrategistPayoutAddressChanged","inputs":[{"name":"oldPayoutAddress","type":"address","indexed":false,"internalType":"address"},{"name":"newPayoutAddress","type":"address","indexed":false,"internalType":"address"}],"anonymous":false},{"type":"event","name":"StrategistPlatformCutChanged","inputs":[{"name":"oldPlatformCut","type":"uint64","indexed":false,"internalType":"uint64"},{"name":"newPlatformCut","type":"uint64","indexed":false,"internalType":"uint64"}],"anonymous":false},{"type":"event","name":"Transfer","inputs":[{"name":"from","type":"address","indexed":true,"internalType":"address"},{"name":"to","type":"address","indexed":true,"internalType":"address"},{"name":"amount","type":"uint256","indexed":false,"internalType":"uint256"}],"anonymous":false},{"type":"event","name":"Withdraw","inputs":[{"name":"caller","type":"address","indexed":true,"internalType":"address"},{"name":"receiver","type":"address","indexed":true,"internalType":"address"},{"name":"owner","type":"address","indexed":true,"internalType":"address"},{"name":"assets","type":"uint256","indexed":false,"internalType":"uint256"},{"name":"shares","type":"uint256","indexed":false,"internalType":"uint256"}],"anonymous":false},{"type":"error","name":"Cellar__AssetMismatch","inputs":[{"name":"asset","type":"address","internalType":"address"},{"name":"expectedAsset","type":"address","internalType":"address"}]},{"type":"error","name":"Cellar__CallToAdaptorNotAllowed","inputs":[{"name":"adaptor","type":"address","internalType":"address"}]},{"type":"error","name":"Cellar__CallerNotAavePool","inputs":[]},{"type":"error","name":"Cellar__ContractNotShutdown","inputs":[]},{"type":"error","name":"Cellar__ContractShutdown","inputs":[]},{"type":"error","name":"Cellar__DebtMismatch","inputs":[{"name":"position","type":"uint32","internalType":"uint32"}]},{"type":"error","name":"Cellar__DepositRestricted","inputs":[{"name":"assets","type":"uint256","internalType":"uint256"},{"name":"maxDeposit","type":"uint256","internalType":"uint256"}]},{"type":"error","name":"Cellar__ExternalInitiator","inputs":[]},{"type":"error","name":"Cellar__IlliquidWithdraw","inputs":[{"name":"illiquidPosition","type":"address","internalType":"address"}]},{"type":"error","name":"Cellar__IncompleteWithdraw","inputs":[{"name":"assetsOwed","type":"uint256","internalType":"uint256"}]},{"type":"error","name":"Cellar__InvalidFee","inputs":[]},{"type":"error","name":"Cellar__InvalidFeeCut","inputs":[]},{"type":"error","name":"Cellar__InvalidHoldingPosition","inputs":[{"name":"positionId","type":"uint32","internalType":"uint32"}]},{"type":"error","name":"Cellar__InvalidRebalanceDeviation","inputs":[{"name":"requested","type":"uint256","internalType":"uint256"},{"name":"max","type":"uint256","internalType":"uint256"}]},{"type":"error","name":"Cellar__InvalidShareLockPeriod","inputs":[]},{"type":"error","name":"Cellar__NotApprovedToDepositOnBehalf","inputs":[{"name":"depositor","type":"address","internalType":"address"}]},{"type":"error","name":"Cellar__Paused","inputs":[]},{"type":"error","name":"Cellar__PositionAlreadyUsed","inputs":[{"name":"position","type":"uint32","internalType":"uint32"}]},{"type":"error","name":"Cellar__PositionArrayFull","inputs":[{"name":"maxPositions","type":"uint256","internalType":"uint256"}]},{"type":"error","name":"Cellar__PositionNotEmpty","inputs":[{"name":"position","type":"uint32","internalType":"uint32"},{"name":"sharesRemaining","type":"uint256","internalType":"uint256"}]},{"type":"error","name":"Cellar__PositionNotInCatalogue","inputs":[{"name":"position","type":"uint32","internalType":"uint32"}]},{"type":"error","name":"Cellar__PositionNotUsed","inputs":[{"name":"position","type":"uint32","internalType":"uint32"}]},{"type":"error","name":"Cellar__RemovingHoldingPosition","inputs":[]},{"type":"error","name":"Cellar__SharesAreLocked","inputs":[{"name":"timeSharesAreUnlocked","type":"uint256","internalType":"uint256"},{"name":"currentBlock","type":"uint256","internalType":"uint256"}]},{"type":"error","name":"Cellar__TotalAssetDeviatedOutsideRange","inputs":[{"name":"assets","type":"uint256","internalType":"uint256"},{"name":"min","type":"uint256","internalType":"uint256"},{"name":"max","type":"uint256","internalType":"uint256"}]},{"type":"error","name":"Cellar__TotalSharesMustRemainConstant","inputs":[{"name":"current","type":"uint256","internalType":"uint256"},{"name":"expected","type":"uint256","internalType":"uint256"}]},{"type":"error","name":"Cellar__ZeroAssets","inputs":[]},{"type":"error","name":"Cellar__ZeroShares","inputs":[]}],"bytecode":{"object":"0x60806040526001600b556040518060800160405280670a688906bd8b000067ffffffffffffffff168152602001662386f26fc1000067ffffffffffffffff168152602001600067ffffffffffffffff168152602001600073ffffffffffffffffffffffffffffffffffffffff16815250601460008201518160000160006101000a81548167ffffffffffffffff021916908367ffffffffffffffff16021790555060208201518160000160086101000a81548167ffffffffffffffff021916908367ffffffffffffffff16021790555060408201518160000160106101000a81548167ffffffffffffffff021916908367ffffffffffffffff16021790555060608201518160010160006101000a81548173ffffffffffffffffffffffffffffffffffffffff021916908373ffffffffffffffffffffffffffffffffffffffff16021790555050506202a300601755660110d9316ec000601955737d2768de32b0b80b7a3454c06bdac94a69ddc7a9601a60016101000a81548173ffffffffffffffffffffffffffffffffffffffff021916908373ffffffffffffffffffffffffffffffffffffffff16021790555034801563000001bc57600080fd5b50604051630000d27f380380630000d27f833981810160405281019063000001e6919063000014a2565b8060006040518060200160405280600081525060405180602001604052806000815250600067ffffffffffffffff811115630000022a57630000022963000014d9565b5b604051908082528060200260200182016040528015630000025a5781602001602082028036833780820191505090505b50600067ffffffffffffffff811115630000027c57630000027b63000014d9565b5b60405190808252806020026020018201604052801563000002ac5781602001602082028036833780820191505090505b50600067ffffffffffffffff81111563000002ce5763000002cd63000014d9565b5b604051908082528060200260200182016040528015630000030557816020015b606081526020019060019003908163000002ee5790505b50600067ffffffffffffffff811115630000032757630000032663000014d9565b5b604051908082528060200260200182016040528015630000035e57816020015b606081526020019060019003908163000003475790505b50600080600080604051602001630000038098979695949392919063000017ed565b6040516020818303038152906040528473ffffffffffffffffffffffffffffffffffffffff1663b93f9b0a60006040518263ffffffff1660e01b815260040163000003cd919063000018c4565b602060405180830381865afa15801563000003ec573d6000803e3d6000fd5b505050506040513d601f19601f82011682018060405250810190630000041491906300001919565b84848460128282828260009081630000042f91906300001bb1565b508160019081630000044391906300001bb1565b5080600260006101000a81548160ff021916908360ff160217905550466006819055506300000478630000090e60201b60201c565b60078190555050505083600960006101000a81548173ffffffffffffffffffffffffffffffffffffffff021916908373ffffffffffffffffffffffffffffffffffffffff1602179055505050505080600a60006101000a81548173ffffffffffffffffffffffffffffffffffffffff021916908373ffffffffffffffffffffffffffffffffffffffff1602179055508073ffffffffffffffffffffffffffffffffffffffff16600073ffffffffffffffffffffffffffffffffffffffff167f8be0079c531659141344cd1fd0a4f28419497f9722a3daafe3b4186f6b6457e060405160405180910390a35084601660026101000a81548173ffffffffffffffffffffffffffffffffffffffff021916908373ffffffffffffffffffffffffffffffffffffffff160217905550601660029054906101000a900473ffffffffffffffffffffffffffffffffffffffff1673ffffffffffffffffffffffffffffffffffffffff1663b93f9b0a60026040518263ffffffff1660e01b81526004016300000604919063000018c4565b602060405180830381865afa1580156300000623573d6000803e3d6000fd5b505050506040513d601f19601f82011682018060405250810190630000064b91906300001919565b600c60006101000a81548173ffffffffffffffffffffffffffffffffffffffff021916908373ffffffffffffffffffffffffffffffffffffffff16021790555060008060008060008580602001905181019063000006ab91906300002043565b60ff169450945094509450945060005b85518163ffffffff161015630000077f576300000705868263ffffffff168151811063000006f05763000006ef6300002160565b5b602002602001015163000009a260201b60201c565b630000076881878363ffffffff1681518110630000072a5763000007296300002160565b5b6020026020010151868463ffffffff168151811063000007515763000007506300002160565b5b602002602001015160006300000aae60201b60201c565b8063000007769063000021be565b905063000006bb565b5060005b84518163ffffffff16101563000008475763000007cd858263ffffffff168151811063000007b85763000007b76300002160565b5b602002602001015163000009a260201b60201c565b630000083081868363ffffffff168151811063000007f25763000007f16300002160565b5b6020026020010151858463ffffffff168151811063000008195763000008186300002160565b5b602002602001015160016300000aae60201b60201c565b80630000083e9063000021be565b90506300000783565b506000855111156300000868576300000867816300000ef560201b60201c565b5b505050505042601460000160106101000a81548167ffffffffffffffff021916908367ffffffffffffffff16021790555060008180602001905181019063000008b391906300002292565b50509550505050505080601460010160006101000a81548173ffffffffffffffffffffffffffffffffffffffff021916908373ffffffffffffffffffffffffffffffffffffffff160217905550505050505050506300002a68565b60007f8b73c3c69bb8fe3d512ecc4cf759cc79239f7b179b0ffacaa9a75d522b39400f60006040516300000944919063000024b1565b60405180910390207fc89efdaa54c0f20c7adf612882df0950f5a951637e0307cdcb4c672f298b8bc64630604051602001630000098795949392919063000024e9565b60405160208183030381529060405280519060200120905090565b601660029054906101000a900473ffffffffffffffffffffffffffffffffffffffff1673ffffffffffffffffffffffffffffffffffffffff1663a2b3b0fe826040518263ffffffff1660e01b81526004016300000a0191906300002563565b60006040518083038186803b1580156300000a1b57600080fd5b505afa1580156300000a31573d6000803e3d6000fd5b505050506001601260008363ffffffff1663ffffffff16815260200190815260200160002060006101000a81548160ff0219169083151502179055507fea052d1fb1ecba6aaf6bd32e92f20e7b6a094eaa478248322cc8ff024a90978f8160016040516300000aa392919063000025a1565b60405180910390a150565b600f60008463ffffffff16815260200190815260200160002060009054906101000a900460ff16156300000b1d57826040517f66b129f60000000000000000000000000000000000000000000000000000000081526004016300000b1491906300002563565b60405180910390fd5b601260008463ffffffff1663ffffffff16815260200190815260200160002060009054906101000a900460ff166300000b9157826040517ffced80e80000000000000000000000000000000000000000000000000000000081526004016300000b8891906300002563565b60405180910390fd5b6000806000601660029054906101000a900473ffffffffffffffffffffffffffffffffffffffff1673ffffffffffffffffffffffffffffffffffffffff166385ae5d57876040518263ffffffff1660e01b81526004016300000bf591906300002563565b600060405180830381865afa1580156300000c14573d6000803e3d6000fd5b505050506040513d6000823e3d601f19601f820116820180604052508101906300000c4191906300002608565b925092509250831515821515146300000c9557856040517f563a17a60000000000000000000000000000000000000000000000000000000081526004016300000c8c91906300002563565b60405180910390fd5b60405180608001604052808473ffffffffffffffffffffffffffffffffffffffff168152602001831515815260200182815260200186815250601060008863ffffffff1663ffffffff16815260200190815260200160002060008201518160000160006101000a81548173ffffffffffffffffffffffffffffffffffffffff021916908373ffffffffffffffffffffffffffffffffffffffff16021790555060208201518160000160146101000a81548160ff02191690831515021790555060408201518160010190816300000d6d919063000026fe565b5060608201518160020190816300000d87919063000026fe565b5090505081156300000e0b576010600e80549050106300000de45760106040517ff025236d0000000000000000000000000000000000000000000000000000000081526004016300000ddb919063000018c4565b60405180910390fd5b6300000e048787600e63000010df60201b6300004984179092919060201c565b6300000e7d565b6010600d80549050106300000e5c5760106040517ff025236d0000000000000000000000000000000000000000000000000000000081526004016300000e53919063000018c4565b60405180910390fd5b6300000e7c8787600d63000010df60201b6300004984179092919060201c565b5b6001600f60008863ffffffff16815260200190815260200160002060006101000a81548160ff0219169083151502179055507fc4f8cb57c016f0b294fff2666f86fa6cfee9b03aed19f816ae4bf44b7e837bbb86886040516300000ee4929190630000283b565b60405180910390a150505050505050565b600f60008263ffffffff16815260200190815260200160002060009054906101000a900460ff166300000f6357806040517f70abe8590000000000000000000000000000000000000000000000000000000081526004016300000f5a91906300002563565b60405180910390fd5b600960009054906101000a900473ffffffffffffffffffffffffffffffffffffffff1673ffffffffffffffffffffffffffffffffffffffff166300000faf82630000131760201b60201c565b73ffffffffffffffffffffffffffffffffffffffff1614630000104357600960009054906101000a900473ffffffffffffffffffffffffffffffffffffffff16630000100282630000131760201b60201c565b6040517f5308e78e000000000000000000000000000000000000000000000000000000008152600401630000103a929190630000286c565b60405180910390fd5b601060008263ffffffff1663ffffffff16815260200190815260200160002060000160149054906101000a900460ff161563000010bb57806040517fa42c0f9000000000000000000000000000000000000000000000000000000000815260040163000010b291906300002563565b60405180910390fd5b80601160006101000a81548163ffffffff021916908363ffffffff16021790555050565b600083805490509050600081111563000012c357838460018363000011069190630000289d565b81548110630000111d57630000111c6300002160565b5b90600052602060002090600891828204019190066004029054906101000a900463ffffffff1690806001815401808255809150506001900390600052602060002090600891828204019190066004029091909190916101000a81548163ffffffff021916908363ffffffff160217905550600060018263000011a19190630000289d565b90505b8363ffffffff168111156300001268578460018263000011c69190630000289d565b8154811063000011dd5763000011dc6300002160565b5b90600052602060002090600891828204019190066004029054906101000a900463ffffffff16858281548110630000121c57630000121b6300002160565b5b90600052602060002090600891828204019190066004026101000a81548163ffffffff021916908363ffffffff1602179055508080630000125e9063000028df565b91505063000011a4565b5081848463ffffffff168154811063000012895763000012886300002160565b5b90600052602060002090600891828204019190066004026101000a81548163ffffffff021916908363ffffffff1602179055506300001311565b838290806001815401808255809150506001900390600052602060002090600891828204019190066004029091909190916101000a81548163ffffffff021916908363ffffffff1602179055505b50505050565b600080601060008463ffffffff1663ffffffff16815260200190815260200160002060000160009054906101000a900473ffffffffffffffffffffffffffffffffffffffff1690508073ffffffffffffffffffffffffffffffffffffffff1663e170a9bf601060008663ffffffff1663ffffffff1681526020019081526020016000206001016040518263ffffffff1660e01b815260040163000013bd919063000029bf565b602060405180830381865afa15801563000013dc573d6000803e3d6000fd5b505050506040513d601f19601f82011682018060405250810190630000140491906300002a31565b915050919050565b6000604051905090565b600080fd5b600080fd5b600073ffffffffffffffffffffffffffffffffffffffff82169050919050565b6000630000144f826300001420565b9050919050565b60006300001465826300001440565b9050919050565b6300001479816300001456565b8114630000148657600080fd5b50565b600081519050630000149c81630000146c565b92915050565b60006020828403121563000014be5763000014bd6300001416565b5b600063000014d0848285016300001489565b91505092915050565b7f4e487b7100000000000000000000000000000000000000000000000000000000600052604160045260246000fd5b600081519050919050565b600082825260208201905092915050565b6000819050602082019050919050565b600063ffffffff82169050919050565b6300001551816300001534565b82525050565b6000630000156783836300001544565b60208301905092915050565b6000602082019050919050565b6000630000158f826300001508565b630000159d81856300001513565b935063000015ac836300001524565b8060005b8381101563000015e957815163000015ca88826300001557565b975063000015d9836300001573565b92505060018101905063000015b0565b5085935050505092915050565b600081519050919050565b600082825260208201905092915050565b6000819050602082019050919050565b600081519050919050565b600082825260208201905092915050565b60005b8381101563000016605780820151818401526020810190506300001641565b60008484015250505050565b6000601f19601f8301169050919050565b6000630000168c826300001622565b630000169a8185630000162d565b935063000016ae818560208601630000163e565b63000016bb81630000166c565b840191505092915050565b600063000016d68383630000167d565b905092915050565b6000602082019050919050565b600063000016fa8263000015f6565b630000170881856300001601565b935083602082028501630000171e856300001612565b8060005b85811015630000176657848403895281516300001741858263000016c6565b945063000017508363000016de565b925060208a019950506001810190506300001722565b50829750879550505050505092915050565b6000819050919050565b600060ff82169050919050565b6000819050919050565b600063000017c063000017b963000017b2846300001778565b630000178f565b6300001782565b9050919050565b63000017d4816300001799565b82525050565b63000017e7816300001440565b82525050565b6000610100820190508181036000830152630000180c818b6300001580565b905081810360208301526300001824818a6300001580565b90508181036040830152630000183c818963000016eb565b905081810360608301526300001854818863000016eb565b90506300001867608083018763000017c7565b630000187860a083018663000017da565b630000188960c083018563000017c7565b630000189a60e083018463000017c7565b9998505050505050505050565b6000819050919050565b63000018be8163000018a7565b82525050565b600060208201905063000018dd600083018463000018b1565b92915050565b63000018f0816300001440565b811463000018fd57600080fd5b50565b60008151905063000019138163000018e3565b92915050565b60006020828403121563000019355763000019346300001416565b5b60006300001947848285016300001900565b91505092915050565b600081519050919050565b7f4e487b7100000000000000000000000000000000000000000000000000000000600052602260045260246000fd5b6000600282049050600182168063000019a457607f821691505b60208210810363000019bd5763000019bc630000195b565b5b50919050565b60008190508160005260206000209050919050565b60006020601f8301049050919050565b600082821b905092915050565b6000600883026300001a297fffffffffffffffffffffffffffffffffffffffffffffffffffffffffffffffff8263000019e8565b6300001a37868363000019e8565b95508019841693508086168417925050509392505050565b60006300001a766300001a6f6300001a688463000018a7565b630000178f565b63000018a7565b9050919050565b6000819050919050565b6300001a94836300001a4f565b6300001ab06300001aa6826300001a7d565b84845463000019f5565b825550505050565b600090565b6300001ac96300001ab8565b6300001ad88184846300001a87565b505050565b5b818110156300001b04576300001af76000826300001abd565b6001810190506300001ade565b5050565b601f8211156300001b5d576300001b208163000019c3565b6300001b2d8463000019d8565b810160208510156300001b3e578190505b6300001b5a6300001b508563000019d8565b8301826300001add565b50505b505050565b600082821c905092915050565b60006300001b84600019846008026300001b62565b1980831691505092915050565b60006300001ba183836300001b6f565b9150826002028217905092915050565b6300001bbe826300001950565b67ffffffffffffffff8111156300001bdd576300001bdc63000014d9565b5b6300001beb8254630000198a565b6300001bfa8282856300001b08565b600060209050601f8311600181146300001c3757600084156300001c1f578287015190505b6300001c2d85826300001b91565b8655506300001ca5565b601f1984166300001c498663000019c3565b60005b828110156300001c75578489015182556001820191506020850194506020810190506300001c4c565b868310156300001c9857848901516300001c94601f8916826300001b6f565b8355505b6001600288020188555050505b505050505050565b600080fd5b6300001cbf82630000166c565b810181811067ffffffffffffffff821117156300001ce4576300001ce363000014d9565b5b80604052505050565b60006300001cfb630000140c565b90506300001d0b82826300001cb2565b919050565b600067ffffffffffffffff8211156300001d31576300001d3063000014d9565b5b602082029050602081019050919050565b600080fd5b6300001d54816300001534565b81146300001d6157600080fd5b50565b6000815190506300001d77816300001d47565b92915050565b60006300001d986300001d91846300001d10565b6300001ced565b905080838252602082019050602084028301858111156300001dc1576300001dc06300001d42565b5b835b818110156300001df257806300001ddc88826300001d64565b8452602084019350506020810190506300001dc3565b5050509392505050565b600082601f8301126300001e17576300001e166300001cad565b5b81516300001e2b8482602086016300001d7d565b91505092915050565b600067ffffffffffffffff8211156300001e55576300001e5463000014d9565b5b602082029050602081019050919050565b600080fd5b600067ffffffffffffffff8211156300001e8c576300001e8b63000014d9565b5b6300001e9982630000166c565b9050602081019050919050565b60006300001ec16300001eba846300001e6b565b6300001ced565b9050828152602081018484840111156300001ee3576300001ee26300001e66565b5b6300001ef2848285630000163e565b509392505050565b600082601f8301126300001f15576300001f146300001cad565b5b81516300001f298482602086016300001ea6565b91505092915050565b60006300001f4d6300001f46846300001e34565b6300001ced565b905080838252602082019050602084028301858111156300001f76576300001f756300001d42565b5b835b818110156300001fcb57805167ffffffffffffffff8111156300001fa3576300001fa26300001cad565b5b8086016300001fb489826300001efa565b855260208501945050506020810190506300001f78565b5050509392505050565b600082601f8301126300001ff0576300001fef6300001cad565b5b815163000020048482602086016300001f32565b91505092915050565b630000201a816300001782565b8114630000202757600080fd5b50565b600081519050630000203d81630000200d565b92915050565b600080600080600060a0868803121563000020655763000020646300001416565b5b600086015167ffffffffffffffff8111156300002089576300002088630000141b565b5b6300002099888289016300001dfc565b955050602086015167ffffffffffffffff81111563000020c05763000020bf630000141b565b5b63000020d0888289016300001dfc565b945050604086015167ffffffffffffffff81111563000020f75763000020f6630000141b565b5b6300002107888289016300001fd5565b935050606086015167ffffffffffffffff811115630000212e57630000212d630000141b565b5b630000213e888289016300001fd5565b9250506080630000215388828901630000202a565b9150509295509295909350565b7f4e487b7100000000000000000000000000000000000000000000000000000000600052603260045260246000fd5b7f4e487b7100000000000000000000000000000000000000000000000000000000600052601160045260246000fd5b600063000021cd826300001534565b915063ffffffff820363000021e95763000021e8630000218f565b5b600182019050919050565b60006300002203826300001420565b9050919050565b63000022178163000021f4565b8114630000222457600080fd5b50565b600081519050630000223a81630000220a565b92915050565b60006fffffffffffffffffffffffffffffffff82169050919050565b6300002269816300002240565b8114630000227657600080fd5b50565b600081519050630000228c81630000225c565b92915050565b600080600080600080600080610100898b03121563000022b95763000022b86300001416565b5b600089015167ffffffffffffffff81111563000022dd5763000022dc630000141b565b5b63000022ed8b828c016300001dfc565b985050602089015167ffffffffffffffff8111156300002314576300002313630000141b565b5b63000023248b828c016300001dfc565b975050604089015167ffffffffffffffff811115630000234b57630000234a630000141b565b5b630000235b8b828c016300001fd5565b965050606089015167ffffffffffffffff8111156300002382576300002381630000141b565b5b63000023928b828c016300001fd5565b955050608063000023a78b828c01630000202a565b94505060a063000023bc8b828c016300002227565b93505060c063000023d18b828c016300002279565b92505060e063000023e68b828c016300002279565b9150509295985092959890939650565b600081905092915050565b60008190508160005260206000209050919050565b60008154630000242781630000198a565b6300002435818663000023f6565b9450600182166000811463000024565760018114630000246d5763000024a8565b60ff198316865281151582028601935063000024a8565b630000247a856300002401565b60005b8381101563000024a057815481890152600182019150602081019050630000247d565b838801955050505b50505092915050565b600063000024c182846300002416565b915081905092915050565b6000819050919050565b63000024e38163000024cc565b82525050565b600060a0820190506300002502600083018863000024d6565b6300002513602083018763000024d6565b6300002524604083018663000024d6565b6300002535606083018563000018b1565b6300002546608083018463000017da565b9695505050505050565b630000255d816300001534565b82525050565b6000602082019050630000257c60008301846300002550565b92915050565b60008115159050919050565b630000259b816300002582565b82525050565b600060408201905063000025ba60008301856300002550565b63000025cb6020830184630000258e565b9392505050565b63000025df816300002582565b811463000025ec57600080fd5b50565b60008151905063000026028163000025d2565b92915050565b60008060006060848603121563000026275763000026266300001416565b5b60006300002639868287016300001900565b9350506020630000264e8682870163000025ef565b925050604084015167ffffffffffffffff8111156300002675576300002674630000141b565b5b6300002685868287016300001efa565b9150509250925092565b60008190508160005260206000209050919050565b601f82111563000026f95763000026bc81630000268f565b63000026c98463000019d8565b8101602085101563000026da578190505b63000026f663000026ec8563000019d8565b8301826300001add565b50505b505050565b630000270b826300001622565b67ffffffffffffffff811115630000272a57630000272963000014d9565b5b63000027388254630000198a565b630000274782828563000026a4565b600060209050601f83116001811463000027845760008415630000276c578287015190505b630000277a85826300001b91565b86555063000027f2565b601f198416630000279686630000268f565b60005b8281101563000027c2578489015182556001820191506020850194506020810190506300002799565b8683101563000027e5578489015163000027e1601f8916826300001b6f565b8355505b6001600288020188555050505b505050505050565b60006300002821630000281a6300002813846300001534565b630000178f565b63000018a7565b9050919050565b63000028358163000027fa565b82525050565b6000604082019050630000285460008301856300002550565b630000286560208301846300002828565b9392505050565b60006040820190506300002885600083018563000017da565b6300002896602083018463000017da565b9392505050565b600063000028ac8263000018a7565b915063000028bb8363000018a7565b925082820390508181111563000028d95763000028d8630000218f565b5b92915050565b600063000028ee8263000018a7565b9150600082036300002907576300002906630000218f565b5b600182039050919050565b600082825260208201905092915050565b60008154630000293481630000198a565b630000294281866300002912565b9450600182166000811463000029635760018114630000297b5763000029b6565b60ff19831686528115156020028601935063000029b6565b630000298885630000268f565b60005b8381101563000029ae57815481890152600182019150602081019050630000298b565b808801955050505b50505092915050565b6000602082019050818103600083015263000029dd81846300002923565b905092915050565b600063000029f4826300001440565b9050919050565b6300002a088163000029e5565b81146300002a1557600080fd5b50565b6000815190506300002a2b8163000029fb565b92915050565b6000602082840312156300002a4d576300002a4c6300001416565b5b60006300002a5f848285016300002a18565b91505092915050565b61a806806300002a796000396000f3fe608060405234801561001057600080fd5b50600436106104ab5760003560e01c80637ecebe001161026d578063ba08765211610151578063d505accf116100ce578063e753e60011610092578063e753e60014610f85578063ebe3c32814610fa6578063eef33eca14610fc2578063ef8b30f714610fe0578063f2fde38b14611010578063f7b24e081461102c576104ab565b8063d505accf14610ebb578063d7d4bf4514610ed7578063d905777e14610ef5578063dd62ed3e14610f25578063e1b1acb714610f55576104ab565b8063cbdf33d011610115578063cbdf33d014610e03578063cd82f8b114610e33578063ce96cb7714610e51578063cf30901214610e81578063d1e8840414610e9f576104ab565b8063ba08765214610d37578063bf86d69014610d67578063c244245a14610d85578063c63d75b614610da3578063c6e6f59214610dd3576104ab565b80639fdb11b6116101ea578063ac9650d8116101ae578063ac9650d814610c65578063b0a75d3614610c81578063b187bd2614610c9d578063b3d7f6b914610cbb578063b460af9414610ceb578063b5292a9914610d1b576104ab565b80639fdb11b614610bbf578063a03e4bc314610bdd578063a07bee0b14610bfb578063a8144e4814610c17578063a9059cbb14610c35576104ab565b806395d89b411161023157806395d89b4114610b2d5780639955a9d414610b4b5780639959af9414610b675780639c552ca814610b855780639c5f00c214610ba1576104ab565b80637ecebe0014610a4f5780638da5cb5b14610a7f578063920f5c8414610a9d57806393bbeac014610acd57806394bf804d14610afd576104ab565b80633e3382ba116103945780635a400d25116103115780636ff1c02a116102d55780636ff1c02a1461097257806370a082311461099057806371e99dc2146109c05780637384504f146109de57806378e0233e14610a115780637b10399914610a31576104ab565b80635a400d25146108ce5780635e2c576e146108ec5780635f6b88a0146108f6578063687c2b50146109125780636e553f6514610942576104ab565b80634e84befe116103585780634e84befe1461082e578063501eb4fe1461084a578063530a37141461086657806358db626d1461088257806359d20b4e1461089e576104ab565b80633e3382ba14610776578063402d267d14610794578063439fab91146107c45780634c4602da146107e05780634cdad506146107fe576104ab565b8063150b7a021161042d57806333e15be2116103f157806333e15be2146106c85780633644e515146106e4578063379e0b131461070257806338d52e0f1461071e5780633998a6811461073c5780633d8ab1e51461075a576104ab565b8063150b7a02146105fc57806318160ddd1461062c57806318d4c1431461064a57806323b872dd1461067a578063313ce567146106aa576104ab565b806307a2d13a1161047457806307a2d13a14610544578063087ed83714610574578063095ea7b3146105925780630a28a477146105c25780630a680e18146105f2576104ab565b806251a3b7146104b057806301e1d114146104ce5780630402ab63146104ec57806306fdde031461050a5780630780fd3a14610528575b600080fd5b6104b861104a565b6040516104c591906179de565b60405180910390f35b6104d6611050565b6040516104e391906179de565b60405180910390f35b6104f46110ae565b60405161050191906179de565b60405180910390f35b6105126110b5565b60405161051f9190617a89565b60405180910390f35b610542600480360381019061053d9190617afb565b611143565b005b61055e60048036038101906105599190617b54565b6111df565b60405161056b91906179de565b60405180910390f35b61057c6111f9565b6040516105899190617caf565b60405180910390f35b6105ac60048036038101906105a79190617d0f565b6112ff565b6040516105b99190617d6a565b60405180910390f35b6105dc60048036038101906105d79190617b54565b6113f1565b6040516105e991906179de565b60405180910390f35b6105fa611410565b005b61061660048036038101906106119190617eba565b6114fd565b6040516106239190617f78565b60405180910390f35b610634611511565b60405161064191906179de565b60405180910390f35b610664600480360381019061065f9190617f93565b611517565b6040516106719190617d6a565b60405180910390f35b610694600480360381019061068f9190617fc0565b611537565b6040516106a19190617d6a565b60405180910390f35b6106b2611556565b6040516106bf919061802f565b60405180910390f35b6106e260048036038101906106dd9190618076565b611569565b005b6106ec6116ee565b6040516106f991906180cf565b60405180910390f35b61071c600480360381019061071791906180ea565b61170f565b005b610726611a42565b604051610733919061814c565b60405180910390f35b610744611a68565b604051610751919061818a565b60405180910390f35b610774600480360381019061076f9190617f93565b611a74565b005b61077e611c24565b60405161078b9190618263565b60405180910390f35b6107ae60048036038101906107a99190617f93565b611ca8565b6040516107bb91906179de565b60405180910390f35b6107de60048036038101906107d991906182e5565b611cf1565b005b6107e8612161565b6040516107f59190617d6a565b60405180910390f35b61081860048036038101906108139190617b54565b612174565b60405161082591906179de565b60405180910390f35b6108486004803603810190610843919061856a565b612193565b005b610864600480360381019061085f9190617afb565b6125e9565b005b610880600480360381019061087b9190617b54565b612685565b005b61089c600480360381019061089791906185ed565b6127c1565b005b6108b860048036038101906108b39190617b54565b612a06565b6040516108c5919061863c565b60405180910390f35b6108d6612a40565b6040516108e391906179de565b60405180910390f35b6108f4612a45565b005b610910600480360381019061090b9190617f93565b612b70565b005b61092c60048036038101906109279190617f93565b612c95565b60405161093991906179de565b60405180910390f35b61095c60048036038101906109579190618657565b612cad565b60405161096991906179de565b60405180910390f35b61097a612d6a565b604051610987919061818a565b60405180910390f35b6109aa60048036038101906109a59190617f93565b612d76565b6040516109b791906179de565b60405180910390f35b6109c8612d8e565b6040516109d59190618263565b60405180910390f35b6109f860048036038101906109f39190617afb565b612e12565b604051610a0894939291906186fb565b60405180910390f35b610a19612f7f565b604051610a28939291906188ca565b60405180910390f35b610a39613339565b604051610a469190618937565b60405180910390f35b610a696004803603810190610a649190617f93565b61335f565b604051610a7691906179de565b60405180910390f35b610a87613377565b604051610a949190618952565b60405180910390f35b610ab76004803603810190610ab29190618a19565b61339d565b604051610ac49190617d6a565b60405180910390f35b610ae76004803603810190610ae29190617b54565b613703565b604051610af49190617d6a565b60405180910390f35b610b176004803603810190610b129190618657565b613723565b604051610b2491906179de565b60405180910390f35b610b356137e0565b604051610b429190617a89565b60405180910390f35b610b656004803603810190610b609190618b15565b61386e565b005b610b6f613918565b604051610b7c9190617d6a565b60405180910390f35b610b9f6004803603810190610b9a9190617b54565b61392b565b005b610ba9613a4f565b604051610bb6919061863c565b60405180910390f35b610bc7613a65565b604051610bd491906179de565b60405180910390f35b610be5613a6b565b604051610bf29190618952565b60405180910390f35b610c156004803603810190610c1091906180ea565b613a91565b005b610c1f613b31565b604051610c2c91906179de565b60405180910390f35b610c4f6004803603810190610c4a9190617d0f565b613b8f565b604051610c5c9190617d6a565b60405180910390f35b610c7f6004803603810190610c7a9190618bee565b613bac565b005b610c9b6004803603810190610c969190617f93565b613c63565b005b610ca5613d98565b604051610cb29190617d6a565b60405180910390f35b610cd56004803603810190610cd09190617b54565b613e59565b604051610ce291906179de565b60405180910390f35b610d056004803603810190610d009190618c3b565b613e78565b604051610d1291906179de565b60405180910390f35b610d356004803603810190610d309190618cba565b613efd565b005b610d516004803603810190610d4c9190618c3b565b614064565b604051610d5e91906179de565b60405180910390f35b610d6f614123565b604051610d7c9190617d6a565b60405180910390f35b610d8d614136565b604051610d9a91906179de565b60405180910390f35b610dbd6004803603810190610db89190617f93565b61413c565b604051610dca91906179de565b60405180910390f35b610ded6004803603810190610de89190617b54565b614185565b604051610dfa91906179de565b60405180910390f35b610e1d6004803603810190610e189190617afb565b61419f565b604051610e2a9190617d6a565b60405180910390f35b610e3b6141bf565b604051610e4891906179de565b60405180910390f35b610e6b6004803603810190610e669190617f93565b6141c4565b604051610e7891906179de565b60405180910390f35b610e8961421d565b604051610e9691906179de565b60405180910390f35b610eb96004803603810190610eb49190617afb565b614223565b005b610ed56004803603810190610ed09190618d3f565b614328565b005b610edf614621565b604051610eec9190618e02565b60405180910390f35b610f0f6004803603810190610f0a9190617f93565b614647565b604051610f1c91906179de565b60405180910390f35b610f3f6004803603810190610f3a9190618e1d565b6146a0565b604051610f4c91906179de565b60405180910390f35b610f6f6004803603810190610f6a9190617b54565b6146c5565b604051610f7c919061863c565b60405180910390f35b610f8d6146ff565b604051610f9d9493929190618e5d565b60405180910390f35b610fc06004803603810190610fbb9190618ea2565b614779565b005b610fca614826565b604051610fd7919061818a565b60405180910390f35b610ffa6004803603810190610ff59190617b54565b614832565b60405161100791906179de565b60405180910390f35b61102a60048036038101906110259190617f93565b614851565b005b61103461497f565b60405161104191906179de565b60405180910390f35b61012c81565b600061105a614b8c565b6001600b541461109f576040517f08c379a000000000000000000000000000000000000000000000000000000000815260040161109690618f1b565b60405180910390fd5b6110a96000614c76565b905090565b6202a30081565b600080546110c290618f6a565b80601f01602080910402602001604051908101604052809291908181526020018280546110ee90618f6a565b801561113b5780601f106111105761010080835404028352916020019161113b565b820191906000526020600020905b81548152906001019060200180831161111e57829003601f168201915b505050505081565b600a60009054906101000a900473ffffffffffffffffffffffffffffffffffffffff1673ffffffffffffffffffffffffffffffffffffffff163373ffffffffffffffffffffffffffffffffffffffff16146111d3576040517f08c379a00000000000000000000000000000000000000000000000000000000081526004016111ca90618fe7565b60405180910390fd5b6111dc81615217565b50565b60006111f2826111ed611050565b6153db565b9050919050565b6060600d8054905067ffffffffffffffff81111561121a57611219617d8f565b5b6040519080825280602002602001820160405280156112485781602001602082028036833780820191505090505b50905060005b600d805490508110156112fb5761129d600d828154811061127257611271619007565b5b90600052602060002090600891828204019190066004029054906101000a900463ffffffff166154b5565b8282815181106112b0576112af619007565b5b602002602001019073ffffffffffffffffffffffffffffffffffffffff16908173ffffffffffffffffffffffffffffffffffffffff1681525050806112f490619065565b905061124e565b5090565b600081600560003373ffffffffffffffffffffffffffffffffffffffff1673ffffffffffffffffffffffffffffffffffffffff16815260200190815260200160002060008573ffffffffffffffffffffffffffffffffffffffff1673ffffffffffffffffffffffffffffffffffffffff168152602001908152602001600020819055508273ffffffffffffffffffffffffffffffffffffffff163373ffffffffffffffffffffffffffffffffffffffff167f8c5be1e5ebec7d5bd14f71427d1e84f3dd0314c0f7b2291e5b200ac8c7c3b925846040516113df91906179de565b60405180910390a36001905092915050565b6000806113fc611050565b905061140883826155a0565b915050919050565b600a60009054906101000a900473ffffffffffffffffffffffffffffffffffffffff1673ffffffffffffffffffffffffffffffffffffffff163373ffffffffffffffffffffffffffffffffffffffff16146114a0576040517f08c379a000000000000000000000000000000000000000000000000000000000815260040161149790618fe7565b60405180910390fd5b6114a861567a565b6001601660006101000a81548160ff0219169083151502179055507fb8527b93c36dabdfe078af41be789ba946a4adcfeafcf9d8de21d51629859e3c60016040516114f39190617d6a565b60405180910390a1565b600063150b7a0260e01b9050949350505050565b60035481565b60136020528060005260406000206000915054906101000a900460ff1681565b6000611542846156c3565b61154d84848461576e565b90509392505050565b600260009054906101000a900460ff1681565b600a60009054906101000a900473ffffffffffffffffffffffffffffffffffffffff1673ffffffffffffffffffffffffffffffffffffffff163373ffffffffffffffffffffffffffffffffffffffff16146115f9576040517f08c379a00000000000000000000000000000000000000000000000000000000081526004016115f090618fe7565b60405180910390fd5b60008161164557600d8363ffffffff168154811061161a57611619619007565b5b90600052602060002090600891828204019190066004029054906101000a900463ffffffff16611686565b600e8363ffffffff168154811061165f5761165e619007565b5b90600052602060002090600891828204019190066004029054906101000a900463ffffffff165b90506000611693826159b8565b905060008111156116dd5781816040517fe3dca3680000000000000000000000000000000000000000000000000000000081526004016116d49291906190ad565b60405180910390fd5b6116e8848385615aa3565b50505050565b6000600654461461170657611701615c1b565b61170a565b6007545b905090565b600a60009054906101000a900473ffffffffffffffffffffffffffffffffffffffff1673ffffffffffffffffffffffffffffffffffffffff163373ffffffffffffffffffffffffffffffffffffffff161461179f576040517f08c379a000000000000000000000000000000000000000000000000000000000815260040161179690618fe7565b60405180910390fd5b60008082156118d557600e8463ffffffff16815481106117c2576117c1619007565b5b90600052602060002090600891828204019190066004029054906101000a900463ffffffff169150600e8563ffffffff168154811061180457611803619007565b5b90600052602060002090600891828204019190066004029054906101000a900463ffffffff1690508181600e8763ffffffff168154811061184857611847619007565b5b9060005260206000209060089182820401919006600402600e8863ffffffff168154811061187957611878619007565b5b90600052602060002090600891828204019190066004028491906101000a81548163ffffffff021916908363ffffffff1602179055508391906101000a81548163ffffffff021916908363ffffffff16021790555050506119fe565b600d8463ffffffff16815481106118ef576118ee619007565b5b90600052602060002090600891828204019190066004029054906101000a900463ffffffff169150600d8563ffffffff168154811061193157611930619007565b5b90600052602060002090600891828204019190066004029054906101000a900463ffffffff1690508181600d8763ffffffff168154811061197557611974619007565b5b9060005260206000209060089182820401919006600402600d8863ffffffff16815481106119a6576119a5619007565b5b90600052602060002090600891828204019190066004028491906101000a81548163ffffffff021916908363ffffffff1602179055508391906101000a81548163ffffffff021916908363ffffffff16021790555050505b7fb7c5df04749a3a06a9a7bf1a8142ccf2a4ee6cbf4709489e876a6e4eb3301e8a82828787604051611a339493929190619107565b60405180910390a15050505050565b600960009054906101000a900473ffffffffffffffffffffffffffffffffffffffff1681565b6702c68af0bb14000081565b600a60009054906101000a900473ffffffffffffffffffffffffffffffffffffffff1673ffffffffffffffffffffffffffffffffffffffff163373ffffffffffffffffffffffffffffffffffffffff1614611b04576040517f08c379a0000000000000000000000000000000000000000000000000000000008152600401611afb90618fe7565b60405180910390fd5b601660029054906101000a900473ffffffffffffffffffffffffffffffffffffffff1673ffffffffffffffffffffffffffffffffffffffff1663ceee280a826040518263ffffffff1660e01b8152600401611b5f9190618952565b60006040518083038186803b158015611b7757600080fd5b505afa158015611b8b573d6000803e3d6000fd5b505050506001601360008373ffffffffffffffffffffffffffffffffffffffff1673ffffffffffffffffffffffffffffffffffffffff16815260200190815260200160002060006101000a81548160ff0219169083151502179055507f572570e8a43782d3698a3fed258c72f9c201c19be1e4764e359d1adc8f00af7a816001604051611c1992919061914c565b60405180910390a150565b6060600e805480602002602001604051908101604052809291908181526020018280548015611c9e57602002820191906000526020600020906000905b82829054906101000a900463ffffffff1663ffffffff1681526020019060040190602082600301049283019260010382029150808411611c615790505b5050505050905090565b6000601660009054906101000a900460ff1615611cc85760009050611cec565b7fffffffffffffffffffffffffffffffffffffffffffffffffffffffffffffffff90505b919050565b6000601a60169054906101000a900460ff16159050808015611d2557506001601a60159054906101000a900460ff1660ff16105b80611d545750611d3430615ca7565b158015611d5357506001601a60159054906101000a900460ff1660ff16145b5b611d93576040517f08c379a0000000000000000000000000000000000000000000000000000000008152600401611d8a906191e7565b60405180910390fd5b6001601a60156101000a81548160ff021916908360ff1602179055508015611dd1576001601a60166101000a81548160ff0219169083151502179055505b6000806000806000806000808a8a810190611dec9190619362565b9750975097509750975097509750975086601660026101000a81548173ffffffffffffffffffffffffffffffffffffffff021916908373ffffffffffffffffffffffffffffffffffffffff16021790555085600960006101000a81548173ffffffffffffffffffffffffffffffffffffffff021916908373ffffffffffffffffffffffffffffffffffffffff16021790555087600a60006101000a81548173ffffffffffffffffffffffffffffffffffffffff021916908373ffffffffffffffffffffffffffffffffffffffff1602179055506202a300601781905550660aa87bee538000601981905550601660029054906101000a900473ffffffffffffffffffffffffffffffffffffffff1673ffffffffffffffffffffffffffffffffffffffff1663b93f9b0a60026040518263ffffffff1660e01b8152600401611f3391906179de565b602060405180830381865afa158015611f50573d6000803e3d6000fd5b505050506040513d601f19601f82011682018060405250810190611f749190619481565b600c60006101000a81548173ffffffffffffffffffffffffffffffffffffffff021916908373ffffffffffffffffffffffffffffffffffffffff1602179055507387870bca3f3fd6335c3f4ce8392d69350b4fa4e2601a60016101000a81548173ffffffffffffffffffffffffffffffffffffffff021916908373ffffffffffffffffffffffffffffffffffffffff16021790555084600090816120189190619650565b5083600190816120289190619650565b506012600260006101000a81548160ff021916908360ff16021790555046600681905550612054615c1b565b6007819055506001600b8190555061206b83615cca565b612079600084846000615dca565b61208283615217565b670b1a2bc2ec500000601460000160006101000a81548167ffffffffffffffff021916908367ffffffffffffffff16021790555080601460010160006101000a81548173ffffffffffffffffffffffffffffffffffffffff021916908373ffffffffffffffffffffffffffffffffffffffff1602179055505050505050505050801561215c576000601a60166101000a81548160ff0219169083151502179055507f7f26b83ff96e1f2b6a682f133852f6798a09c465da95921460cefb38474024986001604051612153919061975d565b60405180910390a15b505050565b601a60009054906101000a900460ff1681565b60008061217f611050565b905061218b83826153db565b915050919050565b600a60009054906101000a900473ffffffffffffffffffffffffffffffffffffffff1673ffffffffffffffffffffffffffffffffffffffff163373ffffffffffffffffffffffffffffffffffffffff1614612223576040517f08c379a000000000000000000000000000000000000000000000000000000000815260040161221a90618fe7565b60405180910390fd5b6001600b5414612268576040517f08c379a000000000000000000000000000000000000000000000000000000000815260040161225f90618f1b565b60405180910390fd5b6002600b8190555061227861567a565b612280614b8c565b6001601a60006101000a81548160ff0219169083151502179055506000806000806122ab6000614c76565b90506122df601954670de0b6b3a76400006122c69190619778565b670de0b6b3a7640000836161c59092919063ffffffff16565b9350612313601954670de0b6b3a76400006122fa91906197ac565b670de0b6b3a7640000836161c59092919063ffffffff16565b925060035491505060005b84518160ff161015612513576000858260ff168151811061234257612341619007565b5b6020026020010151600001519050601360008273ffffffffffffffffffffffffffffffffffffffff1673ffffffffffffffffffffffffffffffffffffffff16815260200190815260200160002060009054906101000a900460ff166123de57806040517fbbed6c2e0000000000000000000000000000000000000000000000000000000081526004016123d59190618952565b60405180910390fd5b60005b868360ff16815181106123f7576123f6619007565b5b602002602001015160200151518160ff16101561250057612475878460ff168151811061242757612426619007565b5b6020026020010151602001518260ff168151811061244857612447619007565b5b60200260200101518373ffffffffffffffffffffffffffffffffffffffff166161f790919063ffffffff16565b507f7445c6598e1b553f076d507692eab3dceef0d608757141b53e9e56aa8bbaf48382888560ff16815181106124ae576124ad619007565b5b6020026020010151602001518360ff16815181106124cf576124ce619007565b5b60200260200101516040516124e59291906197e0565b60405180910390a180806124f890619810565b9150506123e1565b50508061250c90619810565b905061231e565b5060006125206000614c76565b90508381108061252f57508281115b15612575578084846040517fc51988ea00000000000000000000000000000000000000000000000000000000815260040161256c93929190619839565b60405180910390fd5b60035482146125bf57600354826040517fad0051640000000000000000000000000000000000000000000000000000000081526004016125b6929190619870565b60405180910390fd5b6000601a60006101000a81548160ff021916908315150217905550505050506001600b8190555050565b600a60009054906101000a900473ffffffffffffffffffffffffffffffffffffffff1673ffffffffffffffffffffffffffffffffffffffff163373ffffffffffffffffffffffffffffffffffffffff1614612679576040517f08c379a000000000000000000000000000000000000000000000000000000000815260040161267090618fe7565b60405180910390fd5b61268281615cca565b50565b600a60009054906101000a900473ffffffffffffffffffffffffffffffffffffffff1673ffffffffffffffffffffffffffffffffffffffff163373ffffffffffffffffffffffffffffffffffffffff1614612715576040517f08c379a000000000000000000000000000000000000000000000000000000000815260040161270c90618fe7565b60405180910390fd5b67016345785d8a000067ffffffffffffffff16811115612776578067016345785d8a00006040517f5a5521e000000000000000000000000000000000000000000000000000000000815260040161276d9291906198ca565b60405180910390fd5b60006019549050816019819055507fdf4be33b2e9e3dd4d9e0e85645aea428494a0644a72c51d6a15aedae6b66a3ff81836040516127b5929190619870565b60405180910390a15050565b600a60009054906101000a900473ffffffffffffffffffffffffffffffffffffffff1673ffffffffffffffffffffffffffffffffffffffff163373ffffffffffffffffffffffffffffffffffffffff1614612851576040517f08c379a000000000000000000000000000000000000000000000000000000000815260040161284890618fe7565b60405180910390fd5b60008083156128bc576000612864611050565b905061288e8461271061287791906198f3565b61ffff16612710836162249092919063ffffffff16565b92506128b8846127106128a19190619929565b61ffff16612710836162249092919063ffffffff16565b9150505b601660029054906101000a900473ffffffffffffffffffffffffffffffffffffffff1673ffffffffffffffffffffffffffffffffffffffff1663b93f9b0a60026040518263ffffffff1660e01b815260040161291891906179de565b602060405180830381865afa158015612935573d6000803e3d6000fd5b505050506040513d601f19601f820116820180604052508101906129599190619481565b600c60006101000a81548173ffffffffffffffffffffffffffffffffffffffff021916908373ffffffffffffffffffffffffffffffffffffffff16021790555060006129a3611050565b905084156129ff57828110806129b857508181115b156129fe578083836040517fc51988ea0000000000000000000000000000000000000000000000000000000081526004016129f593929190619839565b60405180910390fd5b5b5050505050565b600d8181548110612a1657600080fd5b9060005260206000209060089182820401919006600402915054906101000a900463ffffffff1681565b600281565b600a60009054906101000a900473ffffffffffffffffffffffffffffffffffffffff1673ffffffffffffffffffffffffffffffffffffffff163373ffffffffffffffffffffffffffffffffffffffff1614612ad5576040517f08c379a0000000000000000000000000000000000000000000000000000000008152600401612acc90618fe7565b60405180910390fd5b601660009054906101000a900460ff16612b1b576040517fec7165bf00000000000000000000000000000000000000000000000000000000815260040160405180910390fd5b6000601660006101000a81548160ff0219169083151502179055507fb8527b93c36dabdfe078af41be789ba946a4adcfeafcf9d8de21d51629859e3c6000604051612b669190617d6a565b60405180910390a1565b600a60009054906101000a900473ffffffffffffffffffffffffffffffffffffffff1673ffffffffffffffffffffffffffffffffffffffff163373ffffffffffffffffffffffffffffffffffffffff1614612c00576040517f08c379a0000000000000000000000000000000000000000000000000000000008152600401612bf790618fe7565b60405180910390fd5b6000601360008373ffffffffffffffffffffffffffffffffffffffff1673ffffffffffffffffffffffffffffffffffffffff16815260200190815260200160002060006101000a81548160ff0219169083151502179055507f572570e8a43782d3698a3fed258c72f9c201c19be1e4764e359d1adc8f00af7a816000604051612c8a92919061914c565b60405180910390a150565b60186020528060005260406000206000915090505481565b60006001600b5414612cf4576040517f08c379a0000000000000000000000000000000000000000000000000000000008152600401612ceb90618f1b565b60405180910390fd5b6002600b819055506000612d086000614c76565b90506000612d16858361624c565b92508203612d50576040517f84de2a6e00000000000000000000000000000000000000000000000000000000815260040160405180910390fd5b612d5b848385616326565b506001600b8190555092915050565b67016345785d8a000081565b60046020528060005260406000206000915090505481565b6060600d805480602002602001604051908101604052809291908181526020018280548015612e0857602002820191906000526020600020906000905b82829054906101000a900463ffffffff1663ffffffff1681526020019060040190602082600301049283019260010382029150808411612dcb5790505b5050505050905090565b60106020528060005260406000206000915090508060000160009054906101000a900473ffffffffffffffffffffffffffffffffffffffff16908060000160149054906101000a900460ff1690806001018054612e6e90618f6a565b80601f0160208091040260200160405190810160405280929190818152602001828054612e9a90618f6a565b8015612ee75780601f10612ebc57610100808354040283529160200191612ee7565b820191906000526020600020905b815481529060010190602001808311612eca57829003601f168201915b505050505090806002018054612efc90618f6a565b80601f0160208091040260200160405190810160405280929190818152602001828054612f2890618f6a565b8015612f755780601f10612f4a57610100808354040283529160200191612f75565b820191906000526020600020905b815481529060010190602001808311612f5857829003601f168201915b5050505050905084565b60608060606000600d8054905090506000600e8054905090508082612fa491906197ac565b67ffffffffffffffff811115612fbd57612fbc617d8f565b5b604051908082528060200260200182016040528015612feb5781602001602082028036833780820191505090505b5094508082612ffa91906197ac565b67ffffffffffffffff81111561301357613012617d8f565b5b6040519080825280602002602001820160405280156130415781602001602082028036833780820191505090505b509350808261305091906197ac565b67ffffffffffffffff81111561306957613068617d8f565b5b6040519080825280602002602001820160405280156130975781602001602082028036833780820191505090505b50925060005b828110156131cd576130e7600d82815481106130bc576130bb619007565b5b90600052602060002090600891828204019190066004029054906101000a900463ffffffff166154b5565b8682815181106130fa576130f9619007565b5b602002602001019073ffffffffffffffffffffffffffffffffffffffff16908173ffffffffffffffffffffffffffffffffffffffff1681525050613176600d828154811061314b5761314a619007565b5b90600052602060002090600891828204019190066004029054906101000a900463ffffffff166159b8565b85828151811061318957613188619007565b5b60200260200101818152505060008482815181106131aa576131a9619007565b5b602002602001019015159081151581525050806131c690619065565b905061309d565b5060005b818110156133315761321b600e82815481106131f0576131ef619007565b5b90600052602060002090600891828204019190066004029054906101000a900463ffffffff166154b5565b86600d805490508361322d91906197ac565b8151811061323e5761323d619007565b5b602002602001019073ffffffffffffffffffffffffffffffffffffffff16908173ffffffffffffffffffffffffffffffffffffffff16815250506132ba600e828154811061328f5761328e619007565b5b90600052602060002090600891828204019190066004029054906101000a900463ffffffff166159b8565b85600d80549050836132cc91906197ac565b815181106132dd576132dc619007565b5b602002602001018181525050600184600d80549050836132fd91906197ac565b8151811061330e5761330d619007565b5b6020026020010190151590811515815250508061332a90619065565b90506131d1565b505050909192565b601660029054906101000a900473ffffffffffffffffffffffffffffffffffffffff1681565b60086020528060005260406000206000915090505481565b600a60009054906101000a900473ffffffffffffffffffffffffffffffffffffffff1681565b60003073ffffffffffffffffffffffffffffffffffffffff168473ffffffffffffffffffffffffffffffffffffffff1614613404576040517f9448dba000000000000000000000000000000000000000000000000000000000815260040160405180910390fd5b601a60019054906101000a900473ffffffffffffffffffffffffffffffffffffffff1673ffffffffffffffffffffffffffffffffffffffff163373ffffffffffffffffffffffffffffffffffffffff161461348b576040517f49456ad900000000000000000000000000000000000000000000000000000000815260040160405180910390fd5b6000838381019061349c919061856a565b905060005b81518160ff16101561361f576000828260ff16815181106134c5576134c4619007565b5b6020026020010151600001519050601360008273ffffffffffffffffffffffffffffffffffffffff1673ffffffffffffffffffffffffffffffffffffffff16815260200190815260200160002060009054906101000a900460ff1661356157806040517fbbed6c2e0000000000000000000000000000000000000000000000000000000081526004016135589190618952565b60405180910390fd5b60005b838360ff168151811061357a57613579619007565b5b602002602001015160200151518160ff16101561360c576135f8848460ff16815181106135aa576135a9619007565b5b6020026020010151602001518260ff16815181106135cb576135ca619007565b5b60200260200101518373ffffffffffffffffffffffffffffffffffffffff166161f790919063ffffffff16565b50808061360490619810565b915050613564565b50508061361890619810565b90506134a1565b5060005b898990508110156136f0576136df601a60019054906101000a900473ffffffffffffffffffffffffffffffffffffffff1689898481811061366757613666619007565b5b905060200201358c8c8581811061368157613680619007565b5b9050602002013561369291906197ac565b8e8e858181106136a5576136a4619007565b5b90506020020160208101906136ba9190617f93565b73ffffffffffffffffffffffffffffffffffffffff166164019092919063ffffffff16565b806136e990619065565b9050613623565b5060019150509998505050505050505050565b600f6020528060005260406000206000915054906101000a900460ff1681565b60006001600b541461376a576040517f08c379a000000000000000000000000000000000000000000000000000000000815260040161376190618f1b565b60405180910390fd5b6002600b81905550600061377e6000614c76565b9050600061378c8583616499565b925082036137c6576040517f9768300500000000000000000000000000000000000000000000000000000000815260040160405180910390fd5b6137d1828585616326565b506001600b8190555092915050565b600180546137ed90618f6a565b80601f016020809104026020016040519081016040528092919081815260200182805461381990618f6a565b80156138665780601f1061383b57610100808354040283529160200191613866565b820191906000526020600020905b81548152906001019060200180831161384957829003601f168201915b505050505081565b600a60009054906101000a900473ffffffffffffffffffffffffffffffffffffffff1673ffffffffffffffffffffffffffffffffffffffff163373ffffffffffffffffffffffffffffffffffffffff16146138fe576040517f08c379a00000000000000000000000000000000000000000000000000000000081526004016138f590618fe7565b60405180910390fd5b61390661567a565b61391284848484615dca565b50505050565b601660019054906101000a900460ff1681565b600a60009054906101000a900473ffffffffffffffffffffffffffffffffffffffff1673ffffffffffffffffffffffffffffffffffffffff163373ffffffffffffffffffffffffffffffffffffffff16146139bb576040517f08c379a00000000000000000000000000000000000000000000000000000000081526004016139b290618fe7565b60405180910390fd5b61012c8110806139cd57506202a30081115b15613a04576040517fe9808cfc00000000000000000000000000000000000000000000000000000000815260040160405180910390fd5b60006017549050816017819055507f227ff5c6b5ffb395236b09fd1b472bb128b36eaa17556633feefe28e94411f248183604051613a43929190619870565b60405180910390a15050565b601160009054906101000a900463ffffffff1681565b60175481565b601a60019054906101000a900473ffffffffffffffffffffffffffffffffffffffff1681565b600a60009054906101000a900473ffffffffffffffffffffffffffffffffffffffff1673ffffffffffffffffffffffffffffffffffffffff163373ffffffffffffffffffffffffffffffffffffffff1614613b21576040517f08c379a0000000000000000000000000000000000000000000000000000000008152600401613b1890618fe7565b60405180910390fd5b613b2c838383615aa3565b505050565b6000613b3b614b8c565b6001600b5414613b80576040517f08c379a0000000000000000000000000000000000000000000000000000000008152600401613b7790618f1b565b60405180910390fd5b613b8a6001614c76565b905090565b6000613b9a336156c3565b613ba48383616573565b905092915050565b60005b82829050811015613c5e57613c4a838383818110613bd057613bcf619007565b5b9050602002810190613be2919061996e565b8080601f016020809104026020016040519081016040528093929190818152602001838380828437600081840152601f19601f820116905080830192505050505050503073ffffffffffffffffffffffffffffffffffffffff166161f790919063ffffffff16565b508080613c5690619065565b915050613baf565b505050565b600a60009054906101000a900473ffffffffffffffffffffffffffffffffffffffff1673ffffffffffffffffffffffffffffffffffffffff163373ffffffffffffffffffffffffffffffffffffffff1614613cf3576040517f08c379a0000000000000000000000000000000000000000000000000000000008152600401613cea90618fe7565b60405180910390fd5b7f51dbb5a65bb22737861a63ec12ba6ce78a98631e9404b0567a2eaf7a06fc544d601460010160009054906101000a900473ffffffffffffffffffffffffffffffffffffffff1682604051613d499291906199d1565b60405180910390a180601460010160006101000a81548173ffffffffffffffffffffffffffffffffffffffff021916908373ffffffffffffffffffffffffffffffffffffffff16021790555050565b6000601660019054906101000a900460ff16613e5157601660029054906101000a900473ffffffffffffffffffffffffffffffffffffffff1673ffffffffffffffffffffffffffffffffffffffff1663ad85dff0306040518263ffffffff1660e01b8152600401613e099190618952565b602060405180830381865afa158015613e26573d6000803e3d6000fd5b505050506040513d601f19601f82011682018060405250810190613e4a9190619a0f565b9050613e56565b600090505b90565b600080613e64611050565b9050613e708382616499565b915050919050565b60006001600b5414613ebf576040517f08c379a0000000000000000000000000000000000000000000000000000000008152600401613eb690618f1b565b60405180910390fd5b6002600b819055506000613ed36000614c76565b9050613edf85826155a0565b9150613eed85838686616687565b506001600b819055509392505050565b600a60009054906101000a900473ffffffffffffffffffffffffffffffffffffffff1673ffffffffffffffffffffffffffffffffffffffff163373ffffffffffffffffffffffffffffffffffffffff1614613f8d576040517f08c379a0000000000000000000000000000000000000000000000000000000008152600401613f8490618fe7565b60405180910390fd5b670de0b6b3a764000067ffffffffffffffff168167ffffffffffffffff161115613fe3576040517f3d0203e500000000000000000000000000000000000000000000000000000000815260040160405180910390fd5b7fb5cc994a260a85a42d6588668221571ae0a14f0a28f9e4817a5195262102c868601460000160009054906101000a900467ffffffffffffffff168260405161402d929190619a3c565b60405180910390a180601460000160006101000a81548167ffffffffffffffff021916908367ffffffffffffffff16021790555050565b60006001600b54146140ab576040517f08c379a00000000000000000000000000000000000000000000000000000000081526004016140a290618f1b565b60405180910390fd5b6002600b8190555060006140bf6000614c76565b905060006140cd86836153db565b92508203614107576040517f9768300500000000000000000000000000000000000000000000000000000000815260040160405180910390fd5b61411382868686616687565b506001600b819055509392505050565b601660009054906101000a900460ff1681565b60195481565b6000601660009054906101000a900460ff161561415c5760009050614180565b7fffffffffffffffffffffffffffffffffffffffffffffffffffffffffffffffff90505b919050565b600061419882614193611050565b61624c565b9050919050565b60126020528060005260406000206000915054906101000a900460ff1681565b600081565b60006001600b541461420b576040517f08c379a000000000000000000000000000000000000000000000000000000000815260040161420290618f1b565b60405180910390fd5b614216826000616895565b9050919050565b600b5481565b600a60009054906101000a900473ffffffffffffffffffffffffffffffffffffffff1673ffffffffffffffffffffffffffffffffffffffff163373ffffffffffffffffffffffffffffffffffffffff16146142b3576040517f08c379a00000000000000000000000000000000000000000000000000000000081526004016142aa90618fe7565b60405180910390fd5b6000601260008363ffffffff1663ffffffff16815260200190815260200160002060006101000a81548160ff0219169083151502179055507fea052d1fb1ecba6aaf6bd32e92f20e7b6a094eaa478248322cc8ff024a90978f81600060405161431d929190619a65565b60405180910390a150565b4284101561436b576040517f08c379a000000000000000000000000000000000000000000000000000000000815260040161436290619ada565b60405180910390fd5b600060016143776116ee565b7f6e71edae12b1b97f4d1f60370fef10105fa2faae0126114a169c64845d6126c98a8a8a600860008f73ffffffffffffffffffffffffffffffffffffffff1673ffffffffffffffffffffffffffffffffffffffff1681526020019081526020016000206000815480929190600101919050558b6040516020016143ff96959493929190619afa565b60405160208183030381529060405280519060200120604051602001614426929190619bd3565b604051602081830303815290604052805190602001208585856040516000815260200160405260405161445c9493929190619c0a565b6020604051602081039080840390855afa15801561447e573d6000803e3d6000fd5b505050602060405103519050600073ffffffffffffffffffffffffffffffffffffffff168173ffffffffffffffffffffffffffffffffffffffff16141580156144f257508773ffffffffffffffffffffffffffffffffffffffff168173ffffffffffffffffffffffffffffffffffffffff16145b614531576040517f08c379a000000000000000000000000000000000000000000000000000000000815260040161452890619c9b565b60405180910390fd5b85600560008373ffffffffffffffffffffffffffffffffffffffff1673ffffffffffffffffffffffffffffffffffffffff16815260200190815260200160002060008973ffffffffffffffffffffffffffffffffffffffff1673ffffffffffffffffffffffffffffffffffffffff16815260200190815260200160002081905550508573ffffffffffffffffffffffffffffffffffffffff168773ffffffffffffffffffffffffffffffffffffffff167f8c5be1e5ebec7d5bd14f71427d1e84f3dd0314c0f7b2291e5b200ac8c7c3b9258760405161461091906179de565b60405180910390a350505050505050565b600c60009054906101000a900473ffffffffffffffffffffffffffffffffffffffff1681565b60006001600b541461468e576040517f08c379a000000000000000000000000000000000000000000000000000000000815260040161468590618f1b565b60405180910390fd5b614699826001616895565b9050919050565b6005602052816000526040600020602052806000526040600020600091509150505481565b600e81815481106146d557600080fd5b9060005260206000209060089182820401919006600402915054906101000a900463ffffffff1681565b60148060000160009054906101000a900467ffffffffffffffff16908060000160089054906101000a900467ffffffffffffffff16908060000160109054906101000a900467ffffffffffffffff16908060010160009054906101000a900473ffffffffffffffffffffffffffffffffffffffff16905084565b600a60009054906101000a900473ffffffffffffffffffffffffffffffffffffffff1673ffffffffffffffffffffffffffffffffffffffff163373ffffffffffffffffffffffffffffffffffffffff1614614809576040517f08c379a000000000000000000000000000000000000000000000000000000000815260040161480090618fe7565b60405180910390fd5b80601660016101000a81548160ff02191690831515021790555050565b670de0b6b3a764000081565b60008061483d611050565b9050614849838261624c565b915050919050565b600a60009054906101000a900473ffffffffffffffffffffffffffffffffffffffff1673ffffffffffffffffffffffffffffffffffffffff163373ffffffffffffffffffffffffffffffffffffffff16146148e1576040517f08c379a00000000000000000000000000000000000000000000000000000000081526004016148d890618fe7565b60405180910390fd5b80600a60006101000a81548173ffffffffffffffffffffffffffffffffffffffff021916908373ffffffffffffffffffffffffffffffffffffffff1602179055508073ffffffffffffffffffffffffffffffffffffffff163373ffffffffffffffffffffffffffffffffffffffff167f8be0079c531659141344cd1fd0a4f28419497f9722a3daafe3b4186f6b6457e060405160405180910390a350565b601081565b6000838054905090506000811115614b385783846001836149a59190619778565b815481106149b6576149b5619007565b5b90600052602060002090600891828204019190066004029054906101000a900463ffffffff1690806001815401808255809150506001900390600052602060002090600891828204019190066004029091909190916101000a81548163ffffffff021916908363ffffffff1602179055506000600182614a369190619778565b90505b8363ffffffff16811115614ae55784600182614a559190619778565b81548110614a6657614a65619007565b5b90600052602060002090600891828204019190066004029054906101000a900463ffffffff16858281548110614a9f57614a9e619007565b5b90600052602060002090600891828204019190066004026101000a81548163ffffffff021916908363ffffffff1602179055508080614add90619cbb565b915050614a39565b5081848463ffffffff1681548110614b0057614aff619007565b5b90600052602060002090600891828204019190066004026101000a81548163ffffffff021916908363ffffffff160217905550614b86565b838290806001815401808255809150506001900390600052602060002090600891828204019190066004029091909190916101000a81548163ffffffff021916908363ffffffff1602179055505b50505050565b601660019054906101000a900460ff16614c7457601660029054906101000a900473ffffffffffffffffffffffffffffffffffffffff1673ffffffffffffffffffffffffffffffffffffffff1663ad85dff0306040518263ffffffff1660e01b8152600401614bfb9190618952565b602060405180830381865afa158015614c18573d6000803e3d6000fd5b505050506040513d601f19601f82011682018060405250810190614c3c9190619a0f565b15614c73576040517ff301f8f000000000000000000000000000000000000000000000000000000000815260040160405180910390fd5b5b565b600080600d80549050905060008167ffffffffffffffff811115614c9d57614c9c617d8f565b5b604051908082528060200260200182016040528015614ccb5781602001602082028036833780820191505090505b50905060008267ffffffffffffffff811115614cea57614ce9617d8f565b5b604051908082528060200260200182016040528015614d185781602001602082028036833780820191505090505b5090508415614ed15760005b83811015614e07576000600d8281548110614d4257614d41619007565b5b90600052602060002090600891828204019190066004029054906101000a900463ffffffff1690506000614d75826169ab565b848481518110614d8857614d87619007565b5b602002602001018181525003614d9e5750614df6565b614da7816154b5565b848381518110614dba57614db9619007565b5b602002602001019073ffffffffffffffffffffffffffffffffffffffff16908173ffffffffffffffffffffffffffffffffffffffff1681525050505b80614e0090619065565b9050614d24565b50600c60009054906101000a900473ffffffffffffffffffffffffffffffffffffffff1673ffffffffffffffffffffffffffffffffffffffff1663b333a1758383600960009054906101000a900473ffffffffffffffffffffffffffffffffffffffff166040518463ffffffff1660e01b8152600401614e8993929190619ce4565b602060405180830381865afa158015614ea6573d6000803e3d6000fd5b505050506040513d601f19601f82011682018060405250810190614eca9190619d3e565b935061520f565b6000600e80549050905060008167ffffffffffffffff811115614ef757614ef6617d8f565b5b604051908082528060200260200182016040528015614f255781602001602082028036833780820191505090505b50905060008267ffffffffffffffff811115614f4457614f43617d8f565b5b604051908082528060200260200182016040528015614f725781602001602082028036833780820191505090505b50905060005b8681101561505b576000600d8281548110614f9657614f95619007565b5b90600052602060002090600891828204019190066004029054906101000a900463ffffffff1690506000614fc9826159b8565b878481518110614fdc57614fdb619007565b5b602002602001018181525003614ff2575061504a565b614ffb816154b5565b87838151811061500e5761500d619007565b5b602002602001019073ffffffffffffffffffffffffffffffffffffffff16908173ffffffffffffffffffffffffffffffffffffffff1681525050505b8061505490619065565b9050614f78565b5060005b83811015615142576000600e828154811061507d5761507c619007565b5b90600052602060002090600891828204019190066004029054906101000a900463ffffffff16905060006150b0826159b8565b8484815181106150c3576150c2619007565b5b6020026020010181815250036150d95750615131565b6150e2816154b5565b8483815181106150f5576150f4619007565b5b602002602001019073ffffffffffffffffffffffffffffffffffffffff16908173ffffffffffffffffffffffffffffffffffffffff1681525050505b8061513b90619065565b905061505f565b50600c60009054906101000a900473ffffffffffffffffffffffffffffffffffffffff1673ffffffffffffffffffffffffffffffffffffffff1663eac6e71686868585600960009054906101000a900473ffffffffffffffffffffffffffffffffffffffff166040518663ffffffff1660e01b81526004016151c8959493929190619d6b565b602060405180830381865afa1580156151e5573d6000803e3d6000fd5b505050506040513d601f19601f820116820180604052508101906152099190619d3e565b96505050505b505050919050565b600f60008263ffffffff16815260200190815260200160002060009054906101000a900460ff1661527f57806040517f70abe859000000000000000000000000000000000000000000000000000000008152600401615276919061863c565b60405180910390fd5b600960009054906101000a900473ffffffffffffffffffffffffffffffffffffffff1673ffffffffffffffffffffffffffffffffffffffff166152c1826154b5565b73ffffffffffffffffffffffffffffffffffffffff161461534557600960009054906101000a900473ffffffffffffffffffffffffffffffffffffffff16615308826154b5565b6040517f5308e78e00000000000000000000000000000000000000000000000000000000815260040161533c9291906199d1565b60405180910390fd5b601060008263ffffffff1663ffffffff16815260200190815260200160002060000160149054906101000a900460ff16156153b757806040517fa42c0f900000000000000000000000000000000000000000000000000000000081526004016153ae919061863c565b60405180910390fd5b80601160006101000a81548163ffffffff021916908363ffffffff16021790555050565b600080600354905060008114615405576154008382866162249092919063ffffffff16565b6154ac565b6154ab6012600960009054906101000a900473ffffffffffffffffffffffffffffffffffffffff1673ffffffffffffffffffffffffffffffffffffffff1663313ce5676040518163ffffffff1660e01b8152600401602060405180830381865afa158015615477573d6000803e3d6000fd5b505050506040513d601f19601f8201168201806040525081019061549b9190619def565b86616af39092919063ffffffff16565b5b91505092915050565b600080601060008463ffffffff1663ffffffff16815260200190815260200160002060000160009054906101000a900473ffffffffffffffffffffffffffffffffffffffff1690508073ffffffffffffffffffffffffffffffffffffffff1663e170a9bf601060008663ffffffff1663ffffffff1681526020019081526020016000206001016040518263ffffffff1660e01b81526004016155579190619eb5565b602060405180830381865afa158015615574573d6000803e3d6000fd5b505050506040513d601f19601f820116820180604052508101906155989190619eec565b915050919050565b6000806003549050600081146155ca576155c58184866161c59092919063ffffffff16565b615671565b615670600960009054906101000a900473ffffffffffffffffffffffffffffffffffffffff1673ffffffffffffffffffffffffffffffffffffffff1663313ce5676040518163ffffffff1660e01b8152600401602060405180830381865afa15801561563a573d6000803e3d6000fd5b505050506040513d601f19601f8201168201806040525081019061565e9190619def565b601286616af39092919063ffffffff16565b5b91505092915050565b601660009054906101000a900460ff16156156c1576040517f6f4a665a00000000000000000000000000000000000000000000000000000000815260040160405180910390fd5b565b6000601860008373ffffffffffffffffffffffffffffffffffffffff1673ffffffffffffffffffffffffffffffffffffffff1681526020019081526020016000205490506000811461576a5760006017548261571f91906197ac565b9050428111156157685780426040517f1be3b8fc00000000000000000000000000000000000000000000000000000000815260040161575f929190619870565b60405180910390fd5b505b5050565b600080600560008673ffffffffffffffffffffffffffffffffffffffff1673ffffffffffffffffffffffffffffffffffffffff16815260200190815260200160002060003373ffffffffffffffffffffffffffffffffffffffff1673ffffffffffffffffffffffffffffffffffffffff1681526020019081526020016000205490507fffffffffffffffffffffffffffffffffffffffffffffffffffffffffffffffff81146158a45782816158239190619778565b600560008773ffffffffffffffffffffffffffffffffffffffff1673ffffffffffffffffffffffffffffffffffffffff16815260200190815260200160002060003373ffffffffffffffffffffffffffffffffffffffff1673ffffffffffffffffffffffffffffffffffffffff168152602001908152602001600020819055505b82600460008773ffffffffffffffffffffffffffffffffffffffff1673ffffffffffffffffffffffffffffffffffffffff16815260200190815260200160002060008282546158f39190619778565b9250508190555082600460008673ffffffffffffffffffffffffffffffffffffffff1673ffffffffffffffffffffffffffffffffffffffff168152602001908152602001600020600082825401925050819055508373ffffffffffffffffffffffffffffffffffffffff168573ffffffffffffffffffffffffffffffffffffffff167fddf252ad1be2c89b69c2b068fc378daa952ba7f163c4a11628f55a4df523b3ef856040516159a491906179de565b60405180910390a360019150509392505050565b600080601060008463ffffffff1663ffffffff16815260200190815260200160002060000160009054906101000a900473ffffffffffffffffffffffffffffffffffffffff1690508073ffffffffffffffffffffffffffffffffffffffff166378415365601060008663ffffffff1663ffffffff1681526020019081526020016000206001016040518263ffffffff1660e01b8152600401615a5a9190619eb5565b602060405180830381865afa158015615a77573d6000803e3d6000fd5b505050506040513d601f19601f82011682018060405250810190615a9b9190619d3e565b915050919050565b601160009054906101000a900463ffffffff1663ffffffff168263ffffffff1603615afa576040517f677b5cc400000000000000000000000000000000000000000000000000000000815260040160405180910390fd5b8015615b1957615b1483600e616b6f90919063ffffffff16565b615b2e565b615b2d83600d616b6f90919063ffffffff16565b5b6000600f60008463ffffffff16815260200190815260200160002060006101000a81548160ff021916908315150217905550601060008363ffffffff1663ffffffff168152602001908152602001600020600080820160006101000a81549073ffffffffffffffffffffffffffffffffffffffff02191690556000820160146101000a81549060ff0219169055600182016000615bcb9190617940565b600282016000615bdb9190617940565b50507fa5cd0099b78b279c04987aa80ffffaf8fc8c8af4e7c7bce2686e8d01e2e1bd518284604051615c0e929190619f19565b60405180910390a1505050565b60007f8b73c3c69bb8fe3d512ecc4cf759cc79239f7b179b0ffacaa9a75d522b39400f6000604051615c4d9190619fe5565b60405180910390207fc89efdaa54c0f20c7adf612882df0950f5a951637e0307cdcb4c672f298b8bc64630604051602001615c8c959493929190619ffc565b60405160208183030381529060405280519060200120905090565b6000808273ffffffffffffffffffffffffffffffffffffffff163b119050919050565b601660029054906101000a900473ffffffffffffffffffffffffffffffffffffffff1673ffffffffffffffffffffffffffffffffffffffff1663a2b3b0fe826040518263ffffffff1660e01b8152600401615d25919061863c565b60006040518083038186803b158015615d3d57600080fd5b505afa158015615d51573d6000803e3d6000fd5b505050506001601260008363ffffffff1663ffffffff16815260200190815260200160002060006101000a81548160ff0219169083151502179055507fea052d1fb1ecba6aaf6bd32e92f20e7b6a094eaa478248322cc8ff024a90978f816001604051615dbf929190619a65565b60405180910390a150565b600f60008463ffffffff16815260200190815260200160002060009054906101000a900460ff1615615e3357826040517f66b129f6000000000000000000000000000000000000000000000000000000008152600401615e2a919061863c565b60405180910390fd5b601260008463ffffffff1663ffffffff16815260200190815260200160002060009054906101000a900460ff16615ea157826040517ffced80e8000000000000000000000000000000000000000000000000000000008152600401615e98919061863c565b60405180910390fd5b6000806000601660029054906101000a900473ffffffffffffffffffffffffffffffffffffffff1673ffffffffffffffffffffffffffffffffffffffff166385ae5d57876040518263ffffffff1660e01b8152600401615f01919061863c565b600060405180830381865afa158015615f1e573d6000803e3d6000fd5b505050506040513d6000823e3d601f19601f82011682018060405250810190615f47919061a0bf565b92509250925083151582151514615f9557856040517f563a17a6000000000000000000000000000000000000000000000000000000008152600401615f8c919061863c565b60405180910390fd5b60405180608001604052808473ffffffffffffffffffffffffffffffffffffffff168152602001831515815260200182815260200186815250601060008863ffffffff1663ffffffff16815260200190815260200160002060008201518160000160006101000a81548173ffffffffffffffffffffffffffffffffffffffff021916908373ffffffffffffffffffffffffffffffffffffffff16021790555060208201518160000160146101000a81548160ff0219169083151502179055506040820151816001019081616069919061a174565b50606082015181600201908161607f919061a174565b5090505081156160ef576010600e80549050106160d45760106040517ff025236d0000000000000000000000000000000000000000000000000000000081526004016160cb91906179de565b60405180910390fd5b6160ea8787600e6149849092919063ffffffff16565b616151565b6010600d805490501061613a5760106040517ff025236d00000000000000000000000000000000000000000000000000000000815260040161613191906179de565b60405180910390fd5b6161508787600d6149849092919063ffffffff16565b5b6001600f60008863ffffffff16815260200190815260200160002060006101000a81548160ff0219169083151502179055507fc4f8cb57c016f0b294fff2666f86fa6cfee9b03aed19f816ae4bf44b7e837bbb86886040516161b4929190619f19565b60405180910390a150505050505050565b600082840290508284820414841517821515166161e157600080fd5b6001826001830304018115150290509392505050565b606061621c838360405180606001604052806027815260200161a7aa60279139616cc5565b905092915050565b6000828402905082848204148415178215151661624057600080fd5b81810490509392505050565b600080600354905060008114616276576162718184866162249092919063ffffffff16565b61631d565b61631c600960009054906101000a900473ffffffffffffffffffffffffffffffffffffffff1673ffffffffffffffffffffffffffffffffffffffff1663313ce5676040518163ffffffff1660e01b8152600401602060405180830381865afa1580156162e6573d6000803e3d6000fd5b505050506040513d601f19601f8201168201806040525081019061630a9190619def565b601286616af39092919063ffffffff16565b5b91505092915050565b616331838383616d4b565b616380333085600960009054906101000a900473ffffffffffffffffffffffffffffffffffffffff1673ffffffffffffffffffffffffffffffffffffffff16616ec6909392919063ffffffff16565b61638a8183616f65565b8073ffffffffffffffffffffffffffffffffffffffff163373ffffffffffffffffffffffffffffffffffffffff167fdcbc1c05240f31ff3ad067ef1ee35ce4997762752e3a095284754544f4c709d785856040516163e9929190619870565b60405180910390a36163fc838383617035565b505050565b60006040517f095ea7b3000000000000000000000000000000000000000000000000000000008152836004820152826024820152602060006044836000895af13d15601f3d1160016000511416171691505080616493576040517f08c379a000000000000000000000000000000000000000000000000000000000815260040161648a9061a292565b60405180910390fd5b50505050565b6000806003549050600081146164c3576164be8382866161c59092919063ffffffff16565b61656a565b6165696012600960009054906101000a900473ffffffffffffffffffffffffffffffffffffffff1673ffffffffffffffffffffffffffffffffffffffff1663313ce5676040518163ffffffff1660e01b8152600401602060405180830381865afa158015616535573d6000803e3d6000fd5b505050506040513d601f19601f820116820180604052508101906165599190619def565b86616af39092919063ffffffff16565b5b91505092915050565b600081600460003373ffffffffffffffffffffffffffffffffffffffff1673ffffffffffffffffffffffffffffffffffffffff16815260200190815260200160002060008282546165c49190619778565b9250508190555081600460008573ffffffffffffffffffffffffffffffffffffffff1673ffffffffffffffffffffffffffffffffffffffff168152602001908152602001600020600082825401925050819055508273ffffffffffffffffffffffffffffffffffffffff163373ffffffffffffffffffffffffffffffffffffffff167fddf252ad1be2c89b69c2b068fc378daa952ba7f163c4a11628f55a4df523b3ef8460405161667591906179de565b60405180910390a36001905092915050565b6166938484848461709a565b8073ffffffffffffffffffffffffffffffffffffffff163373ffffffffffffffffffffffffffffffffffffffff16146167fd576000600560008373ffffffffffffffffffffffffffffffffffffffff1673ffffffffffffffffffffffffffffffffffffffff16815260200190815260200160002060003373ffffffffffffffffffffffffffffffffffffffff1673ffffffffffffffffffffffffffffffffffffffff1681526020019081526020016000205490507fffffffffffffffffffffffffffffffffffffffffffffffffffffffffffffffff81146167fb57838161677a9190619778565b600560008473ffffffffffffffffffffffffffffffffffffffff1673ffffffffffffffffffffffffffffffffffffffff16815260200190815260200160002060003373ffffffffffffffffffffffffffffffffffffffff1673ffffffffffffffffffffffffffffffffffffffff168152602001908152602001600020819055505b505b61680781846170b1565b8073ffffffffffffffffffffffffffffffffffffffff168273ffffffffffffffffffffffffffffffffffffffff163373ffffffffffffffffffffffffffffffffffffffff167ffbde797d201c681b91056529119e0b02407c7bb96a4a2c75c01fc9667232c8db878760405161687d929190619870565b60405180910390a461688f8483617181565b50505050565b600061689f614b8c565b6000601860008573ffffffffffffffffffffffffffffffffffffffff1673ffffffffffffffffffffffffffffffffffffffff16815260200190815260200160002054905060008114616912576000601754826168fb91906197ac565b905042811115616910576000925050506169a5565b505b600061691e6000614c76565b9050600061696b600460008873ffffffffffffffffffffffffffffffffffffffff1673ffffffffffffffffffffffffffffffffffffffff16815260200190815260200160002054836153db565b905060006169796001614c76565b905080821115616989578061698b565b815b945085156169a05761699d858461624c565b94505b505050505b92915050565b6000601060008363ffffffff1663ffffffff16815260200190815260200160002060000160149054906101000a900460ff16156169eb5760009050616aee565b601060008363ffffffff1663ffffffff16815260200190815260200160002060000160009054906101000a900473ffffffffffffffffffffffffffffffffffffffff1673ffffffffffffffffffffffffffffffffffffffff1663fa50e5d2601060008563ffffffff1663ffffffff168152602001908152602001600020600101601060008663ffffffff1663ffffffff1681526020019081526020016000206002016040518363ffffffff1660e01b8152600401616aaa92919061a2b2565b602060405180830381865afa158015616ac7573d6000803e3d6000fd5b505050506040513d601f19601f82011682018060405250810190616aeb9190619d3e565b90505b919050565b60008160ff168360ff1603616b0a57839050616b68565b8160ff168360ff161015616b42578282616b24919061a2e9565b600a616b30919061a451565b84616b3b919061a49c565b9050616b68565b8183616b4e919061a2e9565b600a616b5a919061a451565b84616b65919061a525565b90505b9392505050565b600082805490509050808263ffffffff1610616bc0576040517f08c379a0000000000000000000000000000000000000000000000000000000008152600401616bb79061a5a2565b60405180910390fd5b60008263ffffffff1690505b600182616bd99190619778565b811015616c7e5783600182616bee91906197ac565b81548110616bff57616bfe619007565b5b90600052602060002090600891828204019190066004029054906101000a900463ffffffff16848281548110616c3857616c37619007565b5b90600052602060002090600891828204019190066004026101000a81548163ffffffff021916908363ffffffff1602179055508080616c7690619065565b915050616bcc565b5082805480616c9057616c8f61a5c2565b5b60019003818190600052602060002090600891828204019190066004026101000a81549063ffffffff02191690559055505050565b60606000808573ffffffffffffffffffffffffffffffffffffffff1685604051616cef919061a622565b600060405180830381855af49150503d8060008114616d2a576040519150601f19603f3d011682016040523d82523d6000602084013e616d2f565b606091505b5091509150616d4086838387617616565b925050509392505050565b616d5361567a565b616d5b614b8c565b8073ffffffffffffffffffffffffffffffffffffffff163373ffffffffffffffffffffffffffffffffffffffff1614616e6c57601660029054906101000a900473ffffffffffffffffffffffffffffffffffffffff1673ffffffffffffffffffffffffffffffffffffffff16635551e1b5336040518263ffffffff1660e01b8152600401616de99190618952565b602060405180830381865afa158015616e06573d6000803e3d6000fd5b505050506040513d601f19601f82011682018060405250810190616e2a9190619a0f565b616e6b57336040517fd21c7c94000000000000000000000000000000000000000000000000000000008152600401616e629190618952565b60405180910390fd5b5b6000616e7782611ca8565b905080841115616ec05783816040517fb487ae1c000000000000000000000000000000000000000000000000000000008152600401616eb7929190619870565b60405180910390fd5b50505050565b60006040517f23b872dd0000000000000000000000000000000000000000000000000000000081528460048201528360248201528260448201526020600060648360008a5af13d15601f3d1160016000511416171691505080616f5e576040517f08c379a0000000000000000000000000000000000000000000000000000000008152600401616f559061a685565b60405180910390fd5b5050505050565b8060036000828254616f7791906197ac565b9250508190555080600460008473ffffffffffffffffffffffffffffffffffffffff1673ffffffffffffffffffffffffffffffffffffffff168152602001908152602001600020600082825401925050819055508173ffffffffffffffffffffffffffffffffffffffff16600073ffffffffffffffffffffffffffffffffffffffff167fddf252ad1be2c89b69c2b068fc378daa952ba7f163c4a11628f55a4df523b3ef8360405161702991906179de565b60405180910390a35050565b617051601160009054906101000a900463ffffffff168461768b565b42601860008373ffffffffffffffffffffffffffffffffffffffff1673ffffffffffffffffffffffffffffffffffffffff16815260200190815260200160002081905550505050565b6170a2614b8c565b6170ab816156c3565b50505050565b80600460008473ffffffffffffffffffffffffffffffffffffffff1673ffffffffffffffffffffffffffffffffffffffff16815260200190815260200160002060008282546171009190619778565b9250508190555080600360008282540392505081905550600073ffffffffffffffffffffffffffffffffffffffff168273ffffffffffffffffffffffffffffffffffffffff167fddf252ad1be2c89b69c2b068fc378daa952ba7f163c4a11628f55a4df523b3ef8360405161717591906179de565b60405180910390a35050565b617189617980565b600c60009054906101000a900473ffffffffffffffffffffffffffffffffffffffff1673ffffffffffffffffffffffffffffffffffffffff166302266147600960009054906101000a900473ffffffffffffffffffffffffffffffffffffffff166040518263ffffffff1660e01b8152600401617206919061814c565b602060405180830381865afa158015617223573d6000803e3d6000fd5b505050506040513d601f19601f820116820180604052508101906172479190619d3e565b816040018181525050600960009054906101000a900473ffffffffffffffffffffffffffffffffffffffff1673ffffffffffffffffffffffffffffffffffffffff1663313ce5676040518163ffffffff1660e01b8152600401602060405180830381865afa1580156172bd573d6000803e3d6000fd5b505050506040513d601f19601f820116820180604052508101906172e19190619def565b600a6172ed919061a451565b8160600181815250506000600d80549050905060005b818110156175c9576000600d828154811061732157617320619007565b5b90600052602060002090600891828204019190066004029054906101000a900463ffffffff1690506000617354826169ab565b9050600081036173655750506175b8565b6000617370836154b5565b9050600c60009054906101000a900473ffffffffffffffffffffffffffffffffffffffff1673ffffffffffffffffffffffffffffffffffffffff166302266147826040518263ffffffff1660e01b81526004016173cd919061814c565b602060405180830381865afa1580156173ea573d6000803e3d6000fd5b505050506040513d601f19601f8201168201806040525081019061740e9190619d3e565b8660000181815250508073ffffffffffffffffffffffffffffffffffffffff1663313ce5676040518163ffffffff1660e01b8152600401602060405180830381865afa158015617462573d6000803e3d6000fd5b505050506040513d601f19601f820116820180604052508101906174869190619def565b600a617492919061a451565b8660200181815250506000806174ce8860000151896020015186670de0b6b3a76400006174bf919061a49c565b6162249092919063ffffffff16565b90506174ed88606001518960400151836162249092919063ffffffff16565b9150670de0b6b3a764000082617503919061a525565b91505060008982111561758357600061754289604001518a606001518d670de0b6b3a7640000617533919061a49c565b6162249092919063ffffffff16565b905061756189602001518a60000151836162249092919063ffffffff16565b9150670de0b6b3a764000082617577919061a525565b915060009a5050617595565b839050818a6175929190619778565b99505b6175a085828b6177bc565b60008a036175b25750505050506175c9565b50505050505b806175c290619065565b9050617303565b50600084111561761057836040517fcc5ea39b00000000000000000000000000000000000000000000000000000000815260040161760791906179de565b60405180910390fd5b50505050565b606083156176785760008351036176705761763085615ca7565b61766f576040517f08c379a00000000000000000000000000000000000000000000000000000000081526004016176669061a6f1565b60405180910390fd5b5b829050617683565b61768283836178f0565b5b949350505050565b6000601060008463ffffffff1663ffffffff16815260200190815260200160002060000160009054906101000a900473ffffffffffffffffffffffffffffffffffffffff1690506177b66369445c3160e01b83601060008763ffffffff1663ffffffff168152602001908152602001600020600101601060008863ffffffff1663ffffffff1681526020019081526020016000206002016040516024016177349392919061a711565b604051602081830303815290604052907bffffffffffffffffffffffffffffffffffffffffffffffffffffffff19166020820180517bffffffffffffffffffffffffffffffffffffffffffffffffffffffff83818316178352505050508273ffffffffffffffffffffffffffffffffffffffff166161f790919063ffffffff16565b50505050565b6000601060008563ffffffff1663ffffffff16815260200190815260200160002060000160009054906101000a900473ffffffffffffffffffffffffffffffffffffffff1690506178e963c9111bd760e01b8484601060008963ffffffff1663ffffffff168152602001908152602001600020600101601060008a63ffffffff1663ffffffff168152602001908152602001600020600201604051602401617867949392919061a756565b604051602081830303815290604052907bffffffffffffffffffffffffffffffffffffffffffffffffffffffff19166020820180517bffffffffffffffffffffffffffffffffffffffffffffffffffffffff83818316178352505050508273ffffffffffffffffffffffffffffffffffffffff166161f790919063ffffffff16565b5050505050565b6000825111156179035781518083602001fd5b806040517f08c379a00000000000000000000000000000000000000000000000000000000081526004016179379190617a89565b60405180910390fd5b50805461794c90618f6a565b6000825580601f1061795e575061797d565b601f01602090049060005260206000209081019061797c91906179a8565b5b50565b6040518060800160405280600081526020016000815260200160008152602001600081525090565b5b808211156179c15760008160009055506001016179a9565b5090565b6000819050919050565b6179d8816179c5565b82525050565b60006020820190506179f360008301846179cf565b92915050565b600081519050919050565b600082825260208201905092915050565b60005b83811015617a33578082015181840152602081019050617a18565b60008484015250505050565b6000601f19601f8301169050919050565b6000617a5b826179f9565b617a658185617a04565b9350617a75818560208601617a15565b617a7e81617a3f565b840191505092915050565b60006020820190508181036000830152617aa38184617a50565b905092915050565b6000604051905090565b600080fd5b600080fd5b600063ffffffff82169050919050565b617ad881617abf565b8114617ae357600080fd5b50565b600081359050617af581617acf565b92915050565b600060208284031215617b1157617b10617ab5565b5b6000617b1f84828501617ae6565b91505092915050565b617b31816179c5565b8114617b3c57600080fd5b50565b600081359050617b4e81617b28565b92915050565b600060208284031215617b6a57617b69617ab5565b5b6000617b7884828501617b3f565b91505092915050565b600081519050919050565b600082825260208201905092915050565b6000819050602082019050919050565b600073ffffffffffffffffffffffffffffffffffffffff82169050919050565b6000819050919050565b6000617bf2617bed617be884617bad565b617bcd565b617bad565b9050919050565b6000617c0482617bd7565b9050919050565b6000617c1682617bf9565b9050919050565b617c2681617c0b565b82525050565b6000617c388383617c1d565b60208301905092915050565b6000602082019050919050565b6000617c5c82617b81565b617c668185617b8c565b9350617c7183617b9d565b8060005b83811015617ca2578151617c898882617c2c565b9750617c9483617c44565b925050600181019050617c75565b5085935050505092915050565b60006020820190508181036000830152617cc98184617c51565b905092915050565b6000617cdc82617bad565b9050919050565b617cec81617cd1565b8114617cf757600080fd5b50565b600081359050617d0981617ce3565b92915050565b60008060408385031215617d2657617d25617ab5565b5b6000617d3485828601617cfa565b9250506020617d4585828601617b3f565b9150509250929050565b60008115159050919050565b617d6481617d4f565b82525050565b6000602082019050617d7f6000830184617d5b565b92915050565b600080fd5b600080fd5b7f4e487b7100000000000000000000000000000000000000000000000000000000600052604160045260246000fd5b617dc782617a3f565b810181811067ffffffffffffffff82111715617de657617de5617d8f565b5b80604052505050565b6000617df9617aab565b9050617e058282617dbe565b919050565b600067ffffffffffffffff821115617e2557617e24617d8f565b5b617e2e82617a3f565b9050602081019050919050565b82818337600083830152505050565b6000617e5d617e5884617e0a565b617def565b905082815260208101848484011115617e7957617e78617d8a565b5b617e84848285617e3b565b509392505050565b600082601f830112617ea157617ea0617d85565b5b8135617eb1848260208601617e4a565b91505092915050565b60008060008060808587031215617ed457617ed3617ab5565b5b6000617ee287828801617cfa565b9450506020617ef387828801617cfa565b9350506040617f0487828801617b3f565b925050606085013567ffffffffffffffff811115617f2557617f24617aba565b5b617f3187828801617e8c565b91505092959194509250565b60007fffffffff0000000000000000000000000000000000000000000000000000000082169050919050565b617f7281617f3d565b82525050565b6000602082019050617f8d6000830184617f69565b92915050565b600060208284031215617fa957617fa8617ab5565b5b6000617fb784828501617cfa565b91505092915050565b600080600060608486031215617fd957617fd8617ab5565b5b6000617fe786828701617cfa565b9350506020617ff886828701617cfa565b925050604061800986828701617b3f565b9150509250925092565b600060ff82169050919050565b61802981618013565b82525050565b60006020820190506180446000830184618020565b92915050565b61805381617d4f565b811461805e57600080fd5b50565b6000813590506180708161804a565b92915050565b6000806040838503121561808d5761808c617ab5565b5b600061809b85828601617ae6565b92505060206180ac85828601618061565b9150509250929050565b6000819050919050565b6180c9816180b6565b82525050565b60006020820190506180e460008301846180c0565b92915050565b60008060006060848603121561810357618102617ab5565b5b600061811186828701617ae6565b935050602061812286828701617ae6565b925050604061813386828701618061565b9150509250925092565b61814681617c0b565b82525050565b6000602082019050618161600083018461813d565b92915050565b600067ffffffffffffffff82169050919050565b61818481618167565b82525050565b600060208201905061819f600083018461817b565b92915050565b600081519050919050565b600082825260208201905092915050565b6000819050602082019050919050565b6181da81617abf565b82525050565b60006181ec83836181d1565b60208301905092915050565b6000602082019050919050565b6000618210826181a5565b61821a81856181b0565b9350618225836181c1565b8060005b8381101561825657815161823d88826181e0565b9750618248836181f8565b925050600181019050618229565b5085935050505092915050565b6000602082019050818103600083015261827d8184618205565b905092915050565b600080fd5b600080fd5b60008083601f8401126182a5576182a4617d85565b5b8235905067ffffffffffffffff8111156182c2576182c1618285565b5b6020830191508360018202830111156182de576182dd61828a565b5b9250929050565b600080602083850312156182fc576182fb617ab5565b5b600083013567ffffffffffffffff81111561831a57618319617aba565b5b6183268582860161828f565b92509250509250929050565b600067ffffffffffffffff82111561834d5761834c617d8f565b5b602082029050602081019050919050565b600080fd5b600080fd5b600067ffffffffffffffff82111561838357618382617d8f565b5b602082029050602081019050919050565b60006183a76183a284618368565b617def565b905080838252602082019050602084028301858111156183ca576183c961828a565b5b835b8181101561841157803567ffffffffffffffff8111156183ef576183ee617d85565b5b8086016183fc8982617e8c565b855260208501945050506020810190506183cc565b5050509392505050565b600082601f8301126184305761842f617d85565b5b8135618440848260208601618394565b91505092915050565b60006040828403121561845f5761845e61835e565b5b6184696040617def565b9050600061847984828501617cfa565b600083015250602082013567ffffffffffffffff81111561849d5761849c618363565b5b6184a98482850161841b565b60208301525092915050565b60006184c86184c384618332565b617def565b905080838252602082019050602084028301858111156184eb576184ea61828a565b5b835b8181101561853257803567ffffffffffffffff8111156185105761850f617d85565b5b80860161851d8982618449565b855260208501945050506020810190506184ed565b5050509392505050565b600082601f83011261855157618550617d85565b5b81356185618482602086016184b5565b91505092915050565b6000602082840312156185805761857f617ab5565b5b600082013567ffffffffffffffff81111561859e5761859d617aba565b5b6185aa8482850161853c565b91505092915050565b600061ffff82169050919050565b6185ca816185b3565b81146185d557600080fd5b50565b6000813590506185e7816185c1565b92915050565b6000806040838503121561860457618603617ab5565b5b600061861285828601618061565b9250506020618623858286016185d8565b9150509250929050565b61863681617abf565b82525050565b6000602082019050618651600083018461862d565b92915050565b6000806040838503121561866e5761866d617ab5565b5b600061867c85828601617b3f565b925050602061868d85828601617cfa565b9150509250929050565b6186a081617cd1565b82525050565b600081519050919050565b600082825260208201905092915050565b60006186cd826186a6565b6186d781856186b1565b93506186e7818560208601617a15565b6186f081617a3f565b840191505092915050565b60006080820190506187106000830187618697565b61871d6020830186617d5b565b818103604083015261872f81856186c2565b9050818103606083015261874381846186c2565b905095945050505050565b600081519050919050565b600082825260208201905092915050565b6000819050602082019050919050565b618783816179c5565b82525050565b6000618795838361877a565b60208301905092915050565b6000602082019050919050565b60006187b98261874e565b6187c38185618759565b93506187ce8361876a565b8060005b838110156187ff5781516187e68882618789565b97506187f1836187a1565b9250506001810190506187d2565b5085935050505092915050565b600081519050919050565b600082825260208201905092915050565b6000819050602082019050919050565b61884181617d4f565b82525050565b60006188538383618838565b60208301905092915050565b6000602082019050919050565b60006188778261880c565b6188818185618817565b935061888c83618828565b8060005b838110156188bd5781516188a48882618847565b97506188af8361885f565b925050600181019050618890565b5085935050505092915050565b600060608201905081810360008301526188e48186617c51565b905081810360208301526188f881856187ae565b9050818103604083015261890c818461886c565b9050949350505050565b600061892182617bf9565b9050919050565b61893181618916565b82525050565b600060208201905061894c6000830184618928565b92915050565b60006020820190506189676000830184618697565b92915050565b60008083601f84011261898357618982617d85565b5b8235905067ffffffffffffffff8111156189a05761899f618285565b5b6020830191508360208202830111156189bc576189bb61828a565b5b9250929050565b60008083601f8401126189d9576189d8617d85565b5b8235905067ffffffffffffffff8111156189f6576189f5618285565b5b602083019150836020820283011115618a1257618a1161828a565b5b9250929050565b600080600080600080600080600060a08a8c031215618a3b57618a3a617ab5565b5b60008a013567ffffffffffffffff811115618a5957618a58617aba565b5b618a658c828d0161896d565b995099505060208a013567ffffffffffffffff811115618a8857618a87617aba565b5b618a948c828d016189c3565b975097505060408a013567ffffffffffffffff811115618ab757618ab6617aba565b5b618ac38c828d016189c3565b95509550506060618ad68c828d01617cfa565b93505060808a013567ffffffffffffffff811115618af757618af6617aba565b5b618b038c828d0161828f565b92509250509295985092959850929598565b60008060008060808587031215618b2f57618b2e617ab5565b5b6000618b3d87828801617ae6565b9450506020618b4e87828801617ae6565b935050604085013567ffffffffffffffff811115618b6f57618b6e617aba565b5b618b7b87828801617e8c565b9250506060618b8c87828801618061565b91505092959194509250565b60008083601f840112618bae57618bad617d85565b5b8235905067ffffffffffffffff811115618bcb57618bca618285565b5b602083019150836020820283011115618be757618be661828a565b5b9250929050565b60008060208385031215618c0557618c04617ab5565b5b600083013567ffffffffffffffff811115618c2357618c22617aba565b5b618c2f85828601618b98565b92509250509250929050565b600080600060608486031215618c5457618c53617ab5565b5b6000618c6286828701617b3f565b9350506020618c7386828701617cfa565b9250506040618c8486828701617cfa565b9150509250925092565b618c9781618167565b8114618ca257600080fd5b50565b600081359050618cb481618c8e565b92915050565b600060208284031215618cd057618ccf617ab5565b5b6000618cde84828501618ca5565b91505092915050565b618cf081618013565b8114618cfb57600080fd5b50565b600081359050618d0d81618ce7565b92915050565b618d1c816180b6565b8114618d2757600080fd5b50565b600081359050618d3981618d13565b92915050565b600080600080600080600060e0888a031215618d5e57618d5d617ab5565b5b6000618d6c8a828b01617cfa565b9750506020618d7d8a828b01617cfa565b9650506040618d8e8a828b01617b3f565b9550506060618d9f8a828b01617b3f565b9450506080618db08a828b01618cfe565b93505060a0618dc18a828b01618d2a565b92505060c0618dd28a828b01618d2a565b91505092959891949750929550565b6000618dec82617bf9565b9050919050565b618dfc81618de1565b82525050565b6000602082019050618e176000830184618df3565b92915050565b60008060408385031215618e3457618e33617ab5565b5b6000618e4285828601617cfa565b9250506020618e5385828601617cfa565b9150509250929050565b6000608082019050618e72600083018761817b565b618e7f602083018661817b565b618e8c604083018561817b565b618e996060830184618697565b95945050505050565b600060208284031215618eb857618eb7617ab5565b5b6000618ec684828501618061565b91505092915050565b7f5245454e5452414e435900000000000000000000000000000000000000000000600082015250565b6000618f05600a83617a04565b9150618f1082618ecf565b602082019050919050565b60006020820190508181036000830152618f3481618ef8565b9050919050565b7f4e487b7100000000000000000000000000000000000000000000000000000000600052602260045260246000fd5b60006002820490506001821680618f8257607f821691505b602082108103618f9557618f94618f3b565b5b50919050565b7f554e415554484f52495a45440000000000000000000000000000000000000000600082015250565b6000618fd1600c83617a04565b9150618fdc82618f9b565b602082019050919050565b6000602082019050818103600083015261900081618fc4565b9050919050565b7f4e487b7100000000000000000000000000000000000000000000000000000000600052603260045260246000fd5b7f4e487b7100000000000000000000000000000000000000000000000000000000600052601160045260246000fd5b6000619070826179c5565b91507fffffffffffffffffffffffffffffffffffffffffffffffffffffffffffffffff82036190a2576190a1619036565b5b600182019050919050565b60006040820190506190c2600083018561862d565b6190cf60208301846179cf565b9392505050565b60006190f16190ec6190e784617abf565b617bcd565b6179c5565b9050919050565b619101816190d6565b82525050565b600060808201905061911c600083018761862d565b619129602083018661862d565b61913660408301856190f8565b61914360608301846190f8565b95945050505050565b60006040820190506191616000830185618697565b61916e6020830184617d5b565b9392505050565b7f496e697469616c697a61626c653a20636f6e747261637420697320616c72656160008201527f647920696e697469616c697a6564000000000000000000000000000000000000602082015250565b60006191d1602e83617a04565b91506191dc82619175565b604082019050919050565b60006020820190508181036000830152619200816191c4565b9050919050565b600061921282617bad565b9050919050565b61922281619207565b811461922d57600080fd5b50565b60008135905061923f81619219565b92915050565b600061925082617cd1565b9050919050565b61926081619245565b811461926b57600080fd5b50565b60008135905061927d81619257565b92915050565b600061928e82617cd1565b9050919050565b61929e81619283565b81146192a957600080fd5b50565b6000813590506192bb81619295565b92915050565b600067ffffffffffffffff8211156192dc576192db617d8f565b5b6192e582617a3f565b9050602081019050919050565b6000619305619300846192c1565b617def565b90508281526020810184848401111561932157619320617d8a565b5b61932c848285617e3b565b509392505050565b600082601f83011261934957619348617d85565b5b81356193598482602086016192f2565b91505092915050565b600080600080600080600080610100898b03121561938357619382617ab5565b5b60006193918b828c01619230565b98505060206193a28b828c0161926e565b97505060406193b38b828c016192ac565b965050606089013567ffffffffffffffff8111156193d4576193d3617aba565b5b6193e08b828c01619334565b955050608089013567ffffffffffffffff81111561940157619400617aba565b5b61940d8b828c01619334565b94505060a061941e8b828c01617ae6565b93505060c089013567ffffffffffffffff81111561943f5761943e617aba565b5b61944b8b828c01617e8c565b92505060e061945c8b828c01619230565b9150509295985092959890939650565b60008151905061947b81617ce3565b92915050565b60006020828403121561949757619496617ab5565b5b60006194a58482850161946c565b91505092915050565b60008190508160005260206000209050919050565b60006020601f8301049050919050565b600082821b905092915050565b6000600883026195107fffffffffffffffffffffffffffffffffffffffffffffffffffffffffffffffff826194d3565b61951a86836194d3565b95508019841693508086168417925050509392505050565b600061954d619548619543846179c5565b617bcd565b6179c5565b9050919050565b6000819050919050565b61956783619532565b61957b61957382619554565b8484546194e0565b825550505050565b600090565b619590619583565b61959b81848461955e565b505050565b5b818110156195bf576195b4600082619588565b6001810190506195a1565b5050565b601f821115619604576195d5816194ae565b6195de846194c3565b810160208510156195ed578190505b6196016195f9856194c3565b8301826195a0565b50505b505050565b600082821c905092915050565b600061962760001984600802619609565b1980831691505092915050565b60006196408383619616565b9150826002028217905092915050565b619659826179f9565b67ffffffffffffffff81111561967257619671617d8f565b5b61967c8254618f6a565b6196878282856195c3565b600060209050601f8311600181146196ba57600084156196a8578287015190505b6196b28582619634565b86555061971a565b601f1984166196c8866194ae565b60005b828110156196f0578489015182556001820191506020850194506020810190506196cb565b8683101561970d5784890151619709601f891682619616565b8355505b6001600288020188555050505b505050505050565b6000819050919050565b600061974761974261973d84619722565b617bcd565b618013565b9050919050565b6197578161972c565b82525050565b6000602082019050619772600083018461974e565b92915050565b6000619783826179c5565b915061978e836179c5565b92508282039050818111156197a6576197a5619036565b5b92915050565b60006197b7826179c5565b91506197c2836179c5565b92508282019050808211156197da576197d9619036565b5b92915050565b60006040820190506197f56000830185618697565b818103602083015261980781846186c2565b90509392505050565b600061981b82618013565b915060ff820361982e5761982d619036565b5b600182019050919050565b600060608201905061984e60008301866179cf565b61985b60208301856179cf565b61986860408301846179cf565b949350505050565b600060408201905061988560008301856179cf565b61989260208301846179cf565b9392505050565b60006198b46198af6198aa84618167565b617bcd565b6179c5565b9050919050565b6198c481619899565b82525050565b60006040820190506198df60008301856179cf565b6198ec60208301846198bb565b9392505050565b60006198fe826185b3565b9150619909836185b3565b9250828203905061ffff81111561992357619922619036565b5b92915050565b6000619934826185b3565b915061993f836185b3565b9250828201905061ffff81111561995957619958619036565b5b92915050565b600080fd5b600080fd5b600080fd5b6000808335600160200384360303811261998b5761998a61995f565b5b80840192508235915067ffffffffffffffff8211156199ad576199ac619964565b5b6020830192506001820236038313156199c9576199c8619969565b5b509250929050565b60006040820190506199e66000830185618697565b6199f36020830184618697565b9392505050565b600081519050619a098161804a565b92915050565b600060208284031215619a2557619a24617ab5565b5b6000619a33848285016199fa565b91505092915050565b6000604082019050619a51600083018561817b565b619a5e602083018461817b565b9392505050565b6000604082019050619a7a600083018561862d565b619a876020830184617d5b565b9392505050565b7f5045524d49545f444541444c494e455f45585049524544000000000000000000600082015250565b6000619ac4601783617a04565b9150619acf82619a8e565b602082019050919050565b60006020820190508181036000830152619af381619ab7565b9050919050565b600060c082019050619b0f60008301896180c0565b619b1c6020830188618697565b619b296040830187618697565b619b3660608301866179cf565b619b4360808301856179cf565b619b5060a08301846179cf565b979650505050505050565b600081905092915050565b7f1901000000000000000000000000000000000000000000000000000000000000600082015250565b6000619b9c600283619b5b565b9150619ba782619b66565b600282019050919050565b6000819050919050565b619bcd619bc8826180b6565b619bb2565b82525050565b6000619bde82619b8f565b9150619bea8285619bbc565b602082019150619bfa8284619bbc565b6020820191508190509392505050565b6000608082019050619c1f60008301876180c0565b619c2c6020830186618020565b619c3960408301856180c0565b619c4660608301846180c0565b95945050505050565b7f494e56414c49445f5349474e4552000000000000000000000000000000000000600082015250565b6000619c85600e83617a04565b9150619c9082619c4f565b602082019050919050565b60006020820190508181036000830152619cb481619c78565b9050919050565b6000619cc6826179c5565b915060008203619cd957619cd8619036565b5b600182039050919050565b60006060820190508181036000830152619cfe8186617c51565b90508181036020830152619d1281856187ae565b9050619d21604083018461813d565b949350505050565b600081519050619d3881617b28565b92915050565b600060208284031215619d5457619d53617ab5565b5b6000619d6284828501619d29565b91505092915050565b600060a0820190508181036000830152619d858188617c51565b90508181036020830152619d9981876187ae565b90508181036040830152619dad8186617c51565b90508181036060830152619dc181856187ae565b9050619dd0608083018461813d565b9695505050505050565b600081519050619de981618ce7565b92915050565b600060208284031215619e0557619e04617ab5565b5b6000619e1384828501619dda565b91505092915050565b60008190508160005260206000209050919050565b60008154619e3e81618f6a565b619e4881866186b1565b94506001821660008114619e635760018114619e7957619eac565b60ff198316865281151560200286019350619eac565b619e8285619e1c565b60005b83811015619ea457815481890152600182019150602081019050619e85565b808801955050505b50505092915050565b60006020820190508181036000830152619ecf8184619e31565b905092915050565b600081519050619ee681619295565b92915050565b600060208284031215619f0257619f01617ab5565b5b6000619f1084828501619ed7565b91505092915050565b6000604082019050619f2e600083018561862d565b619f3b60208301846190f8565b9392505050565b600081905092915050565b60008190508160005260206000209050919050565b60008154619f6f81618f6a565b619f798186619f42565b94506001821660008114619f945760018114619fa957619fdc565b60ff1983168652811515820286019350619fdc565b619fb285619f4d565b60005b83811015619fd457815481890152600182019150602081019050619fb5565b838801955050505b50505092915050565b6000619ff18284619f62565b915081905092915050565b600060a08201905061a01160008301886180c0565b61a01e60208301876180c0565b61a02b60408301866180c0565b61a03860608301856179cf565b61a0456080830184618697565b9695505050505050565b600061a06261a05d84617e0a565b617def565b90508281526020810184848401111561a07e5761a07d617d8a565b5b61a089848285617a15565b509392505050565b600082601f83011261a0a65761a0a5617d85565b5b815161a0b684826020860161a04f565b91505092915050565b60008060006060848603121561a0d85761a0d7617ab5565b5b600061a0e68682870161946c565b935050602061a0f7868287016199fa565b925050604084015167ffffffffffffffff81111561a1185761a117617aba565b5b61a1248682870161a091565b9150509250925092565b601f82111561a16f5761a14081619e1c565b61a149846194c3565b8101602085101561a158578190505b61a16c61a164856194c3565b8301826195a0565b50505b505050565b61a17d826186a6565b67ffffffffffffffff81111561a1965761a195617d8f565b5b61a1a08254618f6a565b61a1ab82828561a12e565b600060209050601f83116001811461a1de576000841561a1cc578287015190505b61a1d68582619634565b86555061a23e565b601f19841661a1ec86619e1c565b60005b8281101561a2145784890151825560018201915060208501945060208101905061a1ef565b8683101561a231578489015161a22d601f891682619616565b8355505b6001600288020188555050505b505050505050565b7f415050524f56455f4641494c4544000000000000000000000000000000000000600082015250565b600061a27c600e83617a04565b915061a2878261a246565b602082019050919050565b6000602082019050818103600083015261a2ab8161a26f565b9050919050565b6000604082019050818103600083015261a2cc8185619e31565b9050818103602083015261a2e08184619e31565b90509392505050565b600061a2f482618013565b915061a2ff83618013565b9250828203905060ff81111561a3185761a317619036565b5b92915050565b60008160011c9050919050565b6000808291508390505b600185111561a3755780860481111561a3515761a350619036565b5b600185161561a3605780820291505b808102905061a36e8561a31e565b945061a335565b94509492505050565b60008261a38e576001905061a44a565b8161a39c576000905061a44a565b816001811461a3b2576002811461a3bc5761a3eb565b600191505061a44a565b60ff84111561a3ce5761a3cd619036565b5b8360020a91508482111561a3e55761a3e4619036565b5b5061a44a565b5060208310610133831016604e8410600b841016171561a4205782820a90508381111561a41b5761a41a619036565b5b61a44a565b61a42d848484600161a32b565b9250905081840481111561a4445761a443619036565b5b81810290505b9392505050565b600061a45c826179c5565b915061a46783618013565b925061a4947fffffffffffffffffffffffffffffffffffffffffffffffffffffffffffffffff848461a37e565b905092915050565b600061a4a7826179c5565b915061a4b2836179c5565b9250817fffffffffffffffffffffffffffffffffffffffffffffffffffffffffffffffff048311821515161561a4eb5761a4ea619036565b5b828202905092915050565b7f4e487b7100000000000000000000000000000000000000000000000000000000600052601260045260246000fd5b600061a530826179c5565b915061a53b836179c5565b92508261a54b5761a54a61a4f6565b5b828204905092915050565b7f496e646578206f7574206f6620626f756e647300000000000000000000000000600082015250565b600061a58c601383617a04565b915061a5978261a556565b602082019050919050565b6000602082019050818103600083015261a5bb8161a57f565b9050919050565b7f4e487b7100000000000000000000000000000000000000000000000000000000600052603160045260246000fd5b600061a5fc826186a6565b61a6068185619f42565b935061a616818560208601617a15565b80840191505092915050565b600061a62e828461a5f1565b915081905092915050565b7f5452414e534645525f46524f4d5f4641494c4544000000000000000000000000600082015250565b600061a66f601483617a04565b915061a67a8261a639565b602082019050919050565b6000602082019050818103600083015261a69e8161a662565b9050919050565b7f416464726573733a2063616c6c20746f206e6f6e2d636f6e7472616374000000600082015250565b600061a6db601d83617a04565b915061a6e68261a6a5565b602082019050919050565b6000602082019050818103600083015261a70a8161a6ce565b9050919050565b600060608201905061a72660008301866179cf565b818103602083015261a7388185619e31565b9050818103604083015261a74c8184619e31565b9050949350505050565b600060808201905061a76b60008301876179cf565b61a7786020830186618697565b818103604083015261a78a8185619e31565b9050818103606083015261a79e8184619e31565b90509594505050505056fe416464726573733a206c6f772d6c6576656c2064656c65676174652063616c6c206661696c6564a2646970667358221220cedfd8dfaeea93c79adbafb532a376b8a805cca74894e27bd23fff1ac82bd75664736f6c63430008100033","linkReferences":{}},"methodIdentifiers":{"DOMAIN_SEPARATOR()":"3644e515","GRAVITY_BRIDGE_REGISTRY_SLOT()":"cd82f8b1","MAXIMUM_SHARE_LOCK_PERIOD()":"0402ab63","MAX_FEE_CUT()":"eef33eca","MAX_PLATFORM_FEE()":"3998a681","MAX_POSITIONS()":"f7b24e08","MAX_REBALANCE_DEVIATION()":"6ff1c02a","MINIMUM_SHARE_LOCK_PERIOD()":"0051a3b7","PRICE_ROUTER_REGISTRY_SLOT()":"5a400d25","aavePool()":"a03e4bc3","adaptorCatalogue(address)":"18d4c143","addAdaptorToCatalogue(address)":"3d8ab1e5","addPosition(uint32,uint32,bytes,bool)":"9955a9d4","addPositionToCatalogue(uint32)":"501eb4fe","allowance(address,address)":"dd62ed3e","allowedRebalanceDeviation()":"c244245a","approve(address,uint256)":"095ea7b3","asset()":"38d52e0f","balanceOf(address)":"70a08231","blockExternalReceiver()":"4c4602da","cachePriceRouter(bool,uint16)":"58db626d","callOnAdaptor((address,bytes[])[])":"4e84befe","convertToAssets(uint256)":"07a2d13a","convertToShares(uint256)":"c6e6f592","creditPositions(uint256)":"59d20b4e","debtPositions(uint256)":"e1b1acb7","decimals()":"313ce567","deposit(uint256,address)":"6e553f65","executeOperation(address[],uint256[],uint256[],address,bytes)":"920f5c84","feeData()":"e753e600","forcePositionOut(uint32,uint32,bool)":"a07bee0b","getCreditPositions()":"71e99dc2","getDebtPositions()":"3e3382ba","getPositionAssets()":"087ed837","getPositionData(uint32)":"7384504f","holdingPosition()":"9c5f00c2","ignorePause()":"9959af94","initialize(bytes)":"439fab91","initiateShutdown()":"0a680e18","isPaused()":"b187bd26","isPositionUsed(uint256)":"93bbeac0","isShutdown()":"bf86d690","liftShutdown()":"5e2c576e","locked()":"cf309012","maxDeposit(address)":"402d267d","maxMint(address)":"c63d75b6","maxRedeem(address)":"d905777e","maxWithdraw(address)":"ce96cb77","mint(uint256,address)":"94bf804d","multicall(bytes[])":"ac9650d8","name()":"06fdde03","nonces(address)":"7ecebe00","onERC721Received(address,address,uint256,bytes)":"150b7a02","owner()":"8da5cb5b","permit(address,address,uint256,uint256,uint8,bytes32,bytes32)":"d505accf","positionCatalogue(uint32)":"cbdf33d0","previewDeposit(uint256)":"ef8b30f7","previewMint(uint256)":"b3d7f6b9","previewRedeem(uint256)":"4cdad506","previewWithdraw(uint256)":"0a28a477","priceRouter()":"d7d4bf45","redeem(uint256,address,address)":"ba087652","registry()":"7b103999","removeAdaptorFromCatalogue(address)":"5f6b88a0","removePosition(uint32,bool)":"33e15be2","removePositionFromCatalogue(uint32)":"d1e88404","setHoldingPosition(uint32)":"0780fd3a","setRebalanceDeviation(uint256)":"530a3714","setShareLockPeriod(uint256)":"9c552ca8","setStrategistPayoutAddress(address)":"b0a75d36","setStrategistPlatformCut(uint64)":"b5292a99","shareLockPeriod()":"9fdb11b6","swapPositions(uint32,uint32,bool)":"379e0b13","symbol()":"95d89b41","toggleIgnorePause(bool)":"ebe3c328","totalAssets()":"01e1d114","totalAssetsWithdrawable()":"a8144e48","totalSupply()":"18160ddd","transfer(address,uint256)":"a9059cbb","transferFrom(address,address,uint256)":"23b872dd","transferOwnership(address)":"f2fde38b","userShareLockStartTime(address)":"687c2b50","viewPositionBalances()":"78e0233e","withdraw(uint256,address,address)":"b460af94"},"id":34}