{"abi":[{"type":"constructor","inputs":[{"name":"gravityBridge","type":"address","internalType":"address"},{"name":"swapRouter","type":"address","internalType":"address"},{"name":"priceRouter","type":"address","internalType":"address"}],"stateMutability":"nonpayable"},{"type":"function","name":"PRICE_ROUTER_REGISTRY_SLOT","inputs":[],"outputs":[{"name":"","type":"uint256","internalType":"uint256"}],"stateMutability":"view"},{"type":"function","name":"TRANSITION_PERIOD","inputs":[],"outputs":[{"name":"","type":"uint256","internalType":"uint256"}],"stateMutability":"view"},{"type":"function","name":"addPositionToCellar","inputs":[{"name":"positionId","type":"uint32","internalType":"uint32"}],"outputs":[{"name":"adaptor","type":"address","internalType":"address"},{"name":"isDebt","type":"bool","internalType":"bool"},{"name":"adaptorData","type":"bytes","internalType":"bytes"}],"stateMutability":"view"},{"type":"function","name":"approvedForDepositOnBehalf","inputs":[{"name":"","type":"address","internalType":"address"}],"outputs":[{"name":"","type":"bool","internalType":"bool"}],"stateMutability":"view"},{"type":"function","name":"batchPause","inputs":[{"name":"targets","type":"address[]","internalType":"address[]"}],"outputs":[],"stateMutability":"nonpayable"},{"type":"function","name":"batchUnpause","inputs":[{"name":"targets","type":"address[]","internalType":"address[]"}],"outputs":[],"stateMutability":"nonpayable"},{"type":"function","name":"cancelTransition","inputs":[],"outputs":[],"stateMutability":"nonpayable"},{"type":"function","name":"completeTransition","inputs":[],"outputs":[],"stateMutability":"nonpayable"},{"type":"function","name":"distrustAdaptor","inputs":[{"name":"adaptor","type":"address","internalType":"address"}],"outputs":[],"stateMutability":"nonpayable"},{"type":"function","name":"distrustPosition","inputs":[{"name":"positionId","type":"uint32","internalType":"uint32"}],"outputs":[],"stateMutability":"nonpayable"},{"type":"function","name":"getAddress","inputs":[{"name":"","type":"uint256","internalType":"uint256"}],"outputs":[{"name":"","type":"address","internalType":"address"}],"stateMutability":"view"},{"type":"function","name":"getPositionHashToPositionId","inputs":[{"name":"","type":"bytes32","internalType":"bytes32"}],"outputs":[{"name":"","type":"uint32","internalType":"uint32"}],"stateMutability":"view"},{"type":"function","name":"getPositionIdToPositionData","inputs":[{"name":"","type":"uint32","internalType":"uint32"}],"outputs":[{"name":"adaptor","type":"address","internalType":"address"},{"name":"isDebt","type":"bool","internalType":"bool"},{"name":"adaptorData","type":"bytes","internalType":"bytes"},{"name":"configurationData","type":"bytes","internalType":"bytes"}],"stateMutability":"view"},{"type":"function","name":"isAdaptorTrusted","inputs":[{"name":"","type":"address","internalType":"address"}],"outputs":[{"name":"","type":"bool","internalType":"bool"}],"stateMutability":"view"},{"type":"function","name":"isCallerPaused","inputs":[{"name":"","type":"address","internalType":"address"}],"outputs":[{"name":"","type":"bool","internalType":"bool"}],"stateMutability":"view"},{"type":"function","name":"isIdentifierUsed","inputs":[{"name":"","type":"bytes32","internalType":"bytes32"}],"outputs":[{"name":"","type":"bool","internalType":"bool"}],"stateMutability":"view"},{"type":"function","name":"isPositionTrusted","inputs":[{"name":"","type":"uint32","internalType":"uint32"}],"outputs":[{"name":"","type":"bool","internalType":"bool"}],"stateMutability":"view"},{"type":"function","name":"nextId","inputs":[],"outputs":[{"name":"","type":"uint256","internalType":"uint256"}],"stateMutability":"view"},{"type":"function","name":"owner","inputs":[],"outputs":[{"name":"","type":"address","internalType":"address"}],"stateMutability":"view"},{"type":"function","name":"pendingOwner","inputs":[],"outputs":[{"name":"","type":"address","internalType":"address"}],"stateMutability":"view"},{"type":"function","name":"positionCount","inputs":[],"outputs":[{"name":"","type":"uint32","internalType":"uint32"}],"stateMutability":"view"},{"type":"function","name":"register","inputs":[{"name":"newContract","type":"address","internalType":"address"}],"outputs":[],"stateMutability":"nonpayable"},{"type":"function","name":"renounceOwnership","inputs":[],"outputs":[],"stateMutability":"nonpayable"},{"type":"function","name":"revertIfAdaptorIsNotTrusted","inputs":[{"name":"adaptor","type":"address","internalType":"address"}],"outputs":[],"stateMutability":"view"},{"type":"function","name":"revertIfPositionIsNotTrusted","inputs":[{"name":"positionId","type":"uint32","internalType":"uint32"}],"outputs":[],"stateMutability":"view"},{"type":"function","name":"setAddress","inputs":[{"name":"id","type":"uint256","internalType":"uint256"},{"name":"newAddress","type":"address","internalType":"address"}],"outputs":[],"stateMutability":"nonpayable"},{"type":"function","name":"setApprovedForDepositOnBehalf","inputs":[{"name":"depositor","type":"address","internalType":"address"},{"name":"state","type":"bool","internalType":"bool"}],"outputs":[],"stateMutability":"nonpayable"},{"type":"function","name":"transferOwnership","inputs":[{"name":"newOwner","type":"address","internalType":"address"}],"outputs":[],"stateMutability":"nonpayable"},{"type":"function","name":"transitionOwner","inputs":[{"name":"newOwner","type":"address","internalType":"address"}],"outputs":[],"stateMutability":"nonpayable"},{"type":"function","name":"transitionStart","inputs":[],"outputs":[{"name":"","type":"uint256","internalType":"uint256"}],"stateMutability":"view"},{"type":"function","name":"trustAdaptor","inputs":[{"name":"adaptor","type":"address","internalType":"address"}],"outputs":[],"stateMutability":"nonpayable"},{"type":"function","name":"trustPosition","inputs":[{"name":"adaptor","type":"address","internalType":"address"},{"name":"adaptorData","type":"bytes","internalType":"bytes"}],"outputs":[{"name":"positionId","type":"uint32","internalType":"uint32"}],"stateMutability":"nonpayable"},{"type":"event","name":"AddressChanged","inputs":[{"name":"id","type":"uint256","indexed":true,"internalType":"uint256"},{"name":"oldAddress","type":"address","indexed":false,"internalType":"address"},{"name":"newAddress","type":"address","indexed":false,"internalType":"address"}],"anonymous":false},{"type":"event","name":"DepositorOnBehalfChanged","inputs":[{"name":"depositor","type":"address","indexed":false,"internalType":"address"},{"name":"state","type":"bool","indexed":false,"internalType":"bool"}],"anonymous":false},{"type":"event","name":"OwnerTransitionCancelled","inputs":[],"anonymous":false},{"type":"event","name":"OwnerTransitionComplete","inputs":[{"name":"newOwner","type":"address","indexed":false,"internalType":"address"}],"anonymous":false},{"type":"event","name":"OwnerTransitionStarted","inputs":[{"name":"newOwner","type":"address","indexed":false,"internalType":"address"},{"name":"startTime","type":"uint256","indexed":false,"internalType":"uint256"}],"anonymous":false},{"type":"event","name":"OwnershipTransferred","inputs":[{"name":"previousOwner","type":"address","indexed":true,"internalType":"address"},{"name":"newOwner","type":"address","indexed":true,"internalType":"address"}],"anonymous":false},{"type":"event","name":"PositionAdded","inputs":[{"name":"id","type":"uint32","indexed":false,"internalType":"uint32"},{"name":"adaptor","type":"address","indexed":false,"internalType":"address"},{"name":"isDebt","type":"bool","indexed":false,"internalType":"bool"},{"name":"adaptorData","type":"bytes","indexed":false,"internalType":"bytes"}],"anonymous":false},{"type":"event","name":"Registered","inputs":[{"name":"id","type":"uint256","indexed":true,"internalType":"uint256"},{"name":"newContract","type":"address","indexed":true,"internalType":"address"}],"anonymous":false},{"type":"event","name":"TargetPaused","inputs":[{"name":"target","type":"address","indexed":false,"internalType":"address"}],"anonymous":false},{"type":"event","name":"TargetUnpaused","inputs":[{"name":"target","type":"address","indexed":false,"internalType":"address"}],"anonymous":false},{"type":"error","name":"Registry__AdaptorAlreadyTrusted","inputs":[{"name":"adaptor","type":"address","internalType":"address"}]},{"type":"error","name":"Registry__AdaptorNotTrusted","inputs":[{"name":"adaptor","type":"address","internalType":"address"}]},{"type":"error","name":"Registry__ContractNotRegistered","inputs":[{"name":"id","type":"uint256","internalType":"uint256"}]},{"type":"error","name":"Registry__IdentifierNotUnique","inputs":[]},{"type":"error","name":"Registry__InvalidPositionInput","inputs":[]},{"type":"error","name":"Registry__NewOwnerCanNotBeZero","inputs":[]},{"type":"error","name":"Registry__OnlyCallableByPendingOwner","inputs":[]},{"type":"error","name":"Registry__OnlyCallableByZeroId","inputs":[]},{"type":"error","name":"Registry__PositionDoesNotExist","inputs":[]},{"type":"error","name":"Registry__PositionIsNotTrusted","inputs":[{"name":"position","type":"uint32","internalType":"uint32"}]},{"type":"error","name":"Registry__PositionPricingNotSetUp","inputs":[{"name":"position","type":"address","internalType":"address"}]},{"type":"error","name":"Registry__TargetAlreadyPaused","inputs":[{"name":"target","type":"address","internalType":"address"}]},{"type":"error","name":"Registry__TargetNotPaused","inputs":[{"name":"target","type":"address","internalType":"address"}]},{"type":"error","name":"Registry__TransitionNotPending","inputs":[]},{"type":"error","name":"Registry__TransitionPending","inputs":[]}],"bytecode":{"object":"0x60806040526064600960006101000a81548163ffffffff021916908363ffffffff1602179055503480156200003357600080fd5b50604051620036a3380380620036a38339818101604052810190620000599190620002a2565b620000796200006d620000b560201b60201c565b620000bd60201b60201c565b6200008a836200018160201b60201c565b6200009b826200018160201b60201c565b620000ac816200018160201b60201c565b50505062000384565b600033905090565b60008060009054906101000a900473ffffffffffffffffffffffffffffffffffffffff169050816000806101000a81548173ffffffffffffffffffffffffffffffffffffffff021916908373ffffffffffffffffffffffffffffffffffffffff1602179055508173ffffffffffffffffffffffffffffffffffffffff168173ffffffffffffffffffffffffffffffffffffffff167f8be0079c531659141344cd1fd0a4f28419497f9722a3daafe3b4186f6b6457e060405160405180910390a35050565b8060026000600154815260200190815260200160002060006101000a81548173ffffffffffffffffffffffffffffffffffffffff021916908373ffffffffffffffffffffffffffffffffffffffff1602179055508073ffffffffffffffffffffffffffffffffffffffff166001547f6cd8594df6446610564bf1ea1e804402ea0006dc7b541d3a430d1ea0a62cffd460405160405180910390a360016000815480929190620002309062000337565b919050555050565b600080fd5b600073ffffffffffffffffffffffffffffffffffffffff82169050919050565b60006200026a826200023d565b9050919050565b6200027c816200025d565b81146200028857600080fd5b50565b6000815190506200029c8162000271565b92915050565b600080600060608486031215620002be57620002bd62000238565b5b6000620002ce868287016200028b565b9350506020620002e1868287016200028b565b9250506040620002f4868287016200028b565b9150509250925092565b7f4e487b7100000000000000000000000000000000000000000000000000000000600052601160045260246000fd5b6000819050919050565b600062000344826200032d565b91507fffffffffffffffffffffffffffffffffffffffffffffffffffffffffffffffff8203620003795762000378620002fe565b5b600182019050919050565b61330f80620003946000396000f3fe608060405234801561001057600080fd5b50600436106101f05760003560e01c806385ae5d571161010f578063ad85dff0116100a2578063e30c397811610071578063e30c3978146105a6578063e7702d05146105c4578063f2fde38b146105e2578063f6df4792146105fe576101f0565b8063ad85dff01461050c578063b93f9b0a1461053c578063ca9ff6291461056c578063ceee280a1461058a576101f0565b8063a244316a116100de578063a244316a146104c0578063a2b3b0fe146104ca578063a9b997e4146104e6578063ac4ce2c6146104f0576101f0565b806385ae5d571461043857806388b445ac1461046a5780638da5cb5b1461048657806397377900146104a4576101f0565b80635a400d25116101875780636b2b1d46116101565780636b2b1d46146103d85780636c7dcc6f146103f4578063715018a61461041257806373e173771461041c576101f0565b80635a400d251461035057806361b8ce8c1461036e57806369f2b22b1461038c5780636b29143c146103bc576101f0565b80634420e486116101c35780634420e486146102b55780635551e1b5146102d157806357d9d7df146103015780635a1320bd14610334576101f0565b806309f7abd2146101f557806321a0f753146102255780632f7a64c81461025557806340a5d3f714610285575b600080fd5b61020f600480360381019061020a919061237d565b61061a565b60405161021c91906123c9565b60405180910390f35b61023f600480360381019061023a9190612410565b61063d565b60405161024c9190612458565b60405180910390f35b61026f600480360381019061026a9190612617565b61065d565b60405161027c91906123c9565b60405180910390f35b61029f600480360381019061029a9190612673565b610c73565b6040516102ac9190612458565b60405180910390f35b6102cf60048036038101906102ca9190612673565b610c93565b005b6102eb60048036038101906102e69190612673565b610ca7565b6040516102f89190612458565b60405180910390f35b61031b60048036038101906103169190612410565b610cc7565b60405161032b949392919061272e565b60405180910390f35b61034e600480360381019061034991906127e1565b610e34565b005b610358610e90565b6040516103659190612847565b60405180910390f35b610376610e95565b6040516103839190612847565b60405180910390f35b6103a660048036038101906103a1919061237d565b610e9b565b6040516103b39190612458565b60405180910390f35b6103d660048036038101906103d19190612673565b610ebb565b005b6103f260048036038101906103ed91906127e1565b610fac565b005b6103fc611008565b6040516104099190612847565b60405180910390f35b61041a61100e565b005b61043660048036038101906104319190612673565b611022565b005b610452600480360381019061044d9190612410565b6111f3565b60405161046193929190612862565b60405180910390f35b610484600480360381019061047f9190612410565b61144a565b005b61048e6114f9565b60405161049b91906128a0565b60405180910390f35b6104be60048036038101906104b991906128e7565b611522565b005b6104c86115be565b005b6104e460048036038101906104df9190612410565b61178e565b005b6104ee6117ff565b005b61050a60048036038101906105059190612953565b61196b565b005b61052660048036038101906105219190612673565b611b23565b6040516105339190612458565b60405180910390f35b61055660048036038101906105519190612993565b611b43565b60405161056391906128a0565b60405180910390f35b610574611b76565b6040516105819190612847565b60405180910390f35b6105a4600480360381019061059f9190612673565b611b7d565b005b6105ae611c0e565b6040516105bb91906128a0565b60405180910390f35b6105cc611c34565b6040516105d991906123c9565b60405180910390f35b6105fc60048036038101906105f79190612673565b611c4a565b005b61061860048036038101906106139190612673565b611ccd565b005b600a6020528060005260406000206000915054906101000a900463ffffffff1681565b600c6020528060005260406000206000915054906101000a900460ff1681565b6000610667611eb7565b60008373ffffffffffffffffffffffffffffffffffffffff16637998a1c46040518163ffffffff1660e01b8152600401602060405180830381865afa1580156106b4573d6000803e3d6000fd5b505050506040513d601f19601f820116820180604052508101906106d891906129d5565b905060008473ffffffffffffffffffffffffffffffffffffffff166389353a096040518163ffffffff1660e01b8152600401602060405180830381865afa158015610727573d6000803e3d6000fd5b505050506040513d601f19601f8201168201806040525081019061074b9190612a17565b9050600082828660405160200161076493929190612a53565b6040516020818303038152906040528051906020012090506001600960009054906101000a900463ffffffff1661079b9190612ac0565b9350600073ffffffffffffffffffffffffffffffffffffffff168673ffffffffffffffffffffffffffffffffffffffff16148061080257506000600a600083815260200190815260200160002060009054906101000a900463ffffffff1663ffffffff1614155b15610839576040517f38324f9400000000000000000000000000000000000000000000000000000000815260040160405180910390fd5b600760008773ffffffffffffffffffffffffffffffffffffffff1673ffffffffffffffffffffffffffffffffffffffff16815260200190815260200160002060009054906101000a900460ff166108c757856040517f617fc1e50000000000000000000000000000000000000000000000000000000081526004016108be91906128a0565b60405180910390fd5b60405180608001604052808773ffffffffffffffffffffffffffffffffffffffff1681526020018315158152602001868152602001600060405160200161090e9190612b4a565b604051602081830303815290604052815250600b60008663ffffffff1663ffffffff16815260200190815260200160002060008201518160000160006101000a81548173ffffffffffffffffffffffffffffffffffffffff021916908373ffffffffffffffffffffffffffffffffffffffff16021790555060208201518160000160146101000a81548160ff02191690831515021790555060408201518160010190816109bb9190612d67565b5060608201518160020190816109d19190612d67565b509050506001600c60008663ffffffff1663ffffffff16815260200190815260200160002060006101000a81548160ff02191690831515021790555083600a600083815260200190815260200160002060006101000a81548163ffffffff021916908363ffffffff16021790555060008673ffffffffffffffffffffffffffffffffffffffff1663aeffddde876040518263ffffffff1660e01b8152600401610a7a9190612e39565b600060405180830381865afa158015610a97573d6000803e3d6000fd5b505050506040513d6000823e3d601f19601f82011682018060405250810190610ac09190612f5c565b90506000600260006002815260200190815260200160002060009054906101000a900473ffffffffffffffffffffffffffffffffffffffff16905060005b8251811015610c09578173ffffffffffffffffffffffffffffffffffffffff16634f129c53848381518110610b3657610b35612fa5565b5b60200260200101516040518263ffffffff1660e01b8152600401610b5a9190613029565b602060405180830381865afa158015610b77573d6000803e3d6000fd5b505050506040513d601f19601f82011682018060405250810190610b9b9190612a17565b610bf657828181518110610bb257610bb1612fa5565b5b60200260200101516040517f35b7927c000000000000000000000000000000000000000000000000000000008152600401610bed91906128a0565b60405180910390fd5b8080610c0190613044565b915050610afe565b5085600960006101000a81548163ffffffff021916908363ffffffff1602179055507fd41a81e71989d55a5e59614c50d251dad038837ac25f33bd084049355e13b7348689868a604051610c60949392919061308c565b60405180910390a1505050505092915050565b60076020528060005260406000206000915054906101000a900460ff1681565b610c9b611eb7565b610ca481611f71565b50565b60036020528060005260406000206000915054906101000a900460ff1681565b600b6020528060005260406000206000915090508060000160009054906101000a900473ffffffffffffffffffffffffffffffffffffffff16908060000160149054906101000a900460ff1690806001018054610d2390612b94565b80601f0160208091040260200160405190810160405280929190818152602001828054610d4f90612b94565b8015610d9c5780601f10610d7157610100808354040283529160200191610d9c565b820191906000526020600020905b815481529060010190602001808311610d7f57829003601f168201915b505050505090806002018054610db190612b94565b80601f0160208091040260200160405190810160405280929190818152602001828054610ddd90612b94565b8015610e2a5780601f10610dff57610100808354040283529160200191610e2a565b820191906000526020600020905b815481529060010190602001808311610e0d57829003601f168201915b5050505050905084565b610e3c611eb7565b60005b82829050811015610e8b57610e7a838383818110610e6057610e5f612fa5565b5b9050602002016020810190610e759190612673565b612026565b80610e8490613044565b9050610e3f565b505050565b600281565b60015481565b60086020528060005260406000206000915054906101000a900460ff1681565b610ec3611eb7565b600760008273ffffffffffffffffffffffffffffffffffffffff1673ffffffffffffffffffffffffffffffffffffffff16815260200190815260200160002060009054906101000a900460ff16610f5157806040517f617fc1e5000000000000000000000000000000000000000000000000000000008152600401610f4891906128a0565b60405180910390fd5b6000600760008373ffffffffffffffffffffffffffffffffffffffff1673ffffffffffffffffffffffffffffffffffffffff16815260200190815260200160002060006101000a81548160ff02191690831515021790555050565b610fb4611eb7565b60005b8282905081101561100357610ff2838383818110610fd857610fd7612fa5565b5b9050602002016020810190610fed9190612673565b612146565b80610ffc90613044565b9050610fb7565b505050565b60055481565b611016611eb7565b6110206000612267565b565b6002600080815260200190815260200160002060009054906101000a900473ffffffffffffffffffffffffffffffffffffffff1673ffffffffffffffffffffffffffffffffffffffff163373ffffffffffffffffffffffffffffffffffffffff16146110ba576040517f814455df00000000000000000000000000000000000000000000000000000000815260040160405180910390fd5b600073ffffffffffffffffffffffffffffffffffffffff16600460009054906101000a900473ffffffffffffffffffffffffffffffffffffffff1673ffffffffffffffffffffffffffffffffffffffff1614611142576040517f47ae89ba00000000000000000000000000000000000000000000000000000000815260040160405180910390fd5b600073ffffffffffffffffffffffffffffffffffffffff168173ffffffffffffffffffffffffffffffffffffffff16036111a8576040517fbeba76c600000000000000000000000000000000000000000000000000000000815260040160405180910390fd5b80600460006101000a81548173ffffffffffffffffffffffffffffffffffffffff021916908373ffffffffffffffffffffffffffffffffffffffff1602179055504260058190555050565b6000806060600960009054906101000a900463ffffffff1663ffffffff168463ffffffff16118061122a575060008463ffffffff16145b15611261576040517f3f4c381800000000000000000000000000000000000000000000000000000000815260040160405180910390fd5b61126a8461178e565b6000600b60008663ffffffff1663ffffffff1681526020019081526020016000206040518060800160405290816000820160009054906101000a900473ffffffffffffffffffffffffffffffffffffffff1673ffffffffffffffffffffffffffffffffffffffff1673ffffffffffffffffffffffffffffffffffffffff1681526020016000820160149054906101000a900460ff1615151515815260200160018201805461131790612b94565b80601f016020809104026020016040519081016040528092919081815260200182805461134390612b94565b80156113905780601f1061136557610100808354040283529160200191611390565b820191906000526020600020905b81548152906001019060200180831161137357829003601f168201915b505050505081526020016002820180546113a990612b94565b80601f01602080910402602001604051908101604052809291908181526020018280546113d590612b94565b80156114225780601f106113f757610100808354040283529160200191611422565b820191906000526020600020905b81548152906001019060200180831161140557829003601f168201915b5050505050815250509050806000015181602001518260400151935093509350509193909250565b611452611eb7565b600c60008263ffffffff1663ffffffff16815260200190815260200160002060009054906101000a900460ff166114be576040517f08c379a00000000000000000000000000000000000000000000000000000000081526004016114b590613135565b60405180910390fd5b6000600c60008363ffffffff1663ffffffff16815260200190815260200160002060006101000a81548160ff02191690831515021790555050565b60008060009054906101000a900473ffffffffffffffffffffffffffffffffffffffff16905090565b61152a611eb7565b80600360008473ffffffffffffffffffffffffffffffffffffffff1673ffffffffffffffffffffffffffffffffffffffff16815260200190815260200160002060006101000a81548160ff0219169083151502179055507f88080cc648aed59bee7787598dbbfdf85749921e068a3832fae16df60fd2e95382826040516115b2929190613155565b60405180910390a15050565b600073ffffffffffffffffffffffffffffffffffffffff16600460009054906101000a900473ffffffffffffffffffffffffffffffffffffffff1673ffffffffffffffffffffffffffffffffffffffff1603611646576040517f513f14ca00000000000000000000000000000000000000000000000000000000815260040160405180910390fd5b600460009054906101000a900473ffffffffffffffffffffffffffffffffffffffff1673ffffffffffffffffffffffffffffffffffffffff163373ffffffffffffffffffffffffffffffffffffffff16146116cd576040517f59c74f9b00000000000000000000000000000000000000000000000000000000815260040160405180910390fd5b62093a806005546116de919061317e565b421015611717576040517f47ae89ba00000000000000000000000000000000000000000000000000000000815260040160405180910390fd5b611742600460009054906101000a900473ffffffffffffffffffffffffffffffffffffffff16612267565b6000600460006101000a81548173ffffffffffffffffffffffffffffffffffffffff021916908373ffffffffffffffffffffffffffffffffffffffff1602179055506000600581905550565b600c60008263ffffffff1663ffffffff16815260200190815260200160002060009054906101000a900460ff166117fc57806040517f188404290000000000000000000000000000000000000000000000000000000081526004016117f391906123c9565b60405180910390fd5b50565b6002600080815260200190815260200160002060009054906101000a900473ffffffffffffffffffffffffffffffffffffffff1673ffffffffffffffffffffffffffffffffffffffff163373ffffffffffffffffffffffffffffffffffffffff1614611897576040517f814455df00000000000000000000000000000000000000000000000000000000815260040160405180910390fd5b600073ffffffffffffffffffffffffffffffffffffffff16600460009054906101000a900473ffffffffffffffffffffffffffffffffffffffff1673ffffffffffffffffffffffffffffffffffffffff160361191f576040517f513f14ca00000000000000000000000000000000000000000000000000000000815260040160405180910390fd5b6000600460006101000a81548173ffffffffffffffffffffffffffffffffffffffff021916908373ffffffffffffffffffffffffffffffffffffffff1602179055506000600581905550565b60008211156119c75761197c611eb7565b60015482106119c257816040517f572db8610000000000000000000000000000000000000000000000000000000081526004016119b99190612847565b60405180910390fd5b611a60565b6002600080815260200190815260200160002060009054906101000a900473ffffffffffffffffffffffffffffffffffffffff1673ffffffffffffffffffffffffffffffffffffffff163373ffffffffffffffffffffffffffffffffffffffff1614611a5f576040517f814455df00000000000000000000000000000000000000000000000000000000815260040160405180910390fd5b5b817fefc52903db788e17531d774f10b7ba8aa84168d1dd422986f7927b2217d9f2266002600085815260200190815260200160002060009054906101000a900473ffffffffffffffffffffffffffffffffffffffff1683604051611ac59291906131b2565b60405180910390a2806002600084815260200190815260200160002060006101000a81548173ffffffffffffffffffffffffffffffffffffffff021916908373ffffffffffffffffffffffffffffffffffffffff1602179055505050565b60066020528060005260406000206000915054906101000a900460ff1681565b60026020528060005260406000206000915054906101000a900473ffffffffffffffffffffffffffffffffffffffff1681565b62093a8081565b600760008273ffffffffffffffffffffffffffffffffffffffff1673ffffffffffffffffffffffffffffffffffffffff16815260200190815260200160002060009054906101000a900460ff16611c0b57806040517f617fc1e5000000000000000000000000000000000000000000000000000000008152600401611c0291906128a0565b60405180910390fd5b50565b600460009054906101000a900473ffffffffffffffffffffffffffffffffffffffff1681565b600960009054906101000a900463ffffffff1681565b611c52611eb7565b600073ffffffffffffffffffffffffffffffffffffffff168173ffffffffffffffffffffffffffffffffffffffff1603611cc1576040517f08c379a0000000000000000000000000000000000000000000000000000000008152600401611cb89061324d565b60405180910390fd5b611cca81612267565b50565b611cd5611eb7565b600760008273ffffffffffffffffffffffffffffffffffffffff1673ffffffffffffffffffffffffffffffffffffffff16815260200190815260200160002060009054906101000a900460ff1615611d6457806040517f522603ed000000000000000000000000000000000000000000000000000000008152600401611d5b91906128a0565b60405180910390fd5b60008173ffffffffffffffffffffffffffffffffffffffff16637998a1c46040518163ffffffff1660e01b8152600401602060405180830381865afa158015611db1573d6000803e3d6000fd5b505050506040513d601f19601f82011682018060405250810190611dd591906129d5565b90506008600082815260200190815260200160002060009054906101000a900460ff1615611e2f576040517fd3103dda00000000000000000000000000000000000000000000000000000000815260040160405180910390fd5b6001600760008473ffffffffffffffffffffffffffffffffffffffff1673ffffffffffffffffffffffffffffffffffffffff16815260200190815260200160002060006101000a81548160ff02191690831515021790555060016008600083815260200190815260200160002060006101000a81548160ff0219169083151502179055505050565b611ebf61232b565b73ffffffffffffffffffffffffffffffffffffffff16611edd6114f9565b73ffffffffffffffffffffffffffffffffffffffff1614611f33576040517f08c379a0000000000000000000000000000000000000000000000000000000008152600401611f2a906132b9565b60405180910390fd5b600060055414611f6f576040517f47ae89ba00000000000000000000000000000000000000000000000000000000815260040160405180910390fd5b565b8060026000600154815260200190815260200160002060006101000a81548173ffffffffffffffffffffffffffffffffffffffff021916908373ffffffffffffffffffffffffffffffffffffffff1602179055508073ffffffffffffffffffffffffffffffffffffffff166001547f6cd8594df6446610564bf1ea1e804402ea0006dc7b541d3a430d1ea0a62cffd460405160405180910390a36001600081548092919061201e90613044565b919050555050565b600660008273ffffffffffffffffffffffffffffffffffffffff1673ffffffffffffffffffffffffffffffffffffffff16815260200190815260200160002060009054906101000a900460ff166120b457806040517fc0a06fde0000000000000000000000000000000000000000000000000000000081526004016120ab91906128a0565b60405180910390fd5b6000600660008373ffffffffffffffffffffffffffffffffffffffff1673ffffffffffffffffffffffffffffffffffffffff16815260200190815260200160002060006101000a81548160ff0219169083151502179055507fda4a4e4d690918a7c1907e4c93f70241b04e4635f335c4ed9d92ecda8ab29a758160405161213b91906128a0565b60405180910390a150565b600660008273ffffffffffffffffffffffffffffffffffffffff1673ffffffffffffffffffffffffffffffffffffffff16815260200190815260200160002060009054906101000a900460ff16156121d557806040517f037bb7860000000000000000000000000000000000000000000000000000000081526004016121cc91906128a0565b60405180910390fd5b6001600660008373ffffffffffffffffffffffffffffffffffffffff1673ffffffffffffffffffffffffffffffffffffffff16815260200190815260200160002060006101000a81548160ff0219169083151502179055507f768ecf046548b374c71f4111509747370f9d3e7de9a6c35cb41a564d8d5b56ca8160405161225c91906128a0565b60405180910390a150565b60008060009054906101000a900473ffffffffffffffffffffffffffffffffffffffff169050816000806101000a81548173ffffffffffffffffffffffffffffffffffffffff021916908373ffffffffffffffffffffffffffffffffffffffff1602179055508173ffffffffffffffffffffffffffffffffffffffff168173ffffffffffffffffffffffffffffffffffffffff167f8be0079c531659141344cd1fd0a4f28419497f9722a3daafe3b4186f6b6457e060405160405180910390a35050565b600033905090565b6000604051905090565b600080fd5b600080fd5b6000819050919050565b61235a81612347565b811461236557600080fd5b50565b60008135905061237781612351565b92915050565b6000602082840312156123935761239261233d565b5b60006123a184828501612368565b91505092915050565b600063ffffffff82169050919050565b6123c3816123aa565b82525050565b60006020820190506123de60008301846123ba565b92915050565b6123ed816123aa565b81146123f857600080fd5b50565b60008135905061240a816123e4565b92915050565b6000602082840312156124265761242561233d565b5b6000612434848285016123fb565b91505092915050565b60008115159050919050565b6124528161243d565b82525050565b600060208201905061246d6000830184612449565b92915050565b600073ffffffffffffffffffffffffffffffffffffffff82169050919050565b600061249e82612473565b9050919050565b6124ae81612493565b81146124b957600080fd5b50565b6000813590506124cb816124a5565b92915050565b600080fd5b600080fd5b6000601f19601f8301169050919050565b7f4e487b7100000000000000000000000000000000000000000000000000000000600052604160045260246000fd5b612524826124db565b810181811067ffffffffffffffff82111715612543576125426124ec565b5b80604052505050565b6000612556612333565b9050612562828261251b565b919050565b600067ffffffffffffffff821115612582576125816124ec565b5b61258b826124db565b9050602081019050919050565b82818337600083830152505050565b60006125ba6125b584612567565b61254c565b9050828152602081018484840111156125d6576125d56124d6565b5b6125e1848285612598565b509392505050565b600082601f8301126125fe576125fd6124d1565b5b813561260e8482602086016125a7565b91505092915050565b6000806040838503121561262e5761262d61233d565b5b600061263c858286016124bc565b925050602083013567ffffffffffffffff81111561265d5761265c612342565b5b612669858286016125e9565b9150509250929050565b6000602082840312156126895761268861233d565b5b6000612697848285016124bc565b91505092915050565b6126a981612493565b82525050565b600081519050919050565b600082825260208201905092915050565b60005b838110156126e95780820151818401526020810190506126ce565b60008484015250505050565b6000612700826126af565b61270a81856126ba565b935061271a8185602086016126cb565b612723816124db565b840191505092915050565b600060808201905061274360008301876126a0565b6127506020830186612449565b818103604083015261276281856126f5565b9050818103606083015261277681846126f5565b905095945050505050565b600080fd5b600080fd5b60008083601f8401126127a1576127a06124d1565b5b8235905067ffffffffffffffff8111156127be576127bd612781565b5b6020830191508360208202830111156127da576127d9612786565b5b9250929050565b600080602083850312156127f8576127f761233d565b5b600083013567ffffffffffffffff81111561281657612815612342565b5b6128228582860161278b565b92509250509250929050565b6000819050919050565b6128418161282e565b82525050565b600060208201905061285c6000830184612838565b92915050565b600060608201905061287760008301866126a0565b6128846020830185612449565b818103604083015261289681846126f5565b9050949350505050565b60006020820190506128b560008301846126a0565b92915050565b6128c48161243d565b81146128cf57600080fd5b50565b6000813590506128e1816128bb565b92915050565b600080604083850312156128fe576128fd61233d565b5b600061290c858286016124bc565b925050602061291d858286016128d2565b9150509250929050565b6129308161282e565b811461293b57600080fd5b50565b60008135905061294d81612927565b92915050565b6000806040838503121561296a5761296961233d565b5b60006129788582860161293e565b9250506020612989858286016124bc565b9150509250929050565b6000602082840312156129a9576129a861233d565b5b60006129b78482850161293e565b91505092915050565b6000815190506129cf81612351565b92915050565b6000602082840312156129eb576129ea61233d565b5b60006129f9848285016129c0565b91505092915050565b600081519050612a11816128bb565b92915050565b600060208284031215612a2d57612a2c61233d565b5b6000612a3b84828501612a02565b91505092915050565b612a4d81612347565b82525050565b6000606082019050612a686000830186612a44565b612a756020830185612449565b8181036040830152612a8781846126f5565b9050949350505050565b7f4e487b7100000000000000000000000000000000000000000000000000000000600052601160045260246000fd5b6000612acb826123aa565b9150612ad6836123aa565b9250828201905063ffffffff811115612af257612af1612a91565b5b92915050565b6000819050919050565b600060ff82169050919050565b6000819050919050565b6000612b34612b2f612b2a84612af8565b612b0f565b612b02565b9050919050565b612b4481612b19565b82525050565b6000602082019050612b5f6000830184612b3b565b92915050565b7f4e487b7100000000000000000000000000000000000000000000000000000000600052602260045260246000fd5b60006002820490506001821680612bac57607f821691505b602082108103612bbf57612bbe612b65565b5b50919050565b60008190508160005260206000209050919050565b60006020601f8301049050919050565b600082821b905092915050565b600060088302612c277fffffffffffffffffffffffffffffffffffffffffffffffffffffffffffffffff82612bea565b612c318683612bea565b95508019841693508086168417925050509392505050565b6000612c64612c5f612c5a8461282e565b612b0f565b61282e565b9050919050565b6000819050919050565b612c7e83612c49565b612c92612c8a82612c6b565b848454612bf7565b825550505050565b600090565b612ca7612c9a565b612cb2818484612c75565b505050565b5b81811015612cd657612ccb600082612c9f565b600181019050612cb8565b5050565b601f821115612d1b57612cec81612bc5565b612cf584612bda565b81016020851015612d04578190505b612d18612d1085612bda565b830182612cb7565b50505b505050565b600082821c905092915050565b6000612d3e60001984600802612d20565b1980831691505092915050565b6000612d578383612d2d565b9150826002028217905092915050565b612d70826126af565b67ffffffffffffffff811115612d8957612d886124ec565b5b612d938254612b94565b612d9e828285612cda565b600060209050601f831160018114612dd15760008415612dbf578287015190505b612dc98582612d4b565b865550612e31565b601f198416612ddf86612bc5565b60005b82811015612e0757848901518255600182019150602085019450602081019050612de2565b86831015612e245784890151612e20601f891682612d2d565b8355505b6001600288020188555050505b505050505050565b60006020820190508181036000830152612e5381846126f5565b905092915050565b600067ffffffffffffffff821115612e7657612e756124ec565b5b602082029050602081019050919050565b6000612e9282612493565b9050919050565b612ea281612e87565b8114612ead57600080fd5b50565b600081519050612ebf81612e99565b92915050565b6000612ed8612ed384612e5b565b61254c565b90508083825260208201905060208402830185811115612efb57612efa612786565b5b835b81811015612f245780612f108882612eb0565b845260208401935050602081019050612efd565b5050509392505050565b600082601f830112612f4357612f426124d1565b5b8151612f53848260208601612ec5565b91505092915050565b600060208284031215612f7257612f7161233d565b5b600082015167ffffffffffffffff811115612f9057612f8f612342565b5b612f9c84828501612f2e565b91505092915050565b7f4e487b7100000000000000000000000000000000000000000000000000000000600052603260045260246000fd5b6000612fef612fea612fe584612473565b612b0f565b612473565b9050919050565b600061300182612fd4565b9050919050565b600061301382612ff6565b9050919050565b61302381613008565b82525050565b600060208201905061303e600083018461301a565b92915050565b600061304f8261282e565b91507fffffffffffffffffffffffffffffffffffffffffffffffffffffffffffffffff820361308157613080612a91565b5b600182019050919050565b60006080820190506130a160008301876123ba565b6130ae60208301866126a0565b6130bb6040830185612449565b81810360608301526130cd81846126f5565b905095945050505050565b600082825260208201905092915050565b7f506f736974696f6e206e6f742074727573746564000000000000000000000000600082015250565b600061311f6014836130d8565b915061312a826130e9565b602082019050919050565b6000602082019050818103600083015261314e81613112565b9050919050565b600060408201905061316a60008301856126a0565b6131776020830184612449565b9392505050565b60006131898261282e565b91506131948361282e565b92508282019050808211156131ac576131ab612a91565b5b92915050565b60006040820190506131c760008301856126a0565b6131d460208301846126a0565b9392505050565b7f4f776e61626c653a206e6577206f776e657220697320746865207a65726f206160008201527f6464726573730000000000000000000000000000000000000000000000000000602082015250565b60006132376026836130d8565b9150613242826131db565b604082019050919050565b600060208201905081810360008301526132668161322a565b9050919050565b7f4f776e61626c653a2063616c6c6572206973206e6f7420746865206f776e6572600082015250565b60006132a36020836130d8565b91506132ae8261326d565b602082019050919050565b600060208201905081810360008301526132d281613296565b905091905056fea26469706673582212209751dd71f65c0594364c87473a88b8d060c0f21a59d2fcd89f863543af40945164736f6c63430008100033","linkReferences":{}},"methodIdentifiers":{"PRICE_ROUTER_REGISTRY_SLOT()":"5a400d25","TRANSITION_PERIOD()":"ca9ff629","addPositionToCellar(uint32)":"85ae5d57","approvedForDepositOnBehalf(address)":"5551e1b5","batchPause(address[])":"6b2b1d46","batchUnpause(address[])":"5a1320bd","cancelTransition()":"a9b997e4","completeTransition()":"a244316a","distrustAdaptor(address)":"6b29143c","distrustPosition(uint32)":"88b445ac","getAddress(uint256)":"b93f9b0a","getPositionHashToPositionId(bytes32)":"09f7abd2","getPositionIdToPositionData(uint32)":"57d9d7df","isAdaptorTrusted(address)":"40a5d3f7","isCallerPaused(address)":"ad85dff0","isIdentifierUsed(bytes32)":"69f2b22b","isPositionTrusted(uint32)":"21a0f753","nextId()":"61b8ce8c","owner()":"8da5cb5b","pendingOwner()":"e30c3978","positionCount()":"e7702d05","register(address)":"4420e486","renounceOwnership()":"715018a6","revertIfAdaptorIsNotTrusted(address)":"ceee280a","revertIfPositionIsNotTrusted(uint32)":"a2b3b0fe","setAddress(uint256,address)":"ac4ce2c6","setApprovedForDepositOnBehalf(address,bool)":"97377900","transferOwnership(address)":"f2fde38b","transitionOwner(address)":"73e17377","transitionStart()":"6c7dcc6f","trustAdaptor(address)":"f6df4792","trustPosition(address,bytes)":"2f7a64c8"},"id":32}