{"abi":[{"type":"function","name":"MAX_POSITIONS","inputs":[],"outputs":[{"name":"","type":"uint256","internalType":"uint256"}],"stateMutability":"view"},{"type":"function","name":"addIfElse","inputs":[{"name":"isDebt","type":"bool","internalType":"bool"},{"name":"index","type":"uint32","internalType":"uint32"},{"name":"positionId","type":"uint32","internalType":"uint32"}],"outputs":[],"stateMutability":"nonpayable"},{"type":"function","name":"addPointer","inputs":[{"name":"isDebt","type":"bool","internalType":"bool"},{"name":"index","type":"uint32","internalType":"uint32"},{"name":"positionId","type":"uint32","internalType":"uint32"}],"outputs":[],"stateMutability":"nonpayable"},{"type":"function","name":"creditLen","inputs":[],"outputs":[{"name":"","type":"uint256","internalType":"uint256"}],"stateMutability":"view"},{"type":"function","name":"creditPositions","inputs":[{"name":"","type":"uint256","internalType":"uint256"}],"outputs":[{"name":"","type":"uint32","internalType":"uint32"}],"stateMutability":"view"},{"type":"function","name":"debtLen","inputs":[],"outputs":[{"name":"","type":"uint256","internalType":"uint256"}],"stateMutability":"view"},{"type":"function","name":"debtPositions","inputs":[{"name":"","type":"uint256","internalType":"uint256"}],"outputs":[{"name":"","type":"uint32","internalType":"uint32"}],"stateMutability":"view"},{"type":"function","name":"seed","inputs":[{"name":"n","type":"uint32","internalType":"uint32"}],"outputs":[],"stateMutability":"nonpayable"}],"bytecode":{"object":"0x608060405234801561001057600080fd5b506109d8806100206000396000f3fe608060405234801561001057600080fd5b50600436106100885760003560e01c806383a4b9a61161005b57806383a4b9a61461011357806387aa96761461012f578063e1b1acb71461014d578063f7b24e081461017d57610088565b806301047ab41461008d57806359d20b4e146100a95780635dffdfde146100d957806364227ec7146100f5575b600080fd5b6100a760048036038101906100a29190610697565b61019b565b005b6100c360048036038101906100be91906106fa565b61027a565b6040516100d09190610736565b60405180910390f35b6100f360048036038101906100ee9190610789565b6102b4565b005b6100fd610329565b60405161010a91906107eb565b60405180910390f35b61012d60048036038101906101289190610789565b610335565b005b610137610402565b60405161014491906107eb565b60405180910390f35b610167600480360381019061016291906106fa565b61040f565b6040516101749190610736565b60405180910390f35b610185610449565b60405161019291906107eb565b60405180910390f35b60005b8163ffffffff168163ffffffff1610156102765760006001826101c19190610835565b90806001815401808255809150506001900390600052602060002090600891828204019190066004029091909190916101000a81548163ffffffff021916908363ffffffff1602179055506001808261021a9190610835565b90806001815401808255809150506001900390600052602060002090600891828204019190066004029091909190916101000a81548163ffffffff021916908363ffffffff1602179055508061026f9061086d565b905061019e565b5050565b6000818154811061028a57600080fd5b9060005260206000209060089182820401919006600402915054906101000a900463ffffffff1681565b6000836102c25760006102c5565b60015b9050601081805490501061030e576040517f08c379a0000000000000000000000000000000000000000000000000000000008152600401610305906108f6565b60405180910390fd5b61032383838361044e9092919063ffffffff16565b50505050565b60008080549050905090565b821561039e57601060018054905010610383576040517f08c379a000000000000000000000000000000000000000000000000000000000815260040161037a906108f6565b60405180910390fd5b6103998282600161044e9092919063ffffffff16565b6103fd565b6010600080549050106103e6576040517f08c379a00000000000000000000000000000000000000000000000000000000081526004016103dd906108f6565b60405180910390fd5b6103fc8282600061044e9092919063ffffffff16565b5b505050565b6000600180549050905090565b6001818154811061041f57600080fd5b9060005260206000209060089182820401919006600402915054906101000a900463ffffffff1681565b601081565b600083805490509050600081111561060257838460018361046f9190610916565b815481106104805761047f61094a565b5b90600052602060002090600891828204019190066004029054906101000a900463ffffffff1690806001815401808255809150506001900390600052602060002090600891828204019190066004029091909190916101000a81548163ffffffff021916908363ffffffff16021790555060006001826105009190610916565b90505b8363ffffffff168111156105af578460018261051f9190610916565b815481106105305761052f61094a565b5b90600052602060002090600891828204019190066004029054906101000a900463ffffffff168582815481106105695761056861094a565b5b90600052602060002090600891828204019190066004026101000a81548163ffffffff021916908363ffffffff16021790555080806105a790610979565b915050610503565b5081848463ffffffff16815481106105ca576105c961094a565b5b90600052602060002090600891828204019190066004026101000a81548163ffffffff021916908363ffffffff160217905550610650565b838290806001815401808255809150506001900390600052602060002090600891828204019190066004029091909190916101000a81548163ffffffff021916908363ffffffff1602179055505b50505050565b600080fd5b600063ffffffff82169050919050565b6106748161065b565b811461067f57600080fd5b50565b6000813590506106918161066b565b92915050565b6000602082840312156106ad576106ac610656565b5b60006106bb84828501610682565b91505092915050565b6000819050919050565b6106d7816106c4565b81146106e257600080fd5b50565b6000813590506106f4816106ce565b92915050565b6000602082840312156107105761070f610656565b5b600061071e848285016106e5565b91505092915050565b6107308161065b565b82525050565b600060208201905061074b6000830184610727565b92915050565b60008115159050919050565b61076681610751565b811461077157600080fd5b50565b6000813590506107838161075d565b92915050565b6000806000606084860312156107a2576107a1610656565b5b60006107b086828701610774565b93505060206107c186828701610682565b92505060406107d286828701610682565b9150509250925092565b6107e5816106c4565b82525050565b600060208201905061080060008301846107dc565b92915050565b7f4e487b7100000000000000000000000000000000000000000000000000000000600052601160045260246000fd5b60006108408261065b565b915061084b8361065b565b9250828201905063ffffffff81111561086757610866610806565b5b92915050565b60006108788261065b565b915063ffffffff820361088e5761088d610806565b5b600182019050919050565b600082825260208201905092915050565b7f66756c6c00000000000000000000000000000000000000000000000000000000600082015250565b60006108e0600483610899565b91506108eb826108aa565b602082019050919050565b6000602082019050818103600083015261090f816108d3565b9050919050565b6000610921826106c4565b915061092c836106c4565b925082820390508181111561094457610943610806565b5b92915050565b7f4e487b7100000000000000000000000000000000000000000000000000000000600052603260045260246000fd5b6000610984826106c4565b91506000820361099757610996610806565b5b60018203905091905056fea2646970667358221220959cf60085a8c692ed9b9e85f95634d534d33ea10e6b5541a47303357cdc6f4164736f6c63430008100033","linkReferences":{}},"methodIdentifiers":{"MAX_POSITIONS()":"f7b24e08","addIfElse(bool,uint32,uint32)":"83a4b9a6","addPointer(bool,uint32,uint32)":"5dffdfde","creditLen()":"64227ec7","creditPositions(uint256)":"59d20b4e","debtLen()":"87aa9676","debtPositions(uint256)":"e1b1acb7","seed(uint32)":"01047ab4"},"id":52}