{"abi":[{"type":"constructor","inputs":[{"name":"_uniswapV2Router","type":"address","internalType":"contract IUniswapV2Router02"},{"name":"_uniswapV3Router","type":"address","internalType":"contract IUniswapV3Router"}],"stateMutability":"nonpayable"},{"type":"function","name":"getExchangeSelector","inputs":[{"name":"","type":"uint8","internalType":"enum SwapRouter.Exchange"}],"outputs":[{"name":"","type":"bytes4","internalType":"bytes4"}],"stateMutability":"view"},{"type":"function","name":"multicall","inputs":[{"name":"data","type":"bytes[]","internalType":"bytes[]"}],"outputs":[{"name":"results","type":"bytes[]","internalType":"bytes[]"}],"stateMutability":"payable"},{"type":"function","name":"swap","inputs":[{"name":"exchange","type":"uint8","internalType":"enum SwapRouter.Exchange"},{"name":"swapData","type":"bytes","internalType":"bytes"},{"name":"receiver","type":"address","internalType":"address"},{"name":"assetIn","type":"address","internalType":"contract ERC20"},{"name":"assetOut","type":"address","internalType":"contract ERC20"}],"outputs":[{"name":"amountOut","type":"uint256","internalType":"uint256"}],"stateMutability":"nonpayable"},{"type":"function","name":"swapWithUniV2","inputs":[{"name":"swapData","type":"bytes","internalType":"bytes"},{"name":"receiver","type":"address","internalType":"address"},{"name":"assetIn","type":"address","internalType":"contract ERC20"},{"name":"assetOut","type":"address","internalType":"contract ERC20"}],"outputs":[{"name":"amountOut","type":"uint256","internalType":"uint256"}],"stateMutability":"nonpayable"},{"type":"function","name":"swapWithUniV3","inputs":[{"name":"swapData","type":"bytes","internalType":"bytes"},{"name":"receiver","type":"address","internalType":"address"},{"name":"assetIn","type":"address","internalType":"contract ERC20"},{"name":"assetOut","type":"address","internalType":"contract ERC20"}],"outputs":[{"name":"amountOut","type":"uint256","internalType":"uint256"}],"stateMutability":"nonpayable"},{"type":"function","name":"uniswapV2Router","inputs":[],"outputs":[{"name":"","type":"address","internalType":"contract IUniswapV2Router02"}],"stateMutability":"view"},{"type":"function","name":"uniswapV3Router","inputs":[],"outputs":[{"name":"","type":"address","internalType":"contract IUniswapV3Router"}],"stateMutability":"view"},{"type":"error","name":"SwapRouter__AssetInMisMatch","inputs":[{"name":"actual","type":"address","internalType":"address"},{"name":"expected","type":"address","internalType":"address"}]},{"type":"error","name":"SwapRouter__AssetOutMisMatch","inputs":[{"name":"actual","type":"address","internalType":"address"},{"name":"expected","type":"address","internalType":"address"}]},{"type":"error","name":"SwapRouter__SwapReverted","inputs":[]},{"type":"error","name":"SwapRouter__UnusedApproval","inputs":[]}],"bytecode":{"object":"0x60c06040523480156200001157600080fd5b506040516200247238038062002472833981810160405281019062000037919062000228565b8173ffffffffffffffffffffffffffffffffffffffff1660808173ffffffffffffffffffffffffffffffffffffffff16815250508073ffffffffffffffffffffffffffffffffffffffff1660a08173ffffffffffffffffffffffffffffffffffffffff1681525050635a0c827960e01b600080806001811115620000c057620000bf6200026f565b5b6001811115620000d557620000d46200026f565b5b815260200190815260200160002060006101000a81548163ffffffff021916908360e01c0217905550639d453f8d60e01b6000806001808111156200011f576200011e6200026f565b5b60018111156200013457620001336200026f565b5b815260200190815260200160002060006101000a81548163ffffffff021916908360e01c021790555050506200029e565b600080fd5b600073ffffffffffffffffffffffffffffffffffffffff82169050919050565b600062000197826200016a565b9050919050565b6000620001ab826200018a565b9050919050565b620001bd816200019e565b8114620001c957600080fd5b50565b600081519050620001dd81620001b2565b92915050565b6000620001f0826200018a565b9050919050565b6200020281620001e3565b81146200020e57600080fd5b50565b6000815190506200022281620001f7565b92915050565b6000806040838503121562000242576200024162000165565b5b60006200025285828601620001cc565b9250506020620002658582860162000211565b9150509250929050565b7f4e487b7100000000000000000000000000000000000000000000000000000000600052602160045260246000fd5b60805160a051612184620002ee600039600081816102150152818161089f015281816109950152610a7f0152600081816101f101528181610582015281816105cc01526106b101526121846000f3fe6080604052600436106100705760003560e01c80635a0c82791161004e5780635a0c8279146101085780639d453f8d14610145578063a1fbdf3914610182578063ac9650d8146101bf57610070565b80631694505e146100755780632c76d7a6146100a05780632dfe1690146100cb575b600080fd5b34801561008157600080fd5b5061008a6101ef565b6040516100979190610ed9565b60405180910390f35b3480156100ac57600080fd5b506100b5610213565b6040516100c29190610f15565b60405180910390f35b3480156100d757600080fd5b506100f260048036038101906100ed919061112b565b610237565b6040516100ff91906111db565b60405180910390f35b34801561011457600080fd5b5061012f600480360381019061012a91906111f6565b6103c8565b60405161013c91906111db565b60405180910390f35b34801561015157600080fd5b5061016c600480360381019061016791906111f6565b6106e1565b60405161017991906111db565b60405180910390f35b34801561018e57600080fd5b506101a960048036038101906101a49190611279565b610ab0565b6040516101b691906112e1565b60405180910390f35b6101d960048036038101906101d4919061135c565b610ad0565b6040516101e691906114ea565b60405180910390f35b7f000000000000000000000000000000000000000000000000000000000000000081565b7f000000000000000000000000000000000000000000000000000000000000000081565b60008060003073ffffffffffffffffffffffffffffffffffffffff166000808a60018111156102695761026861150c565b5b600181111561027b5761027a61150c565b5b815260200190815260200160002060009054906101000a900460e01b888888886040516024016102ae94939291906115b5565b604051602081830303815290604052907bffffffffffffffffffffffffffffffffffffffffffffffffffffffff19166020820180517bffffffffffffffffffffffffffffffffffffffffffffffffffffffff8381831617835250505050604051610318919061163d565b600060405180830381855af49150503d8060008114610353576040519150601f19603f3d011682016040523d82523d6000602084013e610358565b606091505b5091509150816103a7576000815111156103755780518082602001fd5b6040517f8e2cf9de00000000000000000000000000000000000000000000000000000000815260040160405180910390fd5b808060200190518101906103bb9190611680565b9250505095945050505050565b600080600080878060200190518101906103e29190611785565b925092509250826000815181106103fc576103fb6117f4565b5b602002602001015173ffffffffffffffffffffffffffffffffffffffff168673ffffffffffffffffffffffffffffffffffffffff1614610490578260008151811061044a576104496117f4565b5b6020026020010151866040517fe5392881000000000000000000000000000000000000000000000000000000008152600401610487929190611823565b60405180910390fd5b826001845161049f919061187b565b815181106104b0576104af6117f4565b5b602002602001015173ffffffffffffffffffffffffffffffffffffffff168573ffffffffffffffffffffffffffffffffffffffff16146105505782600184516104f9919061187b565b8151811061050a576105096117f4565b5b6020026020010151856040517f47052b67000000000000000000000000000000000000000000000000000000008152600401610547929190611823565b60405180910390fd5b61057d3330848973ffffffffffffffffffffffffffffffffffffffff16610c6a909392919063ffffffff16565b6105c87f0000000000000000000000000000000000000000000000000000000000000000838873ffffffffffffffffffffffffffffffffffffffff16610d099092919063ffffffff16565b60007f000000000000000000000000000000000000000000000000000000000000000073ffffffffffffffffffffffffffffffffffffffff166338ed17398484878c603c4261061791906118af565b6040518663ffffffff1660e01b81526004016106379594939291906119a1565b6000604051808303816000875af1158015610656573d6000803e3d6000fd5b505050506040513d6000823e3d601f19601f8201168201806040525081019061067f9190611abe565b90508060018251610690919061187b565b815181106106a1576106a06117f4565b5b602002602001015194506106d5877f0000000000000000000000000000000000000000000000000000000000000000610da1565b50505050949350505050565b6000806000806000888060200190518101906106fd9190611c05565b935093509350935083600081518110610719576107186117f4565b5b602002602001015173ffffffffffffffffffffffffffffffffffffffff168773ffffffffffffffffffffffffffffffffffffffff16146107ad5783600081518110610767576107666117f4565b5b6020026020010151876040517fe53928810000000000000000000000000000000000000000000000000000000081526004016107a4929190611823565b60405180910390fd5b83600185516107bc919061187b565b815181106107cd576107cc6117f4565b5b602002602001015173ffffffffffffffffffffffffffffffffffffffff168673ffffffffffffffffffffffffffffffffffffffff161461086d578360018551610816919061187b565b81518110610827576108266117f4565b5b6020026020010151866040517f47052b67000000000000000000000000000000000000000000000000000000008152600401610864929190611823565b60405180910390fd5b61089a3330848a73ffffffffffffffffffffffffffffffffffffffff16610c6a909392919063ffffffff16565b6108e57f0000000000000000000000000000000000000000000000000000000000000000838973ffffffffffffffffffffffffffffffffffffffff16610d099092919063ffffffff16565b6000876040516020016108f89190611cec565b60405160208183030381529060405290506000600190505b8551811015610992578185600183610928919061187b565b81518110610939576109386117f4565b5b6020026020010151878381518110610954576109536117f4565b5b602002602001015160405160200161096e93929190611d3d565b6040516020818303038152906040529150808061098a90611d76565b915050610910565b507f000000000000000000000000000000000000000000000000000000000000000073ffffffffffffffffffffffffffffffffffffffff1663c04b8d596040518060a001604052808481526020018c73ffffffffffffffffffffffffffffffffffffffff168152602001603c42610a0991906118af565b8152602001868152602001858152506040518263ffffffff1660e01b8152600401610a349190611e43565b6020604051808303816000875af1158015610a53573d6000803e3d6000fd5b505050506040513d601f19601f82011682018060405250810190610a779190611680565b9550610aa3887f0000000000000000000000000000000000000000000000000000000000000000610da1565b5050505050949350505050565b60006020528060005260406000206000915054906101000a900460e01b81565b60608282905067ffffffffffffffff811115610aef57610aee610f84565b5b604051908082528060200260200182016040528015610b2257816020015b6060815260200190600190039081610b0d5790505b50905060005b83839050811015610c63576000803073ffffffffffffffffffffffffffffffffffffffff16868685818110610b6057610b5f6117f4565b5b9050602002810190610b729190611e74565b604051610b80929190611efc565b600060405180830381855af49150503d8060008114610bbb576040519150601f19603f3d011682016040523d82523d6000602084013e610bc0565b606091505b509150915081610c2f57604481511015610bd957600080fd5b60048101905080806020019051810190610bf39190611fb6565b6040517f08c379a0000000000000000000000000000000000000000000000000000000008152600401610c269190612054565b60405180910390fd5b80848481518110610c4357610c426117f4565b5b602002602001018190525050508080610c5b90611d76565b915050610b28565b5092915050565b60006040517f23b872dd0000000000000000000000000000000000000000000000000000000081528460048201528360248201528260448201526020600060648360008a5af13d15601f3d1160016000511416171691505080610d02576040517f08c379a0000000000000000000000000000000000000000000000000000000008152600401610cf9906120c2565b60405180910390fd5b5050505050565b60006040517f095ea7b3000000000000000000000000000000000000000000000000000000008152836004820152826024820152602060006044836000895af13d15601f3d1160016000511416171691505080610d9b576040517f08c379a0000000000000000000000000000000000000000000000000000000008152600401610d929061212e565b60405180910390fd5b50505050565b60008273ffffffffffffffffffffffffffffffffffffffff1663dd62ed3e30846040518363ffffffff1660e01b8152600401610dde929190611823565b602060405180830381865afa158015610dfb573d6000803e3d6000fd5b505050506040513d601f19601f82011682018060405250810190610e1f9190611680565b14610e56576040517f7404a95100000000000000000000000000000000000000000000000000000000815260040160405180910390fd5b5050565b600073ffffffffffffffffffffffffffffffffffffffff82169050919050565b6000819050919050565b6000610e9f610e9a610e9584610e5a565b610e7a565b610e5a565b9050919050565b6000610eb182610e84565b9050919050565b6000610ec382610ea6565b9050919050565b610ed381610eb8565b82525050565b6000602082019050610eee6000830184610eca565b92915050565b6000610eff82610ea6565b9050919050565b610f0f81610ef4565b82525050565b6000602082019050610f2a6000830184610f06565b92915050565b6000604051905090565b600080fd5b600080fd5b60028110610f5157600080fd5b50565b600081359050610f6381610f44565b92915050565b600080fd5b600080fd5b6000601f19601f8301169050919050565b7f4e487b7100000000000000000000000000000000000000000000000000000000600052604160045260246000fd5b610fbc82610f73565b810181811067ffffffffffffffff82111715610fdb57610fda610f84565b5b80604052505050565b6000610fee610f30565b9050610ffa8282610fb3565b919050565b600067ffffffffffffffff82111561101a57611019610f84565b5b61102382610f73565b9050602081019050919050565b82818337600083830152505050565b600061105261104d84610fff565b610fe4565b90508281526020810184848401111561106e5761106d610f6e565b5b611079848285611030565b509392505050565b600082601f83011261109657611095610f69565b5b81356110a684826020860161103f565b91505092915050565b60006110ba82610e5a565b9050919050565b6110ca816110af565b81146110d557600080fd5b50565b6000813590506110e7816110c1565b92915050565b60006110f8826110af565b9050919050565b611108816110ed565b811461111357600080fd5b50565b600081359050611125816110ff565b92915050565b600080600080600060a0868803121561114757611146610f3a565b5b600061115588828901610f54565b955050602086013567ffffffffffffffff81111561117657611175610f3f565b5b61118288828901611081565b9450506040611193888289016110d8565b93505060606111a488828901611116565b92505060806111b588828901611116565b9150509295509295909350565b6000819050919050565b6111d5816111c2565b82525050565b60006020820190506111f060008301846111cc565b92915050565b600080600080608085870312156112105761120f610f3a565b5b600085013567ffffffffffffffff81111561122e5761122d610f3f565b5b61123a87828801611081565b945050602061124b878288016110d8565b935050604061125c87828801611116565b925050606061126d87828801611116565b91505092959194509250565b60006020828403121561128f5761128e610f3a565b5b600061129d84828501610f54565b91505092915050565b60007fffffffff0000000000000000000000000000000000000000000000000000000082169050919050565b6112db816112a6565b82525050565b60006020820190506112f660008301846112d2565b92915050565b600080fd5b600080fd5b60008083601f84011261131c5761131b610f69565b5b8235905067ffffffffffffffff811115611339576113386112fc565b5b60208301915083602082028301111561135557611354611301565b5b9250929050565b6000806020838503121561137357611372610f3a565b5b600083013567ffffffffffffffff81111561139157611390610f3f565b5b61139d85828601611306565b92509250509250929050565b600081519050919050565b600082825260208201905092915050565b6000819050602082019050919050565b600081519050919050565b600082825260208201905092915050565b60005b8381101561140f5780820151818401526020810190506113f4565b60008484015250505050565b6000611426826113d5565b61143081856113e0565b93506114408185602086016113f1565b61144981610f73565b840191505092915050565b6000611460838361141b565b905092915050565b6000602082019050919050565b6000611480826113a9565b61148a81856113b4565b93508360208202850161149c856113c5565b8060005b858110156114d857848403895281516114b98582611454565b94506114c483611468565b925060208a019950506001810190506114a0565b50829750879550505050505092915050565b600060208201905081810360008301526115048184611475565b905092915050565b7f4e487b7100000000000000000000000000000000000000000000000000000000600052602160045260246000fd5b600082825260208201905092915050565b6000611557826113d5565b611561818561153b565b93506115718185602086016113f1565b61157a81610f73565b840191505092915050565b61158e816110af565b82525050565b600061159f82610ea6565b9050919050565b6115af81611594565b82525050565b600060808201905081810360008301526115cf818761154c565b90506115de6020830186611585565b6115eb60408301856115a6565b6115f860608301846115a6565b95945050505050565b600081905092915050565b6000611617826113d5565b6116218185611601565b93506116318185602086016113f1565b80840191505092915050565b6000611649828461160c565b915081905092915050565b61165d816111c2565b811461166857600080fd5b50565b60008151905061167a81611654565b92915050565b60006020828403121561169657611695610f3a565b5b60006116a48482850161166b565b91505092915050565b600067ffffffffffffffff8211156116c8576116c7610f84565b5b602082029050602081019050919050565b6000815190506116e8816110c1565b92915050565b60006117016116fc846116ad565b610fe4565b9050808382526020820190506020840283018581111561172457611723611301565b5b835b8181101561174d578061173988826116d9565b845260208401935050602081019050611726565b5050509392505050565b600082601f83011261176c5761176b610f69565b5b815161177c8482602086016116ee565b91505092915050565b60008060006060848603121561179e5761179d610f3a565b5b600084015167ffffffffffffffff8111156117bc576117bb610f3f565b5b6117c886828701611757565b93505060206117d98682870161166b565b92505060406117ea8682870161166b565b9150509250925092565b7f4e487b7100000000000000000000000000000000000000000000000000000000600052603260045260246000fd5b60006040820190506118386000830185611585565b6118456020830184611585565b9392505050565b7f4e487b7100000000000000000000000000000000000000000000000000000000600052601160045260246000fd5b6000611886826111c2565b9150611891836111c2565b92508282039050818111156118a9576118a861184c565b5b92915050565b60006118ba826111c2565b91506118c5836111c2565b92508282019050808211156118dd576118dc61184c565b5b92915050565b600081519050919050565b600082825260208201905092915050565b6000819050602082019050919050565b611918816110af565b82525050565b600061192a838361190f565b60208301905092915050565b6000602082019050919050565b600061194e826118e3565b61195881856118ee565b9350611963836118ff565b8060005b8381101561199457815161197b888261191e565b975061198683611936565b925050600181019050611967565b5085935050505092915050565b600060a0820190506119b660008301886111cc565b6119c360208301876111cc565b81810360408301526119d58186611943565b90506119e46060830185611585565b6119f160808301846111cc565b9695505050505050565b600067ffffffffffffffff821115611a1657611a15610f84565b5b602082029050602081019050919050565b6000611a3a611a35846119fb565b610fe4565b90508083825260208201905060208402830185811115611a5d57611a5c611301565b5b835b81811015611a865780611a72888261166b565b845260208401935050602081019050611a5f565b5050509392505050565b600082601f830112611aa557611aa4610f69565b5b8151611ab5848260208601611a27565b91505092915050565b600060208284031215611ad457611ad3610f3a565b5b600082015167ffffffffffffffff811115611af257611af1610f3f565b5b611afe84828501611a90565b91505092915050565b600067ffffffffffffffff821115611b2257611b21610f84565b5b602082029050602081019050919050565b600062ffffff82169050919050565b611b4b81611b33565b8114611b5657600080fd5b50565b600081519050611b6881611b42565b92915050565b6000611b81611b7c84611b07565b610fe4565b90508083825260208201905060208402830185811115611ba457611ba3611301565b5b835b81811015611bcd5780611bb98882611b59565b845260208401935050602081019050611ba6565b5050509392505050565b600082601f830112611bec57611beb610f69565b5b8151611bfc848260208601611b6e565b91505092915050565b60008060008060808587031215611c1f57611c1e610f3a565b5b600085015167ffffffffffffffff811115611c3d57611c3c610f3f565b5b611c4987828801611757565b945050602085015167ffffffffffffffff811115611c6a57611c69610f3f565b5b611c7687828801611bd7565b9350506040611c878782880161166b565b9250506060611c988782880161166b565b91505092959194509250565b60008160601b9050919050565b6000611cbc82611ca4565b9050919050565b6000611cce82611cb1565b9050919050565b611ce6611ce1826110af565b611cc3565b82525050565b6000611cf88284611cd5565b60148201915081905092915050565b60008160e81b9050919050565b6000611d1f82611d07565b9050919050565b611d37611d3282611b33565b611d14565b82525050565b6000611d49828661160c565b9150611d558285611d26565b600382019150611d658284611cd5565b601482019150819050949350505050565b6000611d81826111c2565b91507fffffffffffffffffffffffffffffffffffffffffffffffffffffffffffffffff8203611db357611db261184c565b5b600182019050919050565b611dc7816111c2565b82525050565b600060a0830160008301518482036000860152611dea828261141b565b9150506020830151611dff602086018261190f565b506040830151611e126040860182611dbe565b506060830151611e256060860182611dbe565b506080830151611e386080860182611dbe565b508091505092915050565b60006020820190508181036000830152611e5d8184611dcd565b905092915050565b600080fd5b600080fd5b600080fd5b60008083356001602003843603038112611e9157611e90611e65565b5b80840192508235915067ffffffffffffffff821115611eb357611eb2611e6a565b5b602083019250600182023603831315611ecf57611ece611e6f565b5b509250929050565b6000611ee38385611601565b9350611ef0838584611030565b82840190509392505050565b6000611f09828486611ed7565b91508190509392505050565b600067ffffffffffffffff821115611f3057611f2f610f84565b5b611f3982610f73565b9050602081019050919050565b6000611f59611f5484611f15565b610fe4565b905082815260208101848484011115611f7557611f74610f6e565b5b611f808482856113f1565b509392505050565b600082601f830112611f9d57611f9c610f69565b5b8151611fad848260208601611f46565b91505092915050565b600060208284031215611fcc57611fcb610f3a565b5b600082015167ffffffffffffffff811115611fea57611fe9610f3f565b5b611ff684828501611f88565b91505092915050565b600081519050919050565b600082825260208201905092915050565b600061202682611fff565b612030818561200a565b93506120408185602086016113f1565b61204981610f73565b840191505092915050565b6000602082019050818103600083015261206e818461201b565b905092915050565b7f5452414e534645525f46524f4d5f4641494c4544000000000000000000000000600082015250565b60006120ac60148361200a565b91506120b782612076565b602082019050919050565b600060208201905081810360008301526120db8161209f565b9050919050565b7f415050524f56455f4641494c4544000000000000000000000000000000000000600082015250565b6000612118600e8361200a565b9150612123826120e2565b602082019050919050565b600060208201905081810360008301526121478161210b565b905091905056fea2646970667358221220258bb7f44d75cbc7cc80c5df6a760b465a779a3a2f75d10137ed90a56283274d64736f6c63430008100033","linkReferences":{}},"methodIdentifiers":{"getExchangeSelector(uint8)":"a1fbdf39","multicall(bytes[])":"ac9650d8","swap(uint8,bytes,address,address,address)":"2dfe1690","swapWithUniV2(bytes,address,address,address)":"5a0c8279","swapWithUniV3(bytes,address,address,address)":"9d453f8d","uniswapV2Router()":"1694505e","uniswapV3Router()":"2c76d7a6"},"id":29}