{"abi":[{"type":"function","name":"WAD","inputs":[],"outputs":[{"name":"","type":"uint256","internalType":"uint256"}],"stateMutability":"view"}],"bytecode":{"object":"0x60c4610052600b82828239805160001a607314610045577f4e487b7100000000000000000000000000000000000000000000000000000000600052600060045260246000fd5b30600052607381538281f3fe730000000000000000000000000000000000000000301460806040526004361060335760003560e01c80636a146024146038575b600080fd5b603e6052565b604051604991906075565b60405180910390f35b670de0b6b3a764000081565b6000819050919050565b606f81605e565b82525050565b6000602082019050608860008301846068565b9291505056fea2646970667358221220df36bea9028af264e40c395f021958d8629a17144059341e884987eaa1aae4f764736f6c63430008100033","linkReferences":{}},"methodIdentifiers":{"WAD()":"6a146024"},"id":30}