{"abi":[{"type":"constructor","inputs":[{"name":"_registry","type":"address","internalType":"contract Registry"},{"name":"_asset","type":"address","internalType":"contract ERC20"},{"name":"_name","type":"string","internalType":"string"},{"name":"_symbol","type":"string","internalType":"string"},{"name":"params","type":"bytes","internalType":"bytes"}],"stateMutability":"nonpayable"},{"type":"function","name":"DOMAIN_SEPARATOR","inputs":[],"outputs":[{"name":"","type":"bytes32","internalType":"bytes32"}],"stateMutability":"view"},{"type":"function","name":"GRAVITY_BRIDGE_REGISTRY_SLOT","inputs":[],"outputs":[{"name":"","type":"uint256","internalType":"uint256"}],"stateMutability":"view"},{"type":"function","name":"MAXIMUM_SHARE_LOCK_PERIOD","inputs":[],"outputs":[{"name":"","type":"uint256","internalType":"uint256"}],"stateMutability":"view"},{"type":"function","name":"MAX_FEE_CUT","inputs":[],"outputs":[{"name":"","type":"uint64","internalType":"uint64"}],"stateMutability":"view"},{"type":"function","name":"MAX_PLATFORM_FEE","inputs":[],"outputs":[{"name":"","type":"uint64","internalType":"uint64"}],"stateMutability":"view"},{"type":"function","name":"MAX_POSITIONS","inputs":[],"outputs":[{"name":"","type":"uint256","internalType":"uint256"}],"stateMutability":"view"},{"type":"function","name":"MAX_REBALANCE_DEVIATION","inputs":[],"outputs":[{"name":"","type":"uint64","internalType":"uint64"}],"stateMutability":"view"},{"type":"function","name":"MINIMUM_SHARE_LOCK_PERIOD","inputs":[],"outputs":[{"name":"","type":"uint256","internalType":"uint256"}],"stateMutability":"view"},{"type":"function","name":"PRICE_ROUTER_REGISTRY_SLOT","inputs":[],"outputs":[{"name":"","type":"uint256","internalType":"uint256"}],"stateMutability":"view"},{"type":"function","name":"aavePool","inputs":[],"outputs":[{"name":"","type":"address","internalType":"address"}],"stateMutability":"view"},{"type":"function","name":"adaptorCatalogue","inputs":[{"name":"","type":"address","internalType":"address"}],"outputs":[{"name":"","type":"bool","internalType":"bool"}],"stateMutability":"view"},{"type":"function","name":"addAdaptorToCatalogue","inputs":[{"name":"adaptor","type":"address","internalType":"address"}],"outputs":[],"stateMutability":"nonpayable"},{"type":"function","name":"addPosition","inputs":[{"name":"index","type":"uint32","internalType":"uint32"},{"name":"positionId","type":"uint32","internalType":"uint32"},{"name":"configurationData","type":"bytes","internalType":"bytes"},{"name":"inDebtArray","type":"bool","internalType":"bool"}],"outputs":[],"stateMutability":"nonpayable"},{"type":"function","name":"addPositionToCatalogue","inputs":[{"name":"positionId","type":"uint32","internalType":"uint32"}],"outputs":[],"stateMutability":"nonpayable"},{"type":"function","name":"allowance","inputs":[{"name":"","type":"address","internalType":"address"},{"name":"","type":"address","internalType":"address"}],"outputs":[{"name":"","type":"uint256","internalType":"uint256"}],"stateMutability":"view"},{"type":"function","name":"allowedRebalanceDeviation","inputs":[],"outputs":[{"name":"","type":"uint256","internalType":"uint256"}],"stateMutability":"view"},{"type":"function","name":"approve","inputs":[{"name":"spender","type":"address","internalType":"address"},{"name":"amount","type":"uint256","internalType":"uint256"}],"outputs":[{"name":"","type":"bool","internalType":"bool"}],"stateMutability":"nonpayable"},{"type":"function","name":"asset","inputs":[],"outputs":[{"name":"","type":"address","internalType":"contract ERC20"}],"stateMutability":"view"},{"type":"function","name":"balanceOf","inputs":[{"name":"","type":"address","internalType":"address"}],"outputs":[{"name":"","type":"uint256","internalType":"uint256"}],"stateMutability":"view"},{"type":"function","name":"blockExternalReceiver","inputs":[],"outputs":[{"name":"","type":"bool","internalType":"bool"}],"stateMutability":"view"},{"type":"function","name":"cachePriceRouter","inputs":[{"name":"checkTotalAssets","type":"bool","internalType":"bool"},{"name":"allowableRange","type":"uint16","internalType":"uint16"}],"outputs":[],"stateMutability":"nonpayable"},{"type":"function","name":"callOnAdaptor","inputs":[{"name":"data","type":"tuple[]","internalType":"struct Cellar.AdaptorCall[]","components":[{"name":"adaptor","type":"address","internalType":"address"},{"name":"callData","type":"bytes[]","internalType":"bytes[]"}]}],"outputs":[],"stateMutability":"nonpayable"},{"type":"function","name":"convertToAssets","inputs":[{"name":"shares","type":"uint256","internalType":"uint256"}],"outputs":[{"name":"assets","type":"uint256","internalType":"uint256"}],"stateMutability":"view"},{"type":"function","name":"convertToShares","inputs":[{"name":"assets","type":"uint256","internalType":"uint256"}],"outputs":[{"name":"shares","type":"uint256","internalType":"uint256"}],"stateMutability":"view"},{"type":"function","name":"creditPositions","inputs":[{"name":"","type":"uint256","internalType":"uint256"}],"outputs":[{"name":"","type":"uint32","internalType":"uint32"}],"stateMutability":"view"},{"type":"function","name":"debtPositions","inputs":[{"name":"","type":"uint256","internalType":"uint256"}],"outputs":[{"name":"","type":"uint32","internalType":"uint32"}],"stateMutability":"view"},{"type":"function","name":"decimals","inputs":[],"outputs":[{"name":"","type":"uint8","internalType":"uint8"}],"stateMutability":"view"},{"type":"function","name":"deposit","inputs":[{"name":"assets","type":"uint256","internalType":"uint256"},{"name":"receiver","type":"address","internalType":"address"}],"outputs":[{"name":"shares","type":"uint256","internalType":"uint256"}],"stateMutability":"nonpayable"},{"type":"function","name":"executeOperation","inputs":[{"name":"assets","type":"address[]","internalType":"address[]"},{"name":"amounts","type":"uint256[]","internalType":"uint256[]"},{"name":"premiums","type":"uint256[]","internalType":"uint256[]"},{"name":"initiator","type":"address","internalType":"address"},{"name":"params","type":"bytes","internalType":"bytes"}],"outputs":[{"name":"","type":"bool","internalType":"bool"}],"stateMutability":"nonpayable"},{"type":"function","name":"feeData","inputs":[],"outputs":[{"name":"strategistPlatformCut","type":"uint64","internalType":"uint64"},{"name":"platformFee","type":"uint64","internalType":"uint64"},{"name":"lastAccrual","type":"uint64","internalType":"uint64"},{"name":"strategistPayoutAddress","type":"address","internalType":"address"}],"stateMutability":"view"},{"type":"function","name":"forcePositionOut","inputs":[{"name":"index","type":"uint32","internalType":"uint32"},{"name":"positionId","type":"uint32","internalType":"uint32"},{"name":"inDebtArray","type":"bool","internalType":"bool"}],"outputs":[],"stateMutability":"nonpayable"},{"type":"function","name":"getCreditPositions","inputs":[],"outputs":[{"name":"","type":"uint32[]","internalType":"uint32[]"}],"stateMutability":"view"},{"type":"function","name":"getDebtPositions","inputs":[],"outputs":[{"name":"","type":"uint32[]","internalType":"uint32[]"}],"stateMutability":"view"},{"type":"function","name":"getPositionAssets","inputs":[],"outputs":[{"name":"assets","type":"address[]","internalType":"contract ERC20[]"}],"stateMutability":"view"},{"type":"function","name":"getPositionData","inputs":[{"name":"","type":"uint32","internalType":"uint32"}],"outputs":[{"name":"adaptor","type":"address","internalType":"address"},{"name":"isDebt","type":"bool","internalType":"bool"},{"name":"adaptorData","type":"bytes","internalType":"bytes"},{"name":"configurationData","type":"bytes","internalType":"bytes"}],"stateMutability":"view"},{"type":"function","name":"holdingPosition","inputs":[],"outputs":[{"name":"","type":"uint32","internalType":"uint32"}],"stateMutability":"view"},{"type":"function","name":"ignorePause","inputs":[],"outputs":[{"name":"","type":"bool","internalType":"bool"}],"stateMutability":"view"},{"type":"function","name":"initiateShutdown","inputs":[],"outputs":[],"stateMutability":"nonpayable"},{"type":"function","name":"isPaused","inputs":[],"outputs":[{"name":"","type":"bool","internalType":"bool"}],"stateMutability":"view"},{"type":"function","name":"isPositionUsed","inputs":[{"name":"","type":"uint256","internalType":"uint256"}],"outputs":[{"name":"","type":"bool","internalType":"bool"}],"stateMutability":"view"},{"type":"function","name":"isShutdown","inputs":[],"outputs":[{"name":"","type":"bool","internalType":"bool"}],"stateMutability":"view"},{"type":"function","name":"liftShutdown","inputs":[],"outputs":[],"stateMutability":"nonpayable"},{"type":"function","name":"locked","inputs":[],"outputs":[{"name":"","type":"uint256","internalType":"uint256"}],"stateMutability":"view"},{"type":"function","name":"maxDeposit","inputs":[{"name":"","type":"address","internalType":"address"}],"outputs":[{"name":"","type":"uint256","internalType":"uint256"}],"stateMutability":"view"},{"type":"function","name":"maxMint","inputs":[{"name":"","type":"address","internalType":"address"}],"outputs":[{"name":"","type":"uint256","internalType":"uint256"}],"stateMutability":"view"},{"type":"function","name":"maxRedeem","inputs":[{"name":"owner","type":"address","internalType":"address"}],"outputs":[{"name":"","type":"uint256","internalType":"uint256"}],"stateMutability":"view"},{"type":"function","name":"maxWithdraw","inputs":[{"name":"owner","type":"address","internalType":"address"}],"outputs":[{"name":"","type":"uint256","internalType":"uint256"}],"stateMutability":"view"},{"type":"function","name":"mint","inputs":[{"name":"shares","type":"uint256","internalType":"uint256"},{"name":"receiver","type":"address","internalType":"address"}],"outputs":[{"name":"assets","type":"uint256","internalType":"uint256"}],"stateMutability":"nonpayable"},{"type":"function","name":"multicall","inputs":[{"name":"data","type":"bytes[]","internalType":"bytes[]"}],"outputs":[],"stateMutability":"nonpayable"},{"type":"function","name":"name","inputs":[],"outputs":[{"name":"","type":"string","internalType":"string"}],"stateMutability":"view"},{"type":"function","name":"nonces","inputs":[{"name":"","type":"address","internalType":"address"}],"outputs":[{"name":"","type":"uint256","internalType":"uint256"}],"stateMutability":"view"},{"type":"function","name":"onERC721Received","inputs":[{"name":"","type":"address","internalType":"address"},{"name":"","type":"address","internalType":"address"},{"name":"","type":"uint256","internalType":"uint256"},{"name":"","type":"bytes","internalType":"bytes"}],"outputs":[{"name":"","type":"bytes4","internalType":"bytes4"}],"stateMutability":"nonpayable"},{"type":"function","name":"owner","inputs":[],"outputs":[{"name":"","type":"address","internalType":"address"}],"stateMutability":"view"},{"type":"function","name":"permit","inputs":[{"name":"owner","type":"address","internalType":"address"},{"name":"spender","type":"address","internalType":"address"},{"name":"value","type":"uint256","internalType":"uint256"},{"name":"deadline","type":"uint256","internalType":"uint256"},{"name":"v","type":"uint8","internalType":"uint8"},{"name":"r","type":"bytes32","internalType":"bytes32"},{"name":"s","type":"bytes32","internalType":"bytes32"}],"outputs":[],"stateMutability":"nonpayable"},{"type":"function","name":"positionCatalogue","inputs":[{"name":"","type":"uint32","internalType":"uint32"}],"outputs":[{"name":"","type":"bool","internalType":"bool"}],"stateMutability":"view"},{"type":"function","name":"previewDeposit","inputs":[{"name":"assets","type":"uint256","internalType":"uint256"}],"outputs":[{"name":"shares","type":"uint256","internalType":"uint256"}],"stateMutability":"view"},{"type":"function","name":"previewMint","inputs":[{"name":"shares","type":"uint256","internalType":"uint256"}],"outputs":[{"name":"assets","type":"uint256","internalType":"uint256"}],"stateMutability":"view"},{"type":"function","name":"previewRedeem","inputs":[{"name":"shares","type":"uint256","internalType":"uint256"}],"outputs":[{"name":"assets","type":"uint256","internalType":"uint256"}],"stateMutability":"view"},{"type":"function","name":"previewWithdraw","inputs":[{"name":"assets","type":"uint256","internalType":"uint256"}],"outputs":[{"name":"shares","type":"uint256","internalType":"uint256"}],"stateMutability":"view"},{"type":"function","name":"priceRouter","inputs":[],"outputs":[{"name":"","type":"address","internalType":"contract PriceRouter"}],"stateMutability":"view"},{"type":"function","name":"redeem","inputs":[{"name":"shares","type":"uint256","internalType":"uint256"},{"name":"receiver","type":"address","internalType":"address"},{"name":"owner","type":"address","internalType":"address"}],"outputs":[{"name":"assets","type":"uint256","internalType":"uint256"}],"stateMutability":"nonpayable"},{"type":"function","name":"registry","inputs":[],"outputs":[{"name":"","type":"address","internalType":"contract Registry"}],"stateMutability":"view"},{"type":"function","name":"removeAdaptorFromCatalogue","inputs":[{"name":"adaptor","type":"address","internalType":"address"}],"outputs":[],"stateMutability":"nonpayable"},{"type":"function","name":"removePosition","inputs":[{"name":"index","type":"uint32","internalType":"uint32"},{"name":"inDebtArray","type":"bool","internalType":"bool"}],"outputs":[],"stateMutability":"nonpayable"},{"type":"function","name":"removePositionFromCatalogue","inputs":[{"name":"positionId","type":"uint32","internalType":"uint32"}],"outputs":[],"stateMutability":"nonpayable"},{"type":"function","name":"setHoldingPosition","inputs":[{"name":"positionId","type":"uint32","internalType":"uint32"}],"outputs":[],"stateMutability":"nonpayable"},{"type":"function","name":"setRebalanceDeviation","inputs":[{"name":"newDeviation","type":"uint256","internalType":"uint256"}],"outputs":[],"stateMutability":"nonpayable"},{"type":"function","name":"setShareLockPeriod","inputs":[{"name":"newLock","type":"uint256","internalType":"uint256"}],"outputs":[],"stateMutability":"nonpayable"},{"type":"function","name":"setStrategistPayoutAddress","inputs":[{"name":"payout","type":"address","internalType":"address"}],"outputs":[],"stateMutability":"nonpayable"},{"type":"function","name":"setStrategistPlatformCut","inputs":[{"name":"cut","type":"uint64","internalType":"uint64"}],"outputs":[],"stateMutability":"nonpayable"},{"type":"function","name":"shareLockPeriod","inputs":[],"outputs":[{"name":"","type":"uint256","internalType":"uint256"}],"stateMutability":"view"},{"type":"function","name":"swapPositions","inputs":[{"name":"index1","type":"uint32","internalType":"uint32"},{"name":"index2","type":"uint32","internalType":"uint32"},{"name":"inDebtArray","type":"bool","internalType":"bool"}],"outputs":[],"stateMutability":"nonpayable"},{"type":"function","name":"symbol","inputs":[],"outputs":[{"name":"","type":"string","internalType":"string"}],"stateMutability":"view"},{"type":"function","name":"toggleIgnorePause","inputs":[{"name":"toggle","type":"bool","internalType":"bool"}],"outputs":[],"stateMutability":"nonpayable"},{"type":"function","name":"totalAssets","inputs":[],"outputs":[{"name":"assets","type":"uint256","internalType":"uint256"}],"stateMutability":"view"},{"type":"function","name":"totalAssetsWithdrawable","inputs":[],"outputs":[{"name":"assets","type":"uint256","internalType":"uint256"}],"stateMutability":"view"},{"type":"function","name":"totalSupply","inputs":[],"outputs":[{"name":"","type":"uint256","internalType":"uint256"}],"stateMutability":"view"},{"type":"function","name":"transfer","inputs":[{"name":"to","type":"address","internalType":"address"},{"name":"amount","type":"uint256","internalType":"uint256"}],"outputs":[{"name":"","type":"bool","internalType":"bool"}],"stateMutability":"nonpayable"},{"type":"function","name":"transferFrom","inputs":[{"name":"from","type":"address","internalType":"address"},{"name":"to","type":"address","internalType":"address"},{"name":"amount","type":"uint256","internalType":"uint256"}],"outputs":[{"name":"","type":"bool","internalType":"bool"}],"stateMutability":"nonpayable"},{"type":"function","name":"transferOwnership","inputs":[{"name":"newOwner","type":"address","internalType":"address"}],"outputs":[],"stateMutability":"nonpayable"},{"type":"function","name":"userShareLockStartTime","inputs":[{"name":"","type":"address","internalType":"address"}],"outputs":[{"name":"","type":"uint256","internalType":"uint256"}],"stateMutability":"view"},{"type":"function","name":"viewPositionBalances","inputs":[],"outputs":[{"name":"assets","type":"address[]","internalType":"contract ERC20[]"},{"name":"balances","type":"uint256[]","internalType":"uint256[]"},{"name":"isDebt","type":"bool[]","internalType":"bool[]"}],"stateMutability":"view"},{"type":"function","name":"withdraw","inputs":[{"name":"assets","type":"uint256","internalType":"uint256"},{"name":"receiver","type":"address","internalType":"address"},{"name":"owner","type":"address","internalType":"address"}],"outputs":[{"name":"shares","type":"uint256","internalType":"uint256"}],"stateMutability":"nonpayable"},{"type":"event","name":"AdaptorCalled","inputs":[{"name":"adaptor","type":"address","indexed":false,"internalType":"address"},{"name":"data","type":"bytes","indexed":false,"internalType":"bytes"}],"anonymous":false},{"type":"event","name":"AdaptorCatalogueAltered","inputs":[{"name":"adaptor","type":"address","indexed":false,"internalType":"address"},{"name":"inCatalogue","type":"bool","indexed":false,"internalType":"bool"}],"anonymous":false},{"type":"event","name":"Approval","inputs":[{"name":"owner","type":"address","indexed":true,"internalType":"address"},{"name":"spender","type":"address","indexed":true,"internalType":"address"},{"name":"amount","type":"uint256","indexed":false,"internalType":"uint256"}],"anonymous":false},{"type":"event","name":"Deposit","inputs":[{"name":"caller","type":"address","indexed":true,"internalType":"address"},{"name":"owner","type":"address","indexed":true,"internalType":"address"},{"name":"assets","type":"uint256","indexed":false,"internalType":"uint256"},{"name":"shares","type":"uint256","indexed":false,"internalType":"uint256"}],"anonymous":false},{"type":"event","name":"OwnershipTransferred","inputs":[{"name":"user","type":"address","indexed":true,"internalType":"address"},{"name":"newOwner","type":"address","indexed":true,"internalType":"address"}],"anonymous":false},{"type":"event","name":"PlatformFeeChanged","inputs":[{"name":"oldPlatformFee","type":"uint64","indexed":false,"internalType":"uint64"},{"name":"newPlatformFee","type":"uint64","indexed":false,"internalType":"uint64"}],"anonymous":false},{"type":"event","name":"PositionAdded","inputs":[{"name":"position","type":"uint32","indexed":false,"internalType":"uint32"},{"name":"index","type":"uint256","indexed":false,"internalType":"uint256"}],"anonymous":false},{"type":"event","name":"PositionCatalogueAltered","inputs":[{"name":"positionId","type":"uint32","indexed":false,"internalType":"uint32"},{"name":"inCatalogue","type":"bool","indexed":false,"internalType":"bool"}],"anonymous":false},{"type":"event","name":"PositionRemoved","inputs":[{"name":"position","type":"uint32","indexed":false,"internalType":"uint32"},{"name":"index","type":"uint256","indexed":false,"internalType":"uint256"}],"anonymous":false},{"type":"event","name":"PositionSwapped","inputs":[{"name":"newPosition1","type":"uint32","indexed":false,"internalType":"uint32"},{"name":"newPosition2","type":"uint32","indexed":false,"internalType":"uint32"},{"name":"index1","type":"uint256","indexed":false,"internalType":"uint256"},{"name":"index2","type":"uint256","indexed":false,"internalType":"uint256"}],"anonymous":false},{"type":"event","name":"RebalanceDeviationChanged","inputs":[{"name":"oldDeviation","type":"uint256","indexed":false,"internalType":"uint256"},{"name":"newDeviation","type":"uint256","indexed":false,"internalType":"uint256"}],"anonymous":false},{"type":"event","name":"ShareLockingPeriodChanged","inputs":[{"name":"oldPeriod","type":"uint256","indexed":false,"internalType":"uint256"},{"name":"newPeriod","type":"uint256","indexed":false,"internalType":"uint256"}],"anonymous":false},{"type":"event","name":"ShutdownChanged","inputs":[{"name":"isShutdown","type":"bool","indexed":false,"internalType":"bool"}],"anonymous":false},{"type":"event","name":"StrategistPayoutAddressChanged","inputs":[{"name":"oldPayoutAddress","type":"address","indexed":false,"internalType":"address"},{"name":"newPayoutAddress","type":"address","indexed":false,"internalType":"address"}],"anonymous":false},{"type":"event","name":"StrategistPlatformCutChanged","inputs":[{"name":"oldPlatformCut","type":"uint64","indexed":false,"internalType":"uint64"},{"name":"newPlatformCut","type":"uint64","indexed":false,"internalType":"uint64"}],"anonymous":false},{"type":"event","name":"Transfer","inputs":[{"name":"from","type":"address","indexed":true,"internalType":"address"},{"name":"to","type":"address","indexed":true,"internalType":"address"},{"name":"amount","type":"uint256","indexed":false,"internalType":"uint256"}],"anonymous":false},{"type":"event","name":"Withdraw","inputs":[{"name":"caller","type":"address","indexed":true,"internalType":"address"},{"name":"receiver","type":"address","indexed":true,"internalType":"address"},{"name":"owner","type":"address","indexed":true,"internalType":"address"},{"name":"assets","type":"uint256","indexed":false,"internalType":"uint256"},{"name":"shares","type":"uint256","indexed":false,"internalType":"uint256"}],"anonymous":false},{"type":"error","name":"Cellar__AssetMismatch","inputs":[{"name":"asset","type":"address","internalType":"address"},{"name":"expectedAsset","type":"address","internalType":"address"}]},{"type":"error","name":"Cellar__CallToAdaptorNotAllowed","inputs":[{"name":"adaptor","type":"address","internalType":"address"}]},{"type":"error","name":"Cellar__CallerNotAavePool","inputs":[]},{"type":"error","name":"Cellar__ContractNotShutdown","inputs":[]},{"type":"error","name":"Cellar__ContractShutdown","inputs":[]},{"type":"error","name":"Cellar__DebtMismatch","inputs":[{"name":"position","type":"uint32","internalType":"uint32"}]},{"type":"error","name":"Cellar__DepositRestricted","inputs":[{"name":"assets","type":"uint256","internalType":"uint256"},{"name":"maxDeposit","type":"uint256","internalType":"uint256"}]},{"type":"error","name":"Cellar__ExternalInitiator","inputs":[]},{"type":"error","name":"Cellar__IlliquidWithdraw","inputs":[{"name":"illiquidPosition","type":"address","internalType":"address"}]},{"type":"error","name":"Cellar__IncompleteWithdraw","inputs":[{"name":"assetsOwed","type":"uint256","internalType":"uint256"}]},{"type":"error","name":"Cellar__InvalidFee","inputs":[]},{"type":"error","name":"Cellar__InvalidFeeCut","inputs":[]},{"type":"error","name":"Cellar__InvalidHoldingPosition","inputs":[{"name":"positionId","type":"uint32","internalType":"uint32"}]},{"type":"error","name":"Cellar__InvalidRebalanceDeviation","inputs":[{"name":"requested","type":"uint256","internalType":"uint256"},{"name":"max","type":"uint256","internalType":"uint256"}]},{"type":"error","name":"Cellar__InvalidShareLockPeriod","inputs":[]},{"type":"error","name":"Cellar__NotApprovedToDepositOnBehalf","inputs":[{"name":"depositor","type":"address","internalType":"address"}]},{"type":"error","name":"Cellar__Paused","inputs":[]},{"type":"error","name":"Cellar__PositionAlreadyUsed","inputs":[{"name":"position","type":"uint32","internalType":"uint32"}]},{"type":"error","name":"Cellar__PositionArrayFull","inputs":[{"name":"maxPositions","type":"uint256","internalType":"uint256"}]},{"type":"error","name":"Cellar__PositionNotEmpty","inputs":[{"name":"position","type":"uint32","internalType":"uint32"},{"name":"sharesRemaining","type":"uint256","internalType":"uint256"}]},{"type":"error","name":"Cellar__PositionNotInCatalogue","inputs":[{"name":"position","type":"uint32","internalType":"uint32"}]},{"type":"error","name":"Cellar__PositionNotUsed","inputs":[{"name":"position","type":"uint32","internalType":"uint32"}]},{"type":"error","name":"Cellar__RemovingHoldingPosition","inputs":[]},{"type":"error","name":"Cellar__SharesAreLocked","inputs":[{"name":"timeSharesAreUnlocked","type":"uint256","internalType":"uint256"},{"name":"currentBlock","type":"uint256","internalType":"uint256"}]},{"type":"error","name":"Cellar__TotalAssetDeviatedOutsideRange","inputs":[{"name":"assets","type":"uint256","internalType":"uint256"},{"name":"min","type":"uint256","internalType":"uint256"},{"name":"max","type":"uint256","internalType":"uint256"}]},{"type":"error","name":"Cellar__TotalSharesMustRemainConstant","inputs":[{"name":"current","type":"uint256","internalType":"uint256"},{"name":"expected","type":"uint256","internalType":"uint256"}]},{"type":"error","name":"Cellar__ZeroAssets","inputs":[]},{"type":"error","name":"Cellar__ZeroShares","inputs":[]}],"bytecode":{"object":"0x60806040526001600b556040518060800160405280670a688906bd8b000067ffffffffffffffff168152602001662386f26fc1000067ffffffffffffffff168152602001600067ffffffffffffffff168152602001600073ffffffffffffffffffffffffffffffffffffffff16815250601460008201518160000160006101000a81548167ffffffffffffffff021916908367ffffffffffffffff16021790555060208201518160000160086101000a81548167ffffffffffffffff021916908367ffffffffffffffff16021790555060408201518160000160106101000a81548167ffffffffffffffff021916908367ffffffffffffffff16021790555060608201518160010160006101000a81548173ffffffffffffffffffffffffffffffffffffffff021916908373ffffffffffffffffffffffffffffffffffffffff16021790555050506202a300601755660110d9316ec000601955737d2768de32b0b80b7a3454c06bdac94a69ddc7a9601a60016101000a81548173ffffffffffffffffffffffffffffffffffffffff021916908373ffffffffffffffffffffffffffffffffffffffff16021790555034801563000001bc57600080fd5b50604051630000c610380380630000c610833981810160405281019063000001e6919063000015a8565b8473ffffffffffffffffffffffffffffffffffffffff1663b93f9b0a60006040518263ffffffff1660e01b81526004016300000224919063000016c0565b602060405180830381865afa1580156300000243573d6000803e3d6000fd5b505050506040513d601f19601f82011682018060405250810190630000026b91906300001715565b848484601282828282600090816300000286919063000019b7565b508160019081630000029a919063000019b7565b5080600260006101000a81548160ff021916908360ff1602179055504660068190555063000002cf630000076460201b60201c565b60078190555050505083600960006101000a81548173ffffffffffffffffffffffffffffffffffffffff021916908373ffffffffffffffffffffffffffffffffffffffff1602179055505050505080600a60006101000a81548173ffffffffffffffffffffffffffffffffffffffff021916908373ffffffffffffffffffffffffffffffffffffffff1602179055508073ffffffffffffffffffffffffffffffffffffffff16600073ffffffffffffffffffffffffffffffffffffffff167f8be0079c531659141344cd1fd0a4f28419497f9722a3daafe3b4186f6b6457e060405160405180910390a35084601660026101000a81548173ffffffffffffffffffffffffffffffffffffffff021916908373ffffffffffffffffffffffffffffffffffffffff160217905550601660029054906101000a900473ffffffffffffffffffffffffffffffffffffffff1673ffffffffffffffffffffffffffffffffffffffff1663b93f9b0a60026040518263ffffffff1660e01b8152600401630000045b919063000016c0565b602060405180830381865afa158015630000047a573d6000803e3d6000fd5b505050506040513d601f19601f8201168201806040525081019063000004a291906300001715565b600c60006101000a81548173ffffffffffffffffffffffffffffffffffffffff021916908373ffffffffffffffffffffffffffffffffffffffff160217905550600080600080600085806020019051810190630000050291906300001d37565b60ff169450945094509450945060005b85518163ffffffff16101563000005d657630000055c868263ffffffff168151811063000005475763000005466300001e54565b5b602002602001015163000007f860201b60201c565b63000005bf81878363ffffffff168151811063000005815763000005806300001e54565b5b6020026020010151868463ffffffff168151811063000005a85763000005a76300001e54565b5b60200260200101516000630000090460201b60201c565b8063000005cd906300001eb2565b90506300000512565b5060005b84518163ffffffff161015630000069e576300000624858263ffffffff1681518110630000060f57630000060e6300001e54565b5b602002602001015163000007f860201b60201c565b630000068781868363ffffffff168151811063000006495763000006486300001e54565b5b6020026020010151858463ffffffff1681518110630000067057630000066f6300001e54565b5b60200260200101516001630000090460201b60201c565b806300000695906300001eb2565b905063000005da565b5060008551111563000006bf5763000006be816300000d4b60201b60201c565b5b505050505042601460000160106101000a81548167ffffffffffffffff021916908367ffffffffffffffff160217905550600081806020019051810190630000070a91906300001f86565b50509550505050505080601460010160006101000a81548173ffffffffffffffffffffffffffffffffffffffff021916908373ffffffffffffffffffffffffffffffffffffffff160217905550505050505050630000272e565b60007f8b73c3c69bb8fe3d512ecc4cf759cc79239f7b179b0ffacaa9a75d522b39400f6000604051630000079a919063000021a5565b60405180910390207fc89efdaa54c0f20c7adf612882df0950f5a951637e0307cdcb4c672f298b8bc6463060405160200163000007dd95949392919063000021f0565b60405160208183030381529060405280519060200120905090565b601660029054906101000a900473ffffffffffffffffffffffffffffffffffffffff1673ffffffffffffffffffffffffffffffffffffffff1663a2b3b0fe826040518263ffffffff1660e01b815260040163000008579190630000226a565b60006040518083038186803b158015630000087157600080fd5b505afa1580156300000887573d6000803e3d6000fd5b505050506001601260008363ffffffff1663ffffffff16815260200190815260200160002060006101000a81548160ff0219169083151502179055507fea052d1fb1ecba6aaf6bd32e92f20e7b6a094eaa478248322cc8ff024a90978f81600160405163000008f992919063000022a8565b60405180910390a150565b600f60008463ffffffff16815260200190815260200160002060009054906101000a900460ff1615630000097357826040517f66b129f6000000000000000000000000000000000000000000000000000000008152600401630000096a9190630000226a565b60405180910390fd5b601260008463ffffffff1663ffffffff16815260200190815260200160002060009054906101000a900460ff1663000009e757826040517ffced80e800000000000000000000000000000000000000000000000000000000815260040163000009de9190630000226a565b60405180910390fd5b6000806000601660029054906101000a900473ffffffffffffffffffffffffffffffffffffffff1673ffffffffffffffffffffffffffffffffffffffff166385ae5d57876040518263ffffffff1660e01b81526004016300000a4b9190630000226a565b600060405180830381865afa1580156300000a6a573d6000803e3d6000fd5b505050506040513d6000823e3d601f19601f820116820180604052508101906300000a979190630000230f565b925092509250831515821515146300000aeb57856040517f563a17a60000000000000000000000000000000000000000000000000000000081526004016300000ae29190630000226a565b60405180910390fd5b60405180608001604052808473ffffffffffffffffffffffffffffffffffffffff168152602001831515815260200182815260200186815250601060008863ffffffff1663ffffffff16815260200190815260200160002060008201518160000160006101000a81548173ffffffffffffffffffffffffffffffffffffffff021916908373ffffffffffffffffffffffffffffffffffffffff16021790555060208201518160000160146101000a81548160ff02191690831515021790555060408201518160010190816300000bc391906300002410565b5060608201518160020190816300000bdd91906300002410565b5090505081156300000c61576010600e80549050106300000c3a5760106040517ff025236d0000000000000000000000000000000000000000000000000000000081526004016300000c31919063000016c0565b60405180910390fd5b6300000c5a8787600e6300000f3560201b63000044ed179092919060201c565b6300000cd3565b6010600d80549050106300000cb25760106040517ff025236d0000000000000000000000000000000000000000000000000000000081526004016300000ca9919063000016c0565b60405180910390fd5b6300000cd28787600d6300000f3560201b63000044ed179092919060201c565b5b6001600f60008863ffffffff16815260200190815260200160002060006101000a81548160ff0219169083151502179055507fc4f8cb57c016f0b294fff2666f86fa6cfee9b03aed19f816ae4bf44b7e837bbb86886040516300000d3a929190630000254d565b60405180910390a150505050505050565b600f60008263ffffffff16815260200190815260200160002060009054906101000a900460ff166300000db957806040517f70abe8590000000000000000000000000000000000000000000000000000000081526004016300000db09190630000226a565b60405180910390fd5b600960009054906101000a900473ffffffffffffffffffffffffffffffffffffffff1673ffffffffffffffffffffffffffffffffffffffff166300000e0582630000116d60201b60201c565b73ffffffffffffffffffffffffffffffffffffffff16146300000e9957600960009054906101000a900473ffffffffffffffffffffffffffffffffffffffff166300000e5882630000116d60201b60201c565b6040517f5308e78e0000000000000000000000000000000000000000000000000000000081526004016300000e90929190630000257e565b60405180910390fd5b601060008263ffffffff1663ffffffff16815260200190815260200160002060000160149054906101000a900460ff16156300000f1157806040517fa42c0f900000000000000000000000000000000000000000000000000000000081526004016300000f089190630000226a565b60405180910390fd5b80601160006101000a81548163ffffffff021916908363ffffffff16021790555050565b600083805490509050600081111563000011195783846001836300000f5c919063000025af565b815481106300000f73576300000f726300001e54565b5b90600052602060002090600891828204019190066004029054906101000a900463ffffffff1690806001815401808255809150506001900390600052602060002090600891828204019190066004029091909190916101000a81548163ffffffff021916908363ffffffff16021790555060006001826300000ff7919063000025af565b90505b8363ffffffff1681111563000010be5784600182630000101c919063000025af565b8154811063000010335763000010326300001e54565b5b90600052602060002090600891828204019190066004029054906101000a900463ffffffff1685828154811063000010725763000010716300001e54565b5b90600052602060002090600891828204019190066004026101000a81548163ffffffff021916908363ffffffff160217905550808063000010b49063000025f1565b9150506300000ffa565b5081848463ffffffff168154811063000010df5763000010de6300001e54565b5b90600052602060002090600891828204019190066004026101000a81548163ffffffff021916908363ffffffff1602179055506300001167565b838290806001815401808255809150506001900390600052602060002090600891828204019190066004029091909190916101000a81548163ffffffff021916908363ffffffff1602179055505b50505050565b600080601060008463ffffffff1663ffffffff16815260200190815260200160002060000160009054906101000a900473ffffffffffffffffffffffffffffffffffffffff1690508073ffffffffffffffffffffffffffffffffffffffff1663e170a9bf601060008663ffffffff1663ffffffff1681526020019081526020016000206001016040518263ffffffff1660e01b81526004016300001213919063000026d1565b602060405180830381865afa1580156300001232573d6000803e3d6000fd5b505050506040513d601f19601f82011682018060405250810190630000125a919063000026f7565b915050919050565b6000604051905090565b600080fd5b600080fd5b600073ffffffffffffffffffffffffffffffffffffffff82169050919050565b600063000012a5826300001276565b9050919050565b600063000012bb826300001296565b9050919050565b63000012cf8163000012ac565b811463000012dc57600080fd5b50565b60008151905063000012f28163000012c2565b92915050565b60006300001307826300001296565b9050919050565b630000131b8163000012f8565b8114630000132857600080fd5b50565b600081519050630000133e81630000130e565b92915050565b600080fd5b600080fd5b6000601f19601f8301169050919050565b7f4e487b7100000000000000000000000000000000000000000000000000000000600052604160045260246000fd5b630000139b82630000134e565b810181811067ffffffffffffffff8211171563000013c05763000013bf630000135f565b5b80604052505050565b600063000013d76300001262565b905063000013e78282630000138e565b919050565b600067ffffffffffffffff821115630000140d57630000140c630000135f565b5b630000141a82630000134e565b9050602081019050919050565b60005b838110156300001449578082015181840152602081019050630000142a565b60008484015250505050565b6000630000147063000014698463000013ec565b63000013c9565b90508281526020810184848401111563000014925763000014916300001349565b5b63000014a18482856300001427565b509392505050565b600082601f83011263000014c45763000014c36300001344565b5b815163000014d88482602086016300001455565b91505092915050565b600067ffffffffffffffff8211156300001502576300001501630000135f565b5b630000150f82630000134e565b9050602081019050919050565b6000630000153763000015308463000014e1565b63000013c9565b90508281526020810184848401111563000015595763000015586300001349565b5b63000015688482856300001427565b509392505050565b600082601f830112630000158b57630000158a6300001344565b5b8151630000159f848260208601630000151c565b91505092915050565b600080600080600060a0868803121563000015ca5763000015c9630000126c565b5b600063000015dc8882890163000012df565b955050602063000015f188828901630000132b565b945050604086015167ffffffffffffffff81111563000016185763000016176300001271565b5b63000016288882890163000014a9565b935050606086015167ffffffffffffffff811115630000164f57630000164e6300001271565b5b630000165f8882890163000014a9565b925050608086015167ffffffffffffffff81111563000016865763000016856300001271565b5b6300001696888289016300001570565b9150509295509295909350565b6000819050919050565b63000016ba8163000016a3565b82525050565b600060208201905063000016d9600083018463000016ad565b92915050565b63000016ec816300001296565b811463000016f957600080fd5b50565b600081519050630000170f8163000016df565b92915050565b6000602082840312156300001731576300001730630000126c565b5b600063000017438482850163000016fc565b91505092915050565b600081519050919050565b7f4e487b7100000000000000000000000000000000000000000000000000000000600052602260045260246000fd5b6000600282049050600182168063000017a057607f821691505b60208210810363000017b95763000017b86300001757565b5b50919050565b60008190508160005260206000209050919050565b60006020601f8301049050919050565b600082821b905092915050565b60006008830263000018257fffffffffffffffffffffffffffffffffffffffffffffffffffffffffffffffff8263000017e4565b6300001833868363000017e4565b95508019841693508086168417925050509392505050565b6000819050919050565b6000630000187c6300001875630000186e8463000016a3565b630000184b565b63000016a3565b9050919050565b6000819050919050565b630000189a836300001855565b63000018b663000018ac826300001883565b84845463000017f1565b825550505050565b600090565b63000018cf63000018be565b63000018de818484630000188d565b505050565b5b81811015630000190a5763000018fd60008263000018c3565b60018101905063000018e4565b5050565b601f82111563000019635763000019268163000017bf565b63000019338463000017d4565b810160208510156300001944578190505b630000196063000019568563000017d4565b83018263000018e3565b50505b505050565b600082821c905092915050565b6000630000198a600019846008026300001968565b1980831691505092915050565b600063000019a783836300001975565b9150826002028217905092915050565b63000019c482630000174c565b67ffffffffffffffff81111563000019e35763000019e2630000135f565b5b63000019f182546300001786565b6300001a00828285630000190e565b600060209050601f8311600181146300001a3d57600084156300001a25578287015190505b6300001a3385826300001997565b8655506300001aab565b601f1984166300001a4f8663000017bf565b60005b828110156300001a7b578489015182556001820191506020850194506020810190506300001a52565b868310156300001a9e57848901516300001a9a601f8916826300001975565b8355505b6001600288020188555050505b505050505050565b600067ffffffffffffffff8211156300001ad4576300001ad3630000135f565b5b602082029050602081019050919050565b600080fd5b600063ffffffff82169050919050565b6300001b07816300001aea565b81146300001b1457600080fd5b50565b6000815190506300001b2a816300001afa565b92915050565b60006300001b4b6300001b44846300001ab3565b63000013c9565b905080838252602082019050602084028301858111156300001b74576300001b736300001ae5565b5b835b818110156300001ba557806300001b8f88826300001b17565b8452602084019350506020810190506300001b76565b5050509392505050565b600082601f8301126300001bca576300001bc96300001344565b5b81516300001bde8482602086016300001b30565b91505092915050565b600067ffffffffffffffff8211156300001c08576300001c07630000135f565b5b602082029050602081019050919050565b60006300001c346300001c2d846300001be7565b63000013c9565b905080838252602082019050602084028301858111156300001c5d576300001c5c6300001ae5565b5b835b818110156300001cb257805167ffffffffffffffff8111156300001c8a576300001c896300001344565b5b8086016300001c9b89826300001570565b855260208501945050506020810190506300001c5f565b5050509392505050565b600082601f8301126300001cd7576300001cd66300001344565b5b81516300001ceb8482602086016300001c19565b91505092915050565b600060ff82169050919050565b6300001d0e816300001cf4565b81146300001d1b57600080fd5b50565b6000815190506300001d31816300001d01565b92915050565b600080600080600060a086880312156300001d59576300001d58630000126c565b5b600086015167ffffffffffffffff8111156300001d7d576300001d7c6300001271565b5b6300001d8d888289016300001baf565b955050602086015167ffffffffffffffff8111156300001db4576300001db36300001271565b5b6300001dc4888289016300001baf565b945050604086015167ffffffffffffffff8111156300001deb576300001dea6300001271565b5b6300001dfb888289016300001cbc565b935050606086015167ffffffffffffffff8111156300001e22576300001e216300001271565b5b6300001e32888289016300001cbc565b92505060806300001e47888289016300001d1e565b9150509295509295909350565b7f4e487b7100000000000000000000000000000000000000000000000000000000600052603260045260246000fd5b7f4e487b7100000000000000000000000000000000000000000000000000000000600052601160045260246000fd5b60006300001ec1826300001aea565b915063ffffffff82036300001edd576300001edc6300001e83565b5b600182019050919050565b60006300001ef7826300001276565b9050919050565b6300001f0b816300001ee8565b81146300001f1857600080fd5b50565b6000815190506300001f2e816300001efe565b92915050565b60006fffffffffffffffffffffffffffffffff82169050919050565b6300001f5d816300001f34565b81146300001f6a57600080fd5b50565b6000815190506300001f80816300001f50565b92915050565b600080600080600080600080610100898b0312156300001fad576300001fac630000126c565b5b600089015167ffffffffffffffff8111156300001fd1576300001fd06300001271565b5b6300001fe18b828c016300001baf565b985050602089015167ffffffffffffffff81111563000020085763000020076300001271565b5b63000020188b828c016300001baf565b975050604089015167ffffffffffffffff811115630000203f57630000203e6300001271565b5b630000204f8b828c016300001cbc565b965050606089015167ffffffffffffffff81111563000020765763000020756300001271565b5b63000020868b828c016300001cbc565b9550506080630000209b8b828c016300001d1e565b94505060a063000020b08b828c016300001f1b565b93505060c063000020c58b828c016300001f6d565b92505060e063000020da8b828c016300001f6d565b9150509295985092959890939650565b600081905092915050565b60008190508160005260206000209050919050565b60008154630000211b816300001786565b6300002129818663000020ea565b94506001821660008114630000214a5760018114630000216157630000219c565b60ff1983168652811515820286019350630000219c565b630000216e8563000020f5565b60005b838110156300002194578154818901526001820191506020810190506300002171565b838801955050505b50505092915050565b600063000021b58284630000210a565b915081905092915050565b6000819050919050565b63000021d78163000021c0565b82525050565b63000021ea816300001296565b82525050565b600060a0820190506300002209600083018863000021ca565b630000221a602083018763000021ca565b630000222b604083018663000021ca565b630000223c606083018563000016ad565b630000224d608083018463000021dd565b9695505050505050565b6300002264816300001aea565b82525050565b6000602082019050630000228360008301846300002257565b92915050565b60008115159050919050565b63000022a2816300002289565b82525050565b600060408201905063000022c160008301856300002257565b63000022d260208301846300002295565b9392505050565b63000022e6816300002289565b811463000022f357600080fd5b50565b60008151905063000023098163000022d9565b92915050565b600080600060608486031215630000232e57630000232d630000126c565b5b600063000023408682870163000016fc565b935050602063000023558682870163000022f6565b925050604084015167ffffffffffffffff811115630000237c57630000237b6300001271565b5b630000238c868287016300001570565b9150509250925092565b600081519050919050565b60008190508160005260206000209050919050565b601f821115630000240b5763000023ce8163000023a1565b63000023db8463000017d4565b8101602085101563000023ec578190505b630000240863000023fe8563000017d4565b83018263000018e3565b50505b505050565b630000241d826300002396565b67ffffffffffffffff811115630000243c57630000243b630000135f565b5b630000244a82546300001786565b630000245982828563000023b6565b600060209050601f83116001811463000024965760008415630000247e578287015190505b630000248c85826300001997565b8655506300002504565b601f19841663000024a88663000023a1565b60005b8281101563000024d45784890151825560018201915060208501945060208101905063000024ab565b8683101563000024f7578489015163000024f3601f8916826300001975565b8355505b6001600288020188555050505b505050505050565b60006300002533630000252c6300002525846300001aea565b630000184b565b63000016a3565b9050919050565b630000254781630000250c565b82525050565b6000604082019050630000256660008301856300002257565b63000025776020830184630000253a565b9392505050565b60006040820190506300002597600083018563000021dd565b63000025a8602083018463000021dd565b9392505050565b600063000025be8263000016a3565b915063000025cd8363000016a3565b925082820390508181111563000025eb5763000025ea6300001e83565b5b92915050565b600063000026008263000016a3565b91506000820363000026195763000026186300001e83565b5b600182039050919050565b600082825260208201905092915050565b600081546300002646816300001786565b630000265481866300002624565b9450600182166000811463000026755760018114630000268d5763000026c8565b60ff19831686528115156020028601935063000026c8565b630000269a8563000023a1565b60005b8381101563000026c057815481890152600182019150602081019050630000269d565b808801955050505b50505092915050565b6000602082019050818103600083015263000026ef81846300002635565b905092915050565b6000602082840312156300002713576300002712630000126c565b5b6000630000272584828501630000132b565b91505092915050565b619ed180630000273f6000396000f3fe608060405234801561001057600080fd5b50600436106104a05760003560e01c80637ecebe001161026d578063ba08765211610151578063d505accf116100ce578063e753e60011610092578063e753e60014610f5e578063ebe3c32814610f7f578063eef33eca14610f9b578063ef8b30f714610fb9578063f2fde38b14610fe9578063f7b24e0814611005576104a0565b8063d505accf14610e94578063d7d4bf4514610eb0578063d905777e14610ece578063dd62ed3e14610efe578063e1b1acb714610f2e576104a0565b8063cbdf33d011610115578063cbdf33d014610ddc578063cd82f8b114610e0c578063ce96cb7714610e2a578063cf30901214610e5a578063d1e8840414610e78576104a0565b8063ba08765214610d10578063bf86d69014610d40578063c244245a14610d5e578063c63d75b614610d7c578063c6e6f59214610dac576104a0565b80639fdb11b6116101ea578063ac9650d8116101ae578063ac9650d814610c3e578063b0a75d3614610c5a578063b187bd2614610c76578063b3d7f6b914610c94578063b460af9414610cc4578063b5292a9914610cf4576104a0565b80639fdb11b614610b98578063a03e4bc314610bb6578063a07bee0b14610bd4578063a8144e4814610bf0578063a9059cbb14610c0e576104a0565b806395d89b411161023157806395d89b4114610b065780639955a9d414610b245780639959af9414610b405780639c552ca814610b5e5780639c5f00c214610b7a576104a0565b80637ecebe0014610a285780638da5cb5b14610a58578063920f5c8414610a7657806393bbeac014610aa657806394bf804d14610ad6576104a0565b80633d8ab1e5116103945780635a400d25116103115780636ff1c02a116102d55780636ff1c02a1461094b57806370a082311461096957806371e99dc2146109995780637384504f146109b757806378e0233e146109ea5780637b10399914610a0a576104a0565b80635a400d25146108a75780635e2c576e146108c55780635f6b88a0146108cf578063687c2b50146108eb5780636e553f651461091b576104a0565b80634e84befe116103585780634e84befe14610807578063501eb4fe14610823578063530a37141461083f57806358db626d1461085b57806359d20b4e14610877576104a0565b80633d8ab1e51461074f5780633e3382ba1461076b578063402d267d146107895780634c4602da146107b95780634cdad506146107d7576104a0565b8063150b7a021161042257806333e15be2116103e657806333e15be2146106bd5780633644e515146106d9578063379e0b13146106f757806338d52e0f146107135780633998a68114610731576104a0565b8063150b7a02146105f157806318160ddd1461062157806318d4c1431461063f57806323b872dd1461066f578063313ce5671461069f576104a0565b806307a2d13a1161046957806307a2d13a14610539578063087ed83714610569578063095ea7b3146105875780630a28a477146105b75780630a680e18146105e7576104a0565b806251a3b7146104a557806301e1d114146104c35780630402ab63146104e157806306fdde03146104ff5780630780fd3a1461051d575b600080fd5b6104ad611023565b6040516104ba9190617547565b60405180910390f35b6104cb611029565b6040516104d89190617547565b60405180910390f35b6104e9611087565b6040516104f69190617547565b60405180910390f35b61050761108e565b60405161051491906175f2565b60405180910390f35b61053760048036038101906105329190617664565b61111c565b005b610553600480360381019061054e91906176bd565b6111b8565b6040516105609190617547565b60405180910390f35b6105716111d2565b60405161057e9190617818565b60405180910390f35b6105a1600480360381019061059c9190617878565b6112d8565b6040516105ae91906178d3565b60405180910390f35b6105d160048036038101906105cc91906176bd565b6113ca565b6040516105de9190617547565b60405180910390f35b6105ef6113e9565b005b61060b60048036038101906106069190617a23565b6114d6565b6040516106189190617ae1565b60405180910390f35b6106296114ea565b6040516106369190617547565b60405180910390f35b61065960048036038101906106549190617afc565b6114f0565b60405161066691906178d3565b60405180910390f35b61068960048036038101906106849190617b29565b611510565b60405161069691906178d3565b60405180910390f35b6106a761152f565b6040516106b49190617b98565b60405180910390f35b6106d760048036038101906106d29190617bdf565b611542565b005b6106e16116c7565b6040516106ee9190617c38565b60405180910390f35b610711600480360381019061070c9190617c53565b6116e8565b005b61071b611a1b565b6040516107289190617cb5565b60405180910390f35b610739611a41565b6040516107469190617cf3565b60405180910390f35b61076960048036038101906107649190617afc565b611a4d565b005b610773611bfd565b6040516107809190617dcc565b60405180910390f35b6107a3600480360381019061079e9190617afc565b611c81565b6040516107b09190617547565b60405180910390f35b6107c1611cca565b6040516107ce91906178d3565b60405180910390f35b6107f160048036038101906107ec91906176bd565b611cdd565b6040516107fe9190617547565b60405180910390f35b610821600480360381019061081c919061802b565b611cfc565b005b61083d60048036038101906108389190617664565b612152565b005b610859600480360381019061085491906176bd565b6121ee565b005b610875600480360381019061087091906180ae565b61232a565b005b610891600480360381019061088c91906176bd565b61256f565b60405161089e91906180fd565b60405180910390f35b6108af6125a9565b6040516108bc9190617547565b60405180910390f35b6108cd6125ae565b005b6108e960048036038101906108e49190617afc565b6126d9565b005b61090560048036038101906109009190617afc565b6127fe565b6040516109129190617547565b60405180910390f35b61093560048036038101906109309190618118565b612816565b6040516109429190617547565b60405180910390f35b6109536128d3565b6040516109609190617cf3565b60405180910390f35b610983600480360381019061097e9190617afc565b6128df565b6040516109909190617547565b60405180910390f35b6109a16128f7565b6040516109ae9190617dcc565b60405180910390f35b6109d160048036038101906109cc9190617664565b61297b565b6040516109e194939291906181bc565b60405180910390f35b6109f2612ae8565b604051610a019392919061838b565b60405180910390f35b610a12612ea2565b604051610a1f91906183f8565b60405180910390f35b610a426004803603810190610a3d9190617afc565b612ec8565b604051610a4f9190617547565b60405180910390f35b610a60612ee0565b604051610a6d9190618413565b60405180910390f35b610a906004803603810190610a8b9190618535565b612f06565b604051610a9d91906178d3565b60405180910390f35b610ac06004803603810190610abb91906176bd565b61326c565b604051610acd91906178d3565b60405180910390f35b610af06004803603810190610aeb9190618118565b61328c565b604051610afd9190617547565b60405180910390f35b610b0e613349565b604051610b1b91906175f2565b60405180910390f35b610b3e6004803603810190610b399190618631565b6133d7565b005b610b48613481565b604051610b5591906178d3565b60405180910390f35b610b786004803603810190610b7391906176bd565b613494565b005b610b826135b8565b604051610b8f91906180fd565b60405180910390f35b610ba06135ce565b604051610bad9190617547565b60405180910390f35b610bbe6135d4565b604051610bcb9190618413565b60405180910390f35b610bee6004803603810190610be99190617c53565b6135fa565b005b610bf861369a565b604051610c059190617547565b60405180910390f35b610c286004803603810190610c239190617878565b6136f8565b604051610c3591906178d3565b60405180910390f35b610c586004803603810190610c53919061870a565b613715565b005b610c746004803603810190610c6f9190617afc565b6137cc565b005b610c7e613901565b604051610c8b91906178d3565b60405180910390f35b610cae6004803603810190610ca991906176bd565b6139c2565b604051610cbb9190617547565b60405180910390f35b610cde6004803603810190610cd99190618757565b6139e1565b604051610ceb9190617547565b60405180910390f35b610d0e6004803603810190610d0991906187d6565b613a66565b005b610d2a6004803603810190610d259190618757565b613bcd565b604051610d379190617547565b60405180910390f35b610d48613c8c565b604051610d5591906178d3565b60405180910390f35b610d66613c9f565b604051610d739190617547565b60405180910390f35b610d966004803603810190610d919190617afc565b613ca5565b604051610da39190617547565b60405180910390f35b610dc66004803603810190610dc191906176bd565b613cee565b604051610dd39190617547565b60405180910390f35b610df66004803603810190610df19190617664565b613d08565b604051610e0391906178d3565b60405180910390f35b610e14613d28565b604051610e219190617547565b60405180910390f35b610e446004803603810190610e3f9190617afc565b613d2d565b604051610e519190617547565b60405180910390f35b610e62613d86565b604051610e6f9190617547565b60405180910390f35b610e926004803603810190610e8d9190617664565b613d8c565b005b610eae6004803603810190610ea9919061885b565b613e91565b005b610eb861418a565b604051610ec5919061891e565b60405180910390f35b610ee86004803603810190610ee39190617afc565b6141b0565b604051610ef59190617547565b60405180910390f35b610f186004803603810190610f139190618939565b614209565b604051610f259190617547565b60405180910390f35b610f486004803603810190610f4391906176bd565b61422e565b604051610f5591906180fd565b60405180910390f35b610f66614268565b604051610f769493929190618979565b60405180910390f35b610f996004803603810190610f9491906189be565b6142e2565b005b610fa361438f565b604051610fb09190617cf3565b60405180910390f35b610fd36004803603810190610fce91906176bd565b61439b565b604051610fe09190617547565b60405180910390f35b6110036004803603810190610ffe9190617afc565b6143ba565b005b61100d6144e8565b60405161101a9190617547565b60405180910390f35b61012c81565b60006110336146f5565b6001600b5414611078576040517f08c379a000000000000000000000000000000000000000000000000000000000815260040161106f90618a37565b60405180910390fd5b61108260006147df565b905090565b6202a30081565b6000805461109b90618a86565b80601f01602080910402602001604051908101604052809291908181526020018280546110c790618a86565b80156111145780601f106110e957610100808354040283529160200191611114565b820191906000526020600020905b8154815290600101906020018083116110f757829003601f168201915b505050505081565b600a60009054906101000a900473ffffffffffffffffffffffffffffffffffffffff1673ffffffffffffffffffffffffffffffffffffffff163373ffffffffffffffffffffffffffffffffffffffff16146111ac576040517f08c379a00000000000000000000000000000000000000000000000000000000081526004016111a390618b03565b60405180910390fd5b6111b581614d80565b50565b60006111cb826111c6611029565b614f44565b9050919050565b6060600d8054905067ffffffffffffffff8111156111f3576111f26178f8565b5b6040519080825280602002602001820160405280156112215781602001602082028036833780820191505090505b50905060005b600d805490508110156112d457611276600d828154811061124b5761124a618b23565b5b90600052602060002090600891828204019190066004029054906101000a900463ffffffff1661501e565b82828151811061128957611288618b23565b5b602002602001019073ffffffffffffffffffffffffffffffffffffffff16908173ffffffffffffffffffffffffffffffffffffffff1681525050806112cd90618b81565b9050611227565b5090565b600081600560003373ffffffffffffffffffffffffffffffffffffffff1673ffffffffffffffffffffffffffffffffffffffff16815260200190815260200160002060008573ffffffffffffffffffffffffffffffffffffffff1673ffffffffffffffffffffffffffffffffffffffff168152602001908152602001600020819055508273ffffffffffffffffffffffffffffffffffffffff163373ffffffffffffffffffffffffffffffffffffffff167f8c5be1e5ebec7d5bd14f71427d1e84f3dd0314c0f7b2291e5b200ac8c7c3b925846040516113b89190617547565b60405180910390a36001905092915050565b6000806113d5611029565b90506113e18382615109565b915050919050565b600a60009054906101000a900473ffffffffffffffffffffffffffffffffffffffff1673ffffffffffffffffffffffffffffffffffffffff163373ffffffffffffffffffffffffffffffffffffffff1614611479576040517f08c379a000000000000000000000000000000000000000000000000000000000815260040161147090618b03565b60405180910390fd5b6114816151e3565b6001601660006101000a81548160ff0219169083151502179055507fb8527b93c36dabdfe078af41be789ba946a4adcfeafcf9d8de21d51629859e3c60016040516114cc91906178d3565b60405180910390a1565b600063150b7a0260e01b9050949350505050565b60035481565b60136020528060005260406000206000915054906101000a900460ff1681565b600061151b8461522c565b6115268484846152d7565b90509392505050565b600260009054906101000a900460ff1681565b600a60009054906101000a900473ffffffffffffffffffffffffffffffffffffffff1673ffffffffffffffffffffffffffffffffffffffff163373ffffffffffffffffffffffffffffffffffffffff16146115d2576040517f08c379a00000000000000000000000000000000000000000000000000000000081526004016115c990618b03565b60405180910390fd5b60008161161e57600d8363ffffffff16815481106115f3576115f2618b23565b5b90600052602060002090600891828204019190066004029054906101000a900463ffffffff1661165f565b600e8363ffffffff168154811061163857611637618b23565b5b90600052602060002090600891828204019190066004029054906101000a900463ffffffff165b9050600061166c82615521565b905060008111156116b65781816040517fe3dca3680000000000000000000000000000000000000000000000000000000081526004016116ad929190618bc9565b60405180910390fd5b6116c184838561560c565b50505050565b600060065446146116df576116da615784565b6116e3565b6007545b905090565b600a60009054906101000a900473ffffffffffffffffffffffffffffffffffffffff1673ffffffffffffffffffffffffffffffffffffffff163373ffffffffffffffffffffffffffffffffffffffff1614611778576040517f08c379a000000000000000000000000000000000000000000000000000000000815260040161176f90618b03565b60405180910390fd5b60008082156118ae57600e8463ffffffff168154811061179b5761179a618b23565b5b90600052602060002090600891828204019190066004029054906101000a900463ffffffff169150600e8563ffffffff16815481106117dd576117dc618b23565b5b90600052602060002090600891828204019190066004029054906101000a900463ffffffff1690508181600e8763ffffffff168154811061182157611820618b23565b5b9060005260206000209060089182820401919006600402600e8863ffffffff168154811061185257611851618b23565b5b90600052602060002090600891828204019190066004028491906101000a81548163ffffffff021916908363ffffffff1602179055508391906101000a81548163ffffffff021916908363ffffffff16021790555050506119d7565b600d8463ffffffff16815481106118c8576118c7618b23565b5b90600052602060002090600891828204019190066004029054906101000a900463ffffffff169150600d8563ffffffff168154811061190a57611909618b23565b5b90600052602060002090600891828204019190066004029054906101000a900463ffffffff1690508181600d8763ffffffff168154811061194e5761194d618b23565b5b9060005260206000209060089182820401919006600402600d8863ffffffff168154811061197f5761197e618b23565b5b90600052602060002090600891828204019190066004028491906101000a81548163ffffffff021916908363ffffffff1602179055508391906101000a81548163ffffffff021916908363ffffffff16021790555050505b7fb7c5df04749a3a06a9a7bf1a8142ccf2a4ee6cbf4709489e876a6e4eb3301e8a82828787604051611a0c9493929190618c23565b60405180910390a15050505050565b600960009054906101000a900473ffffffffffffffffffffffffffffffffffffffff1681565b6702c68af0bb14000081565b600a60009054906101000a900473ffffffffffffffffffffffffffffffffffffffff1673ffffffffffffffffffffffffffffffffffffffff163373ffffffffffffffffffffffffffffffffffffffff1614611add576040517f08c379a0000000000000000000000000000000000000000000000000000000008152600401611ad490618b03565b60405180910390fd5b601660029054906101000a900473ffffffffffffffffffffffffffffffffffffffff1673ffffffffffffffffffffffffffffffffffffffff1663ceee280a826040518263ffffffff1660e01b8152600401611b389190618413565b60006040518083038186803b158015611b5057600080fd5b505afa158015611b64573d6000803e3d6000fd5b505050506001601360008373ffffffffffffffffffffffffffffffffffffffff1673ffffffffffffffffffffffffffffffffffffffff16815260200190815260200160002060006101000a81548160ff0219169083151502179055507f572570e8a43782d3698a3fed258c72f9c201c19be1e4764e359d1adc8f00af7a816001604051611bf2929190618c68565b60405180910390a150565b6060600e805480602002602001604051908101604052809291908181526020018280548015611c7757602002820191906000526020600020906000905b82829054906101000a900463ffffffff1663ffffffff1681526020019060040190602082600301049283019260010382029150808411611c3a5790505b5050505050905090565b6000601660009054906101000a900460ff1615611ca15760009050611cc5565b7fffffffffffffffffffffffffffffffffffffffffffffffffffffffffffffffff90505b919050565b601a60009054906101000a900460ff1681565b600080611ce8611029565b9050611cf48382614f44565b915050919050565b600a60009054906101000a900473ffffffffffffffffffffffffffffffffffffffff1673ffffffffffffffffffffffffffffffffffffffff163373ffffffffffffffffffffffffffffffffffffffff1614611d8c576040517f08c379a0000000000000000000000000000000000000000000000000000000008152600401611d8390618b03565b60405180910390fd5b6001600b5414611dd1576040517f08c379a0000000000000000000000000000000000000000000000000000000008152600401611dc890618a37565b60405180910390fd5b6002600b81905550611de16151e3565b611de96146f5565b6001601a60006101000a81548160ff021916908315150217905550600080600080611e1460006147df565b9050611e48601954670de0b6b3a7640000611e2f9190618c91565b670de0b6b3a7640000836158109092919063ffffffff16565b9350611e7c601954670de0b6b3a7640000611e639190618cc5565b670de0b6b3a7640000836158109092919063ffffffff16565b925060035491505060005b84518160ff16101561207c576000858260ff1681518110611eab57611eaa618b23565b5b6020026020010151600001519050601360008273ffffffffffffffffffffffffffffffffffffffff1673ffffffffffffffffffffffffffffffffffffffff16815260200190815260200160002060009054906101000a900460ff16611f4757806040517fbbed6c2e000000000000000000000000000000000000000000000000000000008152600401611f3e9190618413565b60405180910390fd5b60005b868360ff1681518110611f6057611f5f618b23565b5b602002602001015160200151518160ff16101561206957611fde878460ff1681518110611f9057611f8f618b23565b5b6020026020010151602001518260ff1681518110611fb157611fb0618b23565b5b60200260200101518373ffffffffffffffffffffffffffffffffffffffff1661584290919063ffffffff16565b507f7445c6598e1b553f076d507692eab3dceef0d608757141b53e9e56aa8bbaf48382888560ff168151811061201757612016618b23565b5b6020026020010151602001518360ff168151811061203857612037618b23565b5b602002602001015160405161204e929190618cf9565b60405180910390a1808061206190618d29565b915050611f4a565b50508061207590618d29565b9050611e87565b50600061208960006147df565b90508381108061209857508281115b156120de578084846040517fc51988ea0000000000000000000000000000000000000000000000000000000081526004016120d593929190618d52565b60405180910390fd5b600354821461212857600354826040517fad00516400000000000000000000000000000000000000000000000000000000815260040161211f929190618d89565b60405180910390fd5b6000601a60006101000a81548160ff021916908315150217905550505050506001600b8190555050565b600a60009054906101000a900473ffffffffffffffffffffffffffffffffffffffff1673ffffffffffffffffffffffffffffffffffffffff163373ffffffffffffffffffffffffffffffffffffffff16146121e2576040517f08c379a00000000000000000000000000000000000000000000000000000000081526004016121d990618b03565b60405180910390fd5b6121eb8161586f565b50565b600a60009054906101000a900473ffffffffffffffffffffffffffffffffffffffff1673ffffffffffffffffffffffffffffffffffffffff163373ffffffffffffffffffffffffffffffffffffffff161461227e576040517f08c379a000000000000000000000000000000000000000000000000000000000815260040161227590618b03565b60405180910390fd5b67016345785d8a000067ffffffffffffffff168111156122df578067016345785d8a00006040517f5a5521e00000000000000000000000000000000000000000000000000000000081526004016122d6929190618de3565b60405180910390fd5b60006019549050816019819055507fdf4be33b2e9e3dd4d9e0e85645aea428494a0644a72c51d6a15aedae6b66a3ff818360405161231e929190618d89565b60405180910390a15050565b600a60009054906101000a900473ffffffffffffffffffffffffffffffffffffffff1673ffffffffffffffffffffffffffffffffffffffff163373ffffffffffffffffffffffffffffffffffffffff16146123ba576040517f08c379a00000000000000000000000000000000000000000000000000000000081526004016123b190618b03565b60405180910390fd5b60008083156124255760006123cd611029565b90506123f7846127106123e09190618e0c565b61ffff166127108361596f9092919063ffffffff16565b92506124218461271061240a9190618e42565b61ffff166127108361596f9092919063ffffffff16565b9150505b601660029054906101000a900473ffffffffffffffffffffffffffffffffffffffff1673ffffffffffffffffffffffffffffffffffffffff1663b93f9b0a60026040518263ffffffff1660e01b81526004016124819190617547565b602060405180830381865afa15801561249e573d6000803e3d6000fd5b505050506040513d601f19601f820116820180604052508101906124c29190618e8d565b600c60006101000a81548173ffffffffffffffffffffffffffffffffffffffff021916908373ffffffffffffffffffffffffffffffffffffffff160217905550600061250c611029565b90508415612568578281108061252157508181115b15612567578083836040517fc51988ea00000000000000000000000000000000000000000000000000000000815260040161255e93929190618d52565b60405180910390fd5b5b5050505050565b600d818154811061257f57600080fd5b9060005260206000209060089182820401919006600402915054906101000a900463ffffffff1681565b600281565b600a60009054906101000a900473ffffffffffffffffffffffffffffffffffffffff1673ffffffffffffffffffffffffffffffffffffffff163373ffffffffffffffffffffffffffffffffffffffff161461263e576040517f08c379a000000000000000000000000000000000000000000000000000000000815260040161263590618b03565b60405180910390fd5b601660009054906101000a900460ff16612684576040517fec7165bf00000000000000000000000000000000000000000000000000000000815260040160405180910390fd5b6000601660006101000a81548160ff0219169083151502179055507fb8527b93c36dabdfe078af41be789ba946a4adcfeafcf9d8de21d51629859e3c60006040516126cf91906178d3565b60405180910390a1565b600a60009054906101000a900473ffffffffffffffffffffffffffffffffffffffff1673ffffffffffffffffffffffffffffffffffffffff163373ffffffffffffffffffffffffffffffffffffffff1614612769576040517f08c379a000000000000000000000000000000000000000000000000000000000815260040161276090618b03565b60405180910390fd5b6000601360008373ffffffffffffffffffffffffffffffffffffffff1673ffffffffffffffffffffffffffffffffffffffff16815260200190815260200160002060006101000a81548160ff0219169083151502179055507f572570e8a43782d3698a3fed258c72f9c201c19be1e4764e359d1adc8f00af7a8160006040516127f3929190618c68565b60405180910390a150565b60186020528060005260406000206000915090505481565b60006001600b541461285d576040517f08c379a000000000000000000000000000000000000000000000000000000000815260040161285490618a37565b60405180910390fd5b6002600b81905550600061287160006147df565b9050600061287f8583615997565b925082036128b9576040517f84de2a6e00000000000000000000000000000000000000000000000000000000815260040160405180910390fd5b6128c4848385615a71565b506001600b8190555092915050565b67016345785d8a000081565b60046020528060005260406000206000915090505481565b6060600d80548060200260200160405190810160405280929190818152602001828054801561297157602002820191906000526020600020906000905b82829054906101000a900463ffffffff1663ffffffff16815260200190600401906020826003010492830192600103820291508084116129345790505b5050505050905090565b60106020528060005260406000206000915090508060000160009054906101000a900473ffffffffffffffffffffffffffffffffffffffff16908060000160149054906101000a900460ff16908060010180546129d790618a86565b80601f0160208091040260200160405190810160405280929190818152602001828054612a0390618a86565b8015612a505780601f10612a2557610100808354040283529160200191612a50565b820191906000526020600020905b815481529060010190602001808311612a3357829003601f168201915b505050505090806002018054612a6590618a86565b80601f0160208091040260200160405190810160405280929190818152602001828054612a9190618a86565b8015612ade5780601f10612ab357610100808354040283529160200191612ade565b820191906000526020600020905b815481529060010190602001808311612ac157829003601f168201915b5050505050905084565b60608060606000600d8054905090506000600e8054905090508082612b0d9190618cc5565b67ffffffffffffffff811115612b2657612b256178f8565b5b604051908082528060200260200182016040528015612b545781602001602082028036833780820191505090505b5094508082612b639190618cc5565b67ffffffffffffffff811115612b7c57612b7b6178f8565b5b604051908082528060200260200182016040528015612baa5781602001602082028036833780820191505090505b5093508082612bb99190618cc5565b67ffffffffffffffff811115612bd257612bd16178f8565b5b604051908082528060200260200182016040528015612c005781602001602082028036833780820191505090505b50925060005b82811015612d3657612c50600d8281548110612c2557612c24618b23565b5b90600052602060002090600891828204019190066004029054906101000a900463ffffffff1661501e565b868281518110612c6357612c62618b23565b5b602002602001019073ffffffffffffffffffffffffffffffffffffffff16908173ffffffffffffffffffffffffffffffffffffffff1681525050612cdf600d8281548110612cb457612cb3618b23565b5b90600052602060002090600891828204019190066004029054906101000a900463ffffffff16615521565b858281518110612cf257612cf1618b23565b5b6020026020010181815250506000848281518110612d1357612d12618b23565b5b60200260200101901515908115158152505080612d2f90618b81565b9050612c06565b5060005b81811015612e9a57612d84600e8281548110612d5957612d58618b23565b5b90600052602060002090600891828204019190066004029054906101000a900463ffffffff1661501e565b86600d8054905083612d969190618cc5565b81518110612da757612da6618b23565b5b602002602001019073ffffffffffffffffffffffffffffffffffffffff16908173ffffffffffffffffffffffffffffffffffffffff1681525050612e23600e8281548110612df857612df7618b23565b5b90600052602060002090600891828204019190066004029054906101000a900463ffffffff16615521565b85600d8054905083612e359190618cc5565b81518110612e4657612e45618b23565b5b602002602001018181525050600184600d8054905083612e669190618cc5565b81518110612e7757612e76618b23565b5b60200260200101901515908115158152505080612e9390618b81565b9050612d3a565b505050909192565b601660029054906101000a900473ffffffffffffffffffffffffffffffffffffffff1681565b60086020528060005260406000206000915090505481565b600a60009054906101000a900473ffffffffffffffffffffffffffffffffffffffff1681565b60003073ffffffffffffffffffffffffffffffffffffffff168473ffffffffffffffffffffffffffffffffffffffff1614612f6d576040517f9448dba000000000000000000000000000000000000000000000000000000000815260040160405180910390fd5b601a60019054906101000a900473ffffffffffffffffffffffffffffffffffffffff1673ffffffffffffffffffffffffffffffffffffffff163373ffffffffffffffffffffffffffffffffffffffff1614612ff4576040517f49456ad900000000000000000000000000000000000000000000000000000000815260040160405180910390fd5b60008383810190613005919061802b565b905060005b81518160ff161015613188576000828260ff168151811061302e5761302d618b23565b5b6020026020010151600001519050601360008273ffffffffffffffffffffffffffffffffffffffff1673ffffffffffffffffffffffffffffffffffffffff16815260200190815260200160002060009054906101000a900460ff166130ca57806040517fbbed6c2e0000000000000000000000000000000000000000000000000000000081526004016130c19190618413565b60405180910390fd5b60005b838360ff16815181106130e3576130e2618b23565b5b602002602001015160200151518160ff16101561317557613161848460ff168151811061311357613112618b23565b5b6020026020010151602001518260ff168151811061313457613133618b23565b5b60200260200101518373ffffffffffffffffffffffffffffffffffffffff1661584290919063ffffffff16565b50808061316d90618d29565b9150506130cd565b50508061318190618d29565b905061300a565b5060005b8989905081101561325957613248601a60019054906101000a900473ffffffffffffffffffffffffffffffffffffffff168989848181106131d0576131cf618b23565b5b905060200201358c8c858181106131ea576131e9618b23565b5b905060200201356131fb9190618cc5565b8e8e8581811061320e5761320d618b23565b5b90506020020160208101906132239190617afc565b73ffffffffffffffffffffffffffffffffffffffff16615b4c9092919063ffffffff16565b8061325290618b81565b905061318c565b5060019150509998505050505050505050565b600f6020528060005260406000206000915054906101000a900460ff1681565b60006001600b54146132d3576040517f08c379a00000000000000000000000000000000000000000000000000000000081526004016132ca90618a37565b60405180910390fd5b6002600b8190555060006132e760006147df565b905060006132f58583615be4565b9250820361332f576040517f9768300500000000000000000000000000000000000000000000000000000000815260040160405180910390fd5b61333a828585615a71565b506001600b8190555092915050565b6001805461335690618a86565b80601f016020809104026020016040519081016040528092919081815260200182805461338290618a86565b80156133cf5780601f106133a4576101008083540402835291602001916133cf565b820191906000526020600020905b8154815290600101906020018083116133b257829003601f168201915b505050505081565b600a60009054906101000a900473ffffffffffffffffffffffffffffffffffffffff1673ffffffffffffffffffffffffffffffffffffffff163373ffffffffffffffffffffffffffffffffffffffff1614613467576040517f08c379a000000000000000000000000000000000000000000000000000000000815260040161345e90618b03565b60405180910390fd5b61346f6151e3565b61347b84848484615cbe565b50505050565b601660019054906101000a900460ff1681565b600a60009054906101000a900473ffffffffffffffffffffffffffffffffffffffff1673ffffffffffffffffffffffffffffffffffffffff163373ffffffffffffffffffffffffffffffffffffffff1614613524576040517f08c379a000000000000000000000000000000000000000000000000000000000815260040161351b90618b03565b60405180910390fd5b61012c81108061353657506202a30081115b1561356d576040517fe9808cfc00000000000000000000000000000000000000000000000000000000815260040160405180910390fd5b60006017549050816017819055507f227ff5c6b5ffb395236b09fd1b472bb128b36eaa17556633feefe28e94411f2481836040516135ac929190618d89565b60405180910390a15050565b601160009054906101000a900463ffffffff1681565b60175481565b601a60019054906101000a900473ffffffffffffffffffffffffffffffffffffffff1681565b600a60009054906101000a900473ffffffffffffffffffffffffffffffffffffffff1673ffffffffffffffffffffffffffffffffffffffff163373ffffffffffffffffffffffffffffffffffffffff161461368a576040517f08c379a000000000000000000000000000000000000000000000000000000000815260040161368190618b03565b60405180910390fd5b61369583838361560c565b505050565b60006136a46146f5565b6001600b54146136e9576040517f08c379a00000000000000000000000000000000000000000000000000000000081526004016136e090618a37565b60405180910390fd5b6136f360016147df565b905090565b60006137033361522c565b61370d83836160b9565b905092915050565b60005b828290508110156137c7576137b383838381811061373957613738618b23565b5b905060200281019061374b9190618ec9565b8080601f016020809104026020016040519081016040528093929190818152602001838380828437600081840152601f19601f820116905080830192505050505050503073ffffffffffffffffffffffffffffffffffffffff1661584290919063ffffffff16565b5080806137bf90618b81565b915050613718565b505050565b600a60009054906101000a900473ffffffffffffffffffffffffffffffffffffffff1673ffffffffffffffffffffffffffffffffffffffff163373ffffffffffffffffffffffffffffffffffffffff161461385c576040517f08c379a000000000000000000000000000000000000000000000000000000000815260040161385390618b03565b60405180910390fd5b7f51dbb5a65bb22737861a63ec12ba6ce78a98631e9404b0567a2eaf7a06fc544d601460010160009054906101000a900473ffffffffffffffffffffffffffffffffffffffff16826040516138b2929190618f2c565b60405180910390a180601460010160006101000a81548173ffffffffffffffffffffffffffffffffffffffff021916908373ffffffffffffffffffffffffffffffffffffffff16021790555050565b6000601660019054906101000a900460ff166139ba57601660029054906101000a900473ffffffffffffffffffffffffffffffffffffffff1673ffffffffffffffffffffffffffffffffffffffff1663ad85dff0306040518263ffffffff1660e01b81526004016139729190618413565b602060405180830381865afa15801561398f573d6000803e3d6000fd5b505050506040513d601f19601f820116820180604052508101906139b39190618f6a565b90506139bf565b600090505b90565b6000806139cd611029565b90506139d98382615be4565b915050919050565b60006001600b5414613a28576040517f08c379a0000000000000000000000000000000000000000000000000000000008152600401613a1f90618a37565b60405180910390fd5b6002600b819055506000613a3c60006147df565b9050613a488582615109565b9150613a56858386866161cd565b506001600b819055509392505050565b600a60009054906101000a900473ffffffffffffffffffffffffffffffffffffffff1673ffffffffffffffffffffffffffffffffffffffff163373ffffffffffffffffffffffffffffffffffffffff1614613af6576040517f08c379a0000000000000000000000000000000000000000000000000000000008152600401613aed90618b03565b60405180910390fd5b670de0b6b3a764000067ffffffffffffffff168167ffffffffffffffff161115613b4c576040517f3d0203e500000000000000000000000000000000000000000000000000000000815260040160405180910390fd5b7fb5cc994a260a85a42d6588668221571ae0a14f0a28f9e4817a5195262102c868601460000160009054906101000a900467ffffffffffffffff1682604051613b96929190618f97565b60405180910390a180601460000160006101000a81548167ffffffffffffffff021916908367ffffffffffffffff16021790555050565b60006001600b5414613c14576040517f08c379a0000000000000000000000000000000000000000000000000000000008152600401613c0b90618a37565b60405180910390fd5b6002600b819055506000613c2860006147df565b90506000613c368683614f44565b92508203613c70576040517f9768300500000000000000000000000000000000000000000000000000000000815260040160405180910390fd5b613c7c828686866161cd565b506001600b819055509392505050565b601660009054906101000a900460ff1681565b60195481565b6000601660009054906101000a900460ff1615613cc55760009050613ce9565b7fffffffffffffffffffffffffffffffffffffffffffffffffffffffffffffffff90505b919050565b6000613d0182613cfc611029565b615997565b9050919050565b60126020528060005260406000206000915054906101000a900460ff1681565b600081565b60006001600b5414613d74576040517f08c379a0000000000000000000000000000000000000000000000000000000008152600401613d6b90618a37565b60405180910390fd5b613d7f8260006163db565b9050919050565b600b5481565b600a60009054906101000a900473ffffffffffffffffffffffffffffffffffffffff1673ffffffffffffffffffffffffffffffffffffffff163373ffffffffffffffffffffffffffffffffffffffff1614613e1c576040517f08c379a0000000000000000000000000000000000000000000000000000000008152600401613e1390618b03565b60405180910390fd5b6000601260008363ffffffff1663ffffffff16815260200190815260200160002060006101000a81548160ff0219169083151502179055507fea052d1fb1ecba6aaf6bd32e92f20e7b6a094eaa478248322cc8ff024a90978f816000604051613e86929190618fc0565b60405180910390a150565b42841015613ed4576040517f08c379a0000000000000000000000000000000000000000000000000000000008152600401613ecb90619035565b60405180910390fd5b60006001613ee06116c7565b7f6e71edae12b1b97f4d1f60370fef10105fa2faae0126114a169c64845d6126c98a8a8a600860008f73ffffffffffffffffffffffffffffffffffffffff1673ffffffffffffffffffffffffffffffffffffffff1681526020019081526020016000206000815480929190600101919050558b604051602001613f6896959493929190619055565b60405160208183030381529060405280519060200120604051602001613f8f92919061912e565b6040516020818303038152906040528051906020012085858560405160008152602001604052604051613fc59493929190619165565b6020604051602081039080840390855afa158015613fe7573d6000803e3d6000fd5b505050602060405103519050600073ffffffffffffffffffffffffffffffffffffffff168173ffffffffffffffffffffffffffffffffffffffff161415801561405b57508773ffffffffffffffffffffffffffffffffffffffff168173ffffffffffffffffffffffffffffffffffffffff16145b61409a576040517f08c379a0000000000000000000000000000000000000000000000000000000008152600401614091906191f6565b60405180910390fd5b85600560008373ffffffffffffffffffffffffffffffffffffffff1673ffffffffffffffffffffffffffffffffffffffff16815260200190815260200160002060008973ffffffffffffffffffffffffffffffffffffffff1673ffffffffffffffffffffffffffffffffffffffff16815260200190815260200160002081905550508573ffffffffffffffffffffffffffffffffffffffff168773ffffffffffffffffffffffffffffffffffffffff167f8c5be1e5ebec7d5bd14f71427d1e84f3dd0314c0f7b2291e5b200ac8c7c3b925876040516141799190617547565b60405180910390a350505050505050565b600c60009054906101000a900473ffffffffffffffffffffffffffffffffffffffff1681565b60006001600b54146141f7576040517f08c379a00000000000000000000000000000000000000000000000000000000081526004016141ee90618a37565b60405180910390fd5b6142028260016163db565b9050919050565b6005602052816000526040600020602052806000526040600020600091509150505481565b600e818154811061423e57600080fd5b9060005260206000209060089182820401919006600402915054906101000a900463ffffffff1681565b60148060000160009054906101000a900467ffffffffffffffff16908060000160089054906101000a900467ffffffffffffffff16908060000160109054906101000a900467ffffffffffffffff16908060010160009054906101000a900473ffffffffffffffffffffffffffffffffffffffff16905084565b600a60009054906101000a900473ffffffffffffffffffffffffffffffffffffffff1673ffffffffffffffffffffffffffffffffffffffff163373ffffffffffffffffffffffffffffffffffffffff1614614372576040517f08c379a000000000000000000000000000000000000000000000000000000000815260040161436990618b03565b60405180910390fd5b80601660016101000a81548160ff02191690831515021790555050565b670de0b6b3a764000081565b6000806143a6611029565b90506143b28382615997565b915050919050565b600a60009054906101000a900473ffffffffffffffffffffffffffffffffffffffff1673ffffffffffffffffffffffffffffffffffffffff163373ffffffffffffffffffffffffffffffffffffffff161461444a576040517f08c379a000000000000000000000000000000000000000000000000000000000815260040161444190618b03565b60405180910390fd5b80600a60006101000a81548173ffffffffffffffffffffffffffffffffffffffff021916908373ffffffffffffffffffffffffffffffffffffffff1602179055508073ffffffffffffffffffffffffffffffffffffffff163373ffffffffffffffffffffffffffffffffffffffff167f8be0079c531659141344cd1fd0a4f28419497f9722a3daafe3b4186f6b6457e060405160405180910390a350565b601081565b60008380549050905060008111156146a157838460018361450e9190618c91565b8154811061451f5761451e618b23565b5b90600052602060002090600891828204019190066004029054906101000a900463ffffffff1690806001815401808255809150506001900390600052602060002090600891828204019190066004029091909190916101000a81548163ffffffff021916908363ffffffff160217905550600060018261459f9190618c91565b90505b8363ffffffff1681111561464e57846001826145be9190618c91565b815481106145cf576145ce618b23565b5b90600052602060002090600891828204019190066004029054906101000a900463ffffffff1685828154811061460857614607618b23565b5b90600052602060002090600891828204019190066004026101000a81548163ffffffff021916908363ffffffff160217905550808061464690619216565b9150506145a2565b5081848463ffffffff168154811061466957614668618b23565b5b90600052602060002090600891828204019190066004026101000a81548163ffffffff021916908363ffffffff1602179055506146ef565b838290806001815401808255809150506001900390600052602060002090600891828204019190066004029091909190916101000a81548163ffffffff021916908363ffffffff1602179055505b50505050565b601660019054906101000a900460ff166147dd57601660029054906101000a900473ffffffffffffffffffffffffffffffffffffffff1673ffffffffffffffffffffffffffffffffffffffff1663ad85dff0306040518263ffffffff1660e01b81526004016147649190618413565b602060405180830381865afa158015614781573d6000803e3d6000fd5b505050506040513d601f19601f820116820180604052508101906147a59190618f6a565b156147dc576040517ff301f8f000000000000000000000000000000000000000000000000000000000815260040160405180910390fd5b5b565b600080600d80549050905060008167ffffffffffffffff811115614806576148056178f8565b5b6040519080825280602002602001820160405280156148345781602001602082028036833780820191505090505b50905060008267ffffffffffffffff811115614853576148526178f8565b5b6040519080825280602002602001820160405280156148815781602001602082028036833780820191505090505b5090508415614a3a5760005b83811015614970576000600d82815481106148ab576148aa618b23565b5b90600052602060002090600891828204019190066004029054906101000a900463ffffffff16905060006148de826164f1565b8484815181106148f1576148f0618b23565b5b602002602001018181525003614907575061495f565b6149108161501e565b84838151811061492357614922618b23565b5b602002602001019073ffffffffffffffffffffffffffffffffffffffff16908173ffffffffffffffffffffffffffffffffffffffff1681525050505b8061496990618b81565b905061488d565b50600c60009054906101000a900473ffffffffffffffffffffffffffffffffffffffff1673ffffffffffffffffffffffffffffffffffffffff1663b333a1758383600960009054906101000a900473ffffffffffffffffffffffffffffffffffffffff166040518463ffffffff1660e01b81526004016149f29392919061923f565b602060405180830381865afa158015614a0f573d6000803e3d6000fd5b505050506040513d601f19601f82011682018060405250810190614a339190619299565b9350614d78565b6000600e80549050905060008167ffffffffffffffff811115614a6057614a5f6178f8565b5b604051908082528060200260200182016040528015614a8e5781602001602082028036833780820191505090505b50905060008267ffffffffffffffff811115614aad57614aac6178f8565b5b604051908082528060200260200182016040528015614adb5781602001602082028036833780820191505090505b50905060005b86811015614bc4576000600d8281548110614aff57614afe618b23565b5b90600052602060002090600891828204019190066004029054906101000a900463ffffffff1690506000614b3282615521565b878481518110614b4557614b44618b23565b5b602002602001018181525003614b5b5750614bb3565b614b648161501e565b878381518110614b7757614b76618b23565b5b602002602001019073ffffffffffffffffffffffffffffffffffffffff16908173ffffffffffffffffffffffffffffffffffffffff1681525050505b80614bbd90618b81565b9050614ae1565b5060005b83811015614cab576000600e8281548110614be657614be5618b23565b5b90600052602060002090600891828204019190066004029054906101000a900463ffffffff1690506000614c1982615521565b848481518110614c2c57614c2b618b23565b5b602002602001018181525003614c425750614c9a565b614c4b8161501e565b848381518110614c5e57614c5d618b23565b5b602002602001019073ffffffffffffffffffffffffffffffffffffffff16908173ffffffffffffffffffffffffffffffffffffffff1681525050505b80614ca490618b81565b9050614bc8565b50600c60009054906101000a900473ffffffffffffffffffffffffffffffffffffffff1673ffffffffffffffffffffffffffffffffffffffff1663eac6e71686868585600960009054906101000a900473ffffffffffffffffffffffffffffffffffffffff166040518663ffffffff1660e01b8152600401614d319594939291906192c6565b602060405180830381865afa158015614d4e573d6000803e3d6000fd5b505050506040513d601f19601f82011682018060405250810190614d729190619299565b96505050505b505050919050565b600f60008263ffffffff16815260200190815260200160002060009054906101000a900460ff16614de857806040517f70abe859000000000000000000000000000000000000000000000000000000008152600401614ddf91906180fd565b60405180910390fd5b600960009054906101000a900473ffffffffffffffffffffffffffffffffffffffff1673ffffffffffffffffffffffffffffffffffffffff16614e2a8261501e565b73ffffffffffffffffffffffffffffffffffffffff1614614eae57600960009054906101000a900473ffffffffffffffffffffffffffffffffffffffff16614e718261501e565b6040517f5308e78e000000000000000000000000000000000000000000000000000000008152600401614ea5929190618f2c565b60405180910390fd5b601060008263ffffffff1663ffffffff16815260200190815260200160002060000160149054906101000a900460ff1615614f2057806040517fa42c0f90000000000000000000000000000000000000000000000000000000008152600401614f1791906180fd565b60405180910390fd5b80601160006101000a81548163ffffffff021916908363ffffffff16021790555050565b600080600354905060008114614f6e57614f6983828661596f9092919063ffffffff16565b615015565b6150146012600960009054906101000a900473ffffffffffffffffffffffffffffffffffffffff1673ffffffffffffffffffffffffffffffffffffffff1663313ce5676040518163ffffffff1660e01b8152600401602060405180830381865afa158015614fe0573d6000803e3d6000fd5b505050506040513d601f19601f82011682018060405250810190615004919061934a565b866166399092919063ffffffff16565b5b91505092915050565b600080601060008463ffffffff1663ffffffff16815260200190815260200160002060000160009054906101000a900473ffffffffffffffffffffffffffffffffffffffff1690508073ffffffffffffffffffffffffffffffffffffffff1663e170a9bf601060008663ffffffff1663ffffffff1681526020019081526020016000206001016040518263ffffffff1660e01b81526004016150c09190619410565b602060405180830381865afa1580156150dd573d6000803e3d6000fd5b505050506040513d601f19601f820116820180604052508101906151019190619470565b915050919050565b6000806003549050600081146151335761512e8184866158109092919063ffffffff16565b6151da565b6151d9600960009054906101000a900473ffffffffffffffffffffffffffffffffffffffff1673ffffffffffffffffffffffffffffffffffffffff1663313ce5676040518163ffffffff1660e01b8152600401602060405180830381865afa1580156151a3573d6000803e3d6000fd5b505050506040513d601f19601f820116820180604052508101906151c7919061934a565b6012866166399092919063ffffffff16565b5b91505092915050565b601660009054906101000a900460ff161561522a576040517f6f4a665a00000000000000000000000000000000000000000000000000000000815260040160405180910390fd5b565b6000601860008373ffffffffffffffffffffffffffffffffffffffff1673ffffffffffffffffffffffffffffffffffffffff168152602001908152602001600020549050600081146152d3576000601754826152889190618cc5565b9050428111156152d15780426040517f1be3b8fc0000000000000000000000000000000000000000000000000000000081526004016152c8929190618d89565b60405180910390fd5b505b5050565b600080600560008673ffffffffffffffffffffffffffffffffffffffff1673ffffffffffffffffffffffffffffffffffffffff16815260200190815260200160002060003373ffffffffffffffffffffffffffffffffffffffff1673ffffffffffffffffffffffffffffffffffffffff1681526020019081526020016000205490507fffffffffffffffffffffffffffffffffffffffffffffffffffffffffffffffff811461540d57828161538c9190618c91565b600560008773ffffffffffffffffffffffffffffffffffffffff1673ffffffffffffffffffffffffffffffffffffffff16815260200190815260200160002060003373ffffffffffffffffffffffffffffffffffffffff1673ffffffffffffffffffffffffffffffffffffffff168152602001908152602001600020819055505b82600460008773ffffffffffffffffffffffffffffffffffffffff1673ffffffffffffffffffffffffffffffffffffffff168152602001908152602001600020600082825461545c9190618c91565b9250508190555082600460008673ffffffffffffffffffffffffffffffffffffffff1673ffffffffffffffffffffffffffffffffffffffff168152602001908152602001600020600082825401925050819055508373ffffffffffffffffffffffffffffffffffffffff168573ffffffffffffffffffffffffffffffffffffffff167fddf252ad1be2c89b69c2b068fc378daa952ba7f163c4a11628f55a4df523b3ef8560405161550d9190617547565b60405180910390a360019150509392505050565b600080601060008463ffffffff1663ffffffff16815260200190815260200160002060000160009054906101000a900473ffffffffffffffffffffffffffffffffffffffff1690508073ffffffffffffffffffffffffffffffffffffffff166378415365601060008663ffffffff1663ffffffff1681526020019081526020016000206001016040518263ffffffff1660e01b81526004016155c39190619410565b602060405180830381865afa1580156155e0573d6000803e3d6000fd5b505050506040513d601f19601f820116820180604052508101906156049190619299565b915050919050565b601160009054906101000a900463ffffffff1663ffffffff168263ffffffff1603615663576040517f677b5cc400000000000000000000000000000000000000000000000000000000815260040160405180910390fd5b80156156825761567d83600e6166b590919063ffffffff16565b615697565b61569683600d6166b590919063ffffffff16565b5b6000600f60008463ffffffff16815260200190815260200160002060006101000a81548160ff021916908315150217905550601060008363ffffffff1663ffffffff168152602001908152602001600020600080820160006101000a81549073ffffffffffffffffffffffffffffffffffffffff02191690556000820160146101000a81549060ff021916905560018201600061573491906174a9565b60028201600061574491906174a9565b50507fa5cd0099b78b279c04987aa80ffffaf8fc8c8af4e7c7bce2686e8d01e2e1bd51828460405161577792919061949d565b60405180910390a1505050565b60007f8b73c3c69bb8fe3d512ecc4cf759cc79239f7b179b0ffacaa9a75d522b39400f60006040516157b69190619569565b60405180910390207fc89efdaa54c0f20c7adf612882df0950f5a951637e0307cdcb4c672f298b8bc646306040516020016157f5959493929190619580565b60405160208183030381529060405280519060200120905090565b6000828402905082848204148415178215151661582c57600080fd5b6001826001830304018115150290509392505050565b60606158678383604051806060016040528060278152602001619e756027913961680b565b905092915050565b601660029054906101000a900473ffffffffffffffffffffffffffffffffffffffff1673ffffffffffffffffffffffffffffffffffffffff1663a2b3b0fe826040518263ffffffff1660e01b81526004016158ca91906180fd565b60006040518083038186803b1580156158e257600080fd5b505afa1580156158f6573d6000803e3d6000fd5b505050506001601260008363ffffffff1663ffffffff16815260200190815260200160002060006101000a81548160ff0219169083151502179055507fea052d1fb1ecba6aaf6bd32e92f20e7b6a094eaa478248322cc8ff024a90978f816001604051615964929190618fc0565b60405180910390a150565b6000828402905082848204148415178215151661598b57600080fd5b81810490509392505050565b6000806003549050600081146159c1576159bc81848661596f9092919063ffffffff16565b615a68565b615a67600960009054906101000a900473ffffffffffffffffffffffffffffffffffffffff1673ffffffffffffffffffffffffffffffffffffffff1663313ce5676040518163ffffffff1660e01b8152600401602060405180830381865afa158015615a31573d6000803e3d6000fd5b505050506040513d601f19601f82011682018060405250810190615a55919061934a565b6012866166399092919063ffffffff16565b5b91505092915050565b615a7c838383616891565b615acb333085600960009054906101000a900473ffffffffffffffffffffffffffffffffffffffff1673ffffffffffffffffffffffffffffffffffffffff16616a0c909392919063ffffffff16565b615ad58183616aab565b8073ffffffffffffffffffffffffffffffffffffffff163373ffffffffffffffffffffffffffffffffffffffff167fdcbc1c05240f31ff3ad067ef1ee35ce4997762752e3a095284754544f4c709d78585604051615b34929190618d89565b60405180910390a3615b47838383616b7b565b505050565b60006040517f095ea7b3000000000000000000000000000000000000000000000000000000008152836004820152826024820152602060006044836000895af13d15601f3d1160016000511416171691505080615bde576040517f08c379a0000000000000000000000000000000000000000000000000000000008152600401615bd59061961f565b60405180910390fd5b50505050565b600080600354905060008114615c0e57615c098382866158109092919063ffffffff16565b615cb5565b615cb46012600960009054906101000a900473ffffffffffffffffffffffffffffffffffffffff1673ffffffffffffffffffffffffffffffffffffffff1663313ce5676040518163ffffffff1660e01b8152600401602060405180830381865afa158015615c80573d6000803e3d6000fd5b505050506040513d601f19601f82011682018060405250810190615ca4919061934a565b866166399092919063ffffffff16565b5b91505092915050565b600f60008463ffffffff16815260200190815260200160002060009054906101000a900460ff1615615d2757826040517f66b129f6000000000000000000000000000000000000000000000000000000008152600401615d1e91906180fd565b60405180910390fd5b601260008463ffffffff1663ffffffff16815260200190815260200160002060009054906101000a900460ff16615d9557826040517ffced80e8000000000000000000000000000000000000000000000000000000008152600401615d8c91906180fd565b60405180910390fd5b6000806000601660029054906101000a900473ffffffffffffffffffffffffffffffffffffffff1673ffffffffffffffffffffffffffffffffffffffff166385ae5d57876040518263ffffffff1660e01b8152600401615df591906180fd565b600060405180830381865afa158015615e12573d6000803e3d6000fd5b505050506040513d6000823e3d601f19601f82011682018060405250810190615e3b91906196af565b92509250925083151582151514615e8957856040517f563a17a6000000000000000000000000000000000000000000000000000000008152600401615e8091906180fd565b60405180910390fd5b60405180608001604052808473ffffffffffffffffffffffffffffffffffffffff168152602001831515815260200182815260200186815250601060008863ffffffff1663ffffffff16815260200190815260200160002060008201518160000160006101000a81548173ffffffffffffffffffffffffffffffffffffffff021916908373ffffffffffffffffffffffffffffffffffffffff16021790555060208201518160000160146101000a81548160ff0219169083151502179055506040820151816001019081615f5d91906198ab565b506060820151816002019081615f7391906198ab565b509050508115615fe3576010600e8054905010615fc85760106040517ff025236d000000000000000000000000000000000000000000000000000000008152600401615fbf9190617547565b60405180910390fd5b615fde8787600e6144ed9092919063ffffffff16565b616045565b6010600d805490501061602e5760106040517ff025236d0000000000000000000000000000000000000000000000000000000081526004016160259190617547565b60405180910390fd5b6160448787600d6144ed9092919063ffffffff16565b5b6001600f60008863ffffffff16815260200190815260200160002060006101000a81548160ff0219169083151502179055507fc4f8cb57c016f0b294fff2666f86fa6cfee9b03aed19f816ae4bf44b7e837bbb86886040516160a892919061949d565b60405180910390a150505050505050565b600081600460003373ffffffffffffffffffffffffffffffffffffffff1673ffffffffffffffffffffffffffffffffffffffff168152602001908152602001600020600082825461610a9190618c91565b9250508190555081600460008573ffffffffffffffffffffffffffffffffffffffff1673ffffffffffffffffffffffffffffffffffffffff168152602001908152602001600020600082825401925050819055508273ffffffffffffffffffffffffffffffffffffffff163373ffffffffffffffffffffffffffffffffffffffff167fddf252ad1be2c89b69c2b068fc378daa952ba7f163c4a11628f55a4df523b3ef846040516161bb9190617547565b60405180910390a36001905092915050565b6161d984848484616be0565b8073ffffffffffffffffffffffffffffffffffffffff163373ffffffffffffffffffffffffffffffffffffffff1614616343576000600560008373ffffffffffffffffffffffffffffffffffffffff1673ffffffffffffffffffffffffffffffffffffffff16815260200190815260200160002060003373ffffffffffffffffffffffffffffffffffffffff1673ffffffffffffffffffffffffffffffffffffffff1681526020019081526020016000205490507fffffffffffffffffffffffffffffffffffffffffffffffffffffffffffffffff81146163415783816162c09190618c91565b600560008473ffffffffffffffffffffffffffffffffffffffff1673ffffffffffffffffffffffffffffffffffffffff16815260200190815260200160002060003373ffffffffffffffffffffffffffffffffffffffff1673ffffffffffffffffffffffffffffffffffffffff168152602001908152602001600020819055505b505b61634d8184616bf7565b8073ffffffffffffffffffffffffffffffffffffffff168273ffffffffffffffffffffffffffffffffffffffff163373ffffffffffffffffffffffffffffffffffffffff167ffbde797d201c681b91056529119e0b02407c7bb96a4a2c75c01fc9667232c8db87876040516163c3929190618d89565b60405180910390a46163d58483616cc7565b50505050565b60006163e56146f5565b6000601860008573ffffffffffffffffffffffffffffffffffffffff1673ffffffffffffffffffffffffffffffffffffffff16815260200190815260200160002054905060008114616458576000601754826164419190618cc5565b905042811115616456576000925050506164eb565b505b600061646460006147df565b905060006164b1600460008873ffffffffffffffffffffffffffffffffffffffff1673ffffffffffffffffffffffffffffffffffffffff1681526020019081526020016000205483614f44565b905060006164bf60016147df565b9050808211156164cf57806164d1565b815b945085156164e6576164e38584615997565b94505b505050505b92915050565b6000601060008363ffffffff1663ffffffff16815260200190815260200160002060000160149054906101000a900460ff16156165315760009050616634565b601060008363ffffffff1663ffffffff16815260200190815260200160002060000160009054906101000a900473ffffffffffffffffffffffffffffffffffffffff1673ffffffffffffffffffffffffffffffffffffffff1663fa50e5d2601060008563ffffffff1663ffffffff168152602001908152602001600020600101601060008663ffffffff1663ffffffff1681526020019081526020016000206002016040518363ffffffff1660e01b81526004016165f092919061997d565b602060405180830381865afa15801561660d573d6000803e3d6000fd5b505050506040513d601f19601f820116820180604052508101906166319190619299565b90505b919050565b60008160ff168360ff1603616650578390506166ae565b8160ff168360ff16101561668857828261666a91906199b4565b600a6166769190619b1c565b846166819190619b67565b90506166ae565b818361669491906199b4565b600a6166a09190619b1c565b846166ab9190619bf0565b90505b9392505050565b600082805490509050808263ffffffff1610616706576040517f08c379a00000000000000000000000000000000000000000000000000000000081526004016166fd90619c6d565b60405180910390fd5b60008263ffffffff1690505b60018261671f9190618c91565b8110156167c457836001826167349190618cc5565b8154811061674557616744618b23565b5b90600052602060002090600891828204019190066004029054906101000a900463ffffffff1684828154811061677e5761677d618b23565b5b90600052602060002090600891828204019190066004026101000a81548163ffffffff021916908363ffffffff16021790555080806167bc90618b81565b915050616712565b50828054806167d6576167d5619c8d565b5b60019003818190600052602060002090600891828204019190066004026101000a81549063ffffffff02191690559055505050565b60606000808573ffffffffffffffffffffffffffffffffffffffff16856040516168359190619ced565b600060405180830381855af49150503d8060008114616870576040519150601f19603f3d011682016040523d82523d6000602084013e616875565b606091505b50915091506168868683838761715c565b925050509392505050565b6168996151e3565b6168a16146f5565b8073ffffffffffffffffffffffffffffffffffffffff163373ffffffffffffffffffffffffffffffffffffffff16146169b257601660029054906101000a900473ffffffffffffffffffffffffffffffffffffffff1673ffffffffffffffffffffffffffffffffffffffff16635551e1b5336040518263ffffffff1660e01b815260040161692f9190618413565b602060405180830381865afa15801561694c573d6000803e3d6000fd5b505050506040513d601f19601f820116820180604052508101906169709190618f6a565b6169b157336040517fd21c7c940000000000000000000000000000000000000000000000000000000081526004016169a89190618413565b60405180910390fd5b5b60006169bd82611c81565b905080841115616a065783816040517fb487ae1c0000000000000000000000000000000000000000000000000000000081526004016169fd929190618d89565b60405180910390fd5b50505050565b60006040517f23b872dd0000000000000000000000000000000000000000000000000000000081528460048201528360248201528260448201526020600060648360008a5af13d15601f3d1160016000511416171691505080616aa4576040517f08c379a0000000000000000000000000000000000000000000000000000000008152600401616a9b90619d50565b60405180910390fd5b5050505050565b8060036000828254616abd9190618cc5565b9250508190555080600460008473ffffffffffffffffffffffffffffffffffffffff1673ffffffffffffffffffffffffffffffffffffffff168152602001908152602001600020600082825401925050819055508173ffffffffffffffffffffffffffffffffffffffff16600073ffffffffffffffffffffffffffffffffffffffff167fddf252ad1be2c89b69c2b068fc378daa952ba7f163c4a11628f55a4df523b3ef83604051616b6f9190617547565b60405180910390a35050565b616b97601160009054906101000a900463ffffffff16846171d1565b42601860008373ffffffffffffffffffffffffffffffffffffffff1673ffffffffffffffffffffffffffffffffffffffff16815260200190815260200160002081905550505050565b616be86146f5565b616bf18161522c565b50505050565b80600460008473ffffffffffffffffffffffffffffffffffffffff1673ffffffffffffffffffffffffffffffffffffffff1681526020019081526020016000206000828254616c469190618c91565b9250508190555080600360008282540392505081905550600073ffffffffffffffffffffffffffffffffffffffff168273ffffffffffffffffffffffffffffffffffffffff167fddf252ad1be2c89b69c2b068fc378daa952ba7f163c4a11628f55a4df523b3ef83604051616cbb9190617547565b60405180910390a35050565b616ccf6174e9565b600c60009054906101000a900473ffffffffffffffffffffffffffffffffffffffff1673ffffffffffffffffffffffffffffffffffffffff166302266147600960009054906101000a900473ffffffffffffffffffffffffffffffffffffffff166040518263ffffffff1660e01b8152600401616d4c9190617cb5565b602060405180830381865afa158015616d69573d6000803e3d6000fd5b505050506040513d601f19601f82011682018060405250810190616d8d9190619299565b816040018181525050600960009054906101000a900473ffffffffffffffffffffffffffffffffffffffff1673ffffffffffffffffffffffffffffffffffffffff1663313ce5676040518163ffffffff1660e01b8152600401602060405180830381865afa158015616e03573d6000803e3d6000fd5b505050506040513d601f19601f82011682018060405250810190616e27919061934a565b600a616e339190619b1c565b8160600181815250506000600d80549050905060005b8181101561710f576000600d8281548110616e6757616e66618b23565b5b90600052602060002090600891828204019190066004029054906101000a900463ffffffff1690506000616e9a826164f1565b905060008103616eab5750506170fe565b6000616eb68361501e565b9050600c60009054906101000a900473ffffffffffffffffffffffffffffffffffffffff1673ffffffffffffffffffffffffffffffffffffffff166302266147826040518263ffffffff1660e01b8152600401616f139190617cb5565b602060405180830381865afa158015616f30573d6000803e3d6000fd5b505050506040513d601f19601f82011682018060405250810190616f549190619299565b8660000181815250508073ffffffffffffffffffffffffffffffffffffffff1663313ce5676040518163ffffffff1660e01b8152600401602060405180830381865afa158015616fa8573d6000803e3d6000fd5b505050506040513d601f19601f82011682018060405250810190616fcc919061934a565b600a616fd89190619b1c565b8660200181815250506000806170148860000151896020015186670de0b6b3a76400006170059190619b67565b61596f9092919063ffffffff16565b9050617033886060015189604001518361596f9092919063ffffffff16565b9150670de0b6b3a7640000826170499190619bf0565b9150506000898211156170c957600061708889604001518a606001518d670de0b6b3a76400006170799190619b67565b61596f9092919063ffffffff16565b90506170a789602001518a600001518361596f9092919063ffffffff16565b9150670de0b6b3a7640000826170bd9190619bf0565b915060009a50506170db565b839050818a6170d89190618c91565b99505b6170e685828b617302565b60008a036170f857505050505061710f565b50505050505b8061710890618b81565b9050616e49565b50600084111561715657836040517fcc5ea39b00000000000000000000000000000000000000000000000000000000815260040161714d9190617547565b60405180910390fd5b50505050565b606083156171be5760008351036171b65761717685617436565b6171b5576040517f08c379a00000000000000000000000000000000000000000000000000000000081526004016171ac90619dbc565b60405180910390fd5b5b8290506171c9565b6171c88383617459565b5b949350505050565b6000601060008463ffffffff1663ffffffff16815260200190815260200160002060000160009054906101000a900473ffffffffffffffffffffffffffffffffffffffff1690506172fc6369445c3160e01b83601060008763ffffffff1663ffffffff168152602001908152602001600020600101601060008863ffffffff1663ffffffff16815260200190815260200160002060020160405160240161727a93929190619ddc565b604051602081830303815290604052907bffffffffffffffffffffffffffffffffffffffffffffffffffffffff19166020820180517bffffffffffffffffffffffffffffffffffffffffffffffffffffffff83818316178352505050508273ffffffffffffffffffffffffffffffffffffffff1661584290919063ffffffff16565b50505050565b6000601060008563ffffffff1663ffffffff16815260200190815260200160002060000160009054906101000a900473ffffffffffffffffffffffffffffffffffffffff16905061742f63c9111bd760e01b8484601060008963ffffffff1663ffffffff168152602001908152602001600020600101601060008a63ffffffff1663ffffffff1681526020019081526020016000206002016040516024016173ad9493929190619e21565b604051602081830303815290604052907bffffffffffffffffffffffffffffffffffffffffffffffffffffffff19166020820180517bffffffffffffffffffffffffffffffffffffffffffffffffffffffff83818316178352505050508273ffffffffffffffffffffffffffffffffffffffff1661584290919063ffffffff16565b5050505050565b6000808273ffffffffffffffffffffffffffffffffffffffff163b119050919050565b60008251111561746c5781518083602001fd5b806040517f08c379a00000000000000000000000000000000000000000000000000000000081526004016174a091906175f2565b60405180910390fd5b5080546174b590618a86565b6000825580601f106174c757506174e6565b601f0160209004906000526020600020908101906174e59190617511565b5b50565b6040518060800160405280600081526020016000815260200160008152602001600081525090565b5b8082111561752a576000816000905550600101617512565b5090565b6000819050919050565b6175418161752e565b82525050565b600060208201905061755c6000830184617538565b92915050565b600081519050919050565b600082825260208201905092915050565b60005b8381101561759c578082015181840152602081019050617581565b60008484015250505050565b6000601f19601f8301169050919050565b60006175c482617562565b6175ce818561756d565b93506175de81856020860161757e565b6175e7816175a8565b840191505092915050565b6000602082019050818103600083015261760c81846175b9565b905092915050565b6000604051905090565b600080fd5b600080fd5b600063ffffffff82169050919050565b61764181617628565b811461764c57600080fd5b50565b60008135905061765e81617638565b92915050565b60006020828403121561767a5761767961761e565b5b60006176888482850161764f565b91505092915050565b61769a8161752e565b81146176a557600080fd5b50565b6000813590506176b781617691565b92915050565b6000602082840312156176d3576176d261761e565b5b60006176e1848285016176a8565b91505092915050565b600081519050919050565b600082825260208201905092915050565b6000819050602082019050919050565b600073ffffffffffffffffffffffffffffffffffffffff82169050919050565b6000819050919050565b600061775b61775661775184617716565b617736565b617716565b9050919050565b600061776d82617740565b9050919050565b600061777f82617762565b9050919050565b61778f81617774565b82525050565b60006177a18383617786565b60208301905092915050565b6000602082019050919050565b60006177c5826176ea565b6177cf81856176f5565b93506177da83617706565b8060005b8381101561780b5781516177f28882617795565b97506177fd836177ad565b9250506001810190506177de565b5085935050505092915050565b6000602082019050818103600083015261783281846177ba565b905092915050565b600061784582617716565b9050919050565b6178558161783a565b811461786057600080fd5b50565b6000813590506178728161784c565b92915050565b6000806040838503121561788f5761788e61761e565b5b600061789d85828601617863565b92505060206178ae858286016176a8565b9150509250929050565b60008115159050919050565b6178cd816178b8565b82525050565b60006020820190506178e860008301846178c4565b92915050565b600080fd5b600080fd5b7f4e487b7100000000000000000000000000000000000000000000000000000000600052604160045260246000fd5b617930826175a8565b810181811067ffffffffffffffff8211171561794f5761794e6178f8565b5b80604052505050565b6000617962617614565b905061796e8282617927565b919050565b600067ffffffffffffffff82111561798e5761798d6178f8565b5b617997826175a8565b9050602081019050919050565b82818337600083830152505050565b60006179c66179c184617973565b617958565b9050828152602081018484840111156179e2576179e16178f3565b5b6179ed8482856179a4565b509392505050565b600082601f830112617a0a57617a096178ee565b5b8135617a1a8482602086016179b3565b91505092915050565b60008060008060808587031215617a3d57617a3c61761e565b5b6000617a4b87828801617863565b9450506020617a5c87828801617863565b9350506040617a6d878288016176a8565b925050606085013567ffffffffffffffff811115617a8e57617a8d617623565b5b617a9a878288016179f5565b91505092959194509250565b60007fffffffff0000000000000000000000000000000000000000000000000000000082169050919050565b617adb81617aa6565b82525050565b6000602082019050617af66000830184617ad2565b92915050565b600060208284031215617b1257617b1161761e565b5b6000617b2084828501617863565b91505092915050565b600080600060608486031215617b4257617b4161761e565b5b6000617b5086828701617863565b9350506020617b6186828701617863565b9250506040617b72868287016176a8565b9150509250925092565b600060ff82169050919050565b617b9281617b7c565b82525050565b6000602082019050617bad6000830184617b89565b92915050565b617bbc816178b8565b8114617bc757600080fd5b50565b600081359050617bd981617bb3565b92915050565b60008060408385031215617bf657617bf561761e565b5b6000617c048582860161764f565b9250506020617c1585828601617bca565b9150509250929050565b6000819050919050565b617c3281617c1f565b82525050565b6000602082019050617c4d6000830184617c29565b92915050565b600080600060608486031215617c6c57617c6b61761e565b5b6000617c7a8682870161764f565b9350506020617c8b8682870161764f565b9250506040617c9c86828701617bca565b9150509250925092565b617caf81617774565b82525050565b6000602082019050617cca6000830184617ca6565b92915050565b600067ffffffffffffffff82169050919050565b617ced81617cd0565b82525050565b6000602082019050617d086000830184617ce4565b92915050565b600081519050919050565b600082825260208201905092915050565b6000819050602082019050919050565b617d4381617628565b82525050565b6000617d558383617d3a565b60208301905092915050565b6000602082019050919050565b6000617d7982617d0e565b617d838185617d19565b9350617d8e83617d2a565b8060005b83811015617dbf578151617da68882617d49565b9750617db183617d61565b925050600181019050617d92565b5085935050505092915050565b60006020820190508181036000830152617de68184617d6e565b905092915050565b600067ffffffffffffffff821115617e0957617e086178f8565b5b602082029050602081019050919050565b600080fd5b600080fd5b600080fd5b600067ffffffffffffffff821115617e4457617e436178f8565b5b602082029050602081019050919050565b6000617e68617e6384617e29565b617958565b90508083825260208201905060208402830185811115617e8b57617e8a617e1a565b5b835b81811015617ed257803567ffffffffffffffff811115617eb057617eaf6178ee565b5b808601617ebd89826179f5565b85526020850194505050602081019050617e8d565b5050509392505050565b600082601f830112617ef157617ef06178ee565b5b8135617f01848260208601617e55565b91505092915050565b600060408284031215617f2057617f1f617e1f565b5b617f2a6040617958565b90506000617f3a84828501617863565b600083015250602082013567ffffffffffffffff811115617f5e57617f5d617e24565b5b617f6a84828501617edc565b60208301525092915050565b6000617f89617f8484617dee565b617958565b90508083825260208201905060208402830185811115617fac57617fab617e1a565b5b835b81811015617ff357803567ffffffffffffffff811115617fd157617fd06178ee565b5b808601617fde8982617f0a565b85526020850194505050602081019050617fae565b5050509392505050565b600082601f830112618012576180116178ee565b5b8135618022848260208601617f76565b91505092915050565b6000602082840312156180415761804061761e565b5b600082013567ffffffffffffffff81111561805f5761805e617623565b5b61806b84828501617ffd565b91505092915050565b600061ffff82169050919050565b61808b81618074565b811461809657600080fd5b50565b6000813590506180a881618082565b92915050565b600080604083850312156180c5576180c461761e565b5b60006180d385828601617bca565b92505060206180e485828601618099565b9150509250929050565b6180f781617628565b82525050565b600060208201905061811260008301846180ee565b92915050565b6000806040838503121561812f5761812e61761e565b5b600061813d858286016176a8565b925050602061814e85828601617863565b9150509250929050565b6181618161783a565b82525050565b600081519050919050565b600082825260208201905092915050565b600061818e82618167565b6181988185618172565b93506181a881856020860161757e565b6181b1816175a8565b840191505092915050565b60006080820190506181d16000830187618158565b6181de60208301866178c4565b81810360408301526181f08185618183565b905081810360608301526182048184618183565b905095945050505050565b600081519050919050565b600082825260208201905092915050565b6000819050602082019050919050565b6182448161752e565b82525050565b6000618256838361823b565b60208301905092915050565b6000602082019050919050565b600061827a8261820f565b618284818561821a565b935061828f8361822b565b8060005b838110156182c05781516182a7888261824a565b97506182b283618262565b925050600181019050618293565b5085935050505092915050565b600081519050919050565b600082825260208201905092915050565b6000819050602082019050919050565b618302816178b8565b82525050565b600061831483836182f9565b60208301905092915050565b6000602082019050919050565b6000618338826182cd565b61834281856182d8565b935061834d836182e9565b8060005b8381101561837e5781516183658882618308565b975061837083618320565b925050600181019050618351565b5085935050505092915050565b600060608201905081810360008301526183a581866177ba565b905081810360208301526183b9818561826f565b905081810360408301526183cd818461832d565b9050949350505050565b60006183e282617762565b9050919050565b6183f2816183d7565b82525050565b600060208201905061840d60008301846183e9565b92915050565b60006020820190506184286000830184618158565b92915050565b600080fd5b60008083601f840112618449576184486178ee565b5b8235905067ffffffffffffffff8111156184665761846561842e565b5b60208301915083602082028301111561848257618481617e1a565b5b9250929050565b60008083601f84011261849f5761849e6178ee565b5b8235905067ffffffffffffffff8111156184bc576184bb61842e565b5b6020830191508360208202830111156184d8576184d7617e1a565b5b9250929050565b60008083601f8401126184f5576184f46178ee565b5b8235905067ffffffffffffffff8111156185125761851161842e565b5b60208301915083600182028301111561852e5761852d617e1a565b5b9250929050565b600080600080600080600080600060a08a8c0312156185575761855661761e565b5b60008a013567ffffffffffffffff81111561857557618574617623565b5b6185818c828d01618433565b995099505060208a013567ffffffffffffffff8111156185a4576185a3617623565b5b6185b08c828d01618489565b975097505060408a013567ffffffffffffffff8111156185d3576185d2617623565b5b6185df8c828d01618489565b955095505060606185f28c828d01617863565b93505060808a013567ffffffffffffffff81111561861357618612617623565b5b61861f8c828d016184df565b92509250509295985092959850929598565b6000806000806080858703121561864b5761864a61761e565b5b60006186598782880161764f565b945050602061866a8782880161764f565b935050604085013567ffffffffffffffff81111561868b5761868a617623565b5b618697878288016179f5565b92505060606186a887828801617bca565b91505092959194509250565b60008083601f8401126186ca576186c96178ee565b5b8235905067ffffffffffffffff8111156186e7576186e661842e565b5b60208301915083602082028301111561870357618702617e1a565b5b9250929050565b600080602083850312156187215761872061761e565b5b600083013567ffffffffffffffff81111561873f5761873e617623565b5b61874b858286016186b4565b92509250509250929050565b6000806000606084860312156187705761876f61761e565b5b600061877e868287016176a8565b935050602061878f86828701617863565b92505060406187a086828701617863565b9150509250925092565b6187b381617cd0565b81146187be57600080fd5b50565b6000813590506187d0816187aa565b92915050565b6000602082840312156187ec576187eb61761e565b5b60006187fa848285016187c1565b91505092915050565b61880c81617b7c565b811461881757600080fd5b50565b60008135905061882981618803565b92915050565b61883881617c1f565b811461884357600080fd5b50565b6000813590506188558161882f565b92915050565b600080600080600080600060e0888a03121561887a5761887961761e565b5b60006188888a828b01617863565b97505060206188998a828b01617863565b96505060406188aa8a828b016176a8565b95505060606188bb8a828b016176a8565b94505060806188cc8a828b0161881a565b93505060a06188dd8a828b01618846565b92505060c06188ee8a828b01618846565b91505092959891949750929550565b600061890882617762565b9050919050565b618918816188fd565b82525050565b6000602082019050618933600083018461890f565b92915050565b600080604083850312156189505761894f61761e565b5b600061895e85828601617863565b925050602061896f85828601617863565b9150509250929050565b600060808201905061898e6000830187617ce4565b61899b6020830186617ce4565b6189a86040830185617ce4565b6189b56060830184618158565b95945050505050565b6000602082840312156189d4576189d361761e565b5b60006189e284828501617bca565b91505092915050565b7f5245454e5452414e435900000000000000000000000000000000000000000000600082015250565b6000618a21600a8361756d565b9150618a2c826189eb565b602082019050919050565b60006020820190508181036000830152618a5081618a14565b9050919050565b7f4e487b7100000000000000000000000000000000000000000000000000000000600052602260045260246000fd5b60006002820490506001821680618a9e57607f821691505b602082108103618ab157618ab0618a57565b5b50919050565b7f554e415554484f52495a45440000000000000000000000000000000000000000600082015250565b6000618aed600c8361756d565b9150618af882618ab7565b602082019050919050565b60006020820190508181036000830152618b1c81618ae0565b9050919050565b7f4e487b7100000000000000000000000000000000000000000000000000000000600052603260045260246000fd5b7f4e487b7100000000000000000000000000000000000000000000000000000000600052601160045260246000fd5b6000618b8c8261752e565b91507fffffffffffffffffffffffffffffffffffffffffffffffffffffffffffffffff8203618bbe57618bbd618b52565b5b600182019050919050565b6000604082019050618bde60008301856180ee565b618beb6020830184617538565b9392505050565b6000618c0d618c08618c0384617628565b617736565b61752e565b9050919050565b618c1d81618bf2565b82525050565b6000608082019050618c3860008301876180ee565b618c4560208301866180ee565b618c526040830185618c14565b618c5f6060830184618c14565b95945050505050565b6000604082019050618c7d6000830185618158565b618c8a60208301846178c4565b9392505050565b6000618c9c8261752e565b9150618ca78361752e565b9250828203905081811115618cbf57618cbe618b52565b5b92915050565b6000618cd08261752e565b9150618cdb8361752e565b9250828201905080821115618cf357618cf2618b52565b5b92915050565b6000604082019050618d0e6000830185618158565b8181036020830152618d208184618183565b90509392505050565b6000618d3482617b7c565b915060ff8203618d4757618d46618b52565b5b600182019050919050565b6000606082019050618d676000830186617538565b618d746020830185617538565b618d816040830184617538565b949350505050565b6000604082019050618d9e6000830185617538565b618dab6020830184617538565b9392505050565b6000618dcd618dc8618dc384617cd0565b617736565b61752e565b9050919050565b618ddd81618db2565b82525050565b6000604082019050618df86000830185617538565b618e056020830184618dd4565b9392505050565b6000618e1782618074565b9150618e2283618074565b9250828203905061ffff811115618e3c57618e3b618b52565b5b92915050565b6000618e4d82618074565b9150618e5883618074565b9250828201905061ffff811115618e7257618e71618b52565b5b92915050565b600081519050618e878161784c565b92915050565b600060208284031215618ea357618ea261761e565b5b6000618eb184828501618e78565b91505092915050565b600080fd5b600080fd5b600080fd5b60008083356001602003843603038112618ee657618ee5618eba565b5b80840192508235915067ffffffffffffffff821115618f0857618f07618ebf565b5b602083019250600182023603831315618f2457618f23618ec4565b5b509250929050565b6000604082019050618f416000830185618158565b618f4e6020830184618158565b9392505050565b600081519050618f6481617bb3565b92915050565b600060208284031215618f8057618f7f61761e565b5b6000618f8e84828501618f55565b91505092915050565b6000604082019050618fac6000830185617ce4565b618fb96020830184617ce4565b9392505050565b6000604082019050618fd560008301856180ee565b618fe260208301846178c4565b9392505050565b7f5045524d49545f444541444c494e455f45585049524544000000000000000000600082015250565b600061901f60178361756d565b915061902a82618fe9565b602082019050919050565b6000602082019050818103600083015261904e81619012565b9050919050565b600060c08201905061906a6000830189617c29565b6190776020830188618158565b6190846040830187618158565b6190916060830186617538565b61909e6080830185617538565b6190ab60a0830184617538565b979650505050505050565b600081905092915050565b7f1901000000000000000000000000000000000000000000000000000000000000600082015250565b60006190f76002836190b6565b9150619102826190c1565b600282019050919050565b6000819050919050565b61912861912382617c1f565b61910d565b82525050565b6000619139826190ea565b91506191458285619117565b6020820191506191558284619117565b6020820191508190509392505050565b600060808201905061917a6000830187617c29565b6191876020830186617b89565b6191946040830185617c29565b6191a16060830184617c29565b95945050505050565b7f494e56414c49445f5349474e4552000000000000000000000000000000000000600082015250565b60006191e0600e8361756d565b91506191eb826191aa565b602082019050919050565b6000602082019050818103600083015261920f816191d3565b9050919050565b60006192218261752e565b91506000820361923457619233618b52565b5b600182039050919050565b6000606082019050818103600083015261925981866177ba565b9050818103602083015261926d818561826f565b905061927c6040830184617ca6565b949350505050565b60008151905061929381617691565b92915050565b6000602082840312156192af576192ae61761e565b5b60006192bd84828501619284565b91505092915050565b600060a08201905081810360008301526192e081886177ba565b905081810360208301526192f4818761826f565b9050818103604083015261930881866177ba565b9050818103606083015261931c818561826f565b905061932b6080830184617ca6565b9695505050505050565b60008151905061934481618803565b92915050565b6000602082840312156193605761935f61761e565b5b600061936e84828501619335565b91505092915050565b60008190508160005260206000209050919050565b6000815461939981618a86565b6193a38186618172565b945060018216600081146193be57600181146193d457619407565b60ff198316865281151560200286019350619407565b6193dd85619377565b60005b838110156193ff578154818901526001820191506020810190506193e0565b808801955050505b50505092915050565b6000602082019050818103600083015261942a818461938c565b905092915050565b600061943d8261783a565b9050919050565b61944d81619432565b811461945857600080fd5b50565b60008151905061946a81619444565b92915050565b6000602082840312156194865761948561761e565b5b60006194948482850161945b565b91505092915050565b60006040820190506194b260008301856180ee565b6194bf6020830184618c14565b9392505050565b600081905092915050565b60008190508160005260206000209050919050565b600081546194f381618a86565b6194fd81866194c6565b94506001821660008114619518576001811461952d57619560565b60ff1983168652811515820286019350619560565b619536856194d1565b60005b8381101561955857815481890152600182019150602081019050619539565b838801955050505b50505092915050565b600061957582846194e6565b915081905092915050565b600060a0820190506195956000830188617c29565b6195a26020830187617c29565b6195af6040830186617c29565b6195bc6060830185617538565b6195c96080830184618158565b9695505050505050565b7f415050524f56455f4641494c4544000000000000000000000000000000000000600082015250565b6000619609600e8361756d565b9150619614826195d3565b602082019050919050565b60006020820190508181036000830152619638816195fc565b9050919050565b600061965261964d84617973565b617958565b90508281526020810184848401111561966e5761966d6178f3565b5b61967984828561757e565b509392505050565b600082601f830112619696576196956178ee565b5b81516196a684826020860161963f565b91505092915050565b6000806000606084860312156196c8576196c761761e565b5b60006196d686828701618e78565b93505060206196e786828701618f55565b925050604084015167ffffffffffffffff81111561970857619707617623565b5b61971486828701619681565b9150509250925092565b60006020601f8301049050919050565b600082821b905092915050565b60006008830261976b7fffffffffffffffffffffffffffffffffffffffffffffffffffffffffffffffff8261972e565b619775868361972e565b95508019841693508086168417925050509392505050565b60006197a86197a361979e8461752e565b617736565b61752e565b9050919050565b6000819050919050565b6197c28361978d565b6197d66197ce826197af565b84845461973b565b825550505050565b600090565b6197eb6197de565b6197f68184846197b9565b505050565b5b8181101561981a5761980f6000826197e3565b6001810190506197fc565b5050565b601f82111561985f5761983081619377565b6198398461971e565b81016020851015619848578190505b61985c6198548561971e565b8301826197fb565b50505b505050565b600082821c905092915050565b600061988260001984600802619864565b1980831691505092915050565b600061989b8383619871565b9150826002028217905092915050565b6198b482618167565b67ffffffffffffffff8111156198cd576198cc6178f8565b5b6198d78254618a86565b6198e282828561981e565b600060209050601f8311600181146199155760008415619903578287015190505b61990d858261988f565b865550619975565b601f19841661992386619377565b60005b8281101561994b57848901518255600182019150602085019450602081019050619926565b868310156199685784890151619964601f891682619871565b8355505b6001600288020188555050505b505050505050565b60006040820190508181036000830152619997818561938c565b905081810360208301526199ab818461938c565b90509392505050565b60006199bf82617b7c565b91506199ca83617b7c565b9250828203905060ff8111156199e3576199e2618b52565b5b92915050565b60008160011c9050919050565b6000808291508390505b6001851115619a4057808604811115619a1c57619a1b618b52565b5b6001851615619a2b5780820291505b8081029050619a39856199e9565b9450619a00565b94509492505050565b600082619a595760019050619b15565b81619a675760009050619b15565b8160018114619a7d5760028114619a8757619ab6565b6001915050619b15565b60ff841115619a9957619a98618b52565b5b8360020a915084821115619ab057619aaf618b52565b5b50619b15565b5060208310610133831016604e8410600b8410161715619aeb5782820a905083811115619ae657619ae5618b52565b5b619b15565b619af884848460016199f6565b92509050818404811115619b0f57619b0e618b52565b5b81810290505b9392505050565b6000619b278261752e565b9150619b3283617b7c565b9250619b5f7fffffffffffffffffffffffffffffffffffffffffffffffffffffffffffffffff8484619a49565b905092915050565b6000619b728261752e565b9150619b7d8361752e565b9250817fffffffffffffffffffffffffffffffffffffffffffffffffffffffffffffffff0483118215151615619bb657619bb5618b52565b5b828202905092915050565b7f4e487b7100000000000000000000000000000000000000000000000000000000600052601260045260246000fd5b6000619bfb8261752e565b9150619c068361752e565b925082619c1657619c15619bc1565b5b828204905092915050565b7f496e646578206f7574206f6620626f756e647300000000000000000000000000600082015250565b6000619c5760138361756d565b9150619c6282619c21565b602082019050919050565b60006020820190508181036000830152619c8681619c4a565b9050919050565b7f4e487b7100000000000000000000000000000000000000000000000000000000600052603160045260246000fd5b6000619cc782618167565b619cd181856194c6565b9350619ce181856020860161757e565b80840191505092915050565b6000619cf98284619cbc565b915081905092915050565b7f5452414e534645525f46524f4d5f4641494c4544000000000000000000000000600082015250565b6000619d3a60148361756d565b9150619d4582619d04565b602082019050919050565b60006020820190508181036000830152619d6981619d2d565b9050919050565b7f416464726573733a2063616c6c20746f206e6f6e2d636f6e7472616374000000600082015250565b6000619da6601d8361756d565b9150619db182619d70565b602082019050919050565b60006020820190508181036000830152619dd581619d99565b9050919050565b6000606082019050619df16000830186617538565b8181036020830152619e03818561938c565b90508181036040830152619e17818461938c565b9050949350505050565b6000608082019050619e366000830187617538565b619e436020830186618158565b8181036040830152619e55818561938c565b90508181036060830152619e69818461938c565b90509594505050505056fe416464726573733a206c6f772d6c6576656c2064656c65676174652063616c6c206661696c6564a2646970667358221220d8f12e9172621f96dfae918675887e5431ad991fead4815d310124514e9df4f564736f6c63430008100033","linkReferences":{}},"methodIdentifiers":{"DOMAIN_SEPARATOR()":"3644e515","GRAVITY_BRIDGE_REGISTRY_SLOT()":"cd82f8b1","MAXIMUM_SHARE_LOCK_PERIOD()":"0402ab63","MAX_FEE_CUT()":"eef33eca","MAX_PLATFORM_FEE()":"3998a681","MAX_POSITIONS()":"f7b24e08","MAX_REBALANCE_DEVIATION()":"6ff1c02a","MINIMUM_SHARE_LOCK_PERIOD()":"0051a3b7","PRICE_ROUTER_REGISTRY_SLOT()":"5a400d25","aavePool()":"a03e4bc3","adaptorCatalogue(address)":"18d4c143","addAdaptorToCatalogue(address)":"3d8ab1e5","addPosition(uint32,uint32,bytes,bool)":"9955a9d4","addPositionToCatalogue(uint32)":"501eb4fe","allowance(address,address)":"dd62ed3e","allowedRebalanceDeviation()":"c244245a","approve(address,uint256)":"095ea7b3","asset()":"38d52e0f","balanceOf(address)":"70a08231","blockExternalReceiver()":"4c4602da","cachePriceRouter(bool,uint16)":"58db626d","callOnAdaptor((address,bytes[])[])":"4e84befe","convertToAssets(uint256)":"07a2d13a","convertToShares(uint256)":"c6e6f592","creditPositions(uint256)":"59d20b4e","debtPositions(uint256)":"e1b1acb7","decimals()":"313ce567","deposit(uint256,address)":"6e553f65","executeOperation(address[],uint256[],uint256[],address,bytes)":"920f5c84","feeData()":"e753e600","forcePositionOut(uint32,uint32,bool)":"a07bee0b","getCreditPositions()":"71e99dc2","getDebtPositions()":"3e3382ba","getPositionAssets()":"087ed837","getPositionData(uint32)":"7384504f","holdingPosition()":"9c5f00c2","ignorePause()":"9959af94","initiateShutdown()":"0a680e18","isPaused()":"b187bd26","isPositionUsed(uint256)":"93bbeac0","isShutdown()":"bf86d690","liftShutdown()":"5e2c576e","locked()":"cf309012","maxDeposit(address)":"402d267d","maxMint(address)":"c63d75b6","maxRedeem(address)":"d905777e","maxWithdraw(address)":"ce96cb77","mint(uint256,address)":"94bf804d","multicall(bytes[])":"ac9650d8","name()":"06fdde03","nonces(address)":"7ecebe00","onERC721Received(address,address,uint256,bytes)":"150b7a02","owner()":"8da5cb5b","permit(address,address,uint256,uint256,uint8,bytes32,bytes32)":"d505accf","positionCatalogue(uint32)":"cbdf33d0","previewDeposit(uint256)":"ef8b30f7","previewMint(uint256)":"b3d7f6b9","previewRedeem(uint256)":"4cdad506","previewWithdraw(uint256)":"0a28a477","priceRouter()":"d7d4bf45","redeem(uint256,address,address)":"ba087652","registry()":"7b103999","removeAdaptorFromCatalogue(address)":"5f6b88a0","removePosition(uint32,bool)":"33e15be2","removePositionFromCatalogue(uint32)":"d1e88404","setHoldingPosition(uint32)":"0780fd3a","setRebalanceDeviation(uint256)":"530a3714","setShareLockPeriod(uint256)":"9c552ca8","setStrategistPayoutAddress(address)":"b0a75d36","setStrategistPlatformCut(uint64)":"b5292a99","shareLockPeriod()":"9fdb11b6","swapPositions(uint32,uint32,bool)":"379e0b13","symbol()":"95d89b41","toggleIgnorePause(bool)":"ebe3c328","totalAssets()":"01e1d114","totalAssetsWithdrawable()":"a8144e48","totalSupply()":"18160ddd","transfer(address,uint256)":"a9059cbb","transferFrom(address,address,uint256)":"23b872dd","transferOwnership(address)":"f2fde38b","userShareLockStartTime(address)":"687c2b50","viewPositionBalances()":"78e0233e","withdraw(uint256,address,address)":"b460af94"},"id":14}