{"abi":[{"type":"function","name":"DEFAULT_HEART_BEAT","inputs":[],"outputs":[{"name":"","type":"uint24","internalType":"uint24"}],"stateMutability":"view"},{"type":"function","name":"DEFAULT_RATE_LIMIT","inputs":[],"outputs":[{"name":"","type":"uint32","internalType":"uint32"}],"stateMutability":"view"},{"type":"function","name":"ETH_FAST_GAS_FEED","inputs":[],"outputs":[{"name":"","type":"address","internalType":"address"}],"stateMutability":"view"},{"type":"function","name":"EXPECTED_ANSWER_DEVIATION","inputs":[],"outputs":[{"name":"","type":"uint256","internalType":"uint256"}],"stateMutability":"view"},{"type":"function","name":"addAsset","inputs":[{"name":"_asset","type":"address","internalType":"contract ERC20"},{"name":"_settings","type":"tuple","internalType":"struct PriceRouter.AssetSettings","components":[{"name":"derivative","type":"uint8","internalType":"uint8"},{"name":"source","type":"address","internalType":"address"}]},{"name":"_storage","type":"bytes","internalType":"bytes"},{"name":"_expectedAnswer","type":"uint256","internalType":"uint256"}],"outputs":[],"stateMutability":"nonpayable"},{"type":"function","name":"automationRegistry","inputs":[],"outputs":[{"name":"","type":"address","internalType":"address"}],"stateMutability":"view"},{"type":"function","name":"checkUpkeep","inputs":[{"name":"checkData","type":"bytes","internalType":"bytes"}],"outputs":[{"name":"upkeepNeeded","type":"bool","internalType":"bool"},{"name":"performData","type":"bytes","internalType":"bytes"}],"stateMutability":"view"},{"type":"function","name":"curveAssets","inputs":[{"name":"","type":"uint256","internalType":"uint256"}],"outputs":[{"name":"","type":"address","internalType":"address"}],"stateMutability":"view"},{"type":"function","name":"gasConstant","inputs":[],"outputs":[{"name":"","type":"uint256","internalType":"uint256"}],"stateMutability":"view"},{"type":"function","name":"getAaveDerivativeStorage","inputs":[{"name":"","type":"address","internalType":"contract ERC20"}],"outputs":[{"name":"","type":"address","internalType":"contract ERC20"}],"stateMutability":"view"},{"type":"function","name":"getAssetSettings","inputs":[{"name":"","type":"address","internalType":"contract ERC20"}],"outputs":[{"name":"derivative","type":"uint8","internalType":"uint8"},{"name":"source","type":"address","internalType":"address"}],"stateMutability":"view"},{"type":"function","name":"getChainlinkDerivativeStorage","inputs":[{"name":"","type":"address","internalType":"contract ERC20"}],"outputs":[{"name":"max","type":"uint144","internalType":"uint144"},{"name":"min","type":"uint80","internalType":"uint80"},{"name":"heartbeat","type":"uint24","internalType":"uint24"},{"name":"inETH","type":"bool","internalType":"bool"}],"stateMutability":"view"},{"type":"function","name":"getCurveDerivativeStorage","inputs":[{"name":"","type":"address","internalType":"contract ERC20"},{"name":"","type":"uint256","internalType":"uint256"}],"outputs":[{"name":"","type":"address","internalType":"address"}],"stateMutability":"view"},{"type":"function","name":"getExchangeRate","inputs":[{"name":"baseAsset","type":"address","internalType":"contract ERC20"},{"name":"quoteAsset","type":"address","internalType":"contract ERC20"}],"outputs":[{"name":"exchangeRate","type":"uint256","internalType":"uint256"}],"stateMutability":"view"},{"type":"function","name":"getExchangeRates","inputs":[{"name":"baseAssets","type":"address[]","internalType":"contract ERC20[]"},{"name":"quoteAsset","type":"address","internalType":"contract ERC20"}],"outputs":[{"name":"exchangeRates","type":"uint256[]","internalType":"uint256[]"}],"stateMutability":"view"},{"type":"function","name":"getPriceInUSD","inputs":[{"name":"asset","type":"address","internalType":"contract ERC20"}],"outputs":[{"name":"","type":"uint256","internalType":"uint256"}],"stateMutability":"view"},{"type":"function","name":"getValue","inputs":[{"name":"baseAsset","type":"address","internalType":"contract ERC20"},{"name":"amount","type":"uint256","internalType":"uint256"},{"name":"quoteAsset","type":"address","internalType":"contract ERC20"}],"outputs":[{"name":"value","type":"uint256","internalType":"uint256"}],"stateMutability":"view"},{"type":"function","name":"getValues","inputs":[{"name":"baseAssets","type":"address[]","internalType":"contract ERC20[]"},{"name":"amounts","type":"uint256[]","internalType":"uint256[]"},{"name":"quoteAsset","type":"address","internalType":"contract ERC20"}],"outputs":[{"name":"","type":"uint256","internalType":"uint256"}],"stateMutability":"view"},{"type":"function","name":"getValuesDelta","inputs":[{"name":"baseAssets0","type":"address[]","internalType":"contract ERC20[]"},{"name":"amounts0","type":"uint256[]","internalType":"uint256[]"},{"name":"baseAssets1","type":"address[]","internalType":"contract ERC20[]"},{"name":"amounts1","type":"uint256[]","internalType":"uint256[]"},{"name":"quoteAsset","type":"address","internalType":"contract ERC20"}],"outputs":[{"name":"","type":"uint256","internalType":"uint256"}],"stateMutability":"view"},{"type":"function","name":"getVirtualPriceBound","inputs":[{"name":"","type":"address","internalType":"address"}],"outputs":[{"name":"datum","type":"uint96","internalType":"uint96"},{"name":"timeLastUpdated","type":"uint64","internalType":"uint64"},{"name":"posDelta","type":"uint32","internalType":"uint32"},{"name":"negDelta","type":"uint32","internalType":"uint32"},{"name":"rateLimit","type":"uint32","internalType":"uint32"}],"stateMutability":"view"},{"type":"function","name":"isSupported","inputs":[{"name":"asset","type":"address","internalType":"contract ERC20"}],"outputs":[{"name":"","type":"bool","internalType":"bool"}],"stateMutability":"view"},{"type":"function","name":"minDelta","inputs":[],"outputs":[{"name":"","type":"uint256","internalType":"uint256"}],"stateMutability":"view"},{"type":"function","name":"owner","inputs":[],"outputs":[{"name":"","type":"address","internalType":"address"}],"stateMutability":"view"},{"type":"function","name":"performUpkeep","inputs":[{"name":"performData","type":"bytes","internalType":"bytes"}],"outputs":[],"stateMutability":"nonpayable"},{"type":"function","name":"renounceOwnership","inputs":[],"outputs":[],"stateMutability":"nonpayable"},{"type":"function","name":"setAutomationRegistry","inputs":[{"name":"newRegistry","type":"address","internalType":"address"}],"outputs":[],"stateMutability":"nonpayable"},{"type":"function","name":"setGasConstant","inputs":[{"name":"newConstant","type":"uint256","internalType":"uint256"}],"outputs":[],"stateMutability":"nonpayable"},{"type":"function","name":"setGasFeed","inputs":[{"name":"gasFeed","type":"address","internalType":"address"}],"outputs":[],"stateMutability":"nonpayable"},{"type":"function","name":"setMinDelta","inputs":[{"name":"newMinDelta","type":"uint256","internalType":"uint256"}],"outputs":[],"stateMutability":"nonpayable"},{"type":"function","name":"transferOwnership","inputs":[{"name":"newOwner","type":"address","internalType":"address"}],"outputs":[],"stateMutability":"nonpayable"},{"type":"function","name":"updateVirtualPriceBound","inputs":[{"name":"_asset","type":"address","internalType":"address"},{"name":"_posDelta","type":"uint32","internalType":"uint32"},{"name":"_negDelta","type":"uint32","internalType":"uint32"},{"name":"_rateLimit","type":"uint32","internalType":"uint32"}],"outputs":[],"stateMutability":"nonpayable"},{"type":"event","name":"AddAsset","inputs":[{"name":"asset","type":"address","indexed":true,"internalType":"address"}],"anonymous":false},{"type":"event","name":"OwnershipTransferred","inputs":[{"name":"previousOwner","type":"address","indexed":true,"internalType":"address"},{"name":"newOwner","type":"address","indexed":true,"internalType":"address"}],"anonymous":false},{"type":"error","name":"PriceRouter__AssetAboveMaxPrice","inputs":[{"name":"asset","type":"address","internalType":"address"},{"name":"price","type":"uint256","internalType":"uint256"},{"name":"maxPrice","type":"uint256","internalType":"uint256"}]},{"type":"error","name":"PriceRouter__AssetBelowMinPrice","inputs":[{"name":"asset","type":"address","internalType":"address"},{"name":"price","type":"uint256","internalType":"uint256"},{"name":"minPrice","type":"uint256","internalType":"uint256"}]},{"type":"error","name":"PriceRouter__BadAnswer","inputs":[{"name":"answer","type":"uint256","internalType":"uint256"},{"name":"expectedAnswer","type":"uint256","internalType":"uint256"}]},{"type":"error","name":"PriceRouter__CurrentAboveUpperBound","inputs":[{"name":"current","type":"uint256","internalType":"uint256"},{"name":"upper","type":"uint256","internalType":"uint256"}]},{"type":"error","name":"PriceRouter__CurrentBelowLowerBound","inputs":[{"name":"current","type":"uint256","internalType":"uint256"},{"name":"lower","type":"uint256","internalType":"uint256"}]},{"type":"error","name":"PriceRouter__InvalidAsset","inputs":[{"name":"asset","type":"address","internalType":"address"}]},{"type":"error","name":"PriceRouter__InvalidMaxPrice","inputs":[{"name":"maxPrice","type":"uint256","internalType":"uint256"},{"name":"bufferedMaxPrice","type":"uint256","internalType":"uint256"}]},{"type":"error","name":"PriceRouter__InvalidMinPrice","inputs":[{"name":"minPrice","type":"uint256","internalType":"uint256"},{"name":"bufferedMinPrice","type":"uint256","internalType":"uint256"}]},{"type":"error","name":"PriceRouter__LengthMismatch","inputs":[]},{"type":"error","name":"PriceRouter__MinPriceGreaterThanMaxPrice","inputs":[{"name":"min","type":"uint256","internalType":"uint256"},{"name":"max","type":"uint256","internalType":"uint256"}]},{"type":"error","name":"PriceRouter__NothingToUpdate","inputs":[]},{"type":"error","name":"PriceRouter__OnlyAutomationRegistry","inputs":[]},{"type":"error","name":"PriceRouter__StalePrice","inputs":[{"name":"asset","type":"address","internalType":"address"},{"name":"timeSinceLastUpdate","type":"uint256","internalType":"uint256"},{"name":"heartbeat","type":"uint256","internalType":"uint256"}]},{"type":"error","name":"PriceRouter__UnkownDerivative","inputs":[{"name":"unkownDerivative","type":"uint8","internalType":"uint8"}]},{"type":"error","name":"PriceRouter__UnsupportedAsset","inputs":[{"name":"asset","type":"address","internalType":"address"}]},{"type":"error","name":"PriceRouter__VirtualPriceRateLimiter","inputs":[]}],"bytecode":{"object":"0x608060405273169e633a2d1e6c10dd91238ba11c4a708dfef37c600460006101000a81548173ffffffffffffffffffffffffffffffffffffffff021916908373ffffffffffffffffffffffffffffffffffffffff160217905550642e90edd00060055566b1a2bc2ec500006006557302777053d6764996e594c3e88af1d58d5363a2e6600860006101000a81548173ffffffffffffffffffffffffffffffffffffffff021916908373ffffffffffffffffffffffffffffffffffffffff160217905550348015620000cf57600080fd5b50620000f0620000e4620000f660201b60201c565b620000fe60201b60201c565b620001c2565b600033905090565b60008060009054906101000a900473ffffffffffffffffffffffffffffffffffffffff169050816000806101000a81548173ffffffffffffffffffffffffffffffffffffffff021916908373ffffffffffffffffffffffffffffffffffffffff1602179055508173ffffffffffffffffffffffffffffffffffffffff168173ffffffffffffffffffffffffffffffffffffffff167f8be0079c531659141344cd1fd0a4f28419497f9722a3daafe3b4186f6b6457e060405160405180910390a35050565b6174fe80620001d26000396000f3fe608060405234801561001057600080fd5b50600436106101e55760003560e01c80635ff2d2aa1161010f578063b333a175116100a2578063eac6e71611610071578063eac6e716146105e7578063f2fde38b14610617578063f43bd11414610633578063f76260a11461064f576101e5565b8063b333a17514610537578063baaa61be14610567578063d2078c8314610597578063d51cf154146105cb576101e5565b80639a134466116100de5780639a134466146104885780639d19931e146104a4578063a8ea52c8146104d7578063b0c7505614610507576101e5565b80635ff2d2aa146104135780636e04ff0d1461042f578063715018a6146104605780638da5cb5b1461046a576101e5565b80634585e33b11610187578063568e0d1e11610156578063568e0d1e1461038b57806358a346dc146103bb5780635dc228a0146103d75780635f0c5e4a146103f5576101e5565b80634585e33b146102f05780634c7b09721461030c5780634f129c531461033d57806352171ec41461036d576101e5565b806311087622116101c357806311087622146102685780632cb0f8a2146102845780633151d269146102a257806341e3c0ec146102d2576101e5565b806301595997146101ea57806301a9be281461021a5780630226614714610238575b600080fd5b61020460048036038101906101ff919061598e565b61066d565b6040516102119190615ab2565b60405180910390f35b6102226109fa565b60405161022f9190615ae3565b60405180910390f35b610252600480360381019061024d9190615afe565b610a05565b60405161025f9190615ae3565b60405180910390f35b610282600480360381019061027d9190615b57565b610ae3565b005b61028c610af5565b6040516102999190615ae3565b60405180910390f35b6102bc60048036038101906102b79190615afe565b610afb565b6040516102c99190615be3565b60405180910390f35b6102da610b2e565b6040516102e79190615ae3565b60405180910390f35b61030a60048036038101906103059190615c59565b610b34565b005b61032660048036038101906103219190615afe565b610bc0565b604051610334929190615cd1565b60405180910390f35b61035760048036038101906103529190615afe565b610c11565b6040516103649190615d15565b60405180910390f35b610375610c6f565b6040516103829190615d30565b60405180910390f35b6103a560048036038101906103a09190615b57565b610c95565b6040516103b29190615d30565b60405180910390f35b6103d560048036038101906103d09190615d77565b610cd4565b005b6103df610d20565b6040516103ec9190615d30565b60405180910390f35b6103fd610d46565b60405161040a9190615dc2565b60405180910390f35b61042d60048036038101906104289190615d77565b610d4d565b005b61044960048036038101906104449190615c59565b610d99565b604051610457929190615e5c565b60405180910390f35b610468610e3c565b005b610472610e50565b60405161047f9190615d30565b60405180910390f35b6104a2600480360381019061049d9190615fc2565b610e79565b005b6104be60048036038101906104b99190615afe565b6111d4565b6040516104ce9493929190616097565b60405180910390f35b6104f160048036038101906104ec91906160dc565b611254565b6040516104fe9190615ae3565b60405180910390f35b610521600480360381019061051c919061612f565b61158c565b60405161052e9190615d30565b60405180910390f35b610551600480360381019061054c919061621b565b6115da565b60405161055e9190615ae3565b60405180910390f35b610581600480360381019061057c91906162b0565b6115fe565b60405161058e9190615ae3565b60405180910390f35b6105b160048036038101906105ac9190615d77565b6118a8565b6040516105c2959493929190616359565b60405180910390f35b6105e560048036038101906105e09190615b57565b61193a565b005b61060160048036038101906105fc91906163ac565b61194c565b60405161060e9190615ae3565b60405180910390f35b610631600480360381019061062c9190615d77565b611998565b005b61064d600480360381019061064891906164d4565b611a1b565b005b610657611aee565b604051610664919061653b565b60405180910390f35b606060008273ffffffffffffffffffffffffffffffffffffffff1663313ce5676040518163ffffffff1660e01b8152600401602060405180830381865afa1580156106bc573d6000803e3d6000fd5b505050506040513d601f19601f820116820180604052508101906106e0919061656b565b90506000600160008573ffffffffffffffffffffffffffffffffffffffff1673ffffffffffffffffffffffffffffffffffffffff1681526020019081526020016000206040518060400160405290816000820160009054906101000a900460ff1660ff1660ff1681526020016000820160019054906101000a900473ffffffffffffffffffffffffffffffffffffffff1673ffffffffffffffffffffffffffffffffffffffff1673ffffffffffffffffffffffffffffffffffffffff168152505090506000816000015160ff16036107ef57836040517f82aada0a0000000000000000000000000000000000000000000000000000000081526004016107e69190615d30565b60405180910390fd5b6107f761569e565b6000865190508067ffffffffffffffff811115610817576108166157db565b5b6040519080825280602002602001820160405280156108455781602001602082028036833780820191505090505b50945060005b818110156109ef576000600160008a848151811061086c5761086b616598565b5b602002602001015173ffffffffffffffffffffffffffffffffffffffff1673ffffffffffffffffffffffffffffffffffffffff1681526020019081526020016000206040518060400160405290816000820160009054906101000a900460ff1660ff1660ff1681526020016000820160019054906101000a900473ffffffffffffffffffffffffffffffffffffffff1673ffffffffffffffffffffffffffffffffffffffff1673ffffffffffffffffffffffffffffffffffffffff168152505090506000816000015160ff1603610994578882815181106109505761094f616598565b5b60200260200101516040517f82aada0a00000000000000000000000000000000000000000000000000000000815260040161098b9190615d30565b60405180910390fd5b6109bc8983815181106109aa576109a9616598565b5b6020026020010151828a888a89611af5565b8783815181106109cf576109ce616598565b5b6020026020010181815250505080806109e7906165f6565b91505061084b565b505050505092915050565b66470de4df82000081565b600080600160008473ffffffffffffffffffffffffffffffffffffffff1673ffffffffffffffffffffffffffffffffffffffff1681526020019081526020016000206040518060400160405290816000820160009054906101000a900460ff1660ff1660ff1681526020016000820160019054906101000a900473ffffffffffffffffffffffffffffffffffffffff1673ffffffffffffffffffffffffffffffffffffffff1673ffffffffffffffffffffffffffffffffffffffff16815250509050610acf61569e565b610ada848383611b49565b92505050919050565b610aeb611e3b565b8060058190555050565b60055481565b600a6020528060005260406000206000915054906101000a900473ffffffffffffffffffffffffffffffffffffffff1681565b60065481565b6000808383810190610b46919061663e565b9150915060028260ff1603610b6357610b5e81611eb9565b610bba565b60038260ff1603610b7c57610b7781611eb9565b610bb9565b816040517f460c835b000000000000000000000000000000000000000000000000000000008152600401610bb0919061669a565b60405180910390fd5b5b50505050565b60016020528060005260406000206000915090508060000160009054906101000a900460ff16908060000160019054906101000a900473ffffffffffffffffffffffffffffffffffffffff16905082565b600080600160008473ffffffffffffffffffffffffffffffffffffffff1673ffffffffffffffffffffffffffffffffffffffff16815260200190815260200160002060000160009054906101000a900460ff1660ff16119050919050565b600460009054906101000a900473ffffffffffffffffffffffffffffffffffffffff1681565b60078181548110610ca557600080fd5b906000526020600020016000915054906101000a900473ffffffffffffffffffffffffffffffffffffffff1681565b610cdc611e3b565b80600460006101000a81548173ffffffffffffffffffffffffffffffffffffffff021916908373ffffffffffffffffffffffffffffffffffffffff16021790555050565b600860009054906101000a900473ffffffffffffffffffffffffffffffffffffffff1681565b6201518081565b610d55611e3b565b80600860006101000a81548173ffffffffffffffffffffffffffffffffffffffff021916908373ffffffffffffffffffffffffffffffffffffffff16021790555050565b600060606000808585810190610daf919061663e565b9150915060028260ff1603610dd457610dc781612366565b8094508195505050610e33565b60038260ff1603610df557610de881612366565b8094508195505050610e32565b816040517f460c835b000000000000000000000000000000000000000000000000000000008152600401610e29919061669a565b60405180910390fd5b5b50509250929050565b610e44611e3b565b610e4e6000612944565b565b60008060009054906101000a900473ffffffffffffffffffffffffffffffffffffffff16905090565b610e81611e3b565b600073ffffffffffffffffffffffffffffffffffffffff168473ffffffffffffffffffffffffffffffffffffffff1603610ef257836040517f5e6668c9000000000000000000000000000000000000000000000000000000008152600401610ee99190615d30565b60405180910390fd5b6000836000015160ff1603610f425782600001516040517f460c835b000000000000000000000000000000000000000000000000000000008152600401610f39919061669a565b60405180910390fd5b6001836000015160ff1603610f6557610f6084846020015184612a08565b611012565b6002836000015160ff1603610f8857610f8384846020015184612f94565b611011565b6003836000015160ff1603610fab57610fa6848460200151846134cb565b611010565b6004836000015160ff1603610fce57610fc984846020015184613a02565b61100f565b82600001516040517f460c835b000000000000000000000000000000000000000000000000000000008152600401611006919061669a565b60405180910390fd5b5b5b5b600061104166470de4df820000670de0b6b3a764000061103291906166b5565b83613af990919063ffffffff16565b9050600061107266470de4df820000670de0b6b3a764000061106391906166e9565b84613af990919063ffffffff16565b905061107c61569e565b85600160008973ffffffffffffffffffffffffffffffffffffffff1673ffffffffffffffffffffffffffffffffffffffff16815260200190815260200160002060008201518160000160006101000a81548160ff021916908360ff16021790555060208201518160000160016101000a81548173ffffffffffffffffffffffffffffffffffffffff021916908373ffffffffffffffffffffffffffffffffffffffff1602179055509050506000611134888884611b49565b90508381108061114357508281115b156111875780856040517f42f5ca0f00000000000000000000000000000000000000000000000000000000815260040161117e92919061671d565b60405180910390fd5b8773ffffffffffffffffffffffffffffffffffffffff167fb38e19e04618f9502008311560587c597fe11e8867226353a0c01aab7e4df29360405160405180910390a25050505050505050565b60026020528060005260406000206000915090508060000160009054906101000a900471ffffffffffffffffffffffffffffffffffff16908060000160129054906101000a900469ffffffffffffffffffff169080600001601c9054906101000a900462ffffff169080600001601f9054906101000a900460ff16905084565b600080600160008673ffffffffffffffffffffffffffffffffffffffff1673ffffffffffffffffffffffffffffffffffffffff1681526020019081526020016000206040518060400160405290816000820160009054906101000a900460ff1660ff1660ff1681526020016000820160019054906101000a900473ffffffffffffffffffffffffffffffffffffffff1673ffffffffffffffffffffffffffffffffffffffff1673ffffffffffffffffffffffffffffffffffffffff168152505090506000600160008573ffffffffffffffffffffffffffffffffffffffff1673ffffffffffffffffffffffffffffffffffffffff1681526020019081526020016000206040518060400160405290816000820160009054906101000a900460ff1660ff1660ff1681526020016000820160019054906101000a900473ffffffffffffffffffffffffffffffffffffffff1673ffffffffffffffffffffffffffffffffffffffff1673ffffffffffffffffffffffffffffffffffffffff168152505090506000826000015160ff160361142357856040517f82aada0a00000000000000000000000000000000000000000000000000000000815260040161141a9190615d30565b60405180910390fd5b6000816000015160ff160361146f57836040517f82aada0a0000000000000000000000000000000000000000000000000000000081526004016114669190615d30565b60405180910390fd5b61147761569e565b6000611484888584611b49565b90506000611493878585611b49565b905061157e82828b73ffffffffffffffffffffffffffffffffffffffff1663313ce5676040518163ffffffff1660e01b8152600401602060405180830381865afa1580156114e5573d6000803e3d6000fd5b505050506040513d601f19601f82011682018060405250810190611509919061656b565b8a73ffffffffffffffffffffffffffffffffffffffff1663313ce5676040518163ffffffff1660e01b8152600401602060405180830381865afa158015611554573d6000803e3d6000fd5b505050506040513d601f19601f82011682018060405250810190611578919061656b565b8c613b16565b955050505050509392505050565b600960205281600052604060002081815481106115a857600080fd5b906000526020600020016000915091509054906101000a900473ffffffffffffffffffffffffffffffffffffffff1681565b60006115e461569e565b6115f2878787878786613b66565b91505095945050505050565b600080600160008573ffffffffffffffffffffffffffffffffffffffff1673ffffffffffffffffffffffffffffffffffffffff1681526020019081526020016000206040518060400160405290816000820160009054906101000a900460ff1660ff1660ff1681526020016000820160019054906101000a900473ffffffffffffffffffffffffffffffffffffffff1673ffffffffffffffffffffffffffffffffffffffff1673ffffffffffffffffffffffffffffffffffffffff168152505090506000600160008573ffffffffffffffffffffffffffffffffffffffff1673ffffffffffffffffffffffffffffffffffffffff1681526020019081526020016000206040518060400160405290816000820160009054906101000a900460ff1660ff1660ff1681526020016000820160019054906101000a900473ffffffffffffffffffffffffffffffffffffffff1673ffffffffffffffffffffffffffffffffffffffff1673ffffffffffffffffffffffffffffffffffffffff168152505090506000826000015160ff16036117cd57846040517f82aada0a0000000000000000000000000000000000000000000000000000000081526004016117c49190615d30565b60405180910390fd5b6000816000015160ff160361181957836040517f82aada0a0000000000000000000000000000000000000000000000000000000081526004016118109190615d30565b60405180910390fd5b61182161569e565b61189d868487858973ffffffffffffffffffffffffffffffffffffffff1663313ce5676040518163ffffffff1660e01b8152600401602060405180830381865afa158015611873573d6000803e3d6000fd5b505050506040513d601f19601f82011682018060405250810190611897919061656b565b86611af5565b935050505092915050565b60036020528060005260406000206000915090508060000160009054906101000a90046bffffffffffffffffffffffff169080600001600c9054906101000a900467ffffffffffffffff16908060000160149054906101000a900463ffffffff16908060000160189054906101000a900463ffffffff169080600001601c9054906101000a900463ffffffff16905085565b611942611e3b565b8060068190555050565b600061195661569e565b60006119668c8c8c8c8887613b66565b90506000611978898989898988613b66565b9050808261198691906166b5565b93505050509998505050505050505050565b6119a0611e3b565b600073ffffffffffffffffffffffffffffffffffffffff168173ffffffffffffffffffffffffffffffffffffffff1603611a0f576040517f08c379a0000000000000000000000000000000000000000000000000000000008152600401611a06906167c9565b60405180910390fd5b611a1881612944565b50565b611a23611e3b565b6000600360008673ffffffffffffffffffffffffffffffffffffffff1673ffffffffffffffffffffffffffffffffffffffff1681526020019081526020016000209050838160000160146101000a81548163ffffffff021916908363ffffffff160217905550828160000160186101000a81548163ffffffff021916908363ffffffff16021790555060008263ffffffff1614611ac05781611ac5565b620151805b81600001601c6101000a81548163ffffffff021916908363ffffffff1602179055505050505050565b6201518081565b600080611b03888885611b49565b90506000611b12878786611b49565b90506000611b3786600a611b26919061691c565b8385613fe69092919063ffffffff16565b90508093505050509695505050505050565b6000806008905060005b600860ff168160ff161015611c5457600073ffffffffffffffffffffffffffffffffffffffff16848260ff1660088110611b9057611b8f616598565b5b60200201516000015173ffffffffffffffffffffffffffffffffffffffff1603611bbc57809150611c54565b8573ffffffffffffffffffffffffffffffffffffffff16848260ff1660088110611be957611be8616598565b5b60200201516000015173ffffffffffffffffffffffffffffffffffffffff1603611c4357838160ff1660088110611c2357611c22616598565b5b6020020151602001516bffffffffffffffffffffffff1692505050611e34565b80611c4d90616967565b9050611b53565b5060006001856000015160ff1603611c7c57611c758686602001518661400e565b9050611d2f565b6002856000015160ff1603611ca157611c9a868660200151866142f7565b9050611d2e565b6003856000015160ff1603611cc657611cbf8686602001518661485e565b9050611d2d565b6004856000015160ff1603611ceb57611ce486866020015186615168565b9050611d2c565b84600001516040517f460c835b000000000000000000000000000000000000000000000000000000008152600401611d23919061669a565b60405180910390fd5b5b5b5b600860ff168260ff16108015611d5357506bffffffffffffffffffffffff80168111155b15611e2e5760008290505b600860ff168160ff161015611e2c57600073ffffffffffffffffffffffffffffffffffffffff16858260ff1660088110611d9b57611d9a616598565b5b60200201516000015173ffffffffffffffffffffffffffffffffffffffff1603611e1b5760405180604001604052808873ffffffffffffffffffffffffffffffffffffffff168152602001836bffffffffffffffffffffffff16815250858260ff1660088110611e0e57611e0d616598565b5b6020020181905250611e2c565b80611e2590616967565b9050611d5e565b505b80925050505b9392505050565b611e4361529c565b73ffffffffffffffffffffffffffffffffffffffff16611e61610e50565b73ffffffffffffffffffffffffffffffffffffffff1614611eb7576040517f08c379a0000000000000000000000000000000000000000000000000000000008152600401611eae906169dc565b60405180910390fd5b565b600860009054906101000a900473ffffffffffffffffffffffffffffffffffffffff1673ffffffffffffffffffffffffffffffffffffffff163373ffffffffffffffffffffffffffffffffffffffff1614611f40576040517f94336b1200000000000000000000000000000000000000000000000000000000815260040160405180910390fd5b600081806020019051810190611f569190616a11565b9050600060078281548110611f6e57611f6d616598565b5b9060005260206000200160009054906101000a900473ffffffffffffffffffffffffffffffffffffffff1690506000600360008373ffffffffffffffffffffffffffffffffffffffff1673ffffffffffffffffffffffffffffffffffffffff168152602001908152602001600020905080600001601c9054906101000a900463ffffffff1663ffffffff1681600001600c9054906101000a900467ffffffffffffffff1667ffffffffffffffff164261202791906166b5565b101561205f576040517f82a87b3100000000000000000000000000000000000000000000000000000000815260040160405180910390fd5b6000600160008473ffffffffffffffffffffffffffffffffffffffff1673ffffffffffffffffffffffffffffffffffffffff16815260200190815260200160002060000160019054906101000a900473ffffffffffffffffffffffffffffffffffffffff1673ffffffffffffffffffffffffffffffffffffffff1663bb7b8b806040518163ffffffff1660e01b8152600401602060405180830381865afa15801561210e573d6000803e3d6000fd5b505050506040513d601f19601f820116820180604052508101906121329190616a11565b905061214b60126008836152a49092919063ffffffff16565b90508160000160009054906101000a90046bffffffffffffffffffffffff166bffffffffffffffffffffffff168111156122275760006121de8360000160149054906101000a900463ffffffff1663ffffffff166305f5e1008560000160009054906101000a90046bffffffffffffffffffffffff166bffffffffffffffffffffffff16613fe69092919063ffffffff16565b90508082116121ed57816121ef565b805b8360000160006101000a8154816bffffffffffffffffffffffff02191690836bffffffffffffffffffffffff16021790555050612334565b8160000160009054906101000a90046bffffffffffffffffffffffff166bffffffffffffffffffffffff168110156123015760006122b88360000160189054906101000a900463ffffffff1663ffffffff166305f5e1008560000160009054906101000a90046bffffffffffffffffffffffff166bffffffffffffffffffffffff16613fe69092919063ffffffff16565b90508082106122c757816122c9565b805b8360000160006101000a8154816bffffffffffffffffffffffff02191690836bffffffffffffffffffffffff16021790555050612333565b6040517f6132447000000000000000000000000000000000000000000000000000000000815260040160405180910390fd5b5b4282600001600c6101000a81548167ffffffffffffffff021916908367ffffffffffffffff1602179055505050505050565b60006060600080848060200190518101906123819190616a3e565b915091506000811480612398575060078054905081115b156123a65760078054905090505b60008060008490505b838110156127ab576000600782815481106123cd576123cc616598565b5b9060005260206000200160009054906101000a900473ffffffffffffffffffffffffffffffffffffffff1690506000600360008373ffffffffffffffffffffffffffffffffffffffff1673ffffffffffffffffffffffffffffffffffffffff1681526020019081526020016000206040518060a00160405290816000820160009054906101000a90046bffffffffffffffffffffffff166bffffffffffffffffffffffff166bffffffffffffffffffffffff16815260200160008201600c9054906101000a900467ffffffffffffffff1667ffffffffffffffff1667ffffffffffffffff1681526020016000820160149054906101000a900463ffffffff1663ffffffff1663ffffffff1681526020016000820160189054906101000a900463ffffffff1663ffffffff1663ffffffff16815260200160008201601c9054906101000a900463ffffffff1663ffffffff1663ffffffff16815250509050806080015163ffffffff16816020015167ffffffffffffffff164261254f91906166b5565b101561255c575050612798565b6000600160008473ffffffffffffffffffffffffffffffffffffffff1673ffffffffffffffffffffffffffffffffffffffff16815260200190815260200160002060000160019054906101000a900473ffffffffffffffffffffffffffffffffffffffff1673ffffffffffffffffffffffffffffffffffffffff1663bb7b8b806040518163ffffffff1660e01b8152600401602060405180830381865afa15801561260b573d6000803e3d6000fd5b505050506040513d601f19601f8201168201806040525081019061262f9190616a11565b905061264860126008836152a49092919063ffffffff16565b9050600082600001516bffffffffffffffffffffffff168211156126f757600061269d846040015163ffffffff166305f5e10086600001516bffffffffffffffffffffffff16613fe69092919063ffffffff16565b9050600084600001516bffffffffffffffffffffffff16826126bf91906166b5565b9050600085600001516bffffffffffffffffffffffff16856126e191906166b5565b90506126ed8282615320565b9350505050612784565b600061272e846060015163ffffffff166305f5e10086600001516bffffffffffffffffffffffff16613fe69092919063ffffffff16565b905060008185600001516bffffffffffffffffffffffff1661275091906166b5565b905060008486600001516bffffffffffffffffffffffff1661277291906166b5565b905061277e8282615320565b93505050505b86811115612793578096508495505b505050505b80806127a3906165f6565b9150506123af565b50600654821061293b57600073ffffffffffffffffffffffffffffffffffffffff16600460009054906101000a900473ffffffffffffffffffffffffffffffffffffffff1673ffffffffffffffffffffffffffffffffffffffff16036128365760019550806040516020016128209190615ae3565b604051602081830303815290604052945061293a565b6000612872600384612848919061691c565b760a70c3c40a64e6c51999090b65f67d9240000000000000600554613fe69092919063ffffffff16565b90506000600460009054906101000a900473ffffffffffffffffffffffffffffffffffffffff1673ffffffffffffffffffffffffffffffffffffffff166350d25bcd6040518163ffffffff1660e01b8152600401602060405180830381865afa1580156128e3573d6000803e3d6000fd5b505050506040513d601f19601f820116820180604052508101906129079190616ab4565b90508181116129375760019750826040516020016129259190615ae3565b60405160208183030381529060405296505b50505b5b50505050915091565b60008060009054906101000a900473ffffffffffffffffffffffffffffffffffffffff169050816000806101000a81548173ffffffffffffffffffffffffffffffffffffffff021916908373ffffffffffffffffffffffffffffffffffffffff1602179055508173ffffffffffffffffffffffffffffffffffffffff168173ffffffffffffffffffffffffffffffffffffffff167f8be0079c531659141344cd1fd0a4f28419497f9722a3daafe3b4186f6b6457e060405160405180910390a35050565b600081806020019051810190612a1e9190616c09565b905060008373ffffffffffffffffffffffffffffffffffffffff1663245a7bfc6040518163ffffffff1660e01b8152600401602060405180830381865afa158015612a6d573d6000803e3d6000fd5b505050506040513d601f19601f82011682018060405250810190612a919190616c4b565b905060008173ffffffffffffffffffffffffffffffffffffffff166322adbc786040518163ffffffff1660e01b8152600401602060405180830381865afa158015612ae0573d6000803e3d6000fd5b505050506040513d601f19601f82011682018060405250810190612b049190616cb1565b77ffffffffffffffffffffffffffffffffffffffffffffffff16905060008273ffffffffffffffffffffffffffffffffffffffff166370da2f676040518163ffffffff1660e01b8152600401602060405180830381865afa158015612b6d573d6000803e3d6000fd5b505050506040513d601f19601f82011682018060405250810190612b919190616cb1565b77ffffffffffffffffffffffffffffffffffffffffffffffff1690506000670de0b6b3a7640000670f43fc2c04ee000084612bcc9190616cde565b612bd69190616d67565b90506000670de0b6b3a7640000670c7d713b49da000084612bf79190616cde565b612c019190616d67565b90506000866020015169ffffffffffffffffffff1603612c935769ffffffffffffffffffff8016821115612c6a576040517f08c379a0000000000000000000000000000000000000000000000000000000008152600401612c6190616de4565b60405180910390fd5b81866020019069ffffffffffffffffffff16908169ffffffffffffffffffff1681525050612cef565b81866020015169ffffffffffffffffffff161015612cee578560200151826040517ff3658d1d000000000000000000000000000000000000000000000000000000008152600401612ce5929190616e35565b60405180910390fd5b5b6000866000015171ffffffffffffffffffffffffffffffffffff1603612d7c5771ffffffffffffffffffffffffffffffffffff80168111612d305780612d44565b71ffffffffffffffffffffffffffffffffffff5b866000019071ffffffffffffffffffffffffffffffffffff16908171ffffffffffffffffffffffffffffffffffff1681525050612de0565b80866000015171ffffffffffffffffffffffffffffffffffff161115612ddf578560000151816040517f2428a719000000000000000000000000000000000000000000000000000000008152600401612dd6929190616e8f565b60405180910390fd5b5b856000015171ffffffffffffffffffffffffffffffffffff16866020015169ffffffffffffffffffff1610612e5657856020015186600001516040517f27e460aa000000000000000000000000000000000000000000000000000000008152600401612e4d929190616eb8565b60405180910390fd5b6000866040015162ffffff1603612e705762015180612e76565b85604001515b866040019062ffffff16908162ffffff168152505085600260008b73ffffffffffffffffffffffffffffffffffffffff1673ffffffffffffffffffffffffffffffffffffffff16815260200190815260200160002060008201518160000160006101000a81548171ffffffffffffffffffffffffffffffffffff021916908371ffffffffffffffffffffffffffffffffffff16021790555060208201518160000160126101000a81548169ffffffffffffffffffff021916908369ffffffffffffffffffff160217905550604082015181600001601c6101000a81548162ffffff021916908362ffffff160217905550606082015181600001601f6101000a81548160ff021916908315150217905550905050505050505050505050565b600082905060005b60011561302f578173ffffffffffffffffffffffffffffffffffffffff1663c6610657826040518263ffffffff1660e01b8152600401612fdc9190616f12565b602060405180830381865afa92505050801561301657506040513d601f19601f820116820180604052508101906130139190616c4b565b60015b1561302f5750808061302790616967565b915050612f9c565b60008160ff1667ffffffffffffffff81111561304e5761304d6157db565b5b60405190808252806020026020018201604052801561307c5781602001602082028036833780820191505090505b50905060005b8260ff16811015613167578373ffffffffffffffffffffffffffffffffffffffff1663c6610657826040518263ffffffff1660e01b81526004016130c69190615ae3565b602060405180830381865afa1580156130e3573d6000803e3d6000fd5b505050506040513d601f19601f820116820180604052508101906131079190616c4b565b82828151811061311a57613119616598565b5b602002602001019073ffffffffffffffffffffffffffffffffffffffff16908173ffffffffffffffffffffffffffffffffffffffff1681525050808061315f906165f6565b915050613082565b5080600960008873ffffffffffffffffffffffffffffffffffffffff1673ffffffffffffffffffffffffffffffffffffffff16815260200190815260200160002090805190602001906131bb9291906156cc565b506007869080600181540180825580915050600190039060005260206000200160009091909190916101000a81548173ffffffffffffffffffffffffffffffffffffffff021916908373ffffffffffffffffffffffffffffffffffffffff1602179055506000848060200190518101906132359190617026565b9050600061326e826040015163ffffffff166305f5e10084600001516bffffffffffffffffffffffff16613fe69092919063ffffffff16565b905061328760086012836152a49092919063ffffffff16565b905060006132c0836060015163ffffffff166305f5e10085600001516bffffffffffffffffffffffff16613fe69092919063ffffffff16565b90506132d960086012836152a49092919063ffffffff16565b905061335481838873ffffffffffffffffffffffffffffffffffffffff1663bb7b8b806040518163ffffffff1660e01b8152600401602060405180830381865afa15801561332b573d6000803e3d6000fd5b505050506040513d601f19601f8201168201806040525081019061334f9190616a11565b615347565b6000836080015163ffffffff16036133825762015180836080019063ffffffff16908163ffffffff16815250505b42836020019067ffffffffffffffff16908167ffffffffffffffff168152505082600360008b73ffffffffffffffffffffffffffffffffffffffff1673ffffffffffffffffffffffffffffffffffffffff16815260200190815260200160002060008201518160000160006101000a8154816bffffffffffffffffffffffff02191690836bffffffffffffffffffffffff160217905550602082015181600001600c6101000a81548167ffffffffffffffff021916908367ffffffffffffffff16021790555060408201518160000160146101000a81548163ffffffff021916908363ffffffff16021790555060608201518160000160186101000a81548163ffffffff021916908363ffffffff160217905550608082015181600001601c6101000a81548163ffffffff021916908363ffffffff160217905550905050505050505050505050565b600082905060005b600115613566578173ffffffffffffffffffffffffffffffffffffffff1663c6610657826040518263ffffffff1660e01b81526004016135139190616f12565b602060405180830381865afa92505050801561354d57506040513d601f19601f8201168201806040525081019061354a9190616c4b565b60015b156135665750808061355e90616967565b9150506134d3565b60008160ff1667ffffffffffffffff811115613585576135846157db565b5b6040519080825280602002602001820160405280156135b35781602001602082028036833780820191505090505b50905060005b8260ff1681101561369e578373ffffffffffffffffffffffffffffffffffffffff1663c6610657826040518263ffffffff1660e01b81526004016135fd9190615ae3565b602060405180830381865afa15801561361a573d6000803e3d6000fd5b505050506040513d601f19601f8201168201806040525081019061363e9190616c4b565b82828151811061365157613650616598565b5b602002602001019073ffffffffffffffffffffffffffffffffffffffff16908173ffffffffffffffffffffffffffffffffffffffff16815250508080613696906165f6565b9150506135b9565b5080600960008873ffffffffffffffffffffffffffffffffffffffff1673ffffffffffffffffffffffffffffffffffffffff16815260200190815260200160002090805190602001906136f29291906156cc565b506007869080600181540180825580915050600190039060005260206000200160009091909190916101000a81548173ffffffffffffffffffffffffffffffffffffffff021916908373ffffffffffffffffffffffffffffffffffffffff16021790555060008480602001905181019061376c9190617026565b905060006137a5826040015163ffffffff166305f5e10084600001516bffffffffffffffffffffffff16613fe69092919063ffffffff16565b90506137be60086012836152a49092919063ffffffff16565b905060006137f7836060015163ffffffff166305f5e10085600001516bffffffffffffffffffffffff16613fe69092919063ffffffff16565b905061381060086012836152a49092919063ffffffff16565b905061388b81838873ffffffffffffffffffffffffffffffffffffffff1663bb7b8b806040518163ffffffff1660e01b8152600401602060405180830381865afa158015613862573d6000803e3d6000fd5b505050506040513d601f19601f820116820180604052508101906138869190616a11565b615347565b6000836080015163ffffffff16036138b95762015180836080019063ffffffff16908163ffffffff16815250505b42836020019067ffffffffffffffff16908167ffffffffffffffff168152505082600360008b73ffffffffffffffffffffffffffffffffffffffff1673ffffffffffffffffffffffffffffffffffffffff16815260200190815260200160002060008201518160000160006101000a8154816bffffffffffffffffffffffff02191690836bffffffffffffffffffffffff160217905550602082015181600001600c6101000a81548167ffffffffffffffff021916908367ffffffffffffffff16021790555060408201518160000160146101000a81548163ffffffff021916908363ffffffff16021790555060608201518160000160186101000a81548163ffffffff021916908363ffffffff160217905550608082015181600001601c6101000a81548163ffffffff021916908363ffffffff160217905550905050505050505050505050565b60008290508073ffffffffffffffffffffffffffffffffffffffff1663b16a19de6040518163ffffffff1660e01b8152600401602060405180830381865afa158015613a52573d6000803e3d6000fd5b505050506040513d601f19601f82011682018060405250810190613a769190616c4b565b600a60008673ffffffffffffffffffffffffffffffffffffffff1673ffffffffffffffffffffffffffffffffffffffff16815260200190815260200160002060006101000a81548173ffffffffffffffffffffffffffffffffffffffff021916908373ffffffffffffffffffffffffffffffffffffffff16021790555050505050565b6000613b0e8383670de0b6b3a7640000613fe6565b905092915050565b6000613b5b83600a613b28919061691c565b87613b339190616cde565b8686600a613b41919061691c565b613b4b9190616cde565b84613fe69092919063ffffffff16565b905095945050505050565b6000848490508787905014613ba7576040517f321b0ecc00000000000000000000000000000000000000000000000000000000815260040160405180910390fd5b600080600160008673ffffffffffffffffffffffffffffffffffffffff1673ffffffffffffffffffffffffffffffffffffffff1681526020019081526020016000206040518060400160405290816000820160009054906101000a900460ff1660ff1660ff1681526020016000820160019054906101000a900473ffffffffffffffffffffffffffffffffffffffff1673ffffffffffffffffffffffffffffffffffffffff1673ffffffffffffffffffffffffffffffffffffffff168152505090506000816000015160ff1603613cb557846040517f82aada0a000000000000000000000000000000000000000000000000000000008152600401613cac9190615d30565b60405180910390fd5b613cc0858286611b49565b9150506000808573ffffffffffffffffffffffffffffffffffffffff1663313ce5676040518163ffffffff1660e01b8152600401602060405180830381865afa158015613d11573d6000803e3d6000fd5b505050506040513d601f19601f82011682018060405250810190613d35919061656b565b905060005b8a8a90508160ff161015613fd557600089898360ff16818110613d6057613d5f616598565b5b905060200201350315613fc25760008b8b8360ff16818110613d8557613d84616598565b5b9050602002016020810190613d9a9190615afe565b90508773ffffffffffffffffffffffffffffffffffffffff168173ffffffffffffffffffffffffffffffffffffffff1603613dfe5789898360ff16818110613de557613de4616598565b5b9050602002013584613df791906166e9565b9350613fc0565b600080600160008473ffffffffffffffffffffffffffffffffffffffff1673ffffffffffffffffffffffffffffffffffffffff1681526020019081526020016000206040518060400160405290816000820160009054906101000a900460ff1660ff1660ff1681526020016000820160019054906101000a900473ffffffffffffffffffffffffffffffffffffffff1673ffffffffffffffffffffffffffffffffffffffff1673ffffffffffffffffffffffffffffffffffffffff168152505090506000816000015160ff1603613f0c57826040517f82aada0a000000000000000000000000000000000000000000000000000000008152600401613f039190615d30565b60405180910390fd5b613f1783828b611b49565b915050613fb181878473ffffffffffffffffffffffffffffffffffffffff1663313ce5676040518163ffffffff1660e01b8152600401602060405180830381865afa158015613f6a573d6000803e3d6000fd5b505050506040513d601f19601f82011682018060405250810190613f8e919061656b565b878f8f8960ff16818110613fa557613fa4616598565b5b90506020020135613b16565b85613fbc91906166e9565b9450505b505b8080613fcd90616967565b915050613d3a565b508193505050509695505050505050565b6000828402905082848204148415178215151661400257600080fd5b81810490509392505050565b600080600260008673ffffffffffffffffffffffffffffffffffffffff1673ffffffffffffffffffffffffffffffffffffffff1681526020019081526020016000206040518060800160405290816000820160009054906101000a900471ffffffffffffffffffffffffffffffffffff1671ffffffffffffffffffffffffffffffffffff1671ffffffffffffffffffffffffffffffffffff1681526020016000820160129054906101000a900469ffffffffffffffffffff1669ffffffffffffffffffff1669ffffffffffffffffffff16815260200160008201601c9054906101000a900462ffffff1662ffffff1662ffffff16815260200160008201601f9054906101000a900460ff161515151581525050905060008490506000808273ffffffffffffffffffffffffffffffffffffffff1663feaf968c6040518163ffffffff1660e01b815260040160a060405180830381865afa158015614176573d6000803e3d6000fd5b505050506040513d601f19601f8201168201806040525081019061419a9190617053565b5093505092505060006141ac836153da565b90506141d48982848860000151896020015169ffffffffffffffffffff168a60400151615427565b8460600151156142e85760006142cf73c02aaa39b223fe8d0a0e5c4f27ead9083c756cc26001600073c02aaa39b223fe8d0a0e5c4f27ead9083c756cc273ffffffffffffffffffffffffffffffffffffffff1673ffffffffffffffffffffffffffffffffffffffff1681526020019081526020016000206040518060400160405290816000820160009054906101000a900460ff1660ff1660ff1681526020016000820160019054906101000a900473ffffffffffffffffffffffffffffffffffffffff1673ffffffffffffffffffffffffffffffffffffffff1673ffffffffffffffffffffffffffffffffffffffff16815250508a611b49565b90506142e48183613af990919063ffffffff16565b9150505b80955050505050509392505050565b6000808390506000600960008773ffffffffffffffffffffffffffffffffffffffff1673ffffffffffffffffffffffffffffffffffffffff1681526020019081526020016000208054806020026020016040519081016040528092919081815260200182805480156143be57602002820191906000526020600020905b8160009054906101000a900473ffffffffffffffffffffffffffffffffffffffff1673ffffffffffffffffffffffffffffffffffffffff1681526020019060010190808311614374575b5050505050905060007fffffffffffffffffffffffffffffffffffffffffffffffffffffffffffffffff905060005b825181101561450157600083828151811061440b5761440a616598565b5b6020026020010151905060006144de82600160008573ffffffffffffffffffffffffffffffffffffffff1673ffffffffffffffffffffffffffffffffffffffff1681526020019081526020016000206040518060400160405290816000820160009054906101000a900460ff1660ff1660ff1681526020016000820160019054906101000a900473ffffffffffffffffffffffffffffffffffffffff1673ffffffffffffffffffffffffffffffffffffffff1673ffffffffffffffffffffffffffffffffffffffff16815250508a611b49565b9050838110156144ec578093505b505080806144f9906165f6565b9150506143ed565b507fffffffffffffffffffffffffffffffffffffffffffffffffffffffffffffffff8103614564576040517f08c379a000000000000000000000000000000000000000000000000000000000815260040161455b9061711a565b60405180910390fd5b60008373ffffffffffffffffffffffffffffffffffffffff1663bb7b8b806040518163ffffffff1660e01b8152600401602060405180830381865afa1580156145b1573d6000803e3d6000fd5b505050506040513d601f19601f820116820180604052508101906145d59190616a11565b90506000600360008a73ffffffffffffffffffffffffffffffffffffffff1673ffffffffffffffffffffffffffffffffffffffff1681526020019081526020016000206040518060a00160405290816000820160009054906101000a90046bffffffffffffffffffffffff166bffffffffffffffffffffffff166bffffffffffffffffffffffff16815260200160008201600c9054906101000a900467ffffffffffffffff1667ffffffffffffffff1667ffffffffffffffff1681526020016000820160149054906101000a900463ffffffff1663ffffffff1663ffffffff1681526020016000820160189054906101000a900463ffffffff1663ffffffff1663ffffffff16815260200160008201601c9054906101000a900463ffffffff1663ffffffff1663ffffffff16815250509050600061473e826040015163ffffffff166305f5e10084600001516bffffffffffffffffffffffff16613fe69092919063ffffffff16565b905061475760086012836152a49092919063ffffffff16565b90506000614790836060015163ffffffff166305f5e10085600001516bffffffffffffffffffffffff16613fe69092919063ffffffff16565b90506147a960086012836152a49092919063ffffffff16565b90506147b6818386615347565b60008b73ffffffffffffffffffffffffffffffffffffffff1663313ce5676040518163ffffffff1660e01b8152600401602060405180830381865afa158015614803573d6000803e3d6000fd5b505050506040513d601f19601f82011682018060405250810190614827919061656b565b60ff16905061484d8582600a61483d919061713a565b88613fe69092919063ffffffff16565b985050505050505050509392505050565b60008083905060008173ffffffffffffffffffffffffffffffffffffffff1663bb7b8b806040518163ffffffff1660e01b8152600401602060405180830381865afa1580156148b1573d6000803e3d6000fd5b505050506040513d601f19601f820116820180604052508101906148d59190616a11565b90506000600360008873ffffffffffffffffffffffffffffffffffffffff1673ffffffffffffffffffffffffffffffffffffffff1681526020019081526020016000206040518060a00160405290816000820160009054906101000a90046bffffffffffffffffffffffff166bffffffffffffffffffffffff166bffffffffffffffffffffffff16815260200160008201600c9054906101000a900467ffffffffffffffff1667ffffffffffffffff1667ffffffffffffffff1681526020016000820160149054906101000a900463ffffffff1663ffffffff1663ffffffff1681526020016000820160189054906101000a900463ffffffff1663ffffffff1663ffffffff16815260200160008201601c9054906101000a900463ffffffff1663ffffffff1663ffffffff168152505090506000614a3e826040015163ffffffff166305f5e10084600001516bffffffffffffffffffffffff16613fe69092919063ffffffff16565b9050614a5760086012836152a49092919063ffffffff16565b90506000614a90836060015163ffffffff166305f5e10085600001516bffffffffffffffffffffffff16613fe69092919063ffffffff16565b9050614aa960086012836152a49092919063ffffffff16565b9050614ab6818386615347565b6000600960008b73ffffffffffffffffffffffffffffffffffffffff1673ffffffffffffffffffffffffffffffffffffffff168152602001908152602001600020805480602002602001604051908101604052809291908181526020018280548015614b7757602002820191906000526020600020905b8160009054906101000a900473ffffffffffffffffffffffffffffffffffffffff1673ffffffffffffffffffffffffffffffffffffffff1681526020019060010190808311614b2d575b50505050509050600081600081518110614b9457614b93616598565b5b602002602001015190506002825103614d0657614cf8614c7182600160008573ffffffffffffffffffffffffffffffffffffffff1673ffffffffffffffffffffffffffffffffffffffff1681526020019081526020016000206040518060400160405290816000820160009054906101000a900460ff1660ff1660ff1681526020016000820160019054906101000a900473ffffffffffffffffffffffffffffffffffffffff1673ffffffffffffffffffffffffffffffffffffffff1673ffffffffffffffffffffffffffffffffffffffff16815250508c611b49565b670de0b6b3a76400008973ffffffffffffffffffffffffffffffffffffffff166354f0f7d56040518163ffffffff1660e01b8152600401602060405180830381865afa158015614cc5573d6000803e3d6000fd5b505050506040513d601f19601f82011682018060405250810190614ce99190616a11565b613fe69092919063ffffffff16565b975050505050505050615161565b60038251036151265760008773ffffffffffffffffffffffffffffffffffffffff16636872765360006040518263ffffffff1660e01b8152600401614d4b91906171c0565b602060405180830381865afa158015614d68573d6000803e3d6000fd5b505050506040513d601f19601f82011682018060405250810190614d8c9190616a11565b905060008873ffffffffffffffffffffffffffffffffffffffff16636872765360016040518263ffffffff1660e01b8152600401614dca9190617216565b602060405180830381865afa158015614de7573d6000803e3d6000fd5b505050506040513d601f19601f82011682018060405250810190614e0b9190616a11565b90506000670de0b6b3a7640000614e2c8385614e279190616cde565b615541565b8a6003614e399190616cde565b614e439190616cde565b614e4d9190616d67565b90506000614ee2670de0b6b3a7640000651977420dc0008d73ffffffffffffffffffffffffffffffffffffffff1663b13739296040518163ffffffff1660e01b8152600401602060405180830381865afa158015614eaf573d6000803e3d6000fd5b505050506040513d601f19601f82011682018060405250810190614ed39190616a11565b613fe69092919063ffffffff16565b90506000614f74670de0b6b3a764000062083d608e73ffffffffffffffffffffffffffffffffffffffff1663f446c1d06040518163ffffffff1660e01b8152600401602060405180830381865afa158015614f41573d6000803e3d6000fd5b505050506040513d601f19601f82011682018060405250810190614f659190616a11565b613fe69092919063ffffffff16565b9050600081670de0b6b3a7640000600285614f8f919061691c565b614f999190616d67565b614fa39190616cde565b905060006e01ed09bead87c0378d8e64000000008211614fd2576e01ed09bead87c0378d8e6400000000614fd4565b815b90506150026603dd0a0301e800670de0b6b3a7640000614ff384615541565b613fe69092919063ffffffff16565b905061502181670de0b6b3a764000087613fe69092919063ffffffff16565b8561502c91906166b5565b9450505050506151156150fc85600160008873ffffffffffffffffffffffffffffffffffffffff1673ffffffffffffffffffffffffffffffffffffffff1681526020019081526020016000206040518060400160405290816000820160009054906101000a900460ff1660ff1660ff1681526020016000820160019054906101000a900473ffffffffffffffffffffffffffffffffffffffff1673ffffffffffffffffffffffffffffffffffffffff1673ffffffffffffffffffffffffffffffffffffffff16815250508f611b49565b670de0b6b3a764000083613fe69092919063ffffffff16565b9a5050505050505050505050615161565b6040517f08c379a00000000000000000000000000000000000000000000000000000000081526004016151589061727d565b60405180910390fd5b9392505050565b6000600a60008573ffffffffffffffffffffffffffffffffffffffff1673ffffffffffffffffffffffffffffffffffffffff16815260200190815260200160002060009054906101000a900473ffffffffffffffffffffffffffffffffffffffff16935061529384600160008773ffffffffffffffffffffffffffffffffffffffff1673ffffffffffffffffffffffffffffffffffffffff1681526020019081526020016000206040518060400160405290816000820160009054906101000a900460ff1660ff1660ff1681526020016000820160019054906101000a900473ffffffffffffffffffffffffffffffffffffffff1673ffffffffffffffffffffffffffffffffffffffff1673ffffffffffffffffffffffffffffffffffffffff168152505084611b49565b90509392505050565b600033905090565b60008160ff168360ff16036152bb57839050615319565b8160ff168360ff1610156152f35782826152d5919061729d565b600a6152e1919061691c565b846152ec9190616cde565b9050615319565b81836152ff919061729d565b600a61530b919061691c565b846153169190616d67565b90505b9392505050565b600061533f670de0b6b3a76400008484613fe69092919063ffffffff16565b905092915050565b8281101561538e5780836040517f3fc6130f00000000000000000000000000000000000000000000000000000000815260040161538592919061671d565b60405180910390fd5b818111156153d55780826040517f7714d0fa0000000000000000000000000000000000000000000000000000000081526004016153cc92919061671d565b60405180910390fd5b505050565b60008082121561541f576040517f08c379a00000000000000000000000000000000000000000000000000000000081526004016154169061731e565b60405180910390fd5b819050919050565b816affffffffffffffffffffff1685101561547d578585836040517f5edcbe8f00000000000000000000000000000000000000000000000000000000815260040161547493929190617386565b60405180910390fd5b8271ffffffffffffffffffffffffffffffffffff168511156154da578585846040517f644d80530000000000000000000000000000000000000000000000000000000081526004016154d1939291906173bd565b60405180910390fd5b600084426154e891906166b5565b90508162ffffff16811115615538578681836040517f19338c6a00000000000000000000000000000000000000000000000000000000815260040161552f93929190617425565b60405180910390fd5b50505050505050565b600080670de0b6b3a7640000836155589190616d67565b905060005b6101008160ff16101561565d576000808390506729a2241af62c000084670de0b6b3a764000086670de0b6b3a7640000888b6155999190616d67565b6155a39190616cde565b6155ad9190616d67565b6155b79190616cde565b6155c19190616d67565b671bc16d674ec800006155d491906166e9565b856155df9190616cde565b6155e99190616d67565b9350808411156156065780846155ff91906166b5565b9150615615565b838161561291906166b5565b91505b600182111580615637575083670de0b6b3a7640000836156359190616cde565b105b156156485783945050505050615699565b5050808061565590616967565b91505061555d565b506040517f08c379a0000000000000000000000000000000000000000000000000000000008152600401615690906174a8565b60405180910390fd5b919050565b6040518061010001604052806008905b6156b6615756565b8152602001906001900390816156ae5790505090565b828054828255906000526020600020908101928215615745579160200282015b828111156157445782518260006101000a81548173ffffffffffffffffffffffffffffffffffffffff021916908373ffffffffffffffffffffffffffffffffffffffff160217905550916020019190600101906156ec565b5b5090506157529190615794565b5090565b6040518060400160405280600073ffffffffffffffffffffffffffffffffffffffff16815260200160006bffffffffffffffffffffffff1681525090565b5b808211156157ad576000816000905550600101615795565b5090565b6000604051905090565b600080fd5b600080fd5b600080fd5b6000601f19601f8301169050919050565b7f4e487b7100000000000000000000000000000000000000000000000000000000600052604160045260246000fd5b615813826157ca565b810181811067ffffffffffffffff82111715615832576158316157db565b5b80604052505050565b60006158456157b1565b9050615851828261580a565b919050565b600067ffffffffffffffff821115615871576158706157db565b5b602082029050602081019050919050565b600080fd5b600073ffffffffffffffffffffffffffffffffffffffff82169050919050565b60006158b282615887565b9050919050565b60006158c4826158a7565b9050919050565b6158d4816158b9565b81146158df57600080fd5b50565b6000813590506158f1816158cb565b92915050565b600061590a61590584615856565b61583b565b9050808382526020820190506020840283018581111561592d5761592c615882565b5b835b81811015615956578061594288826158e2565b84526020840193505060208101905061592f565b5050509392505050565b600082601f830112615975576159746157c5565b5b81356159858482602086016158f7565b91505092915050565b600080604083850312156159a5576159a46157bb565b5b600083013567ffffffffffffffff8111156159c3576159c26157c0565b5b6159cf85828601615960565b92505060206159e0858286016158e2565b9150509250929050565b600081519050919050565b600082825260208201905092915050565b6000819050602082019050919050565b6000819050919050565b615a2981615a16565b82525050565b6000615a3b8383615a20565b60208301905092915050565b6000602082019050919050565b6000615a5f826159ea565b615a6981856159f5565b9350615a7483615a06565b8060005b83811015615aa5578151615a8c8882615a2f565b9750615a9783615a47565b925050600181019050615a78565b5085935050505092915050565b60006020820190508181036000830152615acc8184615a54565b905092915050565b615add81615a16565b82525050565b6000602082019050615af86000830184615ad4565b92915050565b600060208284031215615b1457615b136157bb565b5b6000615b22848285016158e2565b91505092915050565b615b3481615a16565b8114615b3f57600080fd5b50565b600081359050615b5181615b2b565b92915050565b600060208284031215615b6d57615b6c6157bb565b5b6000615b7b84828501615b42565b91505092915050565b6000819050919050565b6000615ba9615ba4615b9f84615887565b615b84565b615887565b9050919050565b6000615bbb82615b8e565b9050919050565b6000615bcd82615bb0565b9050919050565b615bdd81615bc2565b82525050565b6000602082019050615bf86000830184615bd4565b92915050565b600080fd5b60008083601f840112615c1957615c186157c5565b5b8235905067ffffffffffffffff811115615c3657615c35615bfe565b5b602083019150836001820283011115615c5257615c51615882565b5b9250929050565b60008060208385031215615c7057615c6f6157bb565b5b600083013567ffffffffffffffff811115615c8e57615c8d6157c0565b5b615c9a85828601615c03565b92509250509250929050565b600060ff82169050919050565b615cbc81615ca6565b82525050565b615ccb816158a7565b82525050565b6000604082019050615ce66000830185615cb3565b615cf36020830184615cc2565b9392505050565b60008115159050919050565b615d0f81615cfa565b82525050565b6000602082019050615d2a6000830184615d06565b92915050565b6000602082019050615d456000830184615cc2565b92915050565b615d54816158a7565b8114615d5f57600080fd5b50565b600081359050615d7181615d4b565b92915050565b600060208284031215615d8d57615d8c6157bb565b5b6000615d9b84828501615d62565b91505092915050565b600062ffffff82169050919050565b615dbc81615da4565b82525050565b6000602082019050615dd76000830184615db3565b92915050565b600081519050919050565b600082825260208201905092915050565b60005b83811015615e17578082015181840152602081019050615dfc565b60008484015250505050565b6000615e2e82615ddd565b615e388185615de8565b9350615e48818560208601615df9565b615e51816157ca565b840191505092915050565b6000604082019050615e716000830185615d06565b8181036020830152615e838184615e23565b90509392505050565b600080fd5b615e9a81615ca6565b8114615ea557600080fd5b50565b600081359050615eb781615e91565b92915050565b600060408284031215615ed357615ed2615e8c565b5b615edd604061583b565b90506000615eed84828501615ea8565b6000830152506020615f0184828501615d62565b60208301525092915050565b600080fd5b600067ffffffffffffffff821115615f2d57615f2c6157db565b5b615f36826157ca565b9050602081019050919050565b82818337600083830152505050565b6000615f65615f6084615f12565b61583b565b905082815260208101848484011115615f8157615f80615f0d565b5b615f8c848285615f43565b509392505050565b600082601f830112615fa957615fa86157c5565b5b8135615fb9848260208601615f52565b91505092915050565b60008060008060a08587031215615fdc57615fdb6157bb565b5b6000615fea878288016158e2565b9450506020615ffb87828801615ebd565b935050606085013567ffffffffffffffff81111561601c5761601b6157c0565b5b61602887828801615f94565b925050608061603987828801615b42565b91505092959194509250565b600071ffffffffffffffffffffffffffffffffffff82169050919050565b61606c81616045565b82525050565b600069ffffffffffffffffffff82169050919050565b61609181616072565b82525050565b60006080820190506160ac6000830187616063565b6160b96020830186616088565b6160c66040830185615db3565b6160d36060830184615d06565b95945050505050565b6000806000606084860312156160f5576160f46157bb565b5b6000616103868287016158e2565b935050602061611486828701615b42565b9250506040616125868287016158e2565b9150509250925092565b60008060408385031215616146576161456157bb565b5b6000616154858286016158e2565b925050602061616585828601615b42565b9150509250929050565b60008083601f840112616185576161846157c5565b5b8235905067ffffffffffffffff8111156161a2576161a1615bfe565b5b6020830191508360208202830111156161be576161bd615882565b5b9250929050565b60008083601f8401126161db576161da6157c5565b5b8235905067ffffffffffffffff8111156161f8576161f7615bfe565b5b60208301915083602082028301111561621457616213615882565b5b9250929050565b600080600080600060608688031215616237576162366157bb565b5b600086013567ffffffffffffffff811115616255576162546157c0565b5b6162618882890161616f565b9550955050602086013567ffffffffffffffff811115616284576162836157c0565b5b616290888289016161c5565b935093505060406162a3888289016158e2565b9150509295509295909350565b600080604083850312156162c7576162c66157bb565b5b60006162d5858286016158e2565b92505060206162e6858286016158e2565b9150509250929050565b60006bffffffffffffffffffffffff82169050919050565b616311816162f0565b82525050565b600067ffffffffffffffff82169050919050565b61633481616317565b82525050565b600063ffffffff82169050919050565b6163538161633a565b82525050565b600060a08201905061636e6000830188616308565b61637b602083018761632b565b616388604083018661634a565b616395606083018561634a565b6163a2608083018461634a565b9695505050505050565b600080600080600080600080600060a08a8c0312156163ce576163cd6157bb565b5b60008a013567ffffffffffffffff8111156163ec576163eb6157c0565b5b6163f88c828d0161616f565b995099505060208a013567ffffffffffffffff81111561641b5761641a6157c0565b5b6164278c828d016161c5565b975097505060408a013567ffffffffffffffff81111561644a576164496157c0565b5b6164568c828d0161616f565b955095505060608a013567ffffffffffffffff811115616479576164786157c0565b5b6164858c828d016161c5565b935093505060806164988c828d016158e2565b9150509295985092959850929598565b6164b18161633a565b81146164bc57600080fd5b50565b6000813590506164ce816164a8565b92915050565b600080600080608085870312156164ee576164ed6157bb565b5b60006164fc87828801615d62565b945050602061650d878288016164bf565b935050604061651e878288016164bf565b925050606061652f878288016164bf565b91505092959194509250565b6000602082019050616550600083018461634a565b92915050565b60008151905061656581615e91565b92915050565b600060208284031215616581576165806157bb565b5b600061658f84828501616556565b91505092915050565b7f4e487b7100000000000000000000000000000000000000000000000000000000600052603260045260246000fd5b7f4e487b7100000000000000000000000000000000000000000000000000000000600052601160045260246000fd5b600061660182615a16565b91507fffffffffffffffffffffffffffffffffffffffffffffffffffffffffffffffff8203616633576166326165c7565b5b600182019050919050565b60008060408385031215616655576166546157bb565b5b600061666385828601615ea8565b925050602083013567ffffffffffffffff811115616684576166836157c0565b5b61669085828601615f94565b9150509250929050565b60006020820190506166af6000830184615cb3565b92915050565b60006166c082615a16565b91506166cb83615a16565b92508282039050818111156166e3576166e26165c7565b5b92915050565b60006166f482615a16565b91506166ff83615a16565b9250828201905080821115616717576167166165c7565b5b92915050565b60006040820190506167326000830185615ad4565b61673f6020830184615ad4565b9392505050565b600082825260208201905092915050565b7f4f776e61626c653a206e6577206f776e657220697320746865207a65726f206160008201527f6464726573730000000000000000000000000000000000000000000000000000602082015250565b60006167b3602683616746565b91506167be82616757565b604082019050919050565b600060208201905081810360008301526167e2816167a6565b9050919050565b60008160011c9050919050565b6000808291508390505b60018511156168405780860481111561681c5761681b6165c7565b5b600185161561682b5780820291505b8081029050616839856167e9565b9450616800565b94509492505050565b6000826168595760019050616915565b816168675760009050616915565b816001811461687d5760028114616887576168b6565b6001915050616915565b60ff841115616899576168986165c7565b5b8360020a9150848211156168b0576168af6165c7565b5b50616915565b5060208310610133831016604e8410600b84101617156168eb5782820a9050838111156168e6576168e56165c7565b5b616915565b6168f884848460016167f6565b9250905081840481111561690f5761690e6165c7565b5b81810290505b9392505050565b600061692782615a16565b915061693283615ca6565b925061695f7fffffffffffffffffffffffffffffffffffffffffffffffffffffffffffffffff8484616849565b905092915050565b600061697282615ca6565b915060ff8203616985576169846165c7565b5b600182019050919050565b7f4f776e61626c653a2063616c6c6572206973206e6f7420746865206f776e6572600082015250565b60006169c6602083616746565b91506169d182616990565b602082019050919050565b600060208201905081810360008301526169f5816169b9565b9050919050565b600081519050616a0b81615b2b565b92915050565b600060208284031215616a2757616a266157bb565b5b6000616a35848285016169fc565b91505092915050565b60008060408385031215616a5557616a546157bb565b5b6000616a63858286016169fc565b9250506020616a74858286016169fc565b9150509250929050565b6000819050919050565b616a9181616a7e565b8114616a9c57600080fd5b50565b600081519050616aae81616a88565b92915050565b600060208284031215616aca57616ac96157bb565b5b6000616ad884828501616a9f565b91505092915050565b616aea81616045565b8114616af557600080fd5b50565b600081519050616b0781616ae1565b92915050565b616b1681616072565b8114616b2157600080fd5b50565b600081519050616b3381616b0d565b92915050565b616b4281615da4565b8114616b4d57600080fd5b50565b600081519050616b5f81616b39565b92915050565b616b6e81615cfa565b8114616b7957600080fd5b50565b600081519050616b8b81616b65565b92915050565b600060808284031215616ba757616ba6615e8c565b5b616bb1608061583b565b90506000616bc184828501616af8565b6000830152506020616bd584828501616b24565b6020830152506040616be984828501616b50565b6040830152506060616bfd84828501616b7c565b60608301525092915050565b600060808284031215616c1f57616c1e6157bb565b5b6000616c2d84828501616b91565b91505092915050565b600081519050616c4581615d4b565b92915050565b600060208284031215616c6157616c606157bb565b5b6000616c6f84828501616c36565b91505092915050565b60008160170b9050919050565b616c8e81616c78565b8114616c9957600080fd5b50565b600081519050616cab81616c85565b92915050565b600060208284031215616cc757616cc66157bb565b5b6000616cd584828501616c9c565b91505092915050565b6000616ce982615a16565b9150616cf483615a16565b9250817fffffffffffffffffffffffffffffffffffffffffffffffffffffffffffffffff0483118215151615616d2d57616d2c6165c7565b5b828202905092915050565b7f4e487b7100000000000000000000000000000000000000000000000000000000600052601260045260246000fd5b6000616d7282615a16565b9150616d7d83615a16565b925082616d8d57616d8c616d38565b5b828204905092915050565b7f4275666665726564204d696e204f766572666c6f770000000000000000000000600082015250565b6000616dce601583616746565b9150616dd982616d98565b602082019050919050565b60006020820190508181036000830152616dfd81616dc1565b9050919050565b6000616e1f616e1a616e1584616072565b615b84565b615a16565b9050919050565b616e2f81616e04565b82525050565b6000604082019050616e4a6000830185616e26565b616e576020830184615ad4565b9392505050565b6000616e79616e74616e6f84616045565b615b84565b615a16565b9050919050565b616e8981616e5e565b82525050565b6000604082019050616ea46000830185616e80565b616eb16020830184615ad4565b9392505050565b6000604082019050616ecd6000830185616e26565b616eda6020830184616e80565b9392505050565b6000616efc616ef7616ef284615ca6565b615b84565b615a16565b9050919050565b616f0c81616ee1565b82525050565b6000602082019050616f276000830184616f03565b92915050565b616f36816162f0565b8114616f4157600080fd5b50565b600081519050616f5381616f2d565b92915050565b616f6281616317565b8114616f6d57600080fd5b50565b600081519050616f7f81616f59565b92915050565b600081519050616f94816164a8565b92915050565b600060a08284031215616fb057616faf615e8c565b5b616fba60a061583b565b90506000616fca84828501616f44565b6000830152506020616fde84828501616f70565b6020830152506040616ff284828501616f85565b604083015250606061700684828501616f85565b606083015250608061701a84828501616f85565b60808301525092915050565b600060a0828403121561703c5761703b6157bb565b5b600061704a84828501616f9a565b91505092915050565b600080600080600060a0868803121561706f5761706e6157bb565b5b600061707d88828901616b24565b955050602061708e88828901616a9f565b945050604061709f888289016169fc565b93505060606170b0888289016169fc565b92505060806170c188828901616b24565b9150509295509295909350565b7f4d696e207072696365206e6f7420666f756e642e000000000000000000000000600082015250565b6000617104601483616746565b915061710f826170ce565b602082019050919050565b60006020820190508181036000830152617133816170f7565b9050919050565b600061714582615a16565b915061715083615a16565b925061717d7fffffffffffffffffffffffffffffffffffffffffffffffffffffffffffffffff8484616849565b905092915050565b6000819050919050565b60006171aa6171a56171a084617185565b615b84565b615a16565b9050919050565b6171ba8161718f565b82525050565b60006020820190506171d560008301846171b1565b92915050565b6000819050919050565b60006172006171fb6171f6846171db565b615b84565b615a16565b9050919050565b617210816171e5565b82525050565b600060208201905061722b6000830184617207565b92915050565b7f556e737570706f7274656420506f6f6c00000000000000000000000000000000600082015250565b6000617267601083616746565b915061727282617231565b602082019050919050565b600060208201905081810360008301526172968161725a565b9050919050565b60006172a882615ca6565b91506172b383615ca6565b9250828203905060ff8111156172cc576172cb6165c7565b5b92915050565b7f53616665436173743a2076616c7565206d75737420626520706f736974697665600082015250565b6000617308602083616746565b9150617313826172d2565b602082019050919050565b60006020820190508181036000830152617337816172fb565b9050919050565b60006affffffffffffffffffffff82169050919050565b600061737061736b6173668461733e565b615b84565b615a16565b9050919050565b61738081617355565b82525050565b600060608201905061739b6000830186615cc2565b6173a86020830185615ad4565b6173b56040830184617377565b949350505050565b60006060820190506173d26000830186615cc2565b6173df6020830185615ad4565b6173ec6040830184616e80565b949350505050565b600061740f61740a61740584615da4565b615b84565b615a16565b9050919050565b61741f816173f4565b82525050565b600060608201905061743a6000830186615cc2565b6174476020830185615ad4565b6174546040830184617416565b949350505050565b7f446964206e6f7420636f6e766572676500000000000000000000000000000000600082015250565b6000617492601083616746565b915061749d8261745c565b602082019050919050565b600060208201905081810360008301526174c181617485565b905091905056fea2646970667358221220f110f71666a6b3ea59dabc0e6410aba2c3ff1bac45a5bac4fcd39d5a53c0afb464736f6c63430008100033","linkReferences":{}},"methodIdentifiers":{"DEFAULT_HEART_BEAT()":"5f0c5e4a","DEFAULT_RATE_LIMIT()":"f76260a1","ETH_FAST_GAS_FEED()":"52171ec4","EXPECTED_ANSWER_DEVIATION()":"01a9be28","addAsset(address,(uint8,address),bytes,uint256)":"9a134466","automationRegistry()":"5dc228a0","checkUpkeep(bytes)":"6e04ff0d","curveAssets(uint256)":"568e0d1e","gasConstant()":"2cb0f8a2","getAaveDerivativeStorage(address)":"3151d269","getAssetSettings(address)":"4c7b0972","getChainlinkDerivativeStorage(address)":"9d19931e","getCurveDerivativeStorage(address,uint256)":"b0c75056","getExchangeRate(address,address)":"baaa61be","getExchangeRates(address[],address)":"01595997","getPriceInUSD(address)":"02266147","getValue(address,uint256,address)":"a8ea52c8","getValues(address[],uint256[],address)":"b333a175","getValuesDelta(address[],uint256[],address[],uint256[],address)":"eac6e716","getVirtualPriceBound(address)":"d2078c83","isSupported(address)":"4f129c53","minDelta()":"41e3c0ec","owner()":"8da5cb5b","performUpkeep(bytes)":"4585e33b","renounceOwnership()":"715018a6","setAutomationRegistry(address)":"5ff2d2aa","setGasConstant(uint256)":"11087622","setGasFeed(address)":"58a346dc","setMinDelta(uint256)":"d51cf154","transferOwnership(address)":"f2fde38b","updateVirtualPriceBound(address,uint32,uint32,uint32)":"f43bd114"},"id":28}